{
	"contracts/senior project.sol": {
		"MyContract": {
			"abi": [
				{
					"inputs": [
						{
							"internalType": "address payable",
							"name": "_wallet",
							"type": "address"
						},
						{
							"internalType": "uint256",
							"name": "numWeeks",
							"type": "uint256"
						}
					],
					"stateMutability": "nonpayable",
					"type": "constructor"
				},
				{
					"anonymous": false,
					"inputs": [
						{
							"indexed": false,
							"internalType": "address",
							"name": "sender",
							"type": "address"
						},
						{
							"indexed": false,
							"internalType": "uint256",
							"name": "amount",
							"type": "uint256"
						}
					],
					"name": "LogReceivedFunds",
					"type": "event"
				},
				{
					"anonymous": false,
					"inputs": [
						{
							"indexed": false,
							"internalType": "address",
							"name": "recipient",
							"type": "address"
						},
						{
							"indexed": false,
							"internalType": "uint256",
							"name": "amount",
							"type": "uint256"
						}
					],
					"name": "LogReturnedFunds",
					"type": "event"
				},
				{
					"inputs": [
						{
							"internalType": "address",
							"name": "",
							"type": "address"
						}
					],
					"name": "balances",
					"outputs": [
						{
							"internalType": "uint256",
							"name": "totalDono",
							"type": "uint256"
						},
						{
							"internalType": "uint256",
							"name": "returnedDono",
							"type": "uint256"
						},
						{
							"internalType": "uint256",
							"name": "returnable",
							"type": "uint256"
						},
						{
							"internalType": "uint256",
							"name": "donorListPointer",
							"type": "uint256"
						}
					],
					"stateMutability": "view",
					"type": "function"
				},
				{
					"inputs": [],
					"name": "donate",
					"outputs": [],
					"stateMutability": "payable",
					"type": "function"
				},
				{
					"inputs": [
						{
							"internalType": "uint256",
							"name": "",
							"type": "uint256"
						}
					],
					"name": "donorList",
					"outputs": [
						{
							"internalType": "address payable",
							"name": "",
							"type": "address"
						}
					],
					"stateMutability": "view",
					"type": "function"
				},
				{
					"inputs": [],
					"name": "sendFunds",
					"outputs": [],
					"stateMutability": "nonpayable",
					"type": "function"
				},
				{
					"inputs": [],
					"name": "singleRefund",
					"outputs": [],
					"stateMutability": "nonpayable",
					"type": "function"
				},
				{
					"inputs": [],
					"name": "timeExpired",
					"outputs": [],
					"stateMutability": "nonpayable",
					"type": "function"
				}
			],
			"devdoc": {
				"kind": "dev",
				"methods": {},
				"version": 1
			},
			"evm": {
				"assembly": "    /* \"contracts/senior project.sol\":62:2983  contract MyContract{... */\n  mstore(0x40, 0x80)\n    /* \"contracts/senior project.sol\":308:313  false */\n  0x00\n    /* \"contracts/senior project.sol\":292:313  bool approved = false */\n  0x04\n  exp(0x0100, 0x00)\n  dup2\n  sload\n  dup2\n  0xff\n  mul\n  not\n  and\n  swap1\n  dup4\n  iszero\n  iszero\n  mul\n  or\n  swap1\n  sstore\n  pop\n    /* \"contracts/senior project.sol\":322:479  constructor (address payable _wallet, uint numWeeks) {... */\n  callvalue\n  dup1\n  iszero\n  tag_1\n  jumpi\n  0x00\n  dup1\n  revert\ntag_1:\n  pop\n  mload(0x40)\n  sub(codesize, bytecodeSize)\n  dup1\n  bytecodeSize\n  dup4\n  codecopy\n  dup2\n  dup2\n  add\n  0x40\n  mstore\n  dup2\n  add\n  swap1\n  tag_2\n  swap2\n  swap1\n  tag_3\n  jump\t// in\ntag_2:\n    /* \"contracts/senior project.sol\":395:402  _wallet */\n  dup2\n    /* \"contracts/senior project.sol\":386:392  wallet */\n  0x00\n  dup1\n    /* \"contracts/senior project.sol\":386:402  wallet = _wallet */\n  0x0100\n  exp\n  dup2\n  sload\n  dup2\n  0xffffffffffffffffffffffffffffffffffffffff\n  mul\n  not\n  and\n  swap1\n  dup4\n  0xffffffffffffffffffffffffffffffffffffffff\n  and\n  mul\n  or\n  swap1\n  sstore\n  pop\n    /* \"contracts/senior project.sol\":426:441  block.timestamp */\n  timestamp\n    /* \"contracts/senior project.sol\":413:423  deployDate */\n  0x02\n    /* \"contracts/senior project.sol\":413:441  deployDate = block.timestamp */\n  dup2\n  swap1\n  sstore\n  pop\n    /* \"contracts/senior project.sol\":463:471  numWeeks */\n  dup1\n    /* \"contracts/senior project.sol\":452:460  deadline */\n  0x03\n    /* \"contracts/senior project.sol\":452:471  deadline = numWeeks */\n  dup2\n  swap1\n  sstore\n  pop\n    /* \"contracts/senior project.sol\":322:479  constructor (address payable _wallet, uint numWeeks) {... */\n  pop\n  pop\n    /* \"contracts/senior project.sol\":62:2983  contract MyContract{... */\n  jump(tag_6)\n    /* \"#utility.yul\":88:205   */\ntag_8:\n    /* \"#utility.yul\":197:198   */\n  0x00\n    /* \"#utility.yul\":194:195   */\n  dup1\n    /* \"#utility.yul\":187:199   */\n  revert\n    /* \"#utility.yul\":334:460   */\ntag_10:\n    /* \"#utility.yul\":371:378   */\n  0x00\n    /* \"#utility.yul\":411:453   */\n  0xffffffffffffffffffffffffffffffffffffffff\n    /* \"#utility.yul\":404:409   */\n  dup3\n    /* \"#utility.yul\":400:454   */\n  and\n    /* \"#utility.yul\":389:454   */\n  swap1\n  pop\n    /* \"#utility.yul\":334:460   */\n  swap2\n  swap1\n  pop\n  jump\t// out\n    /* \"#utility.yul\":466:570   */\ntag_11:\n    /* \"#utility.yul\":511:518   */\n  0x00\n    /* \"#utility.yul\":540:564   */\n  tag_23\n    /* \"#utility.yul\":558:563   */\n  dup3\n    /* \"#utility.yul\":540:564   */\n  tag_10\n  jump\t// in\ntag_23:\n    /* \"#utility.yul\":529:564   */\n  swap1\n  pop\n    /* \"#utility.yul\":466:570   */\n  swap2\n  swap1\n  pop\n  jump\t// out\n    /* \"#utility.yul\":576:714   */\ntag_12:\n    /* \"#utility.yul\":657:689   */\n  tag_25\n    /* \"#utility.yul\":683:688   */\n  dup2\n    /* \"#utility.yul\":657:689   */\n  tag_11\n  jump\t// in\ntag_25:\n    /* \"#utility.yul\":650:655   */\n  dup2\n    /* \"#utility.yul\":647:690   */\n  eq\n    /* \"#utility.yul\":637:708   */\n  tag_26\n  jumpi\n    /* \"#utility.yul\":704:705   */\n  0x00\n    /* \"#utility.yul\":701:702   */\n  dup1\n    /* \"#utility.yul\":694:706   */\n  revert\n    /* \"#utility.yul\":637:708   */\ntag_26:\n    /* \"#utility.yul\":576:714   */\n  pop\n  jump\t// out\n    /* \"#utility.yul\":720:879   */\ntag_13:\n    /* \"#utility.yul\":785:790   */\n  0x00\n    /* \"#utility.yul\":816:822   */\n  dup2\n    /* \"#utility.yul\":810:823   */\n  mload\n    /* \"#utility.yul\":801:823   */\n  swap1\n  pop\n    /* \"#utility.yul\":832:873   */\n  tag_28\n    /* \"#utility.yul\":867:872   */\n  dup2\n    /* \"#utility.yul\":832:873   */\n  tag_12\n  jump\t// in\ntag_28:\n    /* \"#utility.yul\":720:879   */\n  swap3\n  swap2\n  pop\n  pop\n  jump\t// out\n    /* \"#utility.yul\":885:962   */\ntag_14:\n    /* \"#utility.yul\":922:929   */\n  0x00\n    /* \"#utility.yul\":951:956   */\n  dup2\n    /* \"#utility.yul\":940:956   */\n  swap1\n  pop\n    /* \"#utility.yul\":885:962   */\n  swap2\n  swap1\n  pop\n  jump\t// out\n    /* \"#utility.yul\":968:1090   */\ntag_15:\n    /* \"#utility.yul\":1041:1065   */\n  tag_31\n    /* \"#utility.yul\":1059:1064   */\n  dup2\n    /* \"#utility.yul\":1041:1065   */\n  tag_14\n  jump\t// in\ntag_31:\n    /* \"#utility.yul\":1034:1039   */\n  dup2\n    /* \"#utility.yul\":1031:1066   */\n  eq\n    /* \"#utility.yul\":1021:1084   */\n  tag_32\n  jumpi\n    /* \"#utility.yul\":1080:1081   */\n  0x00\n    /* \"#utility.yul\":1077:1078   */\n  dup1\n    /* \"#utility.yul\":1070:1082   */\n  revert\n    /* \"#utility.yul\":1021:1084   */\ntag_32:\n    /* \"#utility.yul\":968:1090   */\n  pop\n  jump\t// out\n    /* \"#utility.yul\":1096:1239   */\ntag_16:\n    /* \"#utility.yul\":1153:1158   */\n  0x00\n    /* \"#utility.yul\":1184:1190   */\n  dup2\n    /* \"#utility.yul\":1178:1191   */\n  mload\n    /* \"#utility.yul\":1169:1191   */\n  swap1\n  pop\n    /* \"#utility.yul\":1200:1233   */\n  tag_34\n    /* \"#utility.yul\":1227:1232   */\n  dup2\n    /* \"#utility.yul\":1200:1233   */\n  tag_15\n  jump\t// in\ntag_34:\n    /* \"#utility.yul\":1096:1239   */\n  swap3\n  swap2\n  pop\n  pop\n  jump\t// out\n    /* \"#utility.yul\":1245:1768   */\ntag_3:\n    /* \"#utility.yul\":1332:1338   */\n  0x00\n    /* \"#utility.yul\":1340:1346   */\n  dup1\n    /* \"#utility.yul\":1389:1391   */\n  0x40\n    /* \"#utility.yul\":1377:1386   */\n  dup4\n    /* \"#utility.yul\":1368:1375   */\n  dup6\n    /* \"#utility.yul\":1364:1387   */\n  sub\n    /* \"#utility.yul\":1360:1392   */\n  slt\n    /* \"#utility.yul\":1357:1476   */\n  iszero\n  tag_36\n  jumpi\n    /* \"#utility.yul\":1395:1474   */\n  tag_37\n  tag_8\n  jump\t// in\ntag_37:\n    /* \"#utility.yul\":1357:1476   */\ntag_36:\n    /* \"#utility.yul\":1515:1516   */\n  0x00\n    /* \"#utility.yul\":1540:1612   */\n  tag_38\n    /* \"#utility.yul\":1604:1611   */\n  dup6\n    /* \"#utility.yul\":1595:1601   */\n  dup3\n    /* \"#utility.yul\":1584:1593   */\n  dup7\n    /* \"#utility.yul\":1580:1602   */\n  add\n    /* \"#utility.yul\":1540:1612   */\n  tag_13\n  jump\t// in\ntag_38:\n    /* \"#utility.yul\":1530:1612   */\n  swap3\n  pop\n    /* \"#utility.yul\":1486:1622   */\n  pop\n    /* \"#utility.yul\":1661:1663   */\n  0x20\n    /* \"#utility.yul\":1687:1751   */\n  tag_39\n    /* \"#utility.yul\":1743:1750   */\n  dup6\n    /* \"#utility.yul\":1734:1740   */\n  dup3\n    /* \"#utility.yul\":1723:1732   */\n  dup7\n    /* \"#utility.yul\":1719:1741   */\n  add\n    /* \"#utility.yul\":1687:1751   */\n  tag_16\n  jump\t// in\ntag_39:\n    /* \"#utility.yul\":1677:1751   */\n  swap2\n  pop\n    /* \"#utility.yul\":1632:1761   */\n  pop\n    /* \"#utility.yul\":1245:1768   */\n  swap3\n  pop\n  swap3\n  swap1\n  pop\n  jump\t// out\n    /* \"contracts/senior project.sol\":62:2983  contract MyContract{... */\ntag_6:\n  dataSize(sub_0)\n  dup1\n  dataOffset(sub_0)\n  0x00\n  codecopy\n  0x00\n  return\nstop\n\nsub_0: assembly {\n        /* \"contracts/senior project.sol\":62:2983  contract MyContract{... */\n      mstore(0x40, 0x80)\n      jumpi(tag_1, lt(calldatasize, 0x04))\n      shr(0xe0, calldataload(0x00))\n      dup1\n      0x1c829ded\n      eq\n      tag_2\n      jumpi\n      dup1\n      0x27e235e3\n      eq\n      tag_3\n      jumpi\n      dup1\n      0x5eed3dcb\n      eq\n      tag_4\n      jumpi\n      dup1\n      0x8bf963b6\n      eq\n      tag_5\n      jumpi\n      dup1\n      0x8d68cf59\n      eq\n      tag_6\n      jumpi\n      dup1\n      0xed88c68e\n      eq\n      tag_7\n      jumpi\n    tag_1:\n      0x00\n      dup1\n      revert\n        /* \"contracts/senior project.sol\":2519:2976  function timeExpired() public {... */\n    tag_2:\n      callvalue\n      dup1\n      iszero\n      tag_8\n      jumpi\n      0x00\n      dup1\n      revert\n    tag_8:\n      pop\n      tag_9\n      tag_10\n      jump\t// in\n    tag_9:\n      stop\n        /* \"contracts/senior project.sol\":642:683  mapping(address => donor) public balances */\n    tag_3:\n      callvalue\n      dup1\n      iszero\n      tag_11\n      jumpi\n      0x00\n      dup1\n      revert\n    tag_11:\n      pop\n      tag_12\n      0x04\n      dup1\n      calldatasize\n      sub\n      dup2\n      add\n      swap1\n      tag_13\n      swap2\n      swap1\n      tag_14\n      jump\t// in\n    tag_13:\n      tag_15\n      jump\t// in\n    tag_12:\n      mload(0x40)\n      tag_16\n      swap5\n      swap4\n      swap3\n      swap2\n      swap1\n      tag_17\n      jump\t// in\n    tag_16:\n      mload(0x40)\n      dup1\n      swap2\n      sub\n      swap1\n      return\n        /* \"contracts/senior project.sol\":690:724  address payable[] public donorList */\n    tag_4:\n      callvalue\n      dup1\n      iszero\n      tag_18\n      jumpi\n      0x00\n      dup1\n      revert\n    tag_18:\n      pop\n      tag_19\n      0x04\n      dup1\n      calldatasize\n      sub\n      dup2\n      add\n      swap1\n      tag_20\n      swap2\n      swap1\n      tag_21\n      jump\t// in\n    tag_20:\n      tag_22\n      jump\t// in\n    tag_19:\n      mload(0x40)\n      tag_23\n      swap2\n      swap1\n      tag_24\n      jump\t// in\n    tag_23:\n      mload(0x40)\n      dup1\n      swap2\n      sub\n      swap1\n      return\n        /* \"contracts/senior project.sol\":1526:1730  function singleRefund () public{... */\n    tag_5:\n      callvalue\n      dup1\n      iszero\n      tag_25\n      jumpi\n      0x00\n      dup1\n      revert\n    tag_25:\n      pop\n      tag_26\n      tag_27\n      jump\t// in\n    tag_26:\n      stop\n        /* \"contracts/senior project.sol\":1377:1518  function sendFunds () public{... */\n    tag_6:\n      callvalue\n      dup1\n      iszero\n      tag_28\n      jumpi\n      0x00\n      dup1\n      revert\n    tag_28:\n      pop\n      tag_29\n      tag_30\n      jump\t// in\n    tag_29:\n      stop\n        /* \"contracts/senior project.sol\":994:1305  function donate() public payable{... */\n    tag_7:\n      tag_31\n      tag_32\n      jump\t// in\n    tag_31:\n      stop\n        /* \"contracts/senior project.sol\":2519:2976  function timeExpired() public {... */\n    tag_10:\n        /* \"contracts/senior project.sol\":2685:2692  1 weeks */\n      0x093a80\n        /* \"contracts/senior project.sol\":2674:2682  deadline */\n      sload(0x03)\n        /* \"contracts/senior project.sol\":2674:2692  deadline * 1 weeks */\n      tag_34\n      swap2\n      swap1\n      tag_35\n      jump\t// in\n    tag_34:\n        /* \"contracts/senior project.sol\":2660:2670  deployDate */\n      sload(0x02)\n        /* \"contracts/senior project.sol\":2660:2693  deployDate + (deadline * 1 weeks) */\n      tag_36\n      swap2\n      swap1\n      tag_37\n      jump\t// in\n    tag_36:\n        /* \"contracts/senior project.sol\":2640:2655  block.timestamp */\n      timestamp\n        /* \"contracts/senior project.sol\":2640:2694  block.timestamp >= (deployDate + (deadline * 1 weeks)) */\n      lt\n      iszero\n        /* \"contracts/senior project.sol\":2640:2723  block.timestamp >= (deployDate + (deadline * 1 weeks))... */\n      dup1\n      iszero\n      tag_38\n      jumpi\n      pop\n        /* \"contracts/senior project.sol\":2719:2723  true */\n      0x01\n        /* \"contracts/senior project.sol\":2707:2723  approved == true */\n      iszero\n      iszero\n        /* \"contracts/senior project.sol\":2707:2715  approved */\n      0x04\n      0x00\n      swap1\n      sload\n      swap1\n      0x0100\n      exp\n      swap1\n      div\n      0xff\n      and\n        /* \"contracts/senior project.sol\":2707:2723  approved == true */\n      iszero\n      iszero\n      eq\n        /* \"contracts/senior project.sol\":2640:2723  block.timestamp >= (deployDate + (deadline * 1 weeks))... */\n    tag_38:\n        /* \"contracts/senior project.sol\":2637:2971  if(block.timestamp >= (deployDate + (deadline * 1 weeks))... */\n      iszero\n      tag_39\n      jumpi\n        /* \"contracts/senior project.sol\":2752:2758  wallet */\n      0x00\n      dup1\n      sload\n      swap1\n      0x0100\n      exp\n      swap1\n      div\n      0xffffffffffffffffffffffffffffffffffffffff\n      and\n        /* \"contracts/senior project.sol\":2739:2759  selfdestruct(wallet) */\n      0xffffffffffffffffffffffffffffffffffffffff\n      and\n      selfdestruct\n        /* \"contracts/senior project.sol\":2637:2971  if(block.timestamp >= (deployDate + (deadline * 1 weeks))... */\n    tag_39:\n        /* \"contracts/senior project.sol\":2895:2902  1 weeks */\n      0x093a80\n        /* \"contracts/senior project.sol\":2884:2892  deadline */\n      sload(0x03)\n        /* \"contracts/senior project.sol\":2884:2902  deadline * 1 weeks */\n      tag_41\n      swap2\n      swap1\n      tag_35\n      jump\t// in\n    tag_41:\n        /* \"contracts/senior project.sol\":2870:2880  deployDate */\n      sload(0x02)\n        /* \"contracts/senior project.sol\":2870:2903  deployDate + (deadline * 1 weeks) */\n      tag_42\n      swap2\n      swap1\n      tag_37\n      jump\t// in\n    tag_42:\n        /* \"contracts/senior project.sol\":2850:2865  block.timestamp */\n      timestamp\n        /* \"contracts/senior project.sol\":2850:2904  block.timestamp >= (deployDate + (deadline * 1 weeks)) */\n      lt\n      iszero\n        /* \"contracts/senior project.sol\":2850:2934  block.timestamp >= (deployDate + (deadline * 1 weeks))... */\n      dup1\n      iszero\n      tag_43\n      jumpi\n      pop\n        /* \"contracts/senior project.sol\":2929:2934  false */\n      0x00\n        /* \"contracts/senior project.sol\":2917:2934  approved == false */\n      iszero\n      iszero\n        /* \"contracts/senior project.sol\":2917:2925  approved */\n      0x04\n      0x00\n      swap1\n      sload\n      swap1\n      0x0100\n      exp\n      swap1\n      div\n      0xff\n      and\n        /* \"contracts/senior project.sol\":2917:2934  approved == false */\n      iszero\n      iszero\n      eq\n        /* \"contracts/senior project.sol\":2850:2934  block.timestamp >= (deployDate + (deadline * 1 weeks))... */\n    tag_43:\n        /* \"contracts/senior project.sol\":2846:2971  if (block.timestamp >= (deployDate + (deadline * 1 weeks))... */\n      iszero\n      tag_44\n      jumpi\n        /* \"contracts/senior project.sol\":2950:2963  returnFunds() */\n      tag_45\n        /* \"contracts/senior project.sol\":2950:2961  returnFunds */\n      tag_46\n        /* \"contracts/senior project.sol\":2950:2963  returnFunds() */\n      jump\t// in\n    tag_45:\n        /* \"contracts/senior project.sol\":2846:2971  if (block.timestamp >= (deployDate + (deadline * 1 weeks))... */\n    tag_44:\n        /* \"contracts/senior project.sol\":2519:2976  function timeExpired() public {... */\n      jump\t// out\n        /* \"contracts/senior project.sol\":642:683  mapping(address => donor) public balances */\n    tag_15:\n      mstore(0x20, 0x05)\n      dup1\n      0x00\n      mstore\n      keccak256(0x00, 0x40)\n      0x00\n      swap2\n      pop\n      swap1\n      pop\n      dup1\n      0x00\n      add\n      sload\n      swap1\n      dup1\n      0x01\n      add\n      sload\n      swap1\n      dup1\n      0x02\n      add\n      sload\n      swap1\n      dup1\n      0x03\n      add\n      sload\n      swap1\n      pop\n      dup5\n      jump\t// out\n        /* \"contracts/senior project.sol\":690:724  address payable[] public donorList */\n    tag_22:\n      0x06\n      dup2\n      dup2\n      sload\n      dup2\n      lt\n      tag_47\n      jumpi\n      0x00\n      dup1\n      revert\n    tag_47:\n      swap1\n      0x00\n      mstore\n      keccak256(0x00, 0x20)\n      add\n      0x00\n      swap2\n      pop\n      sload\n      swap1\n      0x0100\n      exp\n      swap1\n      div\n      0xffffffffffffffffffffffffffffffffffffffff\n      and\n      dup2\n      jump\t// out\n        /* \"contracts/senior project.sol\":1526:1730  function singleRefund () public{... */\n    tag_27:\n        /* \"contracts/senior project.sol\":1568:1582  uint returnAmt */\n      0x00\n        /* \"contracts/senior project.sol\":1585:1593  balances */\n      0x05\n        /* \"contracts/senior project.sol\":1585:1605  balances[msg.sender] */\n      0x00\n        /* \"contracts/senior project.sol\":1594:1604  msg.sender */\n      caller\n        /* \"contracts/senior project.sol\":1585:1605  balances[msg.sender] */\n      0xffffffffffffffffffffffffffffffffffffffff\n      and\n      0xffffffffffffffffffffffffffffffffffffffff\n      and\n      dup2\n      mstore\n      0x20\n      add\n      swap1\n      dup2\n      mstore\n      0x20\n      add\n      0x00\n      keccak256\n        /* \"contracts/senior project.sol\":1585:1616  balances[msg.sender].returnable */\n      0x02\n      add\n      sload\n        /* \"contracts/senior project.sol\":1568:1616  uint returnAmt = balances[msg.sender].returnable */\n      swap1\n      pop\n        /* \"contracts/senior project.sol\":1636:1646  msg.sender */\n      caller\n        /* \"contracts/senior project.sol\":1627:1656  payable (msg.sender).transfer */\n      0xffffffffffffffffffffffffffffffffffffffff\n      and\n        /* \"contracts/senior project.sol\":1627:1667  payable (msg.sender).transfer(returnAmt) */\n      0x08fc\n        /* \"contracts/senior project.sol\":1657:1666  returnAmt */\n      dup3\n        /* \"contracts/senior project.sol\":1627:1667  payable (msg.sender).transfer(returnAmt) */\n      swap1\n      dup2\n      iszero\n      mul\n      swap1\n      mload(0x40)\n      0x00\n      mload(0x40)\n      dup1\n      dup4\n      sub\n      dup2\n      dup6\n      dup9\n      dup9\n      call\n      swap4\n      pop\n      pop\n      pop\n      pop\n      iszero\n      dup1\n      iszero\n      tag_51\n      jumpi\n      returndatasize\n      0x00\n      dup1\n      returndatacopy\n      revert(0x00, returndatasize)\n    tag_51:\n      pop\n        /* \"contracts/senior project.sol\":1683:1722  LogReturnedFunds(msg.sender, returnAmt) */\n      0xe0e5873eb9d996d2ab087b071a9a50522121c02b43308c8728c06739f52b3f87\n        /* \"contracts/senior project.sol\":1700:1710  msg.sender */\n      caller\n        /* \"contracts/senior project.sol\":1712:1721  returnAmt */\n      dup3\n        /* \"contracts/senior project.sol\":1683:1722  LogReturnedFunds(msg.sender, returnAmt) */\n      mload(0x40)\n      tag_52\n      swap3\n      swap2\n      swap1\n      tag_53\n      jump\t// in\n    tag_52:\n      mload(0x40)\n      dup1\n      swap2\n      sub\n      swap1\n      log1\n        /* \"contracts/senior project.sol\":1557:1730  {... */\n      pop\n        /* \"contracts/senior project.sol\":1526:1730  function singleRefund () public{... */\n      jump\t// out\n        /* \"contracts/senior project.sol\":1377:1518  function sendFunds () public{... */\n    tag_30:\n        /* \"contracts/senior project.sol\":1416:1422  wallet */\n      0x00\n      dup1\n      sload\n      swap1\n      0x0100\n      exp\n      swap1\n      div\n      0xffffffffffffffffffffffffffffffffffffffff\n      and\n        /* \"contracts/senior project.sol\":1416:1431  wallet.transfer */\n      0xffffffffffffffffffffffffffffffffffffffff\n      and\n        /* \"contracts/senior project.sol\":1416:1463  wallet.transfer(balances[msg.sender].totalDono) */\n      0x08fc\n        /* \"contracts/senior project.sol\":1432:1440  balances */\n      0x05\n        /* \"contracts/senior project.sol\":1432:1452  balances[msg.sender] */\n      0x00\n        /* \"contracts/senior project.sol\":1441:1451  msg.sender */\n      caller\n        /* \"contracts/senior project.sol\":1432:1452  balances[msg.sender] */\n      0xffffffffffffffffffffffffffffffffffffffff\n      and\n      0xffffffffffffffffffffffffffffffffffffffff\n      and\n      dup2\n      mstore\n      0x20\n      add\n      swap1\n      dup2\n      mstore\n      0x20\n      add\n      0x00\n      keccak256\n        /* \"contracts/senior project.sol\":1432:1462  balances[msg.sender].totalDono */\n      0x00\n      add\n      sload\n        /* \"contracts/senior project.sol\":1416:1463  wallet.transfer(balances[msg.sender].totalDono) */\n      swap1\n      dup2\n      iszero\n      mul\n      swap1\n      mload(0x40)\n      0x00\n      mload(0x40)\n      dup1\n      dup4\n      sub\n      dup2\n      dup6\n      dup9\n      dup9\n      call\n      swap4\n      pop\n      pop\n      pop\n      pop\n      iszero\n      dup1\n      iszero\n      tag_56\n      jumpi\n      returndatasize\n      0x00\n      dup1\n      returndatacopy\n      revert(0x00, returndatasize)\n    tag_56:\n      pop\n        /* \"contracts/senior project.sol\":1509:1510  0 */\n      0x00\n        /* \"contracts/senior project.sol\":1475:1483  balances */\n      0x05\n        /* \"contracts/senior project.sol\":1475:1495  balances[msg.sender] */\n      0x00\n        /* \"contracts/senior project.sol\":1484:1494  msg.sender */\n      caller\n        /* \"contracts/senior project.sol\":1475:1495  balances[msg.sender] */\n      0xffffffffffffffffffffffffffffffffffffffff\n      and\n      0xffffffffffffffffffffffffffffffffffffffff\n      and\n      dup2\n      mstore\n      0x20\n      add\n      swap1\n      dup2\n      mstore\n      0x20\n      add\n      0x00\n      keccak256\n        /* \"contracts/senior project.sol\":1475:1506  balances[msg.sender].returnable */\n      0x02\n      add\n        /* \"contracts/senior project.sol\":1475:1510  balances[msg.sender].returnable = 0 */\n      dup2\n      swap1\n      sstore\n      pop\n        /* \"contracts/senior project.sol\":1377:1518  function sendFunds () public{... */\n      jump\t// out\n        /* \"contracts/senior project.sol\":994:1305  function donate() public payable{... */\n    tag_32:\n        /* \"contracts/senior project.sol\":1071:1080  msg.value */\n      callvalue\n        /* \"contracts/senior project.sol\":1037:1045  balances */\n      0x05\n        /* \"contracts/senior project.sol\":1037:1057  balances[msg.sender] */\n      0x00\n        /* \"contracts/senior project.sol\":1046:1056  msg.sender */\n      caller\n        /* \"contracts/senior project.sol\":1037:1057  balances[msg.sender] */\n      0xffffffffffffffffffffffffffffffffffffffff\n      and\n      0xffffffffffffffffffffffffffffffffffffffff\n      and\n      dup2\n      mstore\n      0x20\n      add\n      swap1\n      dup2\n      mstore\n      0x20\n      add\n      0x00\n      keccak256\n        /* \"contracts/senior project.sol\":1037:1067  balances[msg.sender].totalDono */\n      0x00\n      add\n      0x00\n        /* \"contracts/senior project.sol\":1037:1080  balances[msg.sender].totalDono += msg.value */\n      dup3\n      dup3\n      sload\n      tag_58\n      swap2\n      swap1\n      tag_37\n      jump\t// in\n    tag_58:\n      swap3\n      pop\n      pop\n      dup2\n      swap1\n      sstore\n      pop\n        /* \"contracts/senior project.sol\":1126:1135  msg.value */\n      callvalue\n        /* \"contracts/senior project.sol\":1091:1099  balances */\n      0x05\n        /* \"contracts/senior project.sol\":1091:1111  balances[msg.sender] */\n      0x00\n        /* \"contracts/senior project.sol\":1100:1110  msg.sender */\n      caller\n        /* \"contracts/senior project.sol\":1091:1111  balances[msg.sender] */\n      0xffffffffffffffffffffffffffffffffffffffff\n      and\n      0xffffffffffffffffffffffffffffffffffffffff\n      and\n      dup2\n      mstore\n      0x20\n      add\n      swap1\n      dup2\n      mstore\n      0x20\n      add\n      0x00\n      keccak256\n        /* \"contracts/senior project.sol\":1091:1122  balances[msg.sender].returnable */\n      0x02\n      add\n      0x00\n        /* \"contracts/senior project.sol\":1091:1135  balances[msg.sender].returnable += msg.value */\n      dup3\n      dup3\n      sload\n      tag_59\n      swap2\n      swap1\n      tag_37\n      jump\t// in\n    tag_59:\n      swap3\n      pop\n      pop\n      dup2\n      swap1\n      sstore\n      pop\n        /* \"contracts/senior project.sol\":1186:1194  Dcounter */\n      0x01\n      0x00\n        /* \"contracts/senior project.sol\":1186:1196  Dcounter++ */\n      dup2\n      sload\n      dup1\n      swap3\n      swap2\n      swap1\n      tag_60\n      swap1\n      tag_61\n      jump\t// in\n    tag_60:\n      swap2\n      swap1\n      pop\n      sstore\n        /* \"contracts/senior project.sol\":1146:1154  balances */\n      0x05\n        /* \"contracts/senior project.sol\":1146:1166  balances[msg.sender] */\n      0x00\n        /* \"contracts/senior project.sol\":1155:1165  msg.sender */\n      caller\n        /* \"contracts/senior project.sol\":1146:1166  balances[msg.sender] */\n      0xffffffffffffffffffffffffffffffffffffffff\n      and\n      0xffffffffffffffffffffffffffffffffffffffff\n      and\n      dup2\n      mstore\n      0x20\n      add\n      swap1\n      dup2\n      mstore\n      0x20\n      add\n      0x00\n      keccak256\n        /* \"contracts/senior project.sol\":1146:1183  balances[msg.sender].donorListPointer */\n      0x03\n      add\n        /* \"contracts/senior project.sol\":1146:1196  balances[msg.sender].donorListPointer = Dcounter++ */\n      dup2\n      swap1\n      sstore\n      pop\n        /* \"contracts/senior project.sol\":1207:1216  donorList */\n      0x06\n        /* \"contracts/senior project.sol\":1230:1240  msg.sender */\n      caller\n        /* \"contracts/senior project.sol\":1207:1242  donorList.push(payable(msg.sender)) */\n      swap1\n      dup1\n      0x01\n      dup2\n      sload\n      add\n      dup1\n      dup3\n      sstore\n      dup1\n      swap2\n      pop\n      pop\n      0x01\n      swap1\n      sub\n      swap1\n      0x00\n      mstore\n      keccak256(0x00, 0x20)\n      add\n      0x00\n      swap1\n      swap2\n      swap1\n      swap2\n      swap1\n      swap2\n      0x0100\n      exp\n      dup2\n      sload\n      dup2\n      0xffffffffffffffffffffffffffffffffffffffff\n      mul\n      not\n      and\n      swap1\n      dup4\n      0xffffffffffffffffffffffffffffffffffffffff\n      and\n      mul\n      or\n      swap1\n      sstore\n      pop\n        /* \"contracts/senior project.sol\":1258:1297  LogReceivedFunds(msg.sender, msg.value) */\n      0x81d2c188629cc4a1c694d285150cb5fa3dde3157a2684460d3ac7a1e331f6164\n        /* \"contracts/senior project.sol\":1275:1285  msg.sender */\n      caller\n        /* \"contracts/senior project.sol\":1287:1296  msg.value */\n      callvalue\n        /* \"contracts/senior project.sol\":1258:1297  LogReceivedFunds(msg.sender, msg.value) */\n      mload(0x40)\n      tag_63\n      swap3\n      swap2\n      swap1\n      tag_53\n      jump\t// in\n    tag_63:\n      mload(0x40)\n      dup1\n      swap2\n      sub\n      swap1\n      log1\n        /* \"contracts/senior project.sol\":994:1305  function donate() public payable{... */\n      jump\t// out\n        /* \"contracts/senior project.sol\":1802:2393  function returnFunds() private {... */\n    tag_46:\n        /* \"contracts/senior project.sol\":1848:1854  uint i */\n      0x00\n        /* \"contracts/senior project.sol\":1844:2382  for(uint i; i <= donorList.length-1; i++){... */\n    tag_65:\n        /* \"contracts/senior project.sol\":1878:1879  1 */\n      0x01\n        /* \"contracts/senior project.sol\":1861:1870  donorList */\n      0x06\n        /* \"contracts/senior project.sol\":1861:1877  donorList.length */\n      dup1\n      sload\n      swap1\n      pop\n        /* \"contracts/senior project.sol\":1861:1879  donorList.length-1 */\n      tag_68\n      swap2\n      swap1\n      tag_69\n      jump\t// in\n    tag_68:\n        /* \"contracts/senior project.sol\":1856:1857  i */\n      dup2\n        /* \"contracts/senior project.sol\":1856:1879  i <= donorList.length-1 */\n      gt\n        /* \"contracts/senior project.sol\":1844:2382  for(uint i; i <= donorList.length-1; i++){... */\n      tag_66\n      jumpi\n        /* \"contracts/senior project.sol\":1900:1914  uint returnAmt */\n      0x00\n        /* \"contracts/senior project.sol\":2043:2044  0 */\n      dup1\n        /* \"contracts/senior project.sol\":2007:2015  balances */\n      0x05\n        /* \"contracts/senior project.sol\":2007:2029  balances[donorList[i]] */\n      0x00\n        /* \"contracts/senior project.sol\":2016:2025  donorList */\n      0x06\n        /* \"contracts/senior project.sol\":2026:2027  i */\n      dup6\n        /* \"contracts/senior project.sol\":2016:2028  donorList[i] */\n      dup2\n      sload\n      dup2\n      lt\n      tag_70\n      jumpi\n      tag_71\n      tag_72\n      jump\t// in\n    tag_71:\n    tag_70:\n      swap1\n      0x00\n      mstore\n      keccak256(0x00, 0x20)\n      add\n      0x00\n      swap1\n      sload\n      swap1\n      0x0100\n      exp\n      swap1\n      div\n      0xffffffffffffffffffffffffffffffffffffffff\n      and\n        /* \"contracts/senior project.sol\":2007:2029  balances[donorList[i]] */\n      0xffffffffffffffffffffffffffffffffffffffff\n      and\n      0xffffffffffffffffffffffffffffffffffffffff\n      and\n      dup2\n      mstore\n      0x20\n      add\n      swap1\n      dup2\n      mstore\n      0x20\n      add\n      0x00\n      keccak256\n        /* \"contracts/senior project.sol\":2007:2040  balances[donorList[i]].returnable */\n      0x02\n      add\n      sload\n        /* \"contracts/senior project.sol\":2007:2044  balances[donorList[i]].returnable > 0 */\n      gt\n        /* \"contracts/senior project.sol\":2004:2367  if(balances[donorList[i]].returnable > 0){... */\n      iszero\n      tag_74\n      jumpi\n        /* \"contracts/senior project.sol\":2076:2084  balances */\n      0x05\n        /* \"contracts/senior project.sol\":2076:2098  balances[donorList[i]] */\n      0x00\n        /* \"contracts/senior project.sol\":2085:2094  donorList */\n      0x06\n        /* \"contracts/senior project.sol\":2095:2096  i */\n      dup5\n        /* \"contracts/senior project.sol\":2085:2097  donorList[i] */\n      dup2\n      sload\n      dup2\n      lt\n      tag_75\n      jumpi\n      tag_76\n      tag_72\n      jump\t// in\n    tag_76:\n    tag_75:\n      swap1\n      0x00\n      mstore\n      keccak256(0x00, 0x20)\n      add\n      0x00\n      swap1\n      sload\n      swap1\n      0x0100\n      exp\n      swap1\n      div\n      0xffffffffffffffffffffffffffffffffffffffff\n      and\n        /* \"contracts/senior project.sol\":2076:2098  balances[donorList[i]] */\n      0xffffffffffffffffffffffffffffffffffffffff\n      and\n      0xffffffffffffffffffffffffffffffffffffffff\n      and\n      dup2\n      mstore\n      0x20\n      add\n      swap1\n      dup2\n      mstore\n      0x20\n      add\n      0x00\n      keccak256\n        /* \"contracts/senior project.sol\":2076:2109  balances[donorList[i]].returnable */\n      0x02\n      add\n      sload\n        /* \"contracts/senior project.sol\":2064:2109  returnAmt = balances[donorList[i]].returnable */\n      swap1\n      pop\n        /* \"contracts/senior project.sol\":2128:2137  donorList */\n      0x06\n        /* \"contracts/senior project.sol\":2138:2139  i */\n      dup3\n        /* \"contracts/senior project.sol\":2128:2140  donorList[i] */\n      dup2\n      sload\n      dup2\n      lt\n      tag_78\n      jumpi\n      tag_79\n      tag_72\n      jump\t// in\n    tag_79:\n    tag_78:\n      swap1\n      0x00\n      mstore\n      keccak256(0x00, 0x20)\n      add\n      0x00\n      swap1\n      sload\n      swap1\n      0x0100\n      exp\n      swap1\n      div\n      0xffffffffffffffffffffffffffffffffffffffff\n      and\n        /* \"contracts/senior project.sol\":2128:2149  donorList[i].transfer */\n      0xffffffffffffffffffffffffffffffffffffffff\n      and\n        /* \"contracts/senior project.sol\":2128:2160  donorList[i].transfer(returnAmt) */\n      0x08fc\n        /* \"contracts/senior project.sol\":2150:2159  returnAmt */\n      dup3\n        /* \"contracts/senior project.sol\":2128:2160  donorList[i].transfer(returnAmt) */\n      swap1\n      dup2\n      iszero\n      mul\n      swap1\n      mload(0x40)\n      0x00\n      mload(0x40)\n      dup1\n      dup4\n      sub\n      dup2\n      dup6\n      dup9\n      dup9\n      call\n      swap4\n      pop\n      pop\n      pop\n      pop\n      iszero\n      dup1\n      iszero\n      tag_82\n      jumpi\n      returndatasize\n      0x00\n      dup1\n      returndatacopy\n      revert(0x00, returndatasize)\n    tag_82:\n      pop\n        /* \"contracts/senior project.sol\":2217:2226  returnAmt */\n      dup1\n        /* \"contracts/senior project.sol\":2179:2187  balances */\n      0x05\n        /* \"contracts/senior project.sol\":2179:2201  balances[donorList[i]] */\n      0x00\n        /* \"contracts/senior project.sol\":2188:2197  donorList */\n      0x06\n        /* \"contracts/senior project.sol\":2198:2199  i */\n      dup6\n        /* \"contracts/senior project.sol\":2188:2200  donorList[i] */\n      dup2\n      sload\n      dup2\n      lt\n      tag_83\n      jumpi\n      tag_84\n      tag_72\n      jump\t// in\n    tag_84:\n    tag_83:\n      swap1\n      0x00\n      mstore\n      keccak256(0x00, 0x20)\n      add\n      0x00\n      swap1\n      sload\n      swap1\n      0x0100\n      exp\n      swap1\n      div\n      0xffffffffffffffffffffffffffffffffffffffff\n      and\n        /* \"contracts/senior project.sol\":2179:2201  balances[donorList[i]] */\n      0xffffffffffffffffffffffffffffffffffffffff\n      and\n      0xffffffffffffffffffffffffffffffffffffffff\n      and\n      dup2\n      mstore\n      0x20\n      add\n      swap1\n      dup2\n      mstore\n      0x20\n      add\n      0x00\n      keccak256\n        /* \"contracts/senior project.sol\":2179:2214  balances[donorList[i]].returnedDono */\n      0x01\n      add\n        /* \"contracts/senior project.sol\":2179:2226  balances[donorList[i]].returnedDono = returnAmt */\n      dup2\n      swap1\n      sstore\n      pop\n        /* \"contracts/senior project.sol\":2281:2282  0 */\n      0x00\n        /* \"contracts/senior project.sol\":2245:2253  balances */\n      0x05\n        /* \"contracts/senior project.sol\":2245:2267  balances[donorList[i]] */\n      0x00\n        /* \"contracts/senior project.sol\":2254:2263  donorList */\n      0x06\n        /* \"contracts/senior project.sol\":2264:2265  i */\n      dup6\n        /* \"contracts/senior project.sol\":2254:2266  donorList[i] */\n      dup2\n      sload\n      dup2\n      lt\n      tag_86\n      jumpi\n      tag_87\n      tag_72\n      jump\t// in\n    tag_87:\n    tag_86:\n      swap1\n      0x00\n      mstore\n      keccak256(0x00, 0x20)\n      add\n      0x00\n      swap1\n      sload\n      swap1\n      0x0100\n      exp\n      swap1\n      div\n      0xffffffffffffffffffffffffffffffffffffffff\n      and\n        /* \"contracts/senior project.sol\":2245:2267  balances[donorList[i]] */\n      0xffffffffffffffffffffffffffffffffffffffff\n      and\n      0xffffffffffffffffffffffffffffffffffffffff\n      and\n      dup2\n      mstore\n      0x20\n      add\n      swap1\n      dup2\n      mstore\n      0x20\n      add\n      0x00\n      keccak256\n        /* \"contracts/senior project.sol\":2245:2278  balances[donorList[i]].returnable */\n      0x02\n      add\n        /* \"contracts/senior project.sol\":2245:2282  balances[donorList[i]].returnable = 0 */\n      dup2\n      swap1\n      sstore\n      pop\n        /* \"contracts/senior project.sol\":2306:2347  LogReturnedFunds(donorList[i], returnAmt) */\n      0xe0e5873eb9d996d2ab087b071a9a50522121c02b43308c8728c06739f52b3f87\n        /* \"contracts/senior project.sol\":2323:2332  donorList */\n      0x06\n        /* \"contracts/senior project.sol\":2333:2334  i */\n      dup4\n        /* \"contracts/senior project.sol\":2323:2335  donorList[i] */\n      dup2\n      sload\n      dup2\n      lt\n      tag_89\n      jumpi\n      tag_90\n      tag_72\n      jump\t// in\n    tag_90:\n    tag_89:\n      swap1\n      0x00\n      mstore\n      keccak256(0x00, 0x20)\n      add\n      0x00\n      swap1\n      sload\n      swap1\n      0x0100\n      exp\n      swap1\n      div\n      0xffffffffffffffffffffffffffffffffffffffff\n      and\n        /* \"contracts/senior project.sol\":2337:2346  returnAmt */\n      dup3\n        /* \"contracts/senior project.sol\":2306:2347  LogReturnedFunds(donorList[i], returnAmt) */\n      mload(0x40)\n      tag_92\n      swap3\n      swap2\n      swap1\n      tag_93\n      jump\t// in\n    tag_92:\n      mload(0x40)\n      dup1\n      swap2\n      sub\n      swap1\n      log1\n        /* \"contracts/senior project.sol\":2004:2367  if(balances[donorList[i]].returnable > 0){... */\n    tag_74:\n        /* \"contracts/senior project.sol\":1885:2382  {... */\n      pop\n        /* \"contracts/senior project.sol\":1881:1884  i++ */\n      dup1\n      dup1\n      tag_94\n      swap1\n      tag_61\n      jump\t// in\n    tag_94:\n      swap2\n      pop\n      pop\n        /* \"contracts/senior project.sol\":1844:2382  for(uint i; i <= donorList.length-1; i++){... */\n      jump(tag_65)\n    tag_66:\n      pop\n        /* \"contracts/senior project.sol\":1802:2393  function returnFunds() private {... */\n      jump\t// out\n        /* \"#utility.yul\":88:205   */\n    tag_96:\n        /* \"#utility.yul\":197:198   */\n      0x00\n        /* \"#utility.yul\":194:195   */\n      dup1\n        /* \"#utility.yul\":187:199   */\n      revert\n        /* \"#utility.yul\":334:460   */\n    tag_98:\n        /* \"#utility.yul\":371:378   */\n      0x00\n        /* \"#utility.yul\":411:453   */\n      0xffffffffffffffffffffffffffffffffffffffff\n        /* \"#utility.yul\":404:409   */\n      dup3\n        /* \"#utility.yul\":400:454   */\n      and\n        /* \"#utility.yul\":389:454   */\n      swap1\n      pop\n        /* \"#utility.yul\":334:460   */\n      swap2\n      swap1\n      pop\n      jump\t// out\n        /* \"#utility.yul\":466:562   */\n    tag_99:\n        /* \"#utility.yul\":503:510   */\n      0x00\n        /* \"#utility.yul\":532:556   */\n      tag_121\n        /* \"#utility.yul\":550:555   */\n      dup3\n        /* \"#utility.yul\":532:556   */\n      tag_98\n      jump\t// in\n    tag_121:\n        /* \"#utility.yul\":521:556   */\n      swap1\n      pop\n        /* \"#utility.yul\":466:562   */\n      swap2\n      swap1\n      pop\n      jump\t// out\n        /* \"#utility.yul\":568:690   */\n    tag_100:\n        /* \"#utility.yul\":641:665   */\n      tag_123\n        /* \"#utility.yul\":659:664   */\n      dup2\n        /* \"#utility.yul\":641:665   */\n      tag_99\n      jump\t// in\n    tag_123:\n        /* \"#utility.yul\":634:639   */\n      dup2\n        /* \"#utility.yul\":631:666   */\n      eq\n        /* \"#utility.yul\":621:684   */\n      tag_124\n      jumpi\n        /* \"#utility.yul\":680:681   */\n      0x00\n        /* \"#utility.yul\":677:678   */\n      dup1\n        /* \"#utility.yul\":670:682   */\n      revert\n        /* \"#utility.yul\":621:684   */\n    tag_124:\n        /* \"#utility.yul\":568:690   */\n      pop\n      jump\t// out\n        /* \"#utility.yul\":696:835   */\n    tag_101:\n        /* \"#utility.yul\":742:747   */\n      0x00\n        /* \"#utility.yul\":780:786   */\n      dup2\n        /* \"#utility.yul\":767:787   */\n      calldataload\n        /* \"#utility.yul\":758:787   */\n      swap1\n      pop\n        /* \"#utility.yul\":796:829   */\n      tag_126\n        /* \"#utility.yul\":823:828   */\n      dup2\n        /* \"#utility.yul\":796:829   */\n      tag_100\n      jump\t// in\n    tag_126:\n        /* \"#utility.yul\":696:835   */\n      swap3\n      swap2\n      pop\n      pop\n      jump\t// out\n        /* \"#utility.yul\":841:1170   */\n    tag_14:\n        /* \"#utility.yul\":900:906   */\n      0x00\n        /* \"#utility.yul\":949:951   */\n      0x20\n        /* \"#utility.yul\":937:946   */\n      dup3\n        /* \"#utility.yul\":928:935   */\n      dup5\n        /* \"#utility.yul\":924:947   */\n      sub\n        /* \"#utility.yul\":920:952   */\n      slt\n        /* \"#utility.yul\":917:1036   */\n      iszero\n      tag_128\n      jumpi\n        /* \"#utility.yul\":955:1034   */\n      tag_129\n      tag_96\n      jump\t// in\n    tag_129:\n        /* \"#utility.yul\":917:1036   */\n    tag_128:\n        /* \"#utility.yul\":1075:1076   */\n      0x00\n        /* \"#utility.yul\":1100:1153   */\n      tag_130\n        /* \"#utility.yul\":1145:1152   */\n      dup5\n        /* \"#utility.yul\":1136:1142   */\n      dup3\n        /* \"#utility.yul\":1125:1134   */\n      dup6\n        /* \"#utility.yul\":1121:1143   */\n      add\n        /* \"#utility.yul\":1100:1153   */\n      tag_101\n      jump\t// in\n    tag_130:\n        /* \"#utility.yul\":1090:1153   */\n      swap2\n      pop\n        /* \"#utility.yul\":1046:1163   */\n      pop\n        /* \"#utility.yul\":841:1170   */\n      swap3\n      swap2\n      pop\n      pop\n      jump\t// out\n        /* \"#utility.yul\":1176:1253   */\n    tag_102:\n        /* \"#utility.yul\":1213:1220   */\n      0x00\n        /* \"#utility.yul\":1242:1247   */\n      dup2\n        /* \"#utility.yul\":1231:1247   */\n      swap1\n      pop\n        /* \"#utility.yul\":1176:1253   */\n      swap2\n      swap1\n      pop\n      jump\t// out\n        /* \"#utility.yul\":1259:1377   */\n    tag_103:\n        /* \"#utility.yul\":1346:1370   */\n      tag_133\n        /* \"#utility.yul\":1364:1369   */\n      dup2\n        /* \"#utility.yul\":1346:1370   */\n      tag_102\n      jump\t// in\n    tag_133:\n        /* \"#utility.yul\":1341:1344   */\n      dup3\n        /* \"#utility.yul\":1334:1371   */\n      mstore\n        /* \"#utility.yul\":1259:1377   */\n      pop\n      pop\n      jump\t// out\n        /* \"#utility.yul\":1383:1936   */\n    tag_17:\n        /* \"#utility.yul\":1560:1564   */\n      0x00\n        /* \"#utility.yul\":1598:1601   */\n      0x80\n        /* \"#utility.yul\":1587:1596   */\n      dup3\n        /* \"#utility.yul\":1583:1602   */\n      add\n        /* \"#utility.yul\":1575:1602   */\n      swap1\n      pop\n        /* \"#utility.yul\":1612:1683   */\n      tag_135\n        /* \"#utility.yul\":1680:1681   */\n      0x00\n        /* \"#utility.yul\":1669:1678   */\n      dup4\n        /* \"#utility.yul\":1665:1682   */\n      add\n        /* \"#utility.yul\":1656:1662   */\n      dup8\n        /* \"#utility.yul\":1612:1683   */\n      tag_103\n      jump\t// in\n    tag_135:\n        /* \"#utility.yul\":1693:1765   */\n      tag_136\n        /* \"#utility.yul\":1761:1763   */\n      0x20\n        /* \"#utility.yul\":1750:1759   */\n      dup4\n        /* \"#utility.yul\":1746:1764   */\n      add\n        /* \"#utility.yul\":1737:1743   */\n      dup7\n        /* \"#utility.yul\":1693:1765   */\n      tag_103\n      jump\t// in\n    tag_136:\n        /* \"#utility.yul\":1775:1847   */\n      tag_137\n        /* \"#utility.yul\":1843:1845   */\n      0x40\n        /* \"#utility.yul\":1832:1841   */\n      dup4\n        /* \"#utility.yul\":1828:1846   */\n      add\n        /* \"#utility.yul\":1819:1825   */\n      dup6\n        /* \"#utility.yul\":1775:1847   */\n      tag_103\n      jump\t// in\n    tag_137:\n        /* \"#utility.yul\":1857:1929   */\n      tag_138\n        /* \"#utility.yul\":1925:1927   */\n      0x60\n        /* \"#utility.yul\":1914:1923   */\n      dup4\n        /* \"#utility.yul\":1910:1928   */\n      add\n        /* \"#utility.yul\":1901:1907   */\n      dup5\n        /* \"#utility.yul\":1857:1929   */\n      tag_103\n      jump\t// in\n    tag_138:\n        /* \"#utility.yul\":1383:1936   */\n      swap6\n      swap5\n      pop\n      pop\n      pop\n      pop\n      pop\n      jump\t// out\n        /* \"#utility.yul\":1942:2064   */\n    tag_104:\n        /* \"#utility.yul\":2015:2039   */\n      tag_140\n        /* \"#utility.yul\":2033:2038   */\n      dup2\n        /* \"#utility.yul\":2015:2039   */\n      tag_102\n      jump\t// in\n    tag_140:\n        /* \"#utility.yul\":2008:2013   */\n      dup2\n        /* \"#utility.yul\":2005:2040   */\n      eq\n        /* \"#utility.yul\":1995:2058   */\n      tag_141\n      jumpi\n        /* \"#utility.yul\":2054:2055   */\n      0x00\n        /* \"#utility.yul\":2051:2052   */\n      dup1\n        /* \"#utility.yul\":2044:2056   */\n      revert\n        /* \"#utility.yul\":1995:2058   */\n    tag_141:\n        /* \"#utility.yul\":1942:2064   */\n      pop\n      jump\t// out\n        /* \"#utility.yul\":2070:2209   */\n    tag_105:\n        /* \"#utility.yul\":2116:2121   */\n      0x00\n        /* \"#utility.yul\":2154:2160   */\n      dup2\n        /* \"#utility.yul\":2141:2161   */\n      calldataload\n        /* \"#utility.yul\":2132:2161   */\n      swap1\n      pop\n        /* \"#utility.yul\":2170:2203   */\n      tag_143\n        /* \"#utility.yul\":2197:2202   */\n      dup2\n        /* \"#utility.yul\":2170:2203   */\n      tag_104\n      jump\t// in\n    tag_143:\n        /* \"#utility.yul\":2070:2209   */\n      swap3\n      swap2\n      pop\n      pop\n      jump\t// out\n        /* \"#utility.yul\":2215:2544   */\n    tag_21:\n        /* \"#utility.yul\":2274:2280   */\n      0x00\n        /* \"#utility.yul\":2323:2325   */\n      0x20\n        /* \"#utility.yul\":2311:2320   */\n      dup3\n        /* \"#utility.yul\":2302:2309   */\n      dup5\n        /* \"#utility.yul\":2298:2321   */\n      sub\n        /* \"#utility.yul\":2294:2326   */\n      slt\n        /* \"#utility.yul\":2291:2410   */\n      iszero\n      tag_145\n      jumpi\n        /* \"#utility.yul\":2329:2408   */\n      tag_146\n      tag_96\n      jump\t// in\n    tag_146:\n        /* \"#utility.yul\":2291:2410   */\n    tag_145:\n        /* \"#utility.yul\":2449:2450   */\n      0x00\n        /* \"#utility.yul\":2474:2527   */\n      tag_147\n        /* \"#utility.yul\":2519:2526   */\n      dup5\n        /* \"#utility.yul\":2510:2516   */\n      dup3\n        /* \"#utility.yul\":2499:2508   */\n      dup6\n        /* \"#utility.yul\":2495:2517   */\n      add\n        /* \"#utility.yul\":2474:2527   */\n      tag_105\n      jump\t// in\n    tag_147:\n        /* \"#utility.yul\":2464:2527   */\n      swap2\n      pop\n        /* \"#utility.yul\":2420:2537   */\n      pop\n        /* \"#utility.yul\":2215:2544   */\n      swap3\n      swap2\n      pop\n      pop\n      jump\t// out\n        /* \"#utility.yul\":2550:2654   */\n    tag_106:\n        /* \"#utility.yul\":2595:2602   */\n      0x00\n        /* \"#utility.yul\":2624:2648   */\n      tag_149\n        /* \"#utility.yul\":2642:2647   */\n      dup3\n        /* \"#utility.yul\":2624:2648   */\n      tag_98\n      jump\t// in\n    tag_149:\n        /* \"#utility.yul\":2613:2648   */\n      swap1\n      pop\n        /* \"#utility.yul\":2550:2654   */\n      swap2\n      swap1\n      pop\n      jump\t// out\n        /* \"#utility.yul\":2660:2802   */\n    tag_107:\n        /* \"#utility.yul\":2763:2795   */\n      tag_151\n        /* \"#utility.yul\":2789:2794   */\n      dup2\n        /* \"#utility.yul\":2763:2795   */\n      tag_106\n      jump\t// in\n    tag_151:\n        /* \"#utility.yul\":2758:2761   */\n      dup3\n        /* \"#utility.yul\":2751:2796   */\n      mstore\n        /* \"#utility.yul\":2660:2802   */\n      pop\n      pop\n      jump\t// out\n        /* \"#utility.yul\":2808:3062   */\n    tag_24:\n        /* \"#utility.yul\":2917:2921   */\n      0x00\n        /* \"#utility.yul\":2955:2957   */\n      0x20\n        /* \"#utility.yul\":2944:2953   */\n      dup3\n        /* \"#utility.yul\":2940:2958   */\n      add\n        /* \"#utility.yul\":2932:2958   */\n      swap1\n      pop\n        /* \"#utility.yul\":2968:3055   */\n      tag_153\n        /* \"#utility.yul\":3052:3053   */\n      0x00\n        /* \"#utility.yul\":3041:3050   */\n      dup4\n        /* \"#utility.yul\":3037:3054   */\n      add\n        /* \"#utility.yul\":3028:3034   */\n      dup5\n        /* \"#utility.yul\":2968:3055   */\n      tag_107\n      jump\t// in\n    tag_153:\n        /* \"#utility.yul\":2808:3062   */\n      swap3\n      swap2\n      pop\n      pop\n      jump\t// out\n        /* \"#utility.yul\":3068:3248   */\n    tag_108:\n        /* \"#utility.yul\":3116:3193   */\n      0x4e487b7100000000000000000000000000000000000000000000000000000000\n        /* \"#utility.yul\":3113:3114   */\n      0x00\n        /* \"#utility.yul\":3106:3194   */\n      mstore\n        /* \"#utility.yul\":3213:3217   */\n      0x11\n        /* \"#utility.yul\":3210:3211   */\n      0x04\n        /* \"#utility.yul\":3203:3218   */\n      mstore\n        /* \"#utility.yul\":3237:3241   */\n      0x24\n        /* \"#utility.yul\":3234:3235   */\n      0x00\n        /* \"#utility.yul\":3227:3242   */\n      revert\n        /* \"#utility.yul\":3254:3602   */\n    tag_35:\n        /* \"#utility.yul\":3294:3301   */\n      0x00\n        /* \"#utility.yul\":3317:3337   */\n      tag_156\n        /* \"#utility.yul\":3335:3336   */\n      dup3\n        /* \"#utility.yul\":3317:3337   */\n      tag_102\n      jump\t// in\n    tag_156:\n        /* \"#utility.yul\":3312:3337   */\n      swap2\n      pop\n        /* \"#utility.yul\":3351:3371   */\n      tag_157\n        /* \"#utility.yul\":3369:3370   */\n      dup4\n        /* \"#utility.yul\":3351:3371   */\n      tag_102\n      jump\t// in\n    tag_157:\n        /* \"#utility.yul\":3346:3371   */\n      swap3\n      pop\n        /* \"#utility.yul\":3539:3540   */\n      dup2\n        /* \"#utility.yul\":3471:3537   */\n      0xffffffffffffffffffffffffffffffffffffffffffffffffffffffffffffffff\n        /* \"#utility.yul\":3467:3541   */\n      div\n        /* \"#utility.yul\":3464:3465   */\n      dup4\n        /* \"#utility.yul\":3461:3542   */\n      gt\n        /* \"#utility.yul\":3456:3457   */\n      dup3\n        /* \"#utility.yul\":3449:3458   */\n      iszero\n        /* \"#utility.yul\":3442:3459   */\n      iszero\n        /* \"#utility.yul\":3438:3543   */\n      and\n        /* \"#utility.yul\":3435:3566   */\n      iszero\n      tag_158\n      jumpi\n        /* \"#utility.yul\":3546:3564   */\n      tag_159\n      tag_108\n      jump\t// in\n    tag_159:\n        /* \"#utility.yul\":3435:3566   */\n    tag_158:\n        /* \"#utility.yul\":3594:3595   */\n      dup3\n        /* \"#utility.yul\":3591:3592   */\n      dup3\n        /* \"#utility.yul\":3587:3596   */\n      mul\n        /* \"#utility.yul\":3576:3596   */\n      swap1\n      pop\n        /* \"#utility.yul\":3254:3602   */\n      swap3\n      swap2\n      pop\n      pop\n      jump\t// out\n        /* \"#utility.yul\":3608:3799   */\n    tag_37:\n        /* \"#utility.yul\":3648:3651   */\n      0x00\n        /* \"#utility.yul\":3667:3687   */\n      tag_161\n        /* \"#utility.yul\":3685:3686   */\n      dup3\n        /* \"#utility.yul\":3667:3687   */\n      tag_102\n      jump\t// in\n    tag_161:\n        /* \"#utility.yul\":3662:3687   */\n      swap2\n      pop\n        /* \"#utility.yul\":3701:3721   */\n      tag_162\n        /* \"#utility.yul\":3719:3720   */\n      dup4\n        /* \"#utility.yul\":3701:3721   */\n      tag_102\n      jump\t// in\n    tag_162:\n        /* \"#utility.yul\":3696:3721   */\n      swap3\n      pop\n        /* \"#utility.yul\":3744:3745   */\n      dup3\n        /* \"#utility.yul\":3741:3742   */\n      dup3\n        /* \"#utility.yul\":3737:3746   */\n      add\n        /* \"#utility.yul\":3730:3746   */\n      swap1\n      pop\n        /* \"#utility.yul\":3765:3768   */\n      dup1\n        /* \"#utility.yul\":3762:3763   */\n      dup3\n        /* \"#utility.yul\":3759:3769   */\n      gt\n        /* \"#utility.yul\":3756:3792   */\n      iszero\n      tag_163\n      jumpi\n        /* \"#utility.yul\":3772:3790   */\n      tag_164\n      tag_108\n      jump\t// in\n    tag_164:\n        /* \"#utility.yul\":3756:3792   */\n    tag_163:\n        /* \"#utility.yul\":3608:3799   */\n      swap3\n      swap2\n      pop\n      pop\n      jump\t// out\n        /* \"#utility.yul\":3805:3923   */\n    tag_109:\n        /* \"#utility.yul\":3892:3916   */\n      tag_166\n        /* \"#utility.yul\":3910:3915   */\n      dup2\n        /* \"#utility.yul\":3892:3916   */\n      tag_99\n      jump\t// in\n    tag_166:\n        /* \"#utility.yul\":3887:3890   */\n      dup3\n        /* \"#utility.yul\":3880:3917   */\n      mstore\n        /* \"#utility.yul\":3805:3923   */\n      pop\n      pop\n      jump\t// out\n        /* \"#utility.yul\":3929:4261   */\n    tag_53:\n        /* \"#utility.yul\":4050:4054   */\n      0x00\n        /* \"#utility.yul\":4088:4090   */\n      0x40\n        /* \"#utility.yul\":4077:4086   */\n      dup3\n        /* \"#utility.yul\":4073:4091   */\n      add\n        /* \"#utility.yul\":4065:4091   */\n      swap1\n      pop\n        /* \"#utility.yul\":4101:4172   */\n      tag_168\n        /* \"#utility.yul\":4169:4170   */\n      0x00\n        /* \"#utility.yul\":4158:4167   */\n      dup4\n        /* \"#utility.yul\":4154:4171   */\n      add\n        /* \"#utility.yul\":4145:4151   */\n      dup6\n        /* \"#utility.yul\":4101:4172   */\n      tag_109\n      jump\t// in\n    tag_168:\n        /* \"#utility.yul\":4182:4254   */\n      tag_169\n        /* \"#utility.yul\":4250:4252   */\n      0x20\n        /* \"#utility.yul\":4239:4248   */\n      dup4\n        /* \"#utility.yul\":4235:4253   */\n      add\n        /* \"#utility.yul\":4226:4232   */\n      dup5\n        /* \"#utility.yul\":4182:4254   */\n      tag_103\n      jump\t// in\n    tag_169:\n        /* \"#utility.yul\":3929:4261   */\n      swap4\n      swap3\n      pop\n      pop\n      pop\n      jump\t// out\n        /* \"#utility.yul\":4267:4500   */\n    tag_61:\n        /* \"#utility.yul\":4306:4309   */\n      0x00\n        /* \"#utility.yul\":4329:4353   */\n      tag_171\n        /* \"#utility.yul\":4347:4352   */\n      dup3\n        /* \"#utility.yul\":4329:4353   */\n      tag_102\n      jump\t// in\n    tag_171:\n        /* \"#utility.yul\":4320:4353   */\n      swap2\n      pop\n        /* \"#utility.yul\":4375:4441   */\n      0xffffffffffffffffffffffffffffffffffffffffffffffffffffffffffffffff\n        /* \"#utility.yul\":4368:4373   */\n      dup3\n        /* \"#utility.yul\":4365:4442   */\n      sub\n        /* \"#utility.yul\":4362:4465   */\n      tag_172\n      jumpi\n        /* \"#utility.yul\":4445:4463   */\n      tag_173\n      tag_108\n      jump\t// in\n    tag_173:\n        /* \"#utility.yul\":4362:4465   */\n    tag_172:\n        /* \"#utility.yul\":4492:4493   */\n      0x01\n        /* \"#utility.yul\":4485:4490   */\n      dup3\n        /* \"#utility.yul\":4481:4494   */\n      add\n        /* \"#utility.yul\":4474:4494   */\n      swap1\n      pop\n        /* \"#utility.yul\":4267:4500   */\n      swap2\n      swap1\n      pop\n      jump\t// out\n        /* \"#utility.yul\":4506:4700   */\n    tag_69:\n        /* \"#utility.yul\":4546:4550   */\n      0x00\n        /* \"#utility.yul\":4566:4586   */\n      tag_175\n        /* \"#utility.yul\":4584:4585   */\n      dup3\n        /* \"#utility.yul\":4566:4586   */\n      tag_102\n      jump\t// in\n    tag_175:\n        /* \"#utility.yul\":4561:4586   */\n      swap2\n      pop\n        /* \"#utility.yul\":4600:4620   */\n      tag_176\n        /* \"#utility.yul\":4618:4619   */\n      dup4\n        /* \"#utility.yul\":4600:4620   */\n      tag_102\n      jump\t// in\n    tag_176:\n        /* \"#utility.yul\":4595:4620   */\n      swap3\n      pop\n        /* \"#utility.yul\":4644:4645   */\n      dup3\n        /* \"#utility.yul\":4641:4642   */\n      dup3\n        /* \"#utility.yul\":4637:4646   */\n      sub\n        /* \"#utility.yul\":4629:4646   */\n      swap1\n      pop\n        /* \"#utility.yul\":4668:4669   */\n      dup2\n        /* \"#utility.yul\":4662:4666   */\n      dup2\n        /* \"#utility.yul\":4659:4670   */\n      gt\n        /* \"#utility.yul\":4656:4693   */\n      iszero\n      tag_177\n      jumpi\n        /* \"#utility.yul\":4673:4691   */\n      tag_178\n      tag_108\n      jump\t// in\n    tag_178:\n        /* \"#utility.yul\":4656:4693   */\n    tag_177:\n        /* \"#utility.yul\":4506:4700   */\n      swap3\n      swap2\n      pop\n      pop\n      jump\t// out\n        /* \"#utility.yul\":4706:4886   */\n    tag_72:\n        /* \"#utility.yul\":4754:4831   */\n      0x4e487b7100000000000000000000000000000000000000000000000000000000\n        /* \"#utility.yul\":4751:4752   */\n      0x00\n        /* \"#utility.yul\":4744:4832   */\n      mstore\n        /* \"#utility.yul\":4851:4855   */\n      0x32\n        /* \"#utility.yul\":4848:4849   */\n      0x04\n        /* \"#utility.yul\":4841:4856   */\n      mstore\n        /* \"#utility.yul\":4875:4879   */\n      0x24\n        /* \"#utility.yul\":4872:4873   */\n      0x00\n        /* \"#utility.yul\":4865:4880   */\n      revert\n        /* \"#utility.yul\":4892:4952   */\n    tag_110:\n        /* \"#utility.yul\":4920:4923   */\n      0x00\n        /* \"#utility.yul\":4941:4946   */\n      dup2\n        /* \"#utility.yul\":4934:4946   */\n      swap1\n      pop\n        /* \"#utility.yul\":4892:4952   */\n      swap2\n      swap1\n      pop\n      jump\t// out\n        /* \"#utility.yul\":4958:5100   */\n    tag_111:\n        /* \"#utility.yul\":5008:5017   */\n      0x00\n        /* \"#utility.yul\":5041:5094   */\n      tag_182\n        /* \"#utility.yul\":5059:5093   */\n      tag_183\n        /* \"#utility.yul\":5068:5092   */\n      tag_184\n        /* \"#utility.yul\":5086:5091   */\n      dup5\n        /* \"#utility.yul\":5068:5092   */\n      tag_98\n      jump\t// in\n    tag_184:\n        /* \"#utility.yul\":5059:5093   */\n      tag_110\n      jump\t// in\n    tag_183:\n        /* \"#utility.yul\":5041:5094   */\n      tag_98\n      jump\t// in\n    tag_182:\n        /* \"#utility.yul\":5028:5094   */\n      swap1\n      pop\n        /* \"#utility.yul\":4958:5100   */\n      swap2\n      swap1\n      pop\n      jump\t// out\n        /* \"#utility.yul\":5106:5232   */\n    tag_112:\n        /* \"#utility.yul\":5156:5165   */\n      0x00\n        /* \"#utility.yul\":5189:5226   */\n      tag_186\n        /* \"#utility.yul\":5220:5225   */\n      dup3\n        /* \"#utility.yul\":5189:5226   */\n      tag_111\n      jump\t// in\n    tag_186:\n        /* \"#utility.yul\":5176:5226   */\n      swap1\n      pop\n        /* \"#utility.yul\":5106:5232   */\n      swap2\n      swap1\n      pop\n      jump\t// out\n        /* \"#utility.yul\":5238:5372   */\n    tag_113:\n        /* \"#utility.yul\":5296:5305   */\n      0x00\n        /* \"#utility.yul\":5329:5366   */\n      tag_188\n        /* \"#utility.yul\":5360:5365   */\n      dup3\n        /* \"#utility.yul\":5329:5366   */\n      tag_112\n      jump\t// in\n    tag_188:\n        /* \"#utility.yul\":5316:5366   */\n      swap1\n      pop\n        /* \"#utility.yul\":5238:5372   */\n      swap2\n      swap1\n      pop\n      jump\t// out\n        /* \"#utility.yul\":5378:5525   */\n    tag_114:\n        /* \"#utility.yul\":5473:5518   */\n      tag_190\n        /* \"#utility.yul\":5512:5517   */\n      dup2\n        /* \"#utility.yul\":5473:5518   */\n      tag_113\n      jump\t// in\n    tag_190:\n        /* \"#utility.yul\":5468:5471   */\n      dup3\n        /* \"#utility.yul\":5461:5519   */\n      mstore\n        /* \"#utility.yul\":5378:5525   */\n      pop\n      pop\n      jump\t// out\n        /* \"#utility.yul\":5531:5879   */\n    tag_93:\n        /* \"#utility.yul\":5660:5664   */\n      0x00\n        /* \"#utility.yul\":5698:5700   */\n      0x40\n        /* \"#utility.yul\":5687:5696   */\n      dup3\n        /* \"#utility.yul\":5683:5701   */\n      add\n        /* \"#utility.yul\":5675:5701   */\n      swap1\n      pop\n        /* \"#utility.yul\":5711:5790   */\n      tag_192\n        /* \"#utility.yul\":5787:5788   */\n      0x00\n        /* \"#utility.yul\":5776:5785   */\n      dup4\n        /* \"#utility.yul\":5772:5789   */\n      add\n        /* \"#utility.yul\":5763:5769   */\n      dup6\n        /* \"#utility.yul\":5711:5790   */\n      tag_114\n      jump\t// in\n    tag_192:\n        /* \"#utility.yul\":5800:5872   */\n      tag_193\n        /* \"#utility.yul\":5868:5870   */\n      0x20\n        /* \"#utility.yul\":5857:5866   */\n      dup4\n        /* \"#utility.yul\":5853:5871   */\n      add\n        /* \"#utility.yul\":5844:5850   */\n      dup5\n        /* \"#utility.yul\":5800:5872   */\n      tag_103\n      jump\t// in\n    tag_193:\n        /* \"#utility.yul\":5531:5879   */\n      swap4\n      swap3\n      pop\n      pop\n      pop\n      jump\t// out\n\n    auxdata: 0xa26469706673582212209c3a30300a722f42b8133279e9a9f498337a2582e2b8b522936048d7103bc1f164736f6c63430008100033\n}\n",
				"bytecode": {
					"linkReferences": {},
					"object": "60806040526000600460006101000a81548160ff0219169083151502179055503480156200002c57600080fd5b5060405162000e9938038062000e9983398181016040528101906200005291906200014d565b816000806101000a81548173ffffffffffffffffffffffffffffffffffffffff021916908373ffffffffffffffffffffffffffffffffffffffff1602179055504260028190555080600381905550505062000194565b600080fd5b600073ffffffffffffffffffffffffffffffffffffffff82169050919050565b6000620000da82620000ad565b9050919050565b620000ec81620000cd565b8114620000f857600080fd5b50565b6000815190506200010c81620000e1565b92915050565b6000819050919050565b620001278162000112565b81146200013357600080fd5b50565b60008151905062000147816200011c565b92915050565b60008060408385031215620001675762000166620000a8565b5b60006200017785828601620000fb565b92505060206200018a8582860162000136565b9150509250929050565b610cf580620001a46000396000f3fe6080604052600436106100555760003560e01c80631c829ded1461005a57806327e235e3146100715780635eed3dcb146100b15780638bf963b6146100ee5780638d68cf5914610105578063ed88c68e1461011c575b600080fd5b34801561006657600080fd5b5061006f610126565b005b34801561007d57600080fd5b5061009860048036038101906100939190610977565b6101f4565b6040516100a894939291906109bd565b60405180910390f35b3480156100bd57600080fd5b506100d860048036038101906100d39190610a2e565b610224565b6040516100e59190610a7c565b60405180910390f35b3480156100fa57600080fd5b50610103610263565b005b34801561011157600080fd5b5061011a61032d565b005b610124610420565b005b62093a806003546101379190610ac6565b6002546101449190610b20565b4210158015610166575060011515600460009054906101000a900460ff161515145b156101a45760008054906101000a900473ffffffffffffffffffffffffffffffffffffffff1673ffffffffffffffffffffffffffffffffffffffff16ff5b62093a806003546101b59190610ac6565b6002546101c29190610b20565b42101580156101e4575060001515600460009054906101000a900460ff161515145b156101f2576101f16105cd565b5b565b60056020528060005260406000206000915090508060000154908060010154908060020154908060030154905084565b6006818154811061023457600080fd5b906000526020600020016000915054906101000a900473ffffffffffffffffffffffffffffffffffffffff1681565b6000600560003373ffffffffffffffffffffffffffffffffffffffff1673ffffffffffffffffffffffffffffffffffffffff1681526020019081526020016000206002015490503373ffffffffffffffffffffffffffffffffffffffff166108fc829081150290604051600060405180830381858888f193505050501580156102f0573d6000803e3d6000fd5b507fe0e5873eb9d996d2ab087b071a9a50522121c02b43308c8728c06739f52b3f873382604051610322929190610b63565b60405180910390a150565b60008054906101000a900473ffffffffffffffffffffffffffffffffffffffff1673ffffffffffffffffffffffffffffffffffffffff166108fc600560003373ffffffffffffffffffffffffffffffffffffffff1673ffffffffffffffffffffffffffffffffffffffff168152602001908152602001600020600001549081150290604051600060405180830381858888f193505050501580156103d5573d6000803e3d6000fd5b506000600560003373ffffffffffffffffffffffffffffffffffffffff1673ffffffffffffffffffffffffffffffffffffffff16815260200190815260200160002060020181905550565b34600560003373ffffffffffffffffffffffffffffffffffffffff1673ffffffffffffffffffffffffffffffffffffffff16815260200190815260200160002060000160008282546104729190610b20565b9250508190555034600560003373ffffffffffffffffffffffffffffffffffffffff1673ffffffffffffffffffffffffffffffffffffffff16815260200190815260200160002060020160008282546104cb9190610b20565b92505081905550600160008154809291906104e590610b8c565b91905055600560003373ffffffffffffffffffffffffffffffffffffffff1673ffffffffffffffffffffffffffffffffffffffff168152602001908152602001600020600301819055506006339080600181540180825580915050600190039060005260206000200160009091909190916101000a81548173ffffffffffffffffffffffffffffffffffffffff021916908373ffffffffffffffffffffffffffffffffffffffff1602179055507f81d2c188629cc4a1c694d285150cb5fa3dde3157a2684460d3ac7a1e331f616433346040516105c3929190610b63565b60405180910390a1565b60005b60016006805490506105e29190610bd4565b811161091157600080600560006006858154811061060357610602610c08565b5b9060005260206000200160009054906101000a900473ffffffffffffffffffffffffffffffffffffffff1673ffffffffffffffffffffffffffffffffffffffff1673ffffffffffffffffffffffffffffffffffffffff1681526020019081526020016000206002015411156108fd57600560006006848154811061068a57610689610c08565b5b9060005260206000200160009054906101000a900473ffffffffffffffffffffffffffffffffffffffff1673ffffffffffffffffffffffffffffffffffffffff1673ffffffffffffffffffffffffffffffffffffffff1681526020019081526020016000206002015490506006828154811061070957610708610c08565b5b9060005260206000200160009054906101000a900473ffffffffffffffffffffffffffffffffffffffff1673ffffffffffffffffffffffffffffffffffffffff166108fc829081150290604051600060405180830381858888f19350505050158015610779573d6000803e3d6000fd5b5080600560006006858154811061079357610792610c08565b5b9060005260206000200160009054906101000a900473ffffffffffffffffffffffffffffffffffffffff1673ffffffffffffffffffffffffffffffffffffffff1673ffffffffffffffffffffffffffffffffffffffff168152602001908152602001600020600101819055506000600560006006858154811061081957610818610c08565b5b9060005260206000200160009054906101000a900473ffffffffffffffffffffffffffffffffffffffff1673ffffffffffffffffffffffffffffffffffffffff1673ffffffffffffffffffffffffffffffffffffffff168152602001908152602001600020600201819055507fe0e5873eb9d996d2ab087b071a9a50522121c02b43308c8728c06739f52b3f87600683815481106108ba576108b9610c08565b5b9060005260206000200160009054906101000a900473ffffffffffffffffffffffffffffffffffffffff16826040516108f4929190610c96565b60405180910390a15b50808061090990610b8c565b9150506105d0565b50565b600080fd5b600073ffffffffffffffffffffffffffffffffffffffff82169050919050565b600061094482610919565b9050919050565b61095481610939565b811461095f57600080fd5b50565b6000813590506109718161094b565b92915050565b60006020828403121561098d5761098c610914565b5b600061099b84828501610962565b91505092915050565b6000819050919050565b6109b7816109a4565b82525050565b60006080820190506109d260008301876109ae565b6109df60208301866109ae565b6109ec60408301856109ae565b6109f960608301846109ae565b95945050505050565b610a0b816109a4565b8114610a1657600080fd5b50565b600081359050610a2881610a02565b92915050565b600060208284031215610a4457610a43610914565b5b6000610a5284828501610a19565b91505092915050565b6000610a6682610919565b9050919050565b610a7681610a5b565b82525050565b6000602082019050610a916000830184610a6d565b92915050565b7f4e487b7100000000000000000000000000000000000000000000000000000000600052601160045260246000fd5b6000610ad1826109a4565b9150610adc836109a4565b9250817fffffffffffffffffffffffffffffffffffffffffffffffffffffffffffffffff0483118215151615610b1557610b14610a97565b5b828202905092915050565b6000610b2b826109a4565b9150610b36836109a4565b9250828201905080821115610b4e57610b4d610a97565b5b92915050565b610b5d81610939565b82525050565b6000604082019050610b786000830185610b54565b610b8560208301846109ae565b9392505050565b6000610b97826109a4565b91507fffffffffffffffffffffffffffffffffffffffffffffffffffffffffffffffff8203610bc957610bc8610a97565b5b600182019050919050565b6000610bdf826109a4565b9150610bea836109a4565b9250828203905081811115610c0257610c01610a97565b5b92915050565b7f4e487b7100000000000000000000000000000000000000000000000000000000600052603260045260246000fd5b6000819050919050565b6000610c5c610c57610c5284610919565b610c37565b610919565b9050919050565b6000610c6e82610c41565b9050919050565b6000610c8082610c63565b9050919050565b610c9081610c75565b82525050565b6000604082019050610cab6000830185610c87565b610cb860208301846109ae565b939250505056fea26469706673582212209c3a30300a722f42b8133279e9a9f498337a2582e2b8b522936048d7103bc1f164736f6c63430008100033",
					"opcodes": "PUSH1 0x80 PUSH1 0x40 MSTORE PUSH1 0x0 PUSH1 0x4 PUSH1 0x0 PUSH2 0x100 EXP DUP2 SLOAD DUP2 PUSH1 0xFF MUL NOT AND SWAP1 DUP4 ISZERO ISZERO MUL OR SWAP1 SSTORE POP CALLVALUE DUP1 ISZERO PUSH3 0x2C JUMPI PUSH1 0x0 DUP1 REVERT JUMPDEST POP PUSH1 0x40 MLOAD PUSH3 0xE99 CODESIZE SUB DUP1 PUSH3 0xE99 DUP4 CODECOPY DUP2 DUP2 ADD PUSH1 0x40 MSTORE DUP2 ADD SWAP1 PUSH3 0x52 SWAP2 SWAP1 PUSH3 0x14D JUMP JUMPDEST DUP2 PUSH1 0x0 DUP1 PUSH2 0x100 EXP DUP2 SLOAD DUP2 PUSH20 0xFFFFFFFFFFFFFFFFFFFFFFFFFFFFFFFFFFFFFFFF MUL NOT AND SWAP1 DUP4 PUSH20 0xFFFFFFFFFFFFFFFFFFFFFFFFFFFFFFFFFFFFFFFF AND MUL OR SWAP1 SSTORE POP TIMESTAMP PUSH1 0x2 DUP2 SWAP1 SSTORE POP DUP1 PUSH1 0x3 DUP2 SWAP1 SSTORE POP POP POP PUSH3 0x194 JUMP JUMPDEST PUSH1 0x0 DUP1 REVERT JUMPDEST PUSH1 0x0 PUSH20 0xFFFFFFFFFFFFFFFFFFFFFFFFFFFFFFFFFFFFFFFF DUP3 AND SWAP1 POP SWAP2 SWAP1 POP JUMP JUMPDEST PUSH1 0x0 PUSH3 0xDA DUP3 PUSH3 0xAD JUMP JUMPDEST SWAP1 POP SWAP2 SWAP1 POP JUMP JUMPDEST PUSH3 0xEC DUP2 PUSH3 0xCD JUMP JUMPDEST DUP2 EQ PUSH3 0xF8 JUMPI PUSH1 0x0 DUP1 REVERT JUMPDEST POP JUMP JUMPDEST PUSH1 0x0 DUP2 MLOAD SWAP1 POP PUSH3 0x10C DUP2 PUSH3 0xE1 JUMP JUMPDEST SWAP3 SWAP2 POP POP JUMP JUMPDEST PUSH1 0x0 DUP2 SWAP1 POP SWAP2 SWAP1 POP JUMP JUMPDEST PUSH3 0x127 DUP2 PUSH3 0x112 JUMP JUMPDEST DUP2 EQ PUSH3 0x133 JUMPI PUSH1 0x0 DUP1 REVERT JUMPDEST POP JUMP JUMPDEST PUSH1 0x0 DUP2 MLOAD SWAP1 POP PUSH3 0x147 DUP2 PUSH3 0x11C JUMP JUMPDEST SWAP3 SWAP2 POP POP JUMP JUMPDEST PUSH1 0x0 DUP1 PUSH1 0x40 DUP4 DUP6 SUB SLT ISZERO PUSH3 0x167 JUMPI PUSH3 0x166 PUSH3 0xA8 JUMP JUMPDEST JUMPDEST PUSH1 0x0 PUSH3 0x177 DUP6 DUP3 DUP7 ADD PUSH3 0xFB JUMP JUMPDEST SWAP3 POP POP PUSH1 0x20 PUSH3 0x18A DUP6 DUP3 DUP7 ADD PUSH3 0x136 JUMP JUMPDEST SWAP2 POP POP SWAP3 POP SWAP3 SWAP1 POP JUMP JUMPDEST PUSH2 0xCF5 DUP1 PUSH3 0x1A4 PUSH1 0x0 CODECOPY PUSH1 0x0 RETURN INVALID PUSH1 0x80 PUSH1 0x40 MSTORE PUSH1 0x4 CALLDATASIZE LT PUSH2 0x55 JUMPI PUSH1 0x0 CALLDATALOAD PUSH1 0xE0 SHR DUP1 PUSH4 0x1C829DED EQ PUSH2 0x5A JUMPI DUP1 PUSH4 0x27E235E3 EQ PUSH2 0x71 JUMPI DUP1 PUSH4 0x5EED3DCB EQ PUSH2 0xB1 JUMPI DUP1 PUSH4 0x8BF963B6 EQ PUSH2 0xEE JUMPI DUP1 PUSH4 0x8D68CF59 EQ PUSH2 0x105 JUMPI DUP1 PUSH4 0xED88C68E EQ PUSH2 0x11C JUMPI JUMPDEST PUSH1 0x0 DUP1 REVERT JUMPDEST CALLVALUE DUP1 ISZERO PUSH2 0x66 JUMPI PUSH1 0x0 DUP1 REVERT JUMPDEST POP PUSH2 0x6F PUSH2 0x126 JUMP JUMPDEST STOP JUMPDEST CALLVALUE DUP1 ISZERO PUSH2 0x7D JUMPI PUSH1 0x0 DUP1 REVERT JUMPDEST POP PUSH2 0x98 PUSH1 0x4 DUP1 CALLDATASIZE SUB DUP2 ADD SWAP1 PUSH2 0x93 SWAP2 SWAP1 PUSH2 0x977 JUMP JUMPDEST PUSH2 0x1F4 JUMP JUMPDEST PUSH1 0x40 MLOAD PUSH2 0xA8 SWAP5 SWAP4 SWAP3 SWAP2 SWAP1 PUSH2 0x9BD JUMP JUMPDEST PUSH1 0x40 MLOAD DUP1 SWAP2 SUB SWAP1 RETURN JUMPDEST CALLVALUE DUP1 ISZERO PUSH2 0xBD JUMPI PUSH1 0x0 DUP1 REVERT JUMPDEST POP PUSH2 0xD8 PUSH1 0x4 DUP1 CALLDATASIZE SUB DUP2 ADD SWAP1 PUSH2 0xD3 SWAP2 SWAP1 PUSH2 0xA2E JUMP JUMPDEST PUSH2 0x224 JUMP JUMPDEST PUSH1 0x40 MLOAD PUSH2 0xE5 SWAP2 SWAP1 PUSH2 0xA7C JUMP JUMPDEST PUSH1 0x40 MLOAD DUP1 SWAP2 SUB SWAP1 RETURN JUMPDEST CALLVALUE DUP1 ISZERO PUSH2 0xFA JUMPI PUSH1 0x0 DUP1 REVERT JUMPDEST POP PUSH2 0x103 PUSH2 0x263 JUMP JUMPDEST STOP JUMPDEST CALLVALUE DUP1 ISZERO PUSH2 0x111 JUMPI PUSH1 0x0 DUP1 REVERT JUMPDEST POP PUSH2 0x11A PUSH2 0x32D JUMP JUMPDEST STOP JUMPDEST PUSH2 0x124 PUSH2 0x420 JUMP JUMPDEST STOP JUMPDEST PUSH3 0x93A80 PUSH1 0x3 SLOAD PUSH2 0x137 SWAP2 SWAP1 PUSH2 0xAC6 JUMP JUMPDEST PUSH1 0x2 SLOAD PUSH2 0x144 SWAP2 SWAP1 PUSH2 0xB20 JUMP JUMPDEST TIMESTAMP LT ISZERO DUP1 ISZERO PUSH2 0x166 JUMPI POP PUSH1 0x1 ISZERO ISZERO PUSH1 0x4 PUSH1 0x0 SWAP1 SLOAD SWAP1 PUSH2 0x100 EXP SWAP1 DIV PUSH1 0xFF AND ISZERO ISZERO EQ JUMPDEST ISZERO PUSH2 0x1A4 JUMPI PUSH1 0x0 DUP1 SLOAD SWAP1 PUSH2 0x100 EXP SWAP1 DIV PUSH20 0xFFFFFFFFFFFFFFFFFFFFFFFFFFFFFFFFFFFFFFFF AND PUSH20 0xFFFFFFFFFFFFFFFFFFFFFFFFFFFFFFFFFFFFFFFF AND SELFDESTRUCT JUMPDEST PUSH3 0x93A80 PUSH1 0x3 SLOAD PUSH2 0x1B5 SWAP2 SWAP1 PUSH2 0xAC6 JUMP JUMPDEST PUSH1 0x2 SLOAD PUSH2 0x1C2 SWAP2 SWAP1 PUSH2 0xB20 JUMP JUMPDEST TIMESTAMP LT ISZERO DUP1 ISZERO PUSH2 0x1E4 JUMPI POP PUSH1 0x0 ISZERO ISZERO PUSH1 0x4 PUSH1 0x0 SWAP1 SLOAD SWAP1 PUSH2 0x100 EXP SWAP1 DIV PUSH1 0xFF AND ISZERO ISZERO EQ JUMPDEST ISZERO PUSH2 0x1F2 JUMPI PUSH2 0x1F1 PUSH2 0x5CD JUMP JUMPDEST JUMPDEST JUMP JUMPDEST PUSH1 0x5 PUSH1 0x20 MSTORE DUP1 PUSH1 0x0 MSTORE PUSH1 0x40 PUSH1 0x0 KECCAK256 PUSH1 0x0 SWAP2 POP SWAP1 POP DUP1 PUSH1 0x0 ADD SLOAD SWAP1 DUP1 PUSH1 0x1 ADD SLOAD SWAP1 DUP1 PUSH1 0x2 ADD SLOAD SWAP1 DUP1 PUSH1 0x3 ADD SLOAD SWAP1 POP DUP5 JUMP JUMPDEST PUSH1 0x6 DUP2 DUP2 SLOAD DUP2 LT PUSH2 0x234 JUMPI PUSH1 0x0 DUP1 REVERT JUMPDEST SWAP1 PUSH1 0x0 MSTORE PUSH1 0x20 PUSH1 0x0 KECCAK256 ADD PUSH1 0x0 SWAP2 POP SLOAD SWAP1 PUSH2 0x100 EXP SWAP1 DIV PUSH20 0xFFFFFFFFFFFFFFFFFFFFFFFFFFFFFFFFFFFFFFFF AND DUP2 JUMP JUMPDEST PUSH1 0x0 PUSH1 0x5 PUSH1 0x0 CALLER PUSH20 0xFFFFFFFFFFFFFFFFFFFFFFFFFFFFFFFFFFFFFFFF AND PUSH20 0xFFFFFFFFFFFFFFFFFFFFFFFFFFFFFFFFFFFFFFFF AND DUP2 MSTORE PUSH1 0x20 ADD SWAP1 DUP2 MSTORE PUSH1 0x20 ADD PUSH1 0x0 KECCAK256 PUSH1 0x2 ADD SLOAD SWAP1 POP CALLER PUSH20 0xFFFFFFFFFFFFFFFFFFFFFFFFFFFFFFFFFFFFFFFF AND PUSH2 0x8FC DUP3 SWAP1 DUP2 ISZERO MUL SWAP1 PUSH1 0x40 MLOAD PUSH1 0x0 PUSH1 0x40 MLOAD DUP1 DUP4 SUB DUP2 DUP6 DUP9 DUP9 CALL SWAP4 POP POP POP POP ISZERO DUP1 ISZERO PUSH2 0x2F0 JUMPI RETURNDATASIZE PUSH1 0x0 DUP1 RETURNDATACOPY RETURNDATASIZE PUSH1 0x0 REVERT JUMPDEST POP PUSH32 0xE0E5873EB9D996D2AB087B071A9A50522121C02B43308C8728C06739F52B3F87 CALLER DUP3 PUSH1 0x40 MLOAD PUSH2 0x322 SWAP3 SWAP2 SWAP1 PUSH2 0xB63 JUMP JUMPDEST PUSH1 0x40 MLOAD DUP1 SWAP2 SUB SWAP1 LOG1 POP JUMP JUMPDEST PUSH1 0x0 DUP1 SLOAD SWAP1 PUSH2 0x100 EXP SWAP1 DIV PUSH20 0xFFFFFFFFFFFFFFFFFFFFFFFFFFFFFFFFFFFFFFFF AND PUSH20 0xFFFFFFFFFFFFFFFFFFFFFFFFFFFFFFFFFFFFFFFF AND PUSH2 0x8FC PUSH1 0x5 PUSH1 0x0 CALLER PUSH20 0xFFFFFFFFFFFFFFFFFFFFFFFFFFFFFFFFFFFFFFFF AND PUSH20 0xFFFFFFFFFFFFFFFFFFFFFFFFFFFFFFFFFFFFFFFF AND DUP2 MSTORE PUSH1 0x20 ADD SWAP1 DUP2 MSTORE PUSH1 0x20 ADD PUSH1 0x0 KECCAK256 PUSH1 0x0 ADD SLOAD SWAP1 DUP2 ISZERO MUL SWAP1 PUSH1 0x40 MLOAD PUSH1 0x0 PUSH1 0x40 MLOAD DUP1 DUP4 SUB DUP2 DUP6 DUP9 DUP9 CALL SWAP4 POP POP POP POP ISZERO DUP1 ISZERO PUSH2 0x3D5 JUMPI RETURNDATASIZE PUSH1 0x0 DUP1 RETURNDATACOPY RETURNDATASIZE PUSH1 0x0 REVERT JUMPDEST POP PUSH1 0x0 PUSH1 0x5 PUSH1 0x0 CALLER PUSH20 0xFFFFFFFFFFFFFFFFFFFFFFFFFFFFFFFFFFFFFFFF AND PUSH20 0xFFFFFFFFFFFFFFFFFFFFFFFFFFFFFFFFFFFFFFFF AND DUP2 MSTORE PUSH1 0x20 ADD SWAP1 DUP2 MSTORE PUSH1 0x20 ADD PUSH1 0x0 KECCAK256 PUSH1 0x2 ADD DUP2 SWAP1 SSTORE POP JUMP JUMPDEST CALLVALUE PUSH1 0x5 PUSH1 0x0 CALLER PUSH20 0xFFFFFFFFFFFFFFFFFFFFFFFFFFFFFFFFFFFFFFFF AND PUSH20 0xFFFFFFFFFFFFFFFFFFFFFFFFFFFFFFFFFFFFFFFF AND DUP2 MSTORE PUSH1 0x20 ADD SWAP1 DUP2 MSTORE PUSH1 0x20 ADD PUSH1 0x0 KECCAK256 PUSH1 0x0 ADD PUSH1 0x0 DUP3 DUP3 SLOAD PUSH2 0x472 SWAP2 SWAP1 PUSH2 0xB20 JUMP JUMPDEST SWAP3 POP POP DUP2 SWAP1 SSTORE POP CALLVALUE PUSH1 0x5 PUSH1 0x0 CALLER PUSH20 0xFFFFFFFFFFFFFFFFFFFFFFFFFFFFFFFFFFFFFFFF AND PUSH20 0xFFFFFFFFFFFFFFFFFFFFFFFFFFFFFFFFFFFFFFFF AND DUP2 MSTORE PUSH1 0x20 ADD SWAP1 DUP2 MSTORE PUSH1 0x20 ADD PUSH1 0x0 KECCAK256 PUSH1 0x2 ADD PUSH1 0x0 DUP3 DUP3 SLOAD PUSH2 0x4CB SWAP2 SWAP1 PUSH2 0xB20 JUMP JUMPDEST SWAP3 POP POP DUP2 SWAP1 SSTORE POP PUSH1 0x1 PUSH1 0x0 DUP2 SLOAD DUP1 SWAP3 SWAP2 SWAP1 PUSH2 0x4E5 SWAP1 PUSH2 0xB8C JUMP JUMPDEST SWAP2 SWAP1 POP SSTORE PUSH1 0x5 PUSH1 0x0 CALLER PUSH20 0xFFFFFFFFFFFFFFFFFFFFFFFFFFFFFFFFFFFFFFFF AND PUSH20 0xFFFFFFFFFFFFFFFFFFFFFFFFFFFFFFFFFFFFFFFF AND DUP2 MSTORE PUSH1 0x20 ADD SWAP1 DUP2 MSTORE PUSH1 0x20 ADD PUSH1 0x0 KECCAK256 PUSH1 0x3 ADD DUP2 SWAP1 SSTORE POP PUSH1 0x6 CALLER SWAP1 DUP1 PUSH1 0x1 DUP2 SLOAD ADD DUP1 DUP3 SSTORE DUP1 SWAP2 POP POP PUSH1 0x1 SWAP1 SUB SWAP1 PUSH1 0x0 MSTORE PUSH1 0x20 PUSH1 0x0 KECCAK256 ADD PUSH1 0x0 SWAP1 SWAP2 SWAP1 SWAP2 SWAP1 SWAP2 PUSH2 0x100 EXP DUP2 SLOAD DUP2 PUSH20 0xFFFFFFFFFFFFFFFFFFFFFFFFFFFFFFFFFFFFFFFF MUL NOT AND SWAP1 DUP4 PUSH20 0xFFFFFFFFFFFFFFFFFFFFFFFFFFFFFFFFFFFFFFFF AND MUL OR SWAP1 SSTORE POP PUSH32 0x81D2C188629CC4A1C694D285150CB5FA3DDE3157A2684460D3AC7A1E331F6164 CALLER CALLVALUE PUSH1 0x40 MLOAD PUSH2 0x5C3 SWAP3 SWAP2 SWAP1 PUSH2 0xB63 JUMP JUMPDEST PUSH1 0x40 MLOAD DUP1 SWAP2 SUB SWAP1 LOG1 JUMP JUMPDEST PUSH1 0x0 JUMPDEST PUSH1 0x1 PUSH1 0x6 DUP1 SLOAD SWAP1 POP PUSH2 0x5E2 SWAP2 SWAP1 PUSH2 0xBD4 JUMP JUMPDEST DUP2 GT PUSH2 0x911 JUMPI PUSH1 0x0 DUP1 PUSH1 0x5 PUSH1 0x0 PUSH1 0x6 DUP6 DUP2 SLOAD DUP2 LT PUSH2 0x603 JUMPI PUSH2 0x602 PUSH2 0xC08 JUMP JUMPDEST JUMPDEST SWAP1 PUSH1 0x0 MSTORE PUSH1 0x20 PUSH1 0x0 KECCAK256 ADD PUSH1 0x0 SWAP1 SLOAD SWAP1 PUSH2 0x100 EXP SWAP1 DIV PUSH20 0xFFFFFFFFFFFFFFFFFFFFFFFFFFFFFFFFFFFFFFFF AND PUSH20 0xFFFFFFFFFFFFFFFFFFFFFFFFFFFFFFFFFFFFFFFF AND PUSH20 0xFFFFFFFFFFFFFFFFFFFFFFFFFFFFFFFFFFFFFFFF AND DUP2 MSTORE PUSH1 0x20 ADD SWAP1 DUP2 MSTORE PUSH1 0x20 ADD PUSH1 0x0 KECCAK256 PUSH1 0x2 ADD SLOAD GT ISZERO PUSH2 0x8FD JUMPI PUSH1 0x5 PUSH1 0x0 PUSH1 0x6 DUP5 DUP2 SLOAD DUP2 LT PUSH2 0x68A JUMPI PUSH2 0x689 PUSH2 0xC08 JUMP JUMPDEST JUMPDEST SWAP1 PUSH1 0x0 MSTORE PUSH1 0x20 PUSH1 0x0 KECCAK256 ADD PUSH1 0x0 SWAP1 SLOAD SWAP1 PUSH2 0x100 EXP SWAP1 DIV PUSH20 0xFFFFFFFFFFFFFFFFFFFFFFFFFFFFFFFFFFFFFFFF AND PUSH20 0xFFFFFFFFFFFFFFFFFFFFFFFFFFFFFFFFFFFFFFFF AND PUSH20 0xFFFFFFFFFFFFFFFFFFFFFFFFFFFFFFFFFFFFFFFF AND DUP2 MSTORE PUSH1 0x20 ADD SWAP1 DUP2 MSTORE PUSH1 0x20 ADD PUSH1 0x0 KECCAK256 PUSH1 0x2 ADD SLOAD SWAP1 POP PUSH1 0x6 DUP3 DUP2 SLOAD DUP2 LT PUSH2 0x709 JUMPI PUSH2 0x708 PUSH2 0xC08 JUMP JUMPDEST JUMPDEST SWAP1 PUSH1 0x0 MSTORE PUSH1 0x20 PUSH1 0x0 KECCAK256 ADD PUSH1 0x0 SWAP1 SLOAD SWAP1 PUSH2 0x100 EXP SWAP1 DIV PUSH20 0xFFFFFFFFFFFFFFFFFFFFFFFFFFFFFFFFFFFFFFFF AND PUSH20 0xFFFFFFFFFFFFFFFFFFFFFFFFFFFFFFFFFFFFFFFF AND PUSH2 0x8FC DUP3 SWAP1 DUP2 ISZERO MUL SWAP1 PUSH1 0x40 MLOAD PUSH1 0x0 PUSH1 0x40 MLOAD DUP1 DUP4 SUB DUP2 DUP6 DUP9 DUP9 CALL SWAP4 POP POP POP POP ISZERO DUP1 ISZERO PUSH2 0x779 JUMPI RETURNDATASIZE PUSH1 0x0 DUP1 RETURNDATACOPY RETURNDATASIZE PUSH1 0x0 REVERT JUMPDEST POP DUP1 PUSH1 0x5 PUSH1 0x0 PUSH1 0x6 DUP6 DUP2 SLOAD DUP2 LT PUSH2 0x793 JUMPI PUSH2 0x792 PUSH2 0xC08 JUMP JUMPDEST JUMPDEST SWAP1 PUSH1 0x0 MSTORE PUSH1 0x20 PUSH1 0x0 KECCAK256 ADD PUSH1 0x0 SWAP1 SLOAD SWAP1 PUSH2 0x100 EXP SWAP1 DIV PUSH20 0xFFFFFFFFFFFFFFFFFFFFFFFFFFFFFFFFFFFFFFFF AND PUSH20 0xFFFFFFFFFFFFFFFFFFFFFFFFFFFFFFFFFFFFFFFF AND PUSH20 0xFFFFFFFFFFFFFFFFFFFFFFFFFFFFFFFFFFFFFFFF AND DUP2 MSTORE PUSH1 0x20 ADD SWAP1 DUP2 MSTORE PUSH1 0x20 ADD PUSH1 0x0 KECCAK256 PUSH1 0x1 ADD DUP2 SWAP1 SSTORE POP PUSH1 0x0 PUSH1 0x5 PUSH1 0x0 PUSH1 0x6 DUP6 DUP2 SLOAD DUP2 LT PUSH2 0x819 JUMPI PUSH2 0x818 PUSH2 0xC08 JUMP JUMPDEST JUMPDEST SWAP1 PUSH1 0x0 MSTORE PUSH1 0x20 PUSH1 0x0 KECCAK256 ADD PUSH1 0x0 SWAP1 SLOAD SWAP1 PUSH2 0x100 EXP SWAP1 DIV PUSH20 0xFFFFFFFFFFFFFFFFFFFFFFFFFFFFFFFFFFFFFFFF AND PUSH20 0xFFFFFFFFFFFFFFFFFFFFFFFFFFFFFFFFFFFFFFFF AND PUSH20 0xFFFFFFFFFFFFFFFFFFFFFFFFFFFFFFFFFFFFFFFF AND DUP2 MSTORE PUSH1 0x20 ADD SWAP1 DUP2 MSTORE PUSH1 0x20 ADD PUSH1 0x0 KECCAK256 PUSH1 0x2 ADD DUP2 SWAP1 SSTORE POP PUSH32 0xE0E5873EB9D996D2AB087B071A9A50522121C02B43308C8728C06739F52B3F87 PUSH1 0x6 DUP4 DUP2 SLOAD DUP2 LT PUSH2 0x8BA JUMPI PUSH2 0x8B9 PUSH2 0xC08 JUMP JUMPDEST JUMPDEST SWAP1 PUSH1 0x0 MSTORE PUSH1 0x20 PUSH1 0x0 KECCAK256 ADD PUSH1 0x0 SWAP1 SLOAD SWAP1 PUSH2 0x100 EXP SWAP1 DIV PUSH20 0xFFFFFFFFFFFFFFFFFFFFFFFFFFFFFFFFFFFFFFFF AND DUP3 PUSH1 0x40 MLOAD PUSH2 0x8F4 SWAP3 SWAP2 SWAP1 PUSH2 0xC96 JUMP JUMPDEST PUSH1 0x40 MLOAD DUP1 SWAP2 SUB SWAP1 LOG1 JUMPDEST POP DUP1 DUP1 PUSH2 0x909 SWAP1 PUSH2 0xB8C JUMP JUMPDEST SWAP2 POP POP PUSH2 0x5D0 JUMP JUMPDEST POP JUMP JUMPDEST PUSH1 0x0 DUP1 REVERT JUMPDEST PUSH1 0x0 PUSH20 0xFFFFFFFFFFFFFFFFFFFFFFFFFFFFFFFFFFFFFFFF DUP3 AND SWAP1 POP SWAP2 SWAP1 POP JUMP JUMPDEST PUSH1 0x0 PUSH2 0x944 DUP3 PUSH2 0x919 JUMP JUMPDEST SWAP1 POP SWAP2 SWAP1 POP JUMP JUMPDEST PUSH2 0x954 DUP2 PUSH2 0x939 JUMP JUMPDEST DUP2 EQ PUSH2 0x95F JUMPI PUSH1 0x0 DUP1 REVERT JUMPDEST POP JUMP JUMPDEST PUSH1 0x0 DUP2 CALLDATALOAD SWAP1 POP PUSH2 0x971 DUP2 PUSH2 0x94B JUMP JUMPDEST SWAP3 SWAP2 POP POP JUMP JUMPDEST PUSH1 0x0 PUSH1 0x20 DUP3 DUP5 SUB SLT ISZERO PUSH2 0x98D JUMPI PUSH2 0x98C PUSH2 0x914 JUMP JUMPDEST JUMPDEST PUSH1 0x0 PUSH2 0x99B DUP5 DUP3 DUP6 ADD PUSH2 0x962 JUMP JUMPDEST SWAP2 POP POP SWAP3 SWAP2 POP POP JUMP JUMPDEST PUSH1 0x0 DUP2 SWAP1 POP SWAP2 SWAP1 POP JUMP JUMPDEST PUSH2 0x9B7 DUP2 PUSH2 0x9A4 JUMP JUMPDEST DUP3 MSTORE POP POP JUMP JUMPDEST PUSH1 0x0 PUSH1 0x80 DUP3 ADD SWAP1 POP PUSH2 0x9D2 PUSH1 0x0 DUP4 ADD DUP8 PUSH2 0x9AE JUMP JUMPDEST PUSH2 0x9DF PUSH1 0x20 DUP4 ADD DUP7 PUSH2 0x9AE JUMP JUMPDEST PUSH2 0x9EC PUSH1 0x40 DUP4 ADD DUP6 PUSH2 0x9AE JUMP JUMPDEST PUSH2 0x9F9 PUSH1 0x60 DUP4 ADD DUP5 PUSH2 0x9AE JUMP JUMPDEST SWAP6 SWAP5 POP POP POP POP POP JUMP JUMPDEST PUSH2 0xA0B DUP2 PUSH2 0x9A4 JUMP JUMPDEST DUP2 EQ PUSH2 0xA16 JUMPI PUSH1 0x0 DUP1 REVERT JUMPDEST POP JUMP JUMPDEST PUSH1 0x0 DUP2 CALLDATALOAD SWAP1 POP PUSH2 0xA28 DUP2 PUSH2 0xA02 JUMP JUMPDEST SWAP3 SWAP2 POP POP JUMP JUMPDEST PUSH1 0x0 PUSH1 0x20 DUP3 DUP5 SUB SLT ISZERO PUSH2 0xA44 JUMPI PUSH2 0xA43 PUSH2 0x914 JUMP JUMPDEST JUMPDEST PUSH1 0x0 PUSH2 0xA52 DUP5 DUP3 DUP6 ADD PUSH2 0xA19 JUMP JUMPDEST SWAP2 POP POP SWAP3 SWAP2 POP POP JUMP JUMPDEST PUSH1 0x0 PUSH2 0xA66 DUP3 PUSH2 0x919 JUMP JUMPDEST SWAP1 POP SWAP2 SWAP1 POP JUMP JUMPDEST PUSH2 0xA76 DUP2 PUSH2 0xA5B JUMP JUMPDEST DUP3 MSTORE POP POP JUMP JUMPDEST PUSH1 0x0 PUSH1 0x20 DUP3 ADD SWAP1 POP PUSH2 0xA91 PUSH1 0x0 DUP4 ADD DUP5 PUSH2 0xA6D JUMP JUMPDEST SWAP3 SWAP2 POP POP JUMP JUMPDEST PUSH32 0x4E487B7100000000000000000000000000000000000000000000000000000000 PUSH1 0x0 MSTORE PUSH1 0x11 PUSH1 0x4 MSTORE PUSH1 0x24 PUSH1 0x0 REVERT JUMPDEST PUSH1 0x0 PUSH2 0xAD1 DUP3 PUSH2 0x9A4 JUMP JUMPDEST SWAP2 POP PUSH2 0xADC DUP4 PUSH2 0x9A4 JUMP JUMPDEST SWAP3 POP DUP2 PUSH32 0xFFFFFFFFFFFFFFFFFFFFFFFFFFFFFFFFFFFFFFFFFFFFFFFFFFFFFFFFFFFFFFFF DIV DUP4 GT DUP3 ISZERO ISZERO AND ISZERO PUSH2 0xB15 JUMPI PUSH2 0xB14 PUSH2 0xA97 JUMP JUMPDEST JUMPDEST DUP3 DUP3 MUL SWAP1 POP SWAP3 SWAP2 POP POP JUMP JUMPDEST PUSH1 0x0 PUSH2 0xB2B DUP3 PUSH2 0x9A4 JUMP JUMPDEST SWAP2 POP PUSH2 0xB36 DUP4 PUSH2 0x9A4 JUMP JUMPDEST SWAP3 POP DUP3 DUP3 ADD SWAP1 POP DUP1 DUP3 GT ISZERO PUSH2 0xB4E JUMPI PUSH2 0xB4D PUSH2 0xA97 JUMP JUMPDEST JUMPDEST SWAP3 SWAP2 POP POP JUMP JUMPDEST PUSH2 0xB5D DUP2 PUSH2 0x939 JUMP JUMPDEST DUP3 MSTORE POP POP JUMP JUMPDEST PUSH1 0x0 PUSH1 0x40 DUP3 ADD SWAP1 POP PUSH2 0xB78 PUSH1 0x0 DUP4 ADD DUP6 PUSH2 0xB54 JUMP JUMPDEST PUSH2 0xB85 PUSH1 0x20 DUP4 ADD DUP5 PUSH2 0x9AE JUMP JUMPDEST SWAP4 SWAP3 POP POP POP JUMP JUMPDEST PUSH1 0x0 PUSH2 0xB97 DUP3 PUSH2 0x9A4 JUMP JUMPDEST SWAP2 POP PUSH32 0xFFFFFFFFFFFFFFFFFFFFFFFFFFFFFFFFFFFFFFFFFFFFFFFFFFFFFFFFFFFFFFFF DUP3 SUB PUSH2 0xBC9 JUMPI PUSH2 0xBC8 PUSH2 0xA97 JUMP JUMPDEST JUMPDEST PUSH1 0x1 DUP3 ADD SWAP1 POP SWAP2 SWAP1 POP JUMP JUMPDEST PUSH1 0x0 PUSH2 0xBDF DUP3 PUSH2 0x9A4 JUMP JUMPDEST SWAP2 POP PUSH2 0xBEA DUP4 PUSH2 0x9A4 JUMP JUMPDEST SWAP3 POP DUP3 DUP3 SUB SWAP1 POP DUP2 DUP2 GT ISZERO PUSH2 0xC02 JUMPI PUSH2 0xC01 PUSH2 0xA97 JUMP JUMPDEST JUMPDEST SWAP3 SWAP2 POP POP JUMP JUMPDEST PUSH32 0x4E487B7100000000000000000000000000000000000000000000000000000000 PUSH1 0x0 MSTORE PUSH1 0x32 PUSH1 0x4 MSTORE PUSH1 0x24 PUSH1 0x0 REVERT JUMPDEST PUSH1 0x0 DUP2 SWAP1 POP SWAP2 SWAP1 POP JUMP JUMPDEST PUSH1 0x0 PUSH2 0xC5C PUSH2 0xC57 PUSH2 0xC52 DUP5 PUSH2 0x919 JUMP JUMPDEST PUSH2 0xC37 JUMP JUMPDEST PUSH2 0x919 JUMP JUMPDEST SWAP1 POP SWAP2 SWAP1 POP JUMP JUMPDEST PUSH1 0x0 PUSH2 0xC6E DUP3 PUSH2 0xC41 JUMP JUMPDEST SWAP1 POP SWAP2 SWAP1 POP JUMP JUMPDEST PUSH1 0x0 PUSH2 0xC80 DUP3 PUSH2 0xC63 JUMP JUMPDEST SWAP1 POP SWAP2 SWAP1 POP JUMP JUMPDEST PUSH2 0xC90 DUP2 PUSH2 0xC75 JUMP JUMPDEST DUP3 MSTORE POP POP JUMP JUMPDEST PUSH1 0x0 PUSH1 0x40 DUP3 ADD SWAP1 POP PUSH2 0xCAB PUSH1 0x0 DUP4 ADD DUP6 PUSH2 0xC87 JUMP JUMPDEST PUSH2 0xCB8 PUSH1 0x20 DUP4 ADD DUP5 PUSH2 0x9AE JUMP JUMPDEST SWAP4 SWAP3 POP POP POP JUMP INVALID LOG2 PUSH5 0x6970667358 0x22 SLT KECCAK256 SWAP13 GASPRICE ADDRESS ADDRESS EXP PUSH19 0x2F42B8133279E9A9F498337A2582E2B8B52293 PUSH1 0x48 0xD7 LT EXTCODESIZE 0xC1 CALL PUSH5 0x736F6C6343 STOP ADDMOD LT STOP CALLER "
				},
				"gasEstimates": {
					"creation": {
						"codeDepositCost": "663400",
						"executionCost": "infinite",
						"totalCost": "infinite"
					},
					"external": {
						"balances(address)": "infinite",
						"donate()": "infinite",
						"donorList(uint256)": "4978",
						"sendFunds()": "infinite",
						"singleRefund()": "infinite",
						"timeExpired()": "infinite"
					},
					"internal": {
						"approval()": "infinite",
						"returnFunds()": "infinite"
					}
				},
				"methodIdentifiers": {
					"balances(address)": "27e235e3",
					"donate()": "ed88c68e",
					"donorList(uint256)": "5eed3dcb",
					"sendFunds()": "8d68cf59",
					"singleRefund()": "8bf963b6",
					"timeExpired()": "1c829ded"
				}
			},
			"storageLayout": {
				"storage": [
					{
						"astId": 3,
						"contract": "contracts/senior project.sol:MyContract",
						"label": "wallet",
						"offset": 0,
						"slot": "0",
						"type": "t_address_payable"
					},
					{
						"astId": 5,
						"contract": "contracts/senior project.sol:MyContract",
						"label": "Dcounter",
						"offset": 0,
						"slot": "1",
						"type": "t_uint256"
					},
					{
						"astId": 7,
						"contract": "contracts/senior project.sol:MyContract",
						"label": "deployDate",
						"offset": 0,
						"slot": "2",
						"type": "t_uint256"
					},
					{
						"astId": 9,
						"contract": "contracts/senior project.sol:MyContract",
						"label": "deadline",
						"offset": 0,
						"slot": "3",
						"type": "t_uint256"
					},
					{
						"astId": 12,
						"contract": "contracts/senior project.sol:MyContract",
						"label": "approved",
						"offset": 0,
						"slot": "4",
						"type": "t_bool"
					},
					{
						"astId": 47,
						"contract": "contracts/senior project.sol:MyContract",
						"label": "balances",
						"offset": 0,
						"slot": "5",
						"type": "t_mapping(t_address,t_struct(donor)42_storage)"
					},
					{
						"astId": 50,
						"contract": "contracts/senior project.sol:MyContract",
						"label": "donorList",
						"offset": 0,
						"slot": "6",
						"type": "t_array(t_address_payable)dyn_storage"
					}
				],
				"types": {
					"t_address": {
						"encoding": "inplace",
						"label": "address",
						"numberOfBytes": "20"
					},
					"t_address_payable": {
						"encoding": "inplace",
						"label": "address payable",
						"numberOfBytes": "20"
					},
					"t_array(t_address_payable)dyn_storage": {
						"base": "t_address_payable",
						"encoding": "dynamic_array",
						"label": "address payable[]",
						"numberOfBytes": "32"
					},
					"t_bool": {
						"encoding": "inplace",
						"label": "bool",
						"numberOfBytes": "1"
					},
					"t_mapping(t_address,t_struct(donor)42_storage)": {
						"encoding": "mapping",
						"key": "t_address",
						"label": "mapping(address => struct MyContract.donor)",
						"numberOfBytes": "32",
						"value": "t_struct(donor)42_storage"
					},
					"t_struct(donor)42_storage": {
						"encoding": "inplace",
						"label": "struct MyContract.donor",
						"members": [
							{
								"astId": 35,
								"contract": "contracts/senior project.sol:MyContract",
								"label": "totalDono",
								"offset": 0,
								"slot": "0",
								"type": "t_uint256"
							},
							{
								"astId": 37,
								"contract": "contracts/senior project.sol:MyContract",
								"label": "returnedDono",
								"offset": 0,
								"slot": "1",
								"type": "t_uint256"
							},
							{
								"astId": 39,
								"contract": "contracts/senior project.sol:MyContract",
								"label": "returnable",
								"offset": 0,
								"slot": "2",
								"type": "t_uint256"
							},
							{
								"astId": 41,
								"contract": "contracts/senior project.sol:MyContract",
								"label": "donorListPointer",
								"offset": 0,
								"slot": "3",
								"type": "t_uint256"
							}
						],
						"numberOfBytes": "128"
					},
					"t_uint256": {
						"encoding": "inplace",
						"label": "uint256",
						"numberOfBytes": "32"
					}
				}
			},
			"userdoc": {
				"kind": "user",
				"methods": {},
				"version": 1
			}
		}
	}
}