{
	"contracts/senior project.sol": {
		"Caller": {
			"abi": [
				{
					"anonymous": false,
					"inputs": [
						{
							"indexed": false,
							"internalType": "address",
							"name": "sender",
							"type": "address"
						},
						{
							"indexed": false,
							"internalType": "uint256",
							"name": "amount",
							"type": "uint256"
						}
					],
					"name": "LogReceivedFunds",
					"type": "event"
				},
				{
					"anonymous": false,
					"inputs": [
						{
							"indexed": false,
							"internalType": "address",
							"name": "recipient",
							"type": "address"
						},
						{
							"indexed": false,
							"internalType": "uint256",
							"name": "amount",
							"type": "uint256"
						}
					],
					"name": "LogReturnedFunds",
					"type": "event"
				},
				{
					"inputs": [],
					"name": "approval",
					"outputs": [],
					"stateMutability": "nonpayable",
					"type": "function"
				},
				{
					"inputs": [
						{
							"internalType": "address",
							"name": "",
							"type": "address"
						}
					],
					"name": "balances",
					"outputs": [
						{
							"internalType": "uint256",
							"name": "totalDono",
							"type": "uint256"
						},
						{
							"internalType": "uint256",
							"name": "returnedDono",
							"type": "uint256"
						},
						{
							"internalType": "uint256",
							"name": "returnable",
							"type": "uint256"
						},
						{
							"internalType": "uint256",
							"name": "donorListPointer",
							"type": "uint256"
						}
					],
					"stateMutability": "view",
					"type": "function"
				},
				{
					"inputs": [
						{
							"internalType": "address payable",
							"name": "_wallet",
							"type": "address"
						},
						{
							"internalType": "uint256",
							"name": "numWeeks",
							"type": "uint256"
						}
					],
					"name": "deploy",
					"outputs": [],
					"stateMutability": "nonpayable",
					"type": "function"
				},
				{
					"inputs": [],
					"name": "donate",
					"outputs": [],
					"stateMutability": "payable",
					"type": "function"
				},
				{
					"inputs": [
						{
							"internalType": "uint256",
							"name": "",
							"type": "uint256"
						}
					],
					"name": "donorList",
					"outputs": [
						{
							"internalType": "address payable",
							"name": "",
							"type": "address"
						}
					],
					"stateMutability": "view",
					"type": "function"
				},
				{
					"inputs": [],
					"name": "extendTime",
					"outputs": [],
					"stateMutability": "nonpayable",
					"type": "function"
				},
				{
					"inputs": [],
					"name": "sendFunds",
					"outputs": [],
					"stateMutability": "nonpayable",
					"type": "function"
				},
				{
					"inputs": [],
					"name": "singleRefund",
					"outputs": [],
					"stateMutability": "nonpayable",
					"type": "function"
				}
			],
			"devdoc": {
				"kind": "dev",
				"methods": {},
				"version": 1
			},
			"evm": {
				"assembly": "    /* \"contracts/senior project.sol\":3373:3451  contract Caller is MyContract {... */\n  mstore(0x40, 0x80)\n    /* \"contracts/senior project.sol\":309:314  false */\n  0x00\n    /* \"contracts/senior project.sol\":293:314  bool approved = false */\n  0x04\n  exp(0x0100, 0x00)\n  dup2\n  sload\n  dup2\n  0xff\n  mul\n  not\n  and\n  swap1\n  dup4\n  iszero\n  iszero\n  mul\n  or\n  swap1\n  sstore\n  pop\n    /* \"contracts/senior project.sol\":2659:2660  0 */\n  0x00\n    /* \"contracts/senior project.sol\":2643:2660  uint EXcounter =0 */\n  0x07\n  sstore\n    /* \"contracts/senior project.sol\":3425:3441  new MyContract() */\n  mload(0x40)\n  tag_1\n  swap1\n  tag_2\n  jump\t// in\ntag_1:\n  mload(0x40)\n  dup1\n  swap2\n  sub\n  swap1\n  0x00\n  create\n  dup1\n  iszero\n  dup1\n  iszero\n  tag_3\n  jumpi\n  returndatasize\n  0x00\n  dup1\n  returndatacopy\n  revert(0x00, returndatasize)\ntag_3:\n  pop\n    /* \"contracts/senior project.sol\":3410:3441  MyContract c = new MyContract() */\n  0x08\n  exp(0x0100, 0x00)\n  dup2\n  sload\n  dup2\n  0xffffffffffffffffffffffffffffffffffffffff\n  mul\n  not\n  and\n  swap1\n  dup4\n  0xffffffffffffffffffffffffffffffffffffffff\n  and\n  mul\n  or\n  swap1\n  sstore\n  pop\n    /* \"contracts/senior project.sol\":3373:3451  contract Caller is MyContract {... */\n  callvalue\n  dup1\n  iszero\n  tag_4\n  jumpi\n  0x00\n  dup1\n  revert\ntag_4:\n  pop\n  jump(tag_5)\ntag_2:\n  dataSize(sub_1)\n  dup1\n  dataOffset(sub_1)\n  dup4\n  codecopy\n  add\n  swap1\n  jump\t// out\ntag_5:\n  dataSize(sub_0)\n  dup1\n  dataOffset(sub_0)\n  0x00\n  codecopy\n  0x00\n  return\nstop\n\nsub_0: assembly {\n        /* \"contracts/senior project.sol\":3373:3451  contract Caller is MyContract {... */\n      mstore(0x40, 0x80)\n      jumpi(tag_1, lt(calldatasize, 0x04))\n      shr(0xe0, calldataload(0x00))\n      dup1\n      0x8bf963b6\n      gt\n      tag_10\n      jumpi\n      dup1\n      0x8bf963b6\n      eq\n      tag_6\n      jumpi\n      dup1\n      0x8d68cf59\n      eq\n      tag_7\n      jumpi\n      dup1\n      0xabb6ae89\n      eq\n      tag_8\n      jumpi\n      dup1\n      0xed88c68e\n      eq\n      tag_9\n      jumpi\n      jump(tag_1)\n    tag_10:\n      dup1\n      0x27e235e3\n      eq\n      tag_2\n      jumpi\n      dup1\n      0x39788bc8\n      eq\n      tag_3\n      jumpi\n      dup1\n      0x4956eaf0\n      eq\n      tag_4\n      jumpi\n      dup1\n      0x5eed3dcb\n      eq\n      tag_5\n      jumpi\n    tag_1:\n      0x00\n      dup1\n      revert\n        /* \"contracts/senior project.sol\":653:694  mapping(address => donor) public balances */\n    tag_2:\n      callvalue\n      dup1\n      iszero\n      tag_11\n      jumpi\n      0x00\n      dup1\n      revert\n    tag_11:\n      pop\n      tag_12\n      0x04\n      dup1\n      calldatasize\n      sub\n      dup2\n      add\n      swap1\n      tag_13\n      swap2\n      swap1\n      tag_14\n      jump\t// in\n    tag_13:\n      tag_15\n      jump\t// in\n    tag_12:\n      mload(0x40)\n      tag_16\n      swap5\n      swap4\n      swap3\n      swap2\n      swap1\n      tag_17\n      jump\t// in\n    tag_16:\n      mload(0x40)\n      dup1\n      swap2\n      sub\n      swap1\n      return\n        /* \"contracts/senior project.sol\":2474:2579  function approval() public{       ... */\n    tag_3:\n      callvalue\n      dup1\n      iszero\n      tag_18\n      jumpi\n      0x00\n      dup1\n      revert\n    tag_18:\n      pop\n      tag_19\n      tag_20\n      jump\t// in\n    tag_19:\n      stop\n        /* \"contracts/senior project.sol\":323:490  function deploy (address payable _wallet, uint numWeeks) public{... */\n    tag_4:\n      callvalue\n      dup1\n      iszero\n      tag_21\n      jumpi\n      0x00\n      dup1\n      revert\n    tag_21:\n      pop\n      tag_22\n      0x04\n      dup1\n      calldatasize\n      sub\n      dup2\n      add\n      swap1\n      tag_23\n      swap2\n      swap1\n      tag_24\n      jump\t// in\n    tag_23:\n      tag_25\n      jump\t// in\n    tag_22:\n      stop\n        /* \"contracts/senior project.sol\":701:735  address payable[] public donorList */\n    tag_5:\n      callvalue\n      dup1\n      iszero\n      tag_26\n      jumpi\n      0x00\n      dup1\n      revert\n    tag_26:\n      pop\n      tag_27\n      0x04\n      dup1\n      calldatasize\n      sub\n      dup2\n      add\n      swap1\n      tag_28\n      swap2\n      swap1\n      tag_29\n      jump\t// in\n    tag_28:\n      tag_30\n      jump\t// in\n    tag_27:\n      mload(0x40)\n      tag_31\n      swap2\n      swap1\n      tag_32\n      jump\t// in\n    tag_31:\n      mload(0x40)\n      dup1\n      swap2\n      sub\n      swap1\n      return\n        /* \"contracts/senior project.sol\":1595:1799  function singleRefund () public{... */\n    tag_6:\n      callvalue\n      dup1\n      iszero\n      tag_33\n      jumpi\n      0x00\n      dup1\n      revert\n    tag_33:\n      pop\n      tag_34\n      tag_35\n      jump\t// in\n    tag_34:\n      stop\n        /* \"contracts/senior project.sol\":1446:1587  function sendFunds () public{... */\n    tag_7:\n      callvalue\n      dup1\n      iszero\n      tag_36\n      jumpi\n      0x00\n      dup1\n      revert\n    tag_36:\n      pop\n      tag_37\n      tag_38\n      jump\t// in\n    tag_37:\n      stop\n        /* \"contracts/senior project.sol\":2736:2898  function extendTime() public {... */\n    tag_8:\n      callvalue\n      dup1\n      iszero\n      tag_39\n      jumpi\n      0x00\n      dup1\n      revert\n    tag_39:\n      pop\n      tag_40\n      tag_41\n      jump\t// in\n    tag_40:\n      stop\n        /* \"contracts/senior project.sol\":1063:1374  function donate() public payable{... */\n    tag_9:\n      tag_42\n      tag_43\n      jump\t// in\n    tag_42:\n      stop\n        /* \"contracts/senior project.sol\":653:694  mapping(address => donor) public balances */\n    tag_15:\n      mstore(0x20, 0x05)\n      dup1\n      0x00\n      mstore\n      keccak256(0x00, 0x40)\n      0x00\n      swap2\n      pop\n      swap1\n      pop\n      dup1\n      0x00\n      add\n      sload\n      swap1\n      dup1\n      0x01\n      add\n      sload\n      swap1\n      dup1\n      0x02\n      add\n      sload\n      swap1\n      dup1\n      0x03\n      add\n      sload\n      swap1\n      pop\n      dup5\n      jump\t// out\n        /* \"contracts/senior project.sol\":2474:2579  function approval() public{       ... */\n    tag_20:\n        /* \"contracts/senior project.sol\":2538:2544  wallet */\n      0x00\n      dup1\n      sload\n      swap1\n      0x0100\n      exp\n      swap1\n      div\n      0xffffffffffffffffffffffffffffffffffffffff\n      and\n        /* \"contracts/senior project.sol\":2524:2544  msg.sender == wallet */\n      0xffffffffffffffffffffffffffffffffffffffff\n      and\n        /* \"contracts/senior project.sol\":2524:2534  msg.sender */\n      caller\n        /* \"contracts/senior project.sol\":2524:2544  msg.sender == wallet */\n      0xffffffffffffffffffffffffffffffffffffffff\n      and\n      eq\n        /* \"contracts/senior project.sol\":2516:2545  require(msg.sender == wallet) */\n      tag_45\n      jumpi\n      0x00\n      dup1\n      revert\n    tag_45:\n        /* \"contracts/senior project.sol\":2567:2571  true */\n      0x01\n        /* \"contracts/senior project.sol\":2556:2564  approved */\n      0x04\n      0x00\n        /* \"contracts/senior project.sol\":2556:2571  approved = true */\n      0x0100\n      exp\n      dup2\n      sload\n      dup2\n      0xff\n      mul\n      not\n      and\n      swap1\n      dup4\n      iszero\n      iszero\n      mul\n      or\n      swap1\n      sstore\n      pop\n        /* \"contracts/senior project.sol\":2474:2579  function approval() public{       ... */\n      jump\t// out\n        /* \"contracts/senior project.sol\":323:490  function deploy (address payable _wallet, uint numWeeks) public{... */\n    tag_25:\n        /* \"contracts/senior project.sol\":406:413  _wallet */\n      dup2\n        /* \"contracts/senior project.sol\":397:403  wallet */\n      0x00\n      dup1\n        /* \"contracts/senior project.sol\":397:413  wallet = _wallet */\n      0x0100\n      exp\n      dup2\n      sload\n      dup2\n      0xffffffffffffffffffffffffffffffffffffffff\n      mul\n      not\n      and\n      swap1\n      dup4\n      0xffffffffffffffffffffffffffffffffffffffff\n      and\n      mul\n      or\n      swap1\n      sstore\n      pop\n        /* \"contracts/senior project.sol\":437:452  block.timestamp */\n      timestamp\n        /* \"contracts/senior project.sol\":424:434  deployDate */\n      0x02\n        /* \"contracts/senior project.sol\":424:452  deployDate = block.timestamp */\n      dup2\n      swap1\n      sstore\n      pop\n        /* \"contracts/senior project.sol\":474:482  numWeeks */\n      dup1\n        /* \"contracts/senior project.sol\":463:471  deadline */\n      0x03\n        /* \"contracts/senior project.sol\":463:482  deadline = numWeeks */\n      dup2\n      swap1\n      sstore\n      pop\n        /* \"contracts/senior project.sol\":323:490  function deploy (address payable _wallet, uint numWeeks) public{... */\n      pop\n      pop\n      jump\t// out\n        /* \"contracts/senior project.sol\":701:735  address payable[] public donorList */\n    tag_30:\n      0x06\n      dup2\n      dup2\n      sload\n      dup2\n      lt\n      tag_47\n      jumpi\n      0x00\n      dup1\n      revert\n    tag_47:\n      swap1\n      0x00\n      mstore\n      keccak256(0x00, 0x20)\n      add\n      0x00\n      swap2\n      pop\n      sload\n      swap1\n      0x0100\n      exp\n      swap1\n      div\n      0xffffffffffffffffffffffffffffffffffffffff\n      and\n      dup2\n      jump\t// out\n        /* \"contracts/senior project.sol\":1595:1799  function singleRefund () public{... */\n    tag_35:\n        /* \"contracts/senior project.sol\":1637:1651  uint returnAmt */\n      0x00\n        /* \"contracts/senior project.sol\":1654:1662  balances */\n      0x05\n        /* \"contracts/senior project.sol\":1654:1674  balances[msg.sender] */\n      0x00\n        /* \"contracts/senior project.sol\":1663:1673  msg.sender */\n      caller\n        /* \"contracts/senior project.sol\":1654:1674  balances[msg.sender] */\n      0xffffffffffffffffffffffffffffffffffffffff\n      and\n      0xffffffffffffffffffffffffffffffffffffffff\n      and\n      dup2\n      mstore\n      0x20\n      add\n      swap1\n      dup2\n      mstore\n      0x20\n      add\n      0x00\n      keccak256\n        /* \"contracts/senior project.sol\":1654:1685  balances[msg.sender].returnable */\n      0x02\n      add\n      sload\n        /* \"contracts/senior project.sol\":1637:1685  uint returnAmt = balances[msg.sender].returnable */\n      swap1\n      pop\n        /* \"contracts/senior project.sol\":1705:1715  msg.sender */\n      caller\n        /* \"contracts/senior project.sol\":1696:1725  payable (msg.sender).transfer */\n      0xffffffffffffffffffffffffffffffffffffffff\n      and\n        /* \"contracts/senior project.sol\":1696:1736  payable (msg.sender).transfer(returnAmt) */\n      0x08fc\n        /* \"contracts/senior project.sol\":1726:1735  returnAmt */\n      dup3\n        /* \"contracts/senior project.sol\":1696:1736  payable (msg.sender).transfer(returnAmt) */\n      swap1\n      dup2\n      iszero\n      mul\n      swap1\n      mload(0x40)\n      0x00\n      mload(0x40)\n      dup1\n      dup4\n      sub\n      dup2\n      dup6\n      dup9\n      dup9\n      call\n      swap4\n      pop\n      pop\n      pop\n      pop\n      iszero\n      dup1\n      iszero\n      tag_51\n      jumpi\n      returndatasize\n      0x00\n      dup1\n      returndatacopy\n      revert(0x00, returndatasize)\n    tag_51:\n      pop\n        /* \"contracts/senior project.sol\":1752:1791  LogReturnedFunds(msg.sender, returnAmt) */\n      0xe0e5873eb9d996d2ab087b071a9a50522121c02b43308c8728c06739f52b3f87\n        /* \"contracts/senior project.sol\":1769:1779  msg.sender */\n      caller\n        /* \"contracts/senior project.sol\":1781:1790  returnAmt */\n      dup3\n        /* \"contracts/senior project.sol\":1752:1791  LogReturnedFunds(msg.sender, returnAmt) */\n      mload(0x40)\n      tag_52\n      swap3\n      swap2\n      swap1\n      tag_53\n      jump\t// in\n    tag_52:\n      mload(0x40)\n      dup1\n      swap2\n      sub\n      swap1\n      log1\n        /* \"contracts/senior project.sol\":1626:1799  {... */\n      pop\n        /* \"contracts/senior project.sol\":1595:1799  function singleRefund () public{... */\n      jump\t// out\n        /* \"contracts/senior project.sol\":1446:1587  function sendFunds () public{... */\n    tag_38:\n        /* \"contracts/senior project.sol\":1485:1491  wallet */\n      0x00\n      dup1\n      sload\n      swap1\n      0x0100\n      exp\n      swap1\n      div\n      0xffffffffffffffffffffffffffffffffffffffff\n      and\n        /* \"contracts/senior project.sol\":1485:1500  wallet.transfer */\n      0xffffffffffffffffffffffffffffffffffffffff\n      and\n        /* \"contracts/senior project.sol\":1485:1532  wallet.transfer(balances[msg.sender].totalDono) */\n      0x08fc\n        /* \"contracts/senior project.sol\":1501:1509  balances */\n      0x05\n        /* \"contracts/senior project.sol\":1501:1521  balances[msg.sender] */\n      0x00\n        /* \"contracts/senior project.sol\":1510:1520  msg.sender */\n      caller\n        /* \"contracts/senior project.sol\":1501:1521  balances[msg.sender] */\n      0xffffffffffffffffffffffffffffffffffffffff\n      and\n      0xffffffffffffffffffffffffffffffffffffffff\n      and\n      dup2\n      mstore\n      0x20\n      add\n      swap1\n      dup2\n      mstore\n      0x20\n      add\n      0x00\n      keccak256\n        /* \"contracts/senior project.sol\":1501:1531  balances[msg.sender].totalDono */\n      0x00\n      add\n      sload\n        /* \"contracts/senior project.sol\":1485:1532  wallet.transfer(balances[msg.sender].totalDono) */\n      swap1\n      dup2\n      iszero\n      mul\n      swap1\n      mload(0x40)\n      0x00\n      mload(0x40)\n      dup1\n      dup4\n      sub\n      dup2\n      dup6\n      dup9\n      dup9\n      call\n      swap4\n      pop\n      pop\n      pop\n      pop\n      iszero\n      dup1\n      iszero\n      tag_56\n      jumpi\n      returndatasize\n      0x00\n      dup1\n      returndatacopy\n      revert(0x00, returndatasize)\n    tag_56:\n      pop\n        /* \"contracts/senior project.sol\":1578:1579  0 */\n      0x00\n        /* \"contracts/senior project.sol\":1544:1552  balances */\n      0x05\n        /* \"contracts/senior project.sol\":1544:1564  balances[msg.sender] */\n      0x00\n        /* \"contracts/senior project.sol\":1553:1563  msg.sender */\n      caller\n        /* \"contracts/senior project.sol\":1544:1564  balances[msg.sender] */\n      0xffffffffffffffffffffffffffffffffffffffff\n      and\n      0xffffffffffffffffffffffffffffffffffffffff\n      and\n      dup2\n      mstore\n      0x20\n      add\n      swap1\n      dup2\n      mstore\n      0x20\n      add\n      0x00\n      keccak256\n        /* \"contracts/senior project.sol\":1544:1575  balances[msg.sender].returnable */\n      0x02\n      add\n        /* \"contracts/senior project.sol\":1544:1579  balances[msg.sender].returnable = 0 */\n      dup2\n      swap1\n      sstore\n      pop\n        /* \"contracts/senior project.sol\":1446:1587  function sendFunds () public{... */\n      jump\t// out\n        /* \"contracts/senior project.sol\":2736:2898  function extendTime() public {... */\n    tag_41:\n        /* \"contracts/senior project.sol\":2798:2804  wallet */\n      0x00\n      dup1\n      sload\n      swap1\n      0x0100\n      exp\n      swap1\n      div\n      0xffffffffffffffffffffffffffffffffffffffff\n      and\n        /* \"contracts/senior project.sol\":2784:2804  msg.sender == wallet */\n      0xffffffffffffffffffffffffffffffffffffffff\n      and\n        /* \"contracts/senior project.sol\":2784:2794  msg.sender */\n      caller\n        /* \"contracts/senior project.sol\":2784:2804  msg.sender == wallet */\n      0xffffffffffffffffffffffffffffffffffffffff\n      and\n      eq\n        /* \"contracts/senior project.sol\":2776:2805  require(msg.sender == wallet) */\n      tag_58\n      jumpi\n      0x00\n      dup1\n      revert\n    tag_58:\n        /* \"contracts/senior project.sol\":2832:2833  0 */\n      0x00\n        /* \"contracts/senior project.sol\":2819:2828  EXcounter */\n      sload(0x07)\n        /* \"contracts/senior project.sol\":2819:2833  EXcounter == 0 */\n      sub\n        /* \"contracts/senior project.sol\":2816:2891  if(EXcounter == 0){... */\n      tag_59\n      jumpi\n        /* \"contracts/senior project.sol\":2856:2857  3 */\n      0x03\n        /* \"contracts/senior project.sol\":2845:2853  deadline */\n      dup1\n      sload\n        /* \"contracts/senior project.sol\":2845:2857  deadline + 3 */\n      tag_60\n      swap2\n      swap1\n      tag_61\n      jump\t// in\n    tag_60:\n      pop\n        /* \"contracts/senior project.sol\":2868:2877  EXcounter */\n      0x07\n      0x00\n        /* \"contracts/senior project.sol\":2868:2879  EXcounter++ */\n      dup2\n      sload\n      dup1\n      swap3\n      swap2\n      swap1\n      tag_62\n      swap1\n      tag_63\n      jump\t// in\n    tag_62:\n      swap2\n      swap1\n      pop\n      sstore\n      pop\n        /* \"contracts/senior project.sol\":2816:2891  if(EXcounter == 0){... */\n    tag_59:\n        /* \"contracts/senior project.sol\":2736:2898  function extendTime() public {... */\n      jump\t// out\n        /* \"contracts/senior project.sol\":1063:1374  function donate() public payable{... */\n    tag_43:\n        /* \"contracts/senior project.sol\":1140:1149  msg.value */\n      callvalue\n        /* \"contracts/senior project.sol\":1106:1114  balances */\n      0x05\n        /* \"contracts/senior project.sol\":1106:1126  balances[msg.sender] */\n      0x00\n        /* \"contracts/senior project.sol\":1115:1125  msg.sender */\n      caller\n        /* \"contracts/senior project.sol\":1106:1126  balances[msg.sender] */\n      0xffffffffffffffffffffffffffffffffffffffff\n      and\n      0xffffffffffffffffffffffffffffffffffffffff\n      and\n      dup2\n      mstore\n      0x20\n      add\n      swap1\n      dup2\n      mstore\n      0x20\n      add\n      0x00\n      keccak256\n        /* \"contracts/senior project.sol\":1106:1136  balances[msg.sender].totalDono */\n      0x00\n      add\n      0x00\n        /* \"contracts/senior project.sol\":1106:1149  balances[msg.sender].totalDono += msg.value */\n      dup3\n      dup3\n      sload\n      tag_65\n      swap2\n      swap1\n      tag_61\n      jump\t// in\n    tag_65:\n      swap3\n      pop\n      pop\n      dup2\n      swap1\n      sstore\n      pop\n        /* \"contracts/senior project.sol\":1195:1204  msg.value */\n      callvalue\n        /* \"contracts/senior project.sol\":1160:1168  balances */\n      0x05\n        /* \"contracts/senior project.sol\":1160:1180  balances[msg.sender] */\n      0x00\n        /* \"contracts/senior project.sol\":1169:1179  msg.sender */\n      caller\n        /* \"contracts/senior project.sol\":1160:1180  balances[msg.sender] */\n      0xffffffffffffffffffffffffffffffffffffffff\n      and\n      0xffffffffffffffffffffffffffffffffffffffff\n      and\n      dup2\n      mstore\n      0x20\n      add\n      swap1\n      dup2\n      mstore\n      0x20\n      add\n      0x00\n      keccak256\n        /* \"contracts/senior project.sol\":1160:1191  balances[msg.sender].returnable */\n      0x02\n      add\n      0x00\n        /* \"contracts/senior project.sol\":1160:1204  balances[msg.sender].returnable += msg.value */\n      dup3\n      dup3\n      sload\n      tag_66\n      swap2\n      swap1\n      tag_61\n      jump\t// in\n    tag_66:\n      swap3\n      pop\n      pop\n      dup2\n      swap1\n      sstore\n      pop\n        /* \"contracts/senior project.sol\":1255:1263  Dcounter */\n      0x01\n      0x00\n        /* \"contracts/senior project.sol\":1255:1265  Dcounter++ */\n      dup2\n      sload\n      dup1\n      swap3\n      swap2\n      swap1\n      tag_67\n      swap1\n      tag_63\n      jump\t// in\n    tag_67:\n      swap2\n      swap1\n      pop\n      sstore\n        /* \"contracts/senior project.sol\":1215:1223  balances */\n      0x05\n        /* \"contracts/senior project.sol\":1215:1235  balances[msg.sender] */\n      0x00\n        /* \"contracts/senior project.sol\":1224:1234  msg.sender */\n      caller\n        /* \"contracts/senior project.sol\":1215:1235  balances[msg.sender] */\n      0xffffffffffffffffffffffffffffffffffffffff\n      and\n      0xffffffffffffffffffffffffffffffffffffffff\n      and\n      dup2\n      mstore\n      0x20\n      add\n      swap1\n      dup2\n      mstore\n      0x20\n      add\n      0x00\n      keccak256\n        /* \"contracts/senior project.sol\":1215:1252  balances[msg.sender].donorListPointer */\n      0x03\n      add\n        /* \"contracts/senior project.sol\":1215:1265  balances[msg.sender].donorListPointer = Dcounter++ */\n      dup2\n      swap1\n      sstore\n      pop\n        /* \"contracts/senior project.sol\":1276:1285  donorList */\n      0x06\n        /* \"contracts/senior project.sol\":1299:1309  msg.sender */\n      caller\n        /* \"contracts/senior project.sol\":1276:1311  donorList.push(payable(msg.sender)) */\n      swap1\n      dup1\n      0x01\n      dup2\n      sload\n      add\n      dup1\n      dup3\n      sstore\n      dup1\n      swap2\n      pop\n      pop\n      0x01\n      swap1\n      sub\n      swap1\n      0x00\n      mstore\n      keccak256(0x00, 0x20)\n      add\n      0x00\n      swap1\n      swap2\n      swap1\n      swap2\n      swap1\n      swap2\n      0x0100\n      exp\n      dup2\n      sload\n      dup2\n      0xffffffffffffffffffffffffffffffffffffffff\n      mul\n      not\n      and\n      swap1\n      dup4\n      0xffffffffffffffffffffffffffffffffffffffff\n      and\n      mul\n      or\n      swap1\n      sstore\n      pop\n        /* \"contracts/senior project.sol\":1327:1366  LogReceivedFunds(msg.sender, msg.value) */\n      0x81d2c188629cc4a1c694d285150cb5fa3dde3157a2684460d3ac7a1e331f6164\n        /* \"contracts/senior project.sol\":1344:1354  msg.sender */\n      caller\n        /* \"contracts/senior project.sol\":1356:1365  msg.value */\n      callvalue\n        /* \"contracts/senior project.sol\":1327:1366  LogReceivedFunds(msg.sender, msg.value) */\n      mload(0x40)\n      tag_69\n      swap3\n      swap2\n      swap1\n      tag_53\n      jump\t// in\n    tag_69:\n      mload(0x40)\n      dup1\n      swap2\n      sub\n      swap1\n      log1\n        /* \"contracts/senior project.sol\":1063:1374  function donate() public payable{... */\n      jump\t// out\n        /* \"#utility.yul\":88:205   */\n    tag_71:\n        /* \"#utility.yul\":197:198   */\n      0x00\n        /* \"#utility.yul\":194:195   */\n      dup1\n        /* \"#utility.yul\":187:199   */\n      revert\n        /* \"#utility.yul\":334:460   */\n    tag_73:\n        /* \"#utility.yul\":371:378   */\n      0x00\n        /* \"#utility.yul\":411:453   */\n      0xffffffffffffffffffffffffffffffffffffffff\n        /* \"#utility.yul\":404:409   */\n      dup3\n        /* \"#utility.yul\":400:454   */\n      and\n        /* \"#utility.yul\":389:454   */\n      swap1\n      pop\n        /* \"#utility.yul\":334:460   */\n      swap2\n      swap1\n      pop\n      jump\t// out\n        /* \"#utility.yul\":466:562   */\n    tag_74:\n        /* \"#utility.yul\":503:510   */\n      0x00\n        /* \"#utility.yul\":532:556   */\n      tag_93\n        /* \"#utility.yul\":550:555   */\n      dup3\n        /* \"#utility.yul\":532:556   */\n      tag_73\n      jump\t// in\n    tag_93:\n        /* \"#utility.yul\":521:556   */\n      swap1\n      pop\n        /* \"#utility.yul\":466:562   */\n      swap2\n      swap1\n      pop\n      jump\t// out\n        /* \"#utility.yul\":568:690   */\n    tag_75:\n        /* \"#utility.yul\":641:665   */\n      tag_95\n        /* \"#utility.yul\":659:664   */\n      dup2\n        /* \"#utility.yul\":641:665   */\n      tag_74\n      jump\t// in\n    tag_95:\n        /* \"#utility.yul\":634:639   */\n      dup2\n        /* \"#utility.yul\":631:666   */\n      eq\n        /* \"#utility.yul\":621:684   */\n      tag_96\n      jumpi\n        /* \"#utility.yul\":680:681   */\n      0x00\n        /* \"#utility.yul\":677:678   */\n      dup1\n        /* \"#utility.yul\":670:682   */\n      revert\n        /* \"#utility.yul\":621:684   */\n    tag_96:\n        /* \"#utility.yul\":568:690   */\n      pop\n      jump\t// out\n        /* \"#utility.yul\":696:835   */\n    tag_76:\n        /* \"#utility.yul\":742:747   */\n      0x00\n        /* \"#utility.yul\":780:786   */\n      dup2\n        /* \"#utility.yul\":767:787   */\n      calldataload\n        /* \"#utility.yul\":758:787   */\n      swap1\n      pop\n        /* \"#utility.yul\":796:829   */\n      tag_98\n        /* \"#utility.yul\":823:828   */\n      dup2\n        /* \"#utility.yul\":796:829   */\n      tag_75\n      jump\t// in\n    tag_98:\n        /* \"#utility.yul\":696:835   */\n      swap3\n      swap2\n      pop\n      pop\n      jump\t// out\n        /* \"#utility.yul\":841:1170   */\n    tag_14:\n        /* \"#utility.yul\":900:906   */\n      0x00\n        /* \"#utility.yul\":949:951   */\n      0x20\n        /* \"#utility.yul\":937:946   */\n      dup3\n        /* \"#utility.yul\":928:935   */\n      dup5\n        /* \"#utility.yul\":924:947   */\n      sub\n        /* \"#utility.yul\":920:952   */\n      slt\n        /* \"#utility.yul\":917:1036   */\n      iszero\n      tag_100\n      jumpi\n        /* \"#utility.yul\":955:1034   */\n      tag_101\n      tag_71\n      jump\t// in\n    tag_101:\n        /* \"#utility.yul\":917:1036   */\n    tag_100:\n        /* \"#utility.yul\":1075:1076   */\n      0x00\n        /* \"#utility.yul\":1100:1153   */\n      tag_102\n        /* \"#utility.yul\":1145:1152   */\n      dup5\n        /* \"#utility.yul\":1136:1142   */\n      dup3\n        /* \"#utility.yul\":1125:1134   */\n      dup6\n        /* \"#utility.yul\":1121:1143   */\n      add\n        /* \"#utility.yul\":1100:1153   */\n      tag_76\n      jump\t// in\n    tag_102:\n        /* \"#utility.yul\":1090:1153   */\n      swap2\n      pop\n        /* \"#utility.yul\":1046:1163   */\n      pop\n        /* \"#utility.yul\":841:1170   */\n      swap3\n      swap2\n      pop\n      pop\n      jump\t// out\n        /* \"#utility.yul\":1176:1253   */\n    tag_77:\n        /* \"#utility.yul\":1213:1220   */\n      0x00\n        /* \"#utility.yul\":1242:1247   */\n      dup2\n        /* \"#utility.yul\":1231:1247   */\n      swap1\n      pop\n        /* \"#utility.yul\":1176:1253   */\n      swap2\n      swap1\n      pop\n      jump\t// out\n        /* \"#utility.yul\":1259:1377   */\n    tag_78:\n        /* \"#utility.yul\":1346:1370   */\n      tag_105\n        /* \"#utility.yul\":1364:1369   */\n      dup2\n        /* \"#utility.yul\":1346:1370   */\n      tag_77\n      jump\t// in\n    tag_105:\n        /* \"#utility.yul\":1341:1344   */\n      dup3\n        /* \"#utility.yul\":1334:1371   */\n      mstore\n        /* \"#utility.yul\":1259:1377   */\n      pop\n      pop\n      jump\t// out\n        /* \"#utility.yul\":1383:1936   */\n    tag_17:\n        /* \"#utility.yul\":1560:1564   */\n      0x00\n        /* \"#utility.yul\":1598:1601   */\n      0x80\n        /* \"#utility.yul\":1587:1596   */\n      dup3\n        /* \"#utility.yul\":1583:1602   */\n      add\n        /* \"#utility.yul\":1575:1602   */\n      swap1\n      pop\n        /* \"#utility.yul\":1612:1683   */\n      tag_107\n        /* \"#utility.yul\":1680:1681   */\n      0x00\n        /* \"#utility.yul\":1669:1678   */\n      dup4\n        /* \"#utility.yul\":1665:1682   */\n      add\n        /* \"#utility.yul\":1656:1662   */\n      dup8\n        /* \"#utility.yul\":1612:1683   */\n      tag_78\n      jump\t// in\n    tag_107:\n        /* \"#utility.yul\":1693:1765   */\n      tag_108\n        /* \"#utility.yul\":1761:1763   */\n      0x20\n        /* \"#utility.yul\":1750:1759   */\n      dup4\n        /* \"#utility.yul\":1746:1764   */\n      add\n        /* \"#utility.yul\":1737:1743   */\n      dup7\n        /* \"#utility.yul\":1693:1765   */\n      tag_78\n      jump\t// in\n    tag_108:\n        /* \"#utility.yul\":1775:1847   */\n      tag_109\n        /* \"#utility.yul\":1843:1845   */\n      0x40\n        /* \"#utility.yul\":1832:1841   */\n      dup4\n        /* \"#utility.yul\":1828:1846   */\n      add\n        /* \"#utility.yul\":1819:1825   */\n      dup6\n        /* \"#utility.yul\":1775:1847   */\n      tag_78\n      jump\t// in\n    tag_109:\n        /* \"#utility.yul\":1857:1929   */\n      tag_110\n        /* \"#utility.yul\":1925:1927   */\n      0x60\n        /* \"#utility.yul\":1914:1923   */\n      dup4\n        /* \"#utility.yul\":1910:1928   */\n      add\n        /* \"#utility.yul\":1901:1907   */\n      dup5\n        /* \"#utility.yul\":1857:1929   */\n      tag_78\n      jump\t// in\n    tag_110:\n        /* \"#utility.yul\":1383:1936   */\n      swap6\n      swap5\n      pop\n      pop\n      pop\n      pop\n      pop\n      jump\t// out\n        /* \"#utility.yul\":1942:2046   */\n    tag_79:\n        /* \"#utility.yul\":1987:1994   */\n      0x00\n        /* \"#utility.yul\":2016:2040   */\n      tag_112\n        /* \"#utility.yul\":2034:2039   */\n      dup3\n        /* \"#utility.yul\":2016:2040   */\n      tag_73\n      jump\t// in\n    tag_112:\n        /* \"#utility.yul\":2005:2040   */\n      swap1\n      pop\n        /* \"#utility.yul\":1942:2046   */\n      swap2\n      swap1\n      pop\n      jump\t// out\n        /* \"#utility.yul\":2052:2190   */\n    tag_80:\n        /* \"#utility.yul\":2133:2165   */\n      tag_114\n        /* \"#utility.yul\":2159:2164   */\n      dup2\n        /* \"#utility.yul\":2133:2165   */\n      tag_79\n      jump\t// in\n    tag_114:\n        /* \"#utility.yul\":2126:2131   */\n      dup2\n        /* \"#utility.yul\":2123:2166   */\n      eq\n        /* \"#utility.yul\":2113:2184   */\n      tag_115\n      jumpi\n        /* \"#utility.yul\":2180:2181   */\n      0x00\n        /* \"#utility.yul\":2177:2178   */\n      dup1\n        /* \"#utility.yul\":2170:2182   */\n      revert\n        /* \"#utility.yul\":2113:2184   */\n    tag_115:\n        /* \"#utility.yul\":2052:2190   */\n      pop\n      jump\t// out\n        /* \"#utility.yul\":2196:2351   */\n    tag_81:\n        /* \"#utility.yul\":2250:2255   */\n      0x00\n        /* \"#utility.yul\":2288:2294   */\n      dup2\n        /* \"#utility.yul\":2275:2295   */\n      calldataload\n        /* \"#utility.yul\":2266:2295   */\n      swap1\n      pop\n        /* \"#utility.yul\":2304:2345   */\n      tag_117\n        /* \"#utility.yul\":2339:2344   */\n      dup2\n        /* \"#utility.yul\":2304:2345   */\n      tag_80\n      jump\t// in\n    tag_117:\n        /* \"#utility.yul\":2196:2351   */\n      swap3\n      swap2\n      pop\n      pop\n      jump\t// out\n        /* \"#utility.yul\":2357:2479   */\n    tag_82:\n        /* \"#utility.yul\":2430:2454   */\n      tag_119\n        /* \"#utility.yul\":2448:2453   */\n      dup2\n        /* \"#utility.yul\":2430:2454   */\n      tag_77\n      jump\t// in\n    tag_119:\n        /* \"#utility.yul\":2423:2428   */\n      dup2\n        /* \"#utility.yul\":2420:2455   */\n      eq\n        /* \"#utility.yul\":2410:2473   */\n      tag_120\n      jumpi\n        /* \"#utility.yul\":2469:2470   */\n      0x00\n        /* \"#utility.yul\":2466:2467   */\n      dup1\n        /* \"#utility.yul\":2459:2471   */\n      revert\n        /* \"#utility.yul\":2410:2473   */\n    tag_120:\n        /* \"#utility.yul\":2357:2479   */\n      pop\n      jump\t// out\n        /* \"#utility.yul\":2485:2624   */\n    tag_83:\n        /* \"#utility.yul\":2531:2536   */\n      0x00\n        /* \"#utility.yul\":2569:2575   */\n      dup2\n        /* \"#utility.yul\":2556:2576   */\n      calldataload\n        /* \"#utility.yul\":2547:2576   */\n      swap1\n      pop\n        /* \"#utility.yul\":2585:2618   */\n      tag_122\n        /* \"#utility.yul\":2612:2617   */\n      dup2\n        /* \"#utility.yul\":2585:2618   */\n      tag_82\n      jump\t// in\n    tag_122:\n        /* \"#utility.yul\":2485:2624   */\n      swap3\n      swap2\n      pop\n      pop\n      jump\t// out\n        /* \"#utility.yul\":2630:3120   */\n    tag_24:\n        /* \"#utility.yul\":2706:2712   */\n      0x00\n        /* \"#utility.yul\":2714:2720   */\n      dup1\n        /* \"#utility.yul\":2763:2765   */\n      0x40\n        /* \"#utility.yul\":2751:2760   */\n      dup4\n        /* \"#utility.yul\":2742:2749   */\n      dup6\n        /* \"#utility.yul\":2738:2761   */\n      sub\n        /* \"#utility.yul\":2734:2766   */\n      slt\n        /* \"#utility.yul\":2731:2850   */\n      iszero\n      tag_124\n      jumpi\n        /* \"#utility.yul\":2769:2848   */\n      tag_125\n      tag_71\n      jump\t// in\n    tag_125:\n        /* \"#utility.yul\":2731:2850   */\n    tag_124:\n        /* \"#utility.yul\":2889:2890   */\n      0x00\n        /* \"#utility.yul\":2914:2975   */\n      tag_126\n        /* \"#utility.yul\":2967:2974   */\n      dup6\n        /* \"#utility.yul\":2958:2964   */\n      dup3\n        /* \"#utility.yul\":2947:2956   */\n      dup7\n        /* \"#utility.yul\":2943:2965   */\n      add\n        /* \"#utility.yul\":2914:2975   */\n      tag_81\n      jump\t// in\n    tag_126:\n        /* \"#utility.yul\":2904:2975   */\n      swap3\n      pop\n        /* \"#utility.yul\":2860:2985   */\n      pop\n        /* \"#utility.yul\":3024:3026   */\n      0x20\n        /* \"#utility.yul\":3050:3103   */\n      tag_127\n        /* \"#utility.yul\":3095:3102   */\n      dup6\n        /* \"#utility.yul\":3086:3092   */\n      dup3\n        /* \"#utility.yul\":3075:3084   */\n      dup7\n        /* \"#utility.yul\":3071:3093   */\n      add\n        /* \"#utility.yul\":3050:3103   */\n      tag_83\n      jump\t// in\n    tag_127:\n        /* \"#utility.yul\":3040:3103   */\n      swap2\n      pop\n        /* \"#utility.yul\":2995:3113   */\n      pop\n        /* \"#utility.yul\":2630:3120   */\n      swap3\n      pop\n      swap3\n      swap1\n      pop\n      jump\t// out\n        /* \"#utility.yul\":3126:3455   */\n    tag_29:\n        /* \"#utility.yul\":3185:3191   */\n      0x00\n        /* \"#utility.yul\":3234:3236   */\n      0x20\n        /* \"#utility.yul\":3222:3231   */\n      dup3\n        /* \"#utility.yul\":3213:3220   */\n      dup5\n        /* \"#utility.yul\":3209:3232   */\n      sub\n        /* \"#utility.yul\":3205:3237   */\n      slt\n        /* \"#utility.yul\":3202:3321   */\n      iszero\n      tag_129\n      jumpi\n        /* \"#utility.yul\":3240:3319   */\n      tag_130\n      tag_71\n      jump\t// in\n    tag_130:\n        /* \"#utility.yul\":3202:3321   */\n    tag_129:\n        /* \"#utility.yul\":3360:3361   */\n      0x00\n        /* \"#utility.yul\":3385:3438   */\n      tag_131\n        /* \"#utility.yul\":3430:3437   */\n      dup5\n        /* \"#utility.yul\":3421:3427   */\n      dup3\n        /* \"#utility.yul\":3410:3419   */\n      dup6\n        /* \"#utility.yul\":3406:3428   */\n      add\n        /* \"#utility.yul\":3385:3438   */\n      tag_83\n      jump\t// in\n    tag_131:\n        /* \"#utility.yul\":3375:3438   */\n      swap2\n      pop\n        /* \"#utility.yul\":3331:3448   */\n      pop\n        /* \"#utility.yul\":3126:3455   */\n      swap3\n      swap2\n      pop\n      pop\n      jump\t// out\n        /* \"#utility.yul\":3461:3603   */\n    tag_84:\n        /* \"#utility.yul\":3564:3596   */\n      tag_133\n        /* \"#utility.yul\":3590:3595   */\n      dup2\n        /* \"#utility.yul\":3564:3596   */\n      tag_79\n      jump\t// in\n    tag_133:\n        /* \"#utility.yul\":3559:3562   */\n      dup3\n        /* \"#utility.yul\":3552:3597   */\n      mstore\n        /* \"#utility.yul\":3461:3603   */\n      pop\n      pop\n      jump\t// out\n        /* \"#utility.yul\":3609:3863   */\n    tag_32:\n        /* \"#utility.yul\":3718:3722   */\n      0x00\n        /* \"#utility.yul\":3756:3758   */\n      0x20\n        /* \"#utility.yul\":3745:3754   */\n      dup3\n        /* \"#utility.yul\":3741:3759   */\n      add\n        /* \"#utility.yul\":3733:3759   */\n      swap1\n      pop\n        /* \"#utility.yul\":3769:3856   */\n      tag_135\n        /* \"#utility.yul\":3853:3854   */\n      0x00\n        /* \"#utility.yul\":3842:3851   */\n      dup4\n        /* \"#utility.yul\":3838:3855   */\n      add\n        /* \"#utility.yul\":3829:3835   */\n      dup5\n        /* \"#utility.yul\":3769:3856   */\n      tag_84\n      jump\t// in\n    tag_135:\n        /* \"#utility.yul\":3609:3863   */\n      swap3\n      swap2\n      pop\n      pop\n      jump\t// out\n        /* \"#utility.yul\":3869:3987   */\n    tag_85:\n        /* \"#utility.yul\":3956:3980   */\n      tag_137\n        /* \"#utility.yul\":3974:3979   */\n      dup2\n        /* \"#utility.yul\":3956:3980   */\n      tag_74\n      jump\t// in\n    tag_137:\n        /* \"#utility.yul\":3951:3954   */\n      dup3\n        /* \"#utility.yul\":3944:3981   */\n      mstore\n        /* \"#utility.yul\":3869:3987   */\n      pop\n      pop\n      jump\t// out\n        /* \"#utility.yul\":3993:4325   */\n    tag_53:\n        /* \"#utility.yul\":4114:4118   */\n      0x00\n        /* \"#utility.yul\":4152:4154   */\n      0x40\n        /* \"#utility.yul\":4141:4150   */\n      dup3\n        /* \"#utility.yul\":4137:4155   */\n      add\n        /* \"#utility.yul\":4129:4155   */\n      swap1\n      pop\n        /* \"#utility.yul\":4165:4236   */\n      tag_139\n        /* \"#utility.yul\":4233:4234   */\n      0x00\n        /* \"#utility.yul\":4222:4231   */\n      dup4\n        /* \"#utility.yul\":4218:4235   */\n      add\n        /* \"#utility.yul\":4209:4215   */\n      dup6\n        /* \"#utility.yul\":4165:4236   */\n      tag_85\n      jump\t// in\n    tag_139:\n        /* \"#utility.yul\":4246:4318   */\n      tag_140\n        /* \"#utility.yul\":4314:4316   */\n      0x20\n        /* \"#utility.yul\":4303:4312   */\n      dup4\n        /* \"#utility.yul\":4299:4317   */\n      add\n        /* \"#utility.yul\":4290:4296   */\n      dup5\n        /* \"#utility.yul\":4246:4318   */\n      tag_78\n      jump\t// in\n    tag_140:\n        /* \"#utility.yul\":3993:4325   */\n      swap4\n      swap3\n      pop\n      pop\n      pop\n      jump\t// out\n        /* \"#utility.yul\":4331:4511   */\n    tag_86:\n        /* \"#utility.yul\":4379:4456   */\n      0x4e487b7100000000000000000000000000000000000000000000000000000000\n        /* \"#utility.yul\":4376:4377   */\n      0x00\n        /* \"#utility.yul\":4369:4457   */\n      mstore\n        /* \"#utility.yul\":4476:4480   */\n      0x11\n        /* \"#utility.yul\":4473:4474   */\n      0x04\n        /* \"#utility.yul\":4466:4481   */\n      mstore\n        /* \"#utility.yul\":4500:4504   */\n      0x24\n        /* \"#utility.yul\":4497:4498   */\n      0x00\n        /* \"#utility.yul\":4490:4505   */\n      revert\n        /* \"#utility.yul\":4517:4708   */\n    tag_61:\n        /* \"#utility.yul\":4557:4560   */\n      0x00\n        /* \"#utility.yul\":4576:4596   */\n      tag_143\n        /* \"#utility.yul\":4594:4595   */\n      dup3\n        /* \"#utility.yul\":4576:4596   */\n      tag_77\n      jump\t// in\n    tag_143:\n        /* \"#utility.yul\":4571:4596   */\n      swap2\n      pop\n        /* \"#utility.yul\":4610:4630   */\n      tag_144\n        /* \"#utility.yul\":4628:4629   */\n      dup4\n        /* \"#utility.yul\":4610:4630   */\n      tag_77\n      jump\t// in\n    tag_144:\n        /* \"#utility.yul\":4605:4630   */\n      swap3\n      pop\n        /* \"#utility.yul\":4653:4654   */\n      dup3\n        /* \"#utility.yul\":4650:4651   */\n      dup3\n        /* \"#utility.yul\":4646:4655   */\n      add\n        /* \"#utility.yul\":4639:4655   */\n      swap1\n      pop\n        /* \"#utility.yul\":4674:4677   */\n      dup1\n        /* \"#utility.yul\":4671:4672   */\n      dup3\n        /* \"#utility.yul\":4668:4678   */\n      gt\n        /* \"#utility.yul\":4665:4701   */\n      iszero\n      tag_145\n      jumpi\n        /* \"#utility.yul\":4681:4699   */\n      tag_146\n      tag_86\n      jump\t// in\n    tag_146:\n        /* \"#utility.yul\":4665:4701   */\n    tag_145:\n        /* \"#utility.yul\":4517:4708   */\n      swap3\n      swap2\n      pop\n      pop\n      jump\t// out\n        /* \"#utility.yul\":4714:4947   */\n    tag_63:\n        /* \"#utility.yul\":4753:4756   */\n      0x00\n        /* \"#utility.yul\":4776:4800   */\n      tag_148\n        /* \"#utility.yul\":4794:4799   */\n      dup3\n        /* \"#utility.yul\":4776:4800   */\n      tag_77\n      jump\t// in\n    tag_148:\n        /* \"#utility.yul\":4767:4800   */\n      swap2\n      pop\n        /* \"#utility.yul\":4822:4888   */\n      0xffffffffffffffffffffffffffffffffffffffffffffffffffffffffffffffff\n        /* \"#utility.yul\":4815:4820   */\n      dup3\n        /* \"#utility.yul\":4812:4889   */\n      sub\n        /* \"#utility.yul\":4809:4912   */\n      tag_149\n      jumpi\n        /* \"#utility.yul\":4892:4910   */\n      tag_150\n      tag_86\n      jump\t// in\n    tag_150:\n        /* \"#utility.yul\":4809:4912   */\n    tag_149:\n        /* \"#utility.yul\":4939:4940   */\n      0x01\n        /* \"#utility.yul\":4932:4937   */\n      dup3\n        /* \"#utility.yul\":4928:4941   */\n      add\n        /* \"#utility.yul\":4921:4941   */\n      swap1\n      pop\n        /* \"#utility.yul\":4714:4947   */\n      swap2\n      swap1\n      pop\n      jump\t// out\n\n    auxdata: 0xa26469706673582212204f904a29680f4329999e86eb097af17c4fc6c2fb4eb748792398ed139c9fcd1964736f6c63430008100033\n}\n\nsub_1: assembly {\n        /* \"contracts/senior project.sol\":62:3367  contract MyContract{ ... */\n      mstore(0x40, 0x80)\n        /* \"contracts/senior project.sol\":309:314  false */\n      0x00\n        /* \"contracts/senior project.sol\":293:314  bool approved = false */\n      0x04\n      exp(0x0100, 0x00)\n      dup2\n      sload\n      dup2\n      0xff\n      mul\n      not\n      and\n      swap1\n      dup4\n      iszero\n      iszero\n      mul\n      or\n      swap1\n      sstore\n      pop\n        /* \"contracts/senior project.sol\":2659:2660  0 */\n      0x00\n        /* \"contracts/senior project.sol\":2643:2660  uint EXcounter =0 */\n      0x07\n      sstore\n        /* \"contracts/senior project.sol\":62:3367  contract MyContract{ ... */\n      callvalue\n      dup1\n      iszero\n      tag_1\n      jumpi\n      0x00\n      dup1\n      revert\n    tag_1:\n      pop\n      dataSize(sub_0)\n      dup1\n      dataOffset(sub_0)\n      0x00\n      codecopy\n      0x00\n      return\n    stop\n\n    sub_0: assembly {\n            /* \"contracts/senior project.sol\":62:3367  contract MyContract{ ... */\n          mstore(0x40, 0x80)\n          jumpi(tag_1, lt(calldatasize, 0x04))\n          shr(0xe0, calldataload(0x00))\n          dup1\n          0x8bf963b6\n          gt\n          tag_10\n          jumpi\n          dup1\n          0x8bf963b6\n          eq\n          tag_6\n          jumpi\n          dup1\n          0x8d68cf59\n          eq\n          tag_7\n          jumpi\n          dup1\n          0xabb6ae89\n          eq\n          tag_8\n          jumpi\n          dup1\n          0xed88c68e\n          eq\n          tag_9\n          jumpi\n          jump(tag_1)\n        tag_10:\n          dup1\n          0x27e235e3\n          eq\n          tag_2\n          jumpi\n          dup1\n          0x39788bc8\n          eq\n          tag_3\n          jumpi\n          dup1\n          0x4956eaf0\n          eq\n          tag_4\n          jumpi\n          dup1\n          0x5eed3dcb\n          eq\n          tag_5\n          jumpi\n        tag_1:\n          0x00\n          dup1\n          revert\n            /* \"contracts/senior project.sol\":653:694  mapping(address => donor) public balances */\n        tag_2:\n          callvalue\n          dup1\n          iszero\n          tag_11\n          jumpi\n          0x00\n          dup1\n          revert\n        tag_11:\n          pop\n          tag_12\n          0x04\n          dup1\n          calldatasize\n          sub\n          dup2\n          add\n          swap1\n          tag_13\n          swap2\n          swap1\n          tag_14\n          jump\t// in\n        tag_13:\n          tag_15\n          jump\t// in\n        tag_12:\n          mload(0x40)\n          tag_16\n          swap5\n          swap4\n          swap3\n          swap2\n          swap1\n          tag_17\n          jump\t// in\n        tag_16:\n          mload(0x40)\n          dup1\n          swap2\n          sub\n          swap1\n          return\n            /* \"contracts/senior project.sol\":2474:2579  function approval() public{       ... */\n        tag_3:\n          callvalue\n          dup1\n          iszero\n          tag_18\n          jumpi\n          0x00\n          dup1\n          revert\n        tag_18:\n          pop\n          tag_19\n          tag_20\n          jump\t// in\n        tag_19:\n          stop\n            /* \"contracts/senior project.sol\":323:490  function deploy (address payable _wallet, uint numWeeks) public{... */\n        tag_4:\n          callvalue\n          dup1\n          iszero\n          tag_21\n          jumpi\n          0x00\n          dup1\n          revert\n        tag_21:\n          pop\n          tag_22\n          0x04\n          dup1\n          calldatasize\n          sub\n          dup2\n          add\n          swap1\n          tag_23\n          swap2\n          swap1\n          tag_24\n          jump\t// in\n        tag_23:\n          tag_25\n          jump\t// in\n        tag_22:\n          stop\n            /* \"contracts/senior project.sol\":701:735  address payable[] public donorList */\n        tag_5:\n          callvalue\n          dup1\n          iszero\n          tag_26\n          jumpi\n          0x00\n          dup1\n          revert\n        tag_26:\n          pop\n          tag_27\n          0x04\n          dup1\n          calldatasize\n          sub\n          dup2\n          add\n          swap1\n          tag_28\n          swap2\n          swap1\n          tag_29\n          jump\t// in\n        tag_28:\n          tag_30\n          jump\t// in\n        tag_27:\n          mload(0x40)\n          tag_31\n          swap2\n          swap1\n          tag_32\n          jump\t// in\n        tag_31:\n          mload(0x40)\n          dup1\n          swap2\n          sub\n          swap1\n          return\n            /* \"contracts/senior project.sol\":1595:1799  function singleRefund () public{... */\n        tag_6:\n          callvalue\n          dup1\n          iszero\n          tag_33\n          jumpi\n          0x00\n          dup1\n          revert\n        tag_33:\n          pop\n          tag_34\n          tag_35\n          jump\t// in\n        tag_34:\n          stop\n            /* \"contracts/senior project.sol\":1446:1587  function sendFunds () public{... */\n        tag_7:\n          callvalue\n          dup1\n          iszero\n          tag_36\n          jumpi\n          0x00\n          dup1\n          revert\n        tag_36:\n          pop\n          tag_37\n          tag_38\n          jump\t// in\n        tag_37:\n          stop\n            /* \"contracts/senior project.sol\":2736:2898  function extendTime() public {... */\n        tag_8:\n          callvalue\n          dup1\n          iszero\n          tag_39\n          jumpi\n          0x00\n          dup1\n          revert\n        tag_39:\n          pop\n          tag_40\n          tag_41\n          jump\t// in\n        tag_40:\n          stop\n            /* \"contracts/senior project.sol\":1063:1374  function donate() public payable{... */\n        tag_9:\n          tag_42\n          tag_43\n          jump\t// in\n        tag_42:\n          stop\n            /* \"contracts/senior project.sol\":653:694  mapping(address => donor) public balances */\n        tag_15:\n          mstore(0x20, 0x05)\n          dup1\n          0x00\n          mstore\n          keccak256(0x00, 0x40)\n          0x00\n          swap2\n          pop\n          swap1\n          pop\n          dup1\n          0x00\n          add\n          sload\n          swap1\n          dup1\n          0x01\n          add\n          sload\n          swap1\n          dup1\n          0x02\n          add\n          sload\n          swap1\n          dup1\n          0x03\n          add\n          sload\n          swap1\n          pop\n          dup5\n          jump\t// out\n            /* \"contracts/senior project.sol\":2474:2579  function approval() public{       ... */\n        tag_20:\n            /* \"contracts/senior project.sol\":2538:2544  wallet */\n          0x00\n          dup1\n          sload\n          swap1\n          0x0100\n          exp\n          swap1\n          div\n          0xffffffffffffffffffffffffffffffffffffffff\n          and\n            /* \"contracts/senior project.sol\":2524:2544  msg.sender == wallet */\n          0xffffffffffffffffffffffffffffffffffffffff\n          and\n            /* \"contracts/senior project.sol\":2524:2534  msg.sender */\n          caller\n            /* \"contracts/senior project.sol\":2524:2544  msg.sender == wallet */\n          0xffffffffffffffffffffffffffffffffffffffff\n          and\n          eq\n            /* \"contracts/senior project.sol\":2516:2545  require(msg.sender == wallet) */\n          tag_45\n          jumpi\n          0x00\n          dup1\n          revert\n        tag_45:\n            /* \"contracts/senior project.sol\":2567:2571  true */\n          0x01\n            /* \"contracts/senior project.sol\":2556:2564  approved */\n          0x04\n          0x00\n            /* \"contracts/senior project.sol\":2556:2571  approved = true */\n          0x0100\n          exp\n          dup2\n          sload\n          dup2\n          0xff\n          mul\n          not\n          and\n          swap1\n          dup4\n          iszero\n          iszero\n          mul\n          or\n          swap1\n          sstore\n          pop\n            /* \"contracts/senior project.sol\":2474:2579  function approval() public{       ... */\n          jump\t// out\n            /* \"contracts/senior project.sol\":323:490  function deploy (address payable _wallet, uint numWeeks) public{... */\n        tag_25:\n            /* \"contracts/senior project.sol\":406:413  _wallet */\n          dup2\n            /* \"contracts/senior project.sol\":397:403  wallet */\n          0x00\n          dup1\n            /* \"contracts/senior project.sol\":397:413  wallet = _wallet */\n          0x0100\n          exp\n          dup2\n          sload\n          dup2\n          0xffffffffffffffffffffffffffffffffffffffff\n          mul\n          not\n          and\n          swap1\n          dup4\n          0xffffffffffffffffffffffffffffffffffffffff\n          and\n          mul\n          or\n          swap1\n          sstore\n          pop\n            /* \"contracts/senior project.sol\":437:452  block.timestamp */\n          timestamp\n            /* \"contracts/senior project.sol\":424:434  deployDate */\n          0x02\n            /* \"contracts/senior project.sol\":424:452  deployDate = block.timestamp */\n          dup2\n          swap1\n          sstore\n          pop\n            /* \"contracts/senior project.sol\":474:482  numWeeks */\n          dup1\n            /* \"contracts/senior project.sol\":463:471  deadline */\n          0x03\n            /* \"contracts/senior project.sol\":463:482  deadline = numWeeks */\n          dup2\n          swap1\n          sstore\n          pop\n            /* \"contracts/senior project.sol\":323:490  function deploy (address payable _wallet, uint numWeeks) public{... */\n          pop\n          pop\n          jump\t// out\n            /* \"contracts/senior project.sol\":701:735  address payable[] public donorList */\n        tag_30:\n          0x06\n          dup2\n          dup2\n          sload\n          dup2\n          lt\n          tag_47\n          jumpi\n          0x00\n          dup1\n          revert\n        tag_47:\n          swap1\n          0x00\n          mstore\n          keccak256(0x00, 0x20)\n          add\n          0x00\n          swap2\n          pop\n          sload\n          swap1\n          0x0100\n          exp\n          swap1\n          div\n          0xffffffffffffffffffffffffffffffffffffffff\n          and\n          dup2\n          jump\t// out\n            /* \"contracts/senior project.sol\":1595:1799  function singleRefund () public{... */\n        tag_35:\n            /* \"contracts/senior project.sol\":1637:1651  uint returnAmt */\n          0x00\n            /* \"contracts/senior project.sol\":1654:1662  balances */\n          0x05\n            /* \"contracts/senior project.sol\":1654:1674  balances[msg.sender] */\n          0x00\n            /* \"contracts/senior project.sol\":1663:1673  msg.sender */\n          caller\n            /* \"contracts/senior project.sol\":1654:1674  balances[msg.sender] */\n          0xffffffffffffffffffffffffffffffffffffffff\n          and\n          0xffffffffffffffffffffffffffffffffffffffff\n          and\n          dup2\n          mstore\n          0x20\n          add\n          swap1\n          dup2\n          mstore\n          0x20\n          add\n          0x00\n          keccak256\n            /* \"contracts/senior project.sol\":1654:1685  balances[msg.sender].returnable */\n          0x02\n          add\n          sload\n            /* \"contracts/senior project.sol\":1637:1685  uint returnAmt = balances[msg.sender].returnable */\n          swap1\n          pop\n            /* \"contracts/senior project.sol\":1705:1715  msg.sender */\n          caller\n            /* \"contracts/senior project.sol\":1696:1725  payable (msg.sender).transfer */\n          0xffffffffffffffffffffffffffffffffffffffff\n          and\n            /* \"contracts/senior project.sol\":1696:1736  payable (msg.sender).transfer(returnAmt) */\n          0x08fc\n            /* \"contracts/senior project.sol\":1726:1735  returnAmt */\n          dup3\n            /* \"contracts/senior project.sol\":1696:1736  payable (msg.sender).transfer(returnAmt) */\n          swap1\n          dup2\n          iszero\n          mul\n          swap1\n          mload(0x40)\n          0x00\n          mload(0x40)\n          dup1\n          dup4\n          sub\n          dup2\n          dup6\n          dup9\n          dup9\n          call\n          swap4\n          pop\n          pop\n          pop\n          pop\n          iszero\n          dup1\n          iszero\n          tag_51\n          jumpi\n          returndatasize\n          0x00\n          dup1\n          returndatacopy\n          revert(0x00, returndatasize)\n        tag_51:\n          pop\n            /* \"contracts/senior project.sol\":1752:1791  LogReturnedFunds(msg.sender, returnAmt) */\n          0xe0e5873eb9d996d2ab087b071a9a50522121c02b43308c8728c06739f52b3f87\n            /* \"contracts/senior project.sol\":1769:1779  msg.sender */\n          caller\n            /* \"contracts/senior project.sol\":1781:1790  returnAmt */\n          dup3\n            /* \"contracts/senior project.sol\":1752:1791  LogReturnedFunds(msg.sender, returnAmt) */\n          mload(0x40)\n          tag_52\n          swap3\n          swap2\n          swap1\n          tag_53\n          jump\t// in\n        tag_52:\n          mload(0x40)\n          dup1\n          swap2\n          sub\n          swap1\n          log1\n            /* \"contracts/senior project.sol\":1626:1799  {... */\n          pop\n            /* \"contracts/senior project.sol\":1595:1799  function singleRefund () public{... */\n          jump\t// out\n            /* \"contracts/senior project.sol\":1446:1587  function sendFunds () public{... */\n        tag_38:\n            /* \"contracts/senior project.sol\":1485:1491  wallet */\n          0x00\n          dup1\n          sload\n          swap1\n          0x0100\n          exp\n          swap1\n          div\n          0xffffffffffffffffffffffffffffffffffffffff\n          and\n            /* \"contracts/senior project.sol\":1485:1500  wallet.transfer */\n          0xffffffffffffffffffffffffffffffffffffffff\n          and\n            /* \"contracts/senior project.sol\":1485:1532  wallet.transfer(balances[msg.sender].totalDono) */\n          0x08fc\n            /* \"contracts/senior project.sol\":1501:1509  balances */\n          0x05\n            /* \"contracts/senior project.sol\":1501:1521  balances[msg.sender] */\n          0x00\n            /* \"contracts/senior project.sol\":1510:1520  msg.sender */\n          caller\n            /* \"contracts/senior project.sol\":1501:1521  balances[msg.sender] */\n          0xffffffffffffffffffffffffffffffffffffffff\n          and\n          0xffffffffffffffffffffffffffffffffffffffff\n          and\n          dup2\n          mstore\n          0x20\n          add\n          swap1\n          dup2\n          mstore\n          0x20\n          add\n          0x00\n          keccak256\n            /* \"contracts/senior project.sol\":1501:1531  balances[msg.sender].totalDono */\n          0x00\n          add\n          sload\n            /* \"contracts/senior project.sol\":1485:1532  wallet.transfer(balances[msg.sender].totalDono) */\n          swap1\n          dup2\n          iszero\n          mul\n          swap1\n          mload(0x40)\n          0x00\n          mload(0x40)\n          dup1\n          dup4\n          sub\n          dup2\n          dup6\n          dup9\n          dup9\n          call\n          swap4\n          pop\n          pop\n          pop\n          pop\n          iszero\n          dup1\n          iszero\n          tag_56\n          jumpi\n          returndatasize\n          0x00\n          dup1\n          returndatacopy\n          revert(0x00, returndatasize)\n        tag_56:\n          pop\n            /* \"contracts/senior project.sol\":1578:1579  0 */\n          0x00\n            /* \"contracts/senior project.sol\":1544:1552  balances */\n          0x05\n            /* \"contracts/senior project.sol\":1544:1564  balances[msg.sender] */\n          0x00\n            /* \"contracts/senior project.sol\":1553:1563  msg.sender */\n          caller\n            /* \"contracts/senior project.sol\":1544:1564  balances[msg.sender] */\n          0xffffffffffffffffffffffffffffffffffffffff\n          and\n          0xffffffffffffffffffffffffffffffffffffffff\n          and\n          dup2\n          mstore\n          0x20\n          add\n          swap1\n          dup2\n          mstore\n          0x20\n          add\n          0x00\n          keccak256\n            /* \"contracts/senior project.sol\":1544:1575  balances[msg.sender].returnable */\n          0x02\n          add\n            /* \"contracts/senior project.sol\":1544:1579  balances[msg.sender].returnable = 0 */\n          dup2\n          swap1\n          sstore\n          pop\n            /* \"contracts/senior project.sol\":1446:1587  function sendFunds () public{... */\n          jump\t// out\n            /* \"contracts/senior project.sol\":2736:2898  function extendTime() public {... */\n        tag_41:\n            /* \"contracts/senior project.sol\":2798:2804  wallet */\n          0x00\n          dup1\n          sload\n          swap1\n          0x0100\n          exp\n          swap1\n          div\n          0xffffffffffffffffffffffffffffffffffffffff\n          and\n            /* \"contracts/senior project.sol\":2784:2804  msg.sender == wallet */\n          0xffffffffffffffffffffffffffffffffffffffff\n          and\n            /* \"contracts/senior project.sol\":2784:2794  msg.sender */\n          caller\n            /* \"contracts/senior project.sol\":2784:2804  msg.sender == wallet */\n          0xffffffffffffffffffffffffffffffffffffffff\n          and\n          eq\n            /* \"contracts/senior project.sol\":2776:2805  require(msg.sender == wallet) */\n          tag_58\n          jumpi\n          0x00\n          dup1\n          revert\n        tag_58:\n            /* \"contracts/senior project.sol\":2832:2833  0 */\n          0x00\n            /* \"contracts/senior project.sol\":2819:2828  EXcounter */\n          sload(0x07)\n            /* \"contracts/senior project.sol\":2819:2833  EXcounter == 0 */\n          sub\n            /* \"contracts/senior project.sol\":2816:2891  if(EXcounter == 0){... */\n          tag_59\n          jumpi\n            /* \"contracts/senior project.sol\":2856:2857  3 */\n          0x03\n            /* \"contracts/senior project.sol\":2845:2853  deadline */\n          dup1\n          sload\n            /* \"contracts/senior project.sol\":2845:2857  deadline + 3 */\n          tag_60\n          swap2\n          swap1\n          tag_61\n          jump\t// in\n        tag_60:\n          pop\n            /* \"contracts/senior project.sol\":2868:2877  EXcounter */\n          0x07\n          0x00\n            /* \"contracts/senior project.sol\":2868:2879  EXcounter++ */\n          dup2\n          sload\n          dup1\n          swap3\n          swap2\n          swap1\n          tag_62\n          swap1\n          tag_63\n          jump\t// in\n        tag_62:\n          swap2\n          swap1\n          pop\n          sstore\n          pop\n            /* \"contracts/senior project.sol\":2816:2891  if(EXcounter == 0){... */\n        tag_59:\n            /* \"contracts/senior project.sol\":2736:2898  function extendTime() public {... */\n          jump\t// out\n            /* \"contracts/senior project.sol\":1063:1374  function donate() public payable{... */\n        tag_43:\n            /* \"contracts/senior project.sol\":1140:1149  msg.value */\n          callvalue\n            /* \"contracts/senior project.sol\":1106:1114  balances */\n          0x05\n            /* \"contracts/senior project.sol\":1106:1126  balances[msg.sender] */\n          0x00\n            /* \"contracts/senior project.sol\":1115:1125  msg.sender */\n          caller\n            /* \"contracts/senior project.sol\":1106:1126  balances[msg.sender] */\n          0xffffffffffffffffffffffffffffffffffffffff\n          and\n          0xffffffffffffffffffffffffffffffffffffffff\n          and\n          dup2\n          mstore\n          0x20\n          add\n          swap1\n          dup2\n          mstore\n          0x20\n          add\n          0x00\n          keccak256\n            /* \"contracts/senior project.sol\":1106:1136  balances[msg.sender].totalDono */\n          0x00\n          add\n          0x00\n            /* \"contracts/senior project.sol\":1106:1149  balances[msg.sender].totalDono += msg.value */\n          dup3\n          dup3\n          sload\n          tag_65\n          swap2\n          swap1\n          tag_61\n          jump\t// in\n        tag_65:\n          swap3\n          pop\n          pop\n          dup2\n          swap1\n          sstore\n          pop\n            /* \"contracts/senior project.sol\":1195:1204  msg.value */\n          callvalue\n            /* \"contracts/senior project.sol\":1160:1168  balances */\n          0x05\n            /* \"contracts/senior project.sol\":1160:1180  balances[msg.sender] */\n          0x00\n            /* \"contracts/senior project.sol\":1169:1179  msg.sender */\n          caller\n            /* \"contracts/senior project.sol\":1160:1180  balances[msg.sender] */\n          0xffffffffffffffffffffffffffffffffffffffff\n          and\n          0xffffffffffffffffffffffffffffffffffffffff\n          and\n          dup2\n          mstore\n          0x20\n          add\n          swap1\n          dup2\n          mstore\n          0x20\n          add\n          0x00\n          keccak256\n            /* \"contracts/senior project.sol\":1160:1191  balances[msg.sender].returnable */\n          0x02\n          add\n          0x00\n            /* \"contracts/senior project.sol\":1160:1204  balances[msg.sender].returnable += msg.value */\n          dup3\n          dup3\n          sload\n          tag_66\n          swap2\n          swap1\n          tag_61\n          jump\t// in\n        tag_66:\n          swap3\n          pop\n          pop\n          dup2\n          swap1\n          sstore\n          pop\n            /* \"contracts/senior project.sol\":1255:1263  Dcounter */\n          0x01\n          0x00\n            /* \"contracts/senior project.sol\":1255:1265  Dcounter++ */\n          dup2\n          sload\n          dup1\n          swap3\n          swap2\n          swap1\n          tag_67\n          swap1\n          tag_63\n          jump\t// in\n        tag_67:\n          swap2\n          swap1\n          pop\n          sstore\n            /* \"contracts/senior project.sol\":1215:1223  balances */\n          0x05\n            /* \"contracts/senior project.sol\":1215:1235  balances[msg.sender] */\n          0x00\n            /* \"contracts/senior project.sol\":1224:1234  msg.sender */\n          caller\n            /* \"contracts/senior project.sol\":1215:1235  balances[msg.sender] */\n          0xffffffffffffffffffffffffffffffffffffffff\n          and\n          0xffffffffffffffffffffffffffffffffffffffff\n          and\n          dup2\n          mstore\n          0x20\n          add\n          swap1\n          dup2\n          mstore\n          0x20\n          add\n          0x00\n          keccak256\n            /* \"contracts/senior project.sol\":1215:1252  balances[msg.sender].donorListPointer */\n          0x03\n          add\n            /* \"contracts/senior project.sol\":1215:1265  balances[msg.sender].donorListPointer = Dcounter++ */\n          dup2\n          swap1\n          sstore\n          pop\n            /* \"contracts/senior project.sol\":1276:1285  donorList */\n          0x06\n            /* \"contracts/senior project.sol\":1299:1309  msg.sender */\n          caller\n            /* \"contracts/senior project.sol\":1276:1311  donorList.push(payable(msg.sender)) */\n          swap1\n          dup1\n          0x01\n          dup2\n          sload\n          add\n          dup1\n          dup3\n          sstore\n          dup1\n          swap2\n          pop\n          pop\n          0x01\n          swap1\n          sub\n          swap1\n          0x00\n          mstore\n          keccak256(0x00, 0x20)\n          add\n          0x00\n          swap1\n          swap2\n          swap1\n          swap2\n          swap1\n          swap2\n          0x0100\n          exp\n          dup2\n          sload\n          dup2\n          0xffffffffffffffffffffffffffffffffffffffff\n          mul\n          not\n          and\n          swap1\n          dup4\n          0xffffffffffffffffffffffffffffffffffffffff\n          and\n          mul\n          or\n          swap1\n          sstore\n          pop\n            /* \"contracts/senior project.sol\":1327:1366  LogReceivedFunds(msg.sender, msg.value) */\n          0x81d2c188629cc4a1c694d285150cb5fa3dde3157a2684460d3ac7a1e331f6164\n            /* \"contracts/senior project.sol\":1344:1354  msg.sender */\n          caller\n            /* \"contracts/senior project.sol\":1356:1365  msg.value */\n          callvalue\n            /* \"contracts/senior project.sol\":1327:1366  LogReceivedFunds(msg.sender, msg.value) */\n          mload(0x40)\n          tag_69\n          swap3\n          swap2\n          swap1\n          tag_53\n          jump\t// in\n        tag_69:\n          mload(0x40)\n          dup1\n          swap2\n          sub\n          swap1\n          log1\n            /* \"contracts/senior project.sol\":1063:1374  function donate() public payable{... */\n          jump\t// out\n            /* \"#utility.yul\":88:205   */\n        tag_71:\n            /* \"#utility.yul\":197:198   */\n          0x00\n            /* \"#utility.yul\":194:195   */\n          dup1\n            /* \"#utility.yul\":187:199   */\n          revert\n            /* \"#utility.yul\":334:460   */\n        tag_73:\n            /* \"#utility.yul\":371:378   */\n          0x00\n            /* \"#utility.yul\":411:453   */\n          0xffffffffffffffffffffffffffffffffffffffff\n            /* \"#utility.yul\":404:409   */\n          dup3\n            /* \"#utility.yul\":400:454   */\n          and\n            /* \"#utility.yul\":389:454   */\n          swap1\n          pop\n            /* \"#utility.yul\":334:460   */\n          swap2\n          swap1\n          pop\n          jump\t// out\n            /* \"#utility.yul\":466:562   */\n        tag_74:\n            /* \"#utility.yul\":503:510   */\n          0x00\n            /* \"#utility.yul\":532:556   */\n          tag_93\n            /* \"#utility.yul\":550:555   */\n          dup3\n            /* \"#utility.yul\":532:556   */\n          tag_73\n          jump\t// in\n        tag_93:\n            /* \"#utility.yul\":521:556   */\n          swap1\n          pop\n            /* \"#utility.yul\":466:562   */\n          swap2\n          swap1\n          pop\n          jump\t// out\n            /* \"#utility.yul\":568:690   */\n        tag_75:\n            /* \"#utility.yul\":641:665   */\n          tag_95\n            /* \"#utility.yul\":659:664   */\n          dup2\n            /* \"#utility.yul\":641:665   */\n          tag_74\n          jump\t// in\n        tag_95:\n            /* \"#utility.yul\":634:639   */\n          dup2\n            /* \"#utility.yul\":631:666   */\n          eq\n            /* \"#utility.yul\":621:684   */\n          tag_96\n          jumpi\n            /* \"#utility.yul\":680:681   */\n          0x00\n            /* \"#utility.yul\":677:678   */\n          dup1\n            /* \"#utility.yul\":670:682   */\n          revert\n            /* \"#utility.yul\":621:684   */\n        tag_96:\n            /* \"#utility.yul\":568:690   */\n          pop\n          jump\t// out\n            /* \"#utility.yul\":696:835   */\n        tag_76:\n            /* \"#utility.yul\":742:747   */\n          0x00\n            /* \"#utility.yul\":780:786   */\n          dup2\n            /* \"#utility.yul\":767:787   */\n          calldataload\n            /* \"#utility.yul\":758:787   */\n          swap1\n          pop\n            /* \"#utility.yul\":796:829   */\n          tag_98\n            /* \"#utility.yul\":823:828   */\n          dup2\n            /* \"#utility.yul\":796:829   */\n          tag_75\n          jump\t// in\n        tag_98:\n            /* \"#utility.yul\":696:835   */\n          swap3\n          swap2\n          pop\n          pop\n          jump\t// out\n            /* \"#utility.yul\":841:1170   */\n        tag_14:\n            /* \"#utility.yul\":900:906   */\n          0x00\n            /* \"#utility.yul\":949:951   */\n          0x20\n            /* \"#utility.yul\":937:946   */\n          dup3\n            /* \"#utility.yul\":928:935   */\n          dup5\n            /* \"#utility.yul\":924:947   */\n          sub\n            /* \"#utility.yul\":920:952   */\n          slt\n            /* \"#utility.yul\":917:1036   */\n          iszero\n          tag_100\n          jumpi\n            /* \"#utility.yul\":955:1034   */\n          tag_101\n          tag_71\n          jump\t// in\n        tag_101:\n            /* \"#utility.yul\":917:1036   */\n        tag_100:\n            /* \"#utility.yul\":1075:1076   */\n          0x00\n            /* \"#utility.yul\":1100:1153   */\n          tag_102\n            /* \"#utility.yul\":1145:1152   */\n          dup5\n            /* \"#utility.yul\":1136:1142   */\n          dup3\n            /* \"#utility.yul\":1125:1134   */\n          dup6\n            /* \"#utility.yul\":1121:1143   */\n          add\n            /* \"#utility.yul\":1100:1153   */\n          tag_76\n          jump\t// in\n        tag_102:\n            /* \"#utility.yul\":1090:1153   */\n          swap2\n          pop\n            /* \"#utility.yul\":1046:1163   */\n          pop\n            /* \"#utility.yul\":841:1170   */\n          swap3\n          swap2\n          pop\n          pop\n          jump\t// out\n            /* \"#utility.yul\":1176:1253   */\n        tag_77:\n            /* \"#utility.yul\":1213:1220   */\n          0x00\n            /* \"#utility.yul\":1242:1247   */\n          dup2\n            /* \"#utility.yul\":1231:1247   */\n          swap1\n          pop\n            /* \"#utility.yul\":1176:1253   */\n          swap2\n          swap1\n          pop\n          jump\t// out\n            /* \"#utility.yul\":1259:1377   */\n        tag_78:\n            /* \"#utility.yul\":1346:1370   */\n          tag_105\n            /* \"#utility.yul\":1364:1369   */\n          dup2\n            /* \"#utility.yul\":1346:1370   */\n          tag_77\n          jump\t// in\n        tag_105:\n            /* \"#utility.yul\":1341:1344   */\n          dup3\n            /* \"#utility.yul\":1334:1371   */\n          mstore\n            /* \"#utility.yul\":1259:1377   */\n          pop\n          pop\n          jump\t// out\n            /* \"#utility.yul\":1383:1936   */\n        tag_17:\n            /* \"#utility.yul\":1560:1564   */\n          0x00\n            /* \"#utility.yul\":1598:1601   */\n          0x80\n            /* \"#utility.yul\":1587:1596   */\n          dup3\n            /* \"#utility.yul\":1583:1602   */\n          add\n            /* \"#utility.yul\":1575:1602   */\n          swap1\n          pop\n            /* \"#utility.yul\":1612:1683   */\n          tag_107\n            /* \"#utility.yul\":1680:1681   */\n          0x00\n            /* \"#utility.yul\":1669:1678   */\n          dup4\n            /* \"#utility.yul\":1665:1682   */\n          add\n            /* \"#utility.yul\":1656:1662   */\n          dup8\n            /* \"#utility.yul\":1612:1683   */\n          tag_78\n          jump\t// in\n        tag_107:\n            /* \"#utility.yul\":1693:1765   */\n          tag_108\n            /* \"#utility.yul\":1761:1763   */\n          0x20\n            /* \"#utility.yul\":1750:1759   */\n          dup4\n            /* \"#utility.yul\":1746:1764   */\n          add\n            /* \"#utility.yul\":1737:1743   */\n          dup7\n            /* \"#utility.yul\":1693:1765   */\n          tag_78\n          jump\t// in\n        tag_108:\n            /* \"#utility.yul\":1775:1847   */\n          tag_109\n            /* \"#utility.yul\":1843:1845   */\n          0x40\n            /* \"#utility.yul\":1832:1841   */\n          dup4\n            /* \"#utility.yul\":1828:1846   */\n          add\n            /* \"#utility.yul\":1819:1825   */\n          dup6\n            /* \"#utility.yul\":1775:1847   */\n          tag_78\n          jump\t// in\n        tag_109:\n            /* \"#utility.yul\":1857:1929   */\n          tag_110\n            /* \"#utility.yul\":1925:1927   */\n          0x60\n            /* \"#utility.yul\":1914:1923   */\n          dup4\n            /* \"#utility.yul\":1910:1928   */\n          add\n            /* \"#utility.yul\":1901:1907   */\n          dup5\n            /* \"#utility.yul\":1857:1929   */\n          tag_78\n          jump\t// in\n        tag_110:\n            /* \"#utility.yul\":1383:1936   */\n          swap6\n          swap5\n          pop\n          pop\n          pop\n          pop\n          pop\n          jump\t// out\n            /* \"#utility.yul\":1942:2046   */\n        tag_79:\n            /* \"#utility.yul\":1987:1994   */\n          0x00\n            /* \"#utility.yul\":2016:2040   */\n          tag_112\n            /* \"#utility.yul\":2034:2039   */\n          dup3\n            /* \"#utility.yul\":2016:2040   */\n          tag_73\n          jump\t// in\n        tag_112:\n            /* \"#utility.yul\":2005:2040   */\n          swap1\n          pop\n            /* \"#utility.yul\":1942:2046   */\n          swap2\n          swap1\n          pop\n          jump\t// out\n            /* \"#utility.yul\":2052:2190   */\n        tag_80:\n            /* \"#utility.yul\":2133:2165   */\n          tag_114\n            /* \"#utility.yul\":2159:2164   */\n          dup2\n            /* \"#utility.yul\":2133:2165   */\n          tag_79\n          jump\t// in\n        tag_114:\n            /* \"#utility.yul\":2126:2131   */\n          dup2\n            /* \"#utility.yul\":2123:2166   */\n          eq\n            /* \"#utility.yul\":2113:2184   */\n          tag_115\n          jumpi\n            /* \"#utility.yul\":2180:2181   */\n          0x00\n            /* \"#utility.yul\":2177:2178   */\n          dup1\n            /* \"#utility.yul\":2170:2182   */\n          revert\n            /* \"#utility.yul\":2113:2184   */\n        tag_115:\n            /* \"#utility.yul\":2052:2190   */\n          pop\n          jump\t// out\n            /* \"#utility.yul\":2196:2351   */\n        tag_81:\n            /* \"#utility.yul\":2250:2255   */\n          0x00\n            /* \"#utility.yul\":2288:2294   */\n          dup2\n            /* \"#utility.yul\":2275:2295   */\n          calldataload\n            /* \"#utility.yul\":2266:2295   */\n          swap1\n          pop\n            /* \"#utility.yul\":2304:2345   */\n          tag_117\n            /* \"#utility.yul\":2339:2344   */\n          dup2\n            /* \"#utility.yul\":2304:2345   */\n          tag_80\n          jump\t// in\n        tag_117:\n            /* \"#utility.yul\":2196:2351   */\n          swap3\n          swap2\n          pop\n          pop\n          jump\t// out\n            /* \"#utility.yul\":2357:2479   */\n        tag_82:\n            /* \"#utility.yul\":2430:2454   */\n          tag_119\n            /* \"#utility.yul\":2448:2453   */\n          dup2\n            /* \"#utility.yul\":2430:2454   */\n          tag_77\n          jump\t// in\n        tag_119:\n            /* \"#utility.yul\":2423:2428   */\n          dup2\n            /* \"#utility.yul\":2420:2455   */\n          eq\n            /* \"#utility.yul\":2410:2473   */\n          tag_120\n          jumpi\n            /* \"#utility.yul\":2469:2470   */\n          0x00\n            /* \"#utility.yul\":2466:2467   */\n          dup1\n            /* \"#utility.yul\":2459:2471   */\n          revert\n            /* \"#utility.yul\":2410:2473   */\n        tag_120:\n            /* \"#utility.yul\":2357:2479   */\n          pop\n          jump\t// out\n            /* \"#utility.yul\":2485:2624   */\n        tag_83:\n            /* \"#utility.yul\":2531:2536   */\n          0x00\n            /* \"#utility.yul\":2569:2575   */\n          dup2\n            /* \"#utility.yul\":2556:2576   */\n          calldataload\n            /* \"#utility.yul\":2547:2576   */\n          swap1\n          pop\n            /* \"#utility.yul\":2585:2618   */\n          tag_122\n            /* \"#utility.yul\":2612:2617   */\n          dup2\n            /* \"#utility.yul\":2585:2618   */\n          tag_82\n          jump\t// in\n        tag_122:\n            /* \"#utility.yul\":2485:2624   */\n          swap3\n          swap2\n          pop\n          pop\n          jump\t// out\n            /* \"#utility.yul\":2630:3120   */\n        tag_24:\n            /* \"#utility.yul\":2706:2712   */\n          0x00\n            /* \"#utility.yul\":2714:2720   */\n          dup1\n            /* \"#utility.yul\":2763:2765   */\n          0x40\n            /* \"#utility.yul\":2751:2760   */\n          dup4\n            /* \"#utility.yul\":2742:2749   */\n          dup6\n            /* \"#utility.yul\":2738:2761   */\n          sub\n            /* \"#utility.yul\":2734:2766   */\n          slt\n            /* \"#utility.yul\":2731:2850   */\n          iszero\n          tag_124\n          jumpi\n            /* \"#utility.yul\":2769:2848   */\n          tag_125\n          tag_71\n          jump\t// in\n        tag_125:\n            /* \"#utility.yul\":2731:2850   */\n        tag_124:\n            /* \"#utility.yul\":2889:2890   */\n          0x00\n            /* \"#utility.yul\":2914:2975   */\n          tag_126\n            /* \"#utility.yul\":2967:2974   */\n          dup6\n            /* \"#utility.yul\":2958:2964   */\n          dup3\n            /* \"#utility.yul\":2947:2956   */\n          dup7\n            /* \"#utility.yul\":2943:2965   */\n          add\n            /* \"#utility.yul\":2914:2975   */\n          tag_81\n          jump\t// in\n        tag_126:\n            /* \"#utility.yul\":2904:2975   */\n          swap3\n          pop\n            /* \"#utility.yul\":2860:2985   */\n          pop\n            /* \"#utility.yul\":3024:3026   */\n          0x20\n            /* \"#utility.yul\":3050:3103   */\n          tag_127\n            /* \"#utility.yul\":3095:3102   */\n          dup6\n            /* \"#utility.yul\":3086:3092   */\n          dup3\n            /* \"#utility.yul\":3075:3084   */\n          dup7\n            /* \"#utility.yul\":3071:3093   */\n          add\n            /* \"#utility.yul\":3050:3103   */\n          tag_83\n          jump\t// in\n        tag_127:\n            /* \"#utility.yul\":3040:3103   */\n          swap2\n          pop\n            /* \"#utility.yul\":2995:3113   */\n          pop\n            /* \"#utility.yul\":2630:3120   */\n          swap3\n          pop\n          swap3\n          swap1\n          pop\n          jump\t// out\n            /* \"#utility.yul\":3126:3455   */\n        tag_29:\n            /* \"#utility.yul\":3185:3191   */\n          0x00\n            /* \"#utility.yul\":3234:3236   */\n          0x20\n            /* \"#utility.yul\":3222:3231   */\n          dup3\n            /* \"#utility.yul\":3213:3220   */\n          dup5\n            /* \"#utility.yul\":3209:3232   */\n          sub\n            /* \"#utility.yul\":3205:3237   */\n          slt\n            /* \"#utility.yul\":3202:3321   */\n          iszero\n          tag_129\n          jumpi\n            /* \"#utility.yul\":3240:3319   */\n          tag_130\n          tag_71\n          jump\t// in\n        tag_130:\n            /* \"#utility.yul\":3202:3321   */\n        tag_129:\n            /* \"#utility.yul\":3360:3361   */\n          0x00\n            /* \"#utility.yul\":3385:3438   */\n          tag_131\n            /* \"#utility.yul\":3430:3437   */\n          dup5\n            /* \"#utility.yul\":3421:3427   */\n          dup3\n            /* \"#utility.yul\":3410:3419   */\n          dup6\n            /* \"#utility.yul\":3406:3428   */\n          add\n            /* \"#utility.yul\":3385:3438   */\n          tag_83\n          jump\t// in\n        tag_131:\n            /* \"#utility.yul\":3375:3438   */\n          swap2\n          pop\n            /* \"#utility.yul\":3331:3448   */\n          pop\n            /* \"#utility.yul\":3126:3455   */\n          swap3\n          swap2\n          pop\n          pop\n          jump\t// out\n            /* \"#utility.yul\":3461:3603   */\n        tag_84:\n            /* \"#utility.yul\":3564:3596   */\n          tag_133\n            /* \"#utility.yul\":3590:3595   */\n          dup2\n            /* \"#utility.yul\":3564:3596   */\n          tag_79\n          jump\t// in\n        tag_133:\n            /* \"#utility.yul\":3559:3562   */\n          dup3\n            /* \"#utility.yul\":3552:3597   */\n          mstore\n            /* \"#utility.yul\":3461:3603   */\n          pop\n          pop\n          jump\t// out\n            /* \"#utility.yul\":3609:3863   */\n        tag_32:\n            /* \"#utility.yul\":3718:3722   */\n          0x00\n            /* \"#utility.yul\":3756:3758   */\n          0x20\n            /* \"#utility.yul\":3745:3754   */\n          dup3\n            /* \"#utility.yul\":3741:3759   */\n          add\n            /* \"#utility.yul\":3733:3759   */\n          swap1\n          pop\n            /* \"#utility.yul\":3769:3856   */\n          tag_135\n            /* \"#utility.yul\":3853:3854   */\n          0x00\n            /* \"#utility.yul\":3842:3851   */\n          dup4\n            /* \"#utility.yul\":3838:3855   */\n          add\n            /* \"#utility.yul\":3829:3835   */\n          dup5\n            /* \"#utility.yul\":3769:3856   */\n          tag_84\n          jump\t// in\n        tag_135:\n            /* \"#utility.yul\":3609:3863   */\n          swap3\n          swap2\n          pop\n          pop\n          jump\t// out\n            /* \"#utility.yul\":3869:3987   */\n        tag_85:\n            /* \"#utility.yul\":3956:3980   */\n          tag_137\n            /* \"#utility.yul\":3974:3979   */\n          dup2\n            /* \"#utility.yul\":3956:3980   */\n          tag_74\n          jump\t// in\n        tag_137:\n            /* \"#utility.yul\":3951:3954   */\n          dup3\n            /* \"#utility.yul\":3944:3981   */\n          mstore\n            /* \"#utility.yul\":3869:3987   */\n          pop\n          pop\n          jump\t// out\n            /* \"#utility.yul\":3993:4325   */\n        tag_53:\n            /* \"#utility.yul\":4114:4118   */\n          0x00\n            /* \"#utility.yul\":4152:4154   */\n          0x40\n            /* \"#utility.yul\":4141:4150   */\n          dup3\n            /* \"#utility.yul\":4137:4155   */\n          add\n            /* \"#utility.yul\":4129:4155   */\n          swap1\n          pop\n            /* \"#utility.yul\":4165:4236   */\n          tag_139\n            /* \"#utility.yul\":4233:4234   */\n          0x00\n            /* \"#utility.yul\":4222:4231   */\n          dup4\n            /* \"#utility.yul\":4218:4235   */\n          add\n            /* \"#utility.yul\":4209:4215   */\n          dup6\n            /* \"#utility.yul\":4165:4236   */\n          tag_85\n          jump\t// in\n        tag_139:\n            /* \"#utility.yul\":4246:4318   */\n          tag_140\n            /* \"#utility.yul\":4314:4316   */\n          0x20\n            /* \"#utility.yul\":4303:4312   */\n          dup4\n            /* \"#utility.yul\":4299:4317   */\n          add\n            /* \"#utility.yul\":4290:4296   */\n          dup5\n            /* \"#utility.yul\":4246:4318   */\n          tag_78\n          jump\t// in\n        tag_140:\n            /* \"#utility.yul\":3993:4325   */\n          swap4\n          swap3\n          pop\n          pop\n          pop\n          jump\t// out\n            /* \"#utility.yul\":4331:4511   */\n        tag_86:\n            /* \"#utility.yul\":4379:4456   */\n          0x4e487b7100000000000000000000000000000000000000000000000000000000\n            /* \"#utility.yul\":4376:4377   */\n          0x00\n            /* \"#utility.yul\":4369:4457   */\n          mstore\n            /* \"#utility.yul\":4476:4480   */\n          0x11\n            /* \"#utility.yul\":4473:4474   */\n          0x04\n            /* \"#utility.yul\":4466:4481   */\n          mstore\n            /* \"#utility.yul\":4500:4504   */\n          0x24\n            /* \"#utility.yul\":4497:4498   */\n          0x00\n            /* \"#utility.yul\":4490:4505   */\n          revert\n            /* \"#utility.yul\":4517:4708   */\n        tag_61:\n            /* \"#utility.yul\":4557:4560   */\n          0x00\n            /* \"#utility.yul\":4576:4596   */\n          tag_143\n            /* \"#utility.yul\":4594:4595   */\n          dup3\n            /* \"#utility.yul\":4576:4596   */\n          tag_77\n          jump\t// in\n        tag_143:\n            /* \"#utility.yul\":4571:4596   */\n          swap2\n          pop\n            /* \"#utility.yul\":4610:4630   */\n          tag_144\n            /* \"#utility.yul\":4628:4629   */\n          dup4\n            /* \"#utility.yul\":4610:4630   */\n          tag_77\n          jump\t// in\n        tag_144:\n            /* \"#utility.yul\":4605:4630   */\n          swap3\n          pop\n            /* \"#utility.yul\":4653:4654   */\n          dup3\n            /* \"#utility.yul\":4650:4651   */\n          dup3\n            /* \"#utility.yul\":4646:4655   */\n          add\n            /* \"#utility.yul\":4639:4655   */\n          swap1\n          pop\n            /* \"#utility.yul\":4674:4677   */\n          dup1\n            /* \"#utility.yul\":4671:4672   */\n          dup3\n            /* \"#utility.yul\":4668:4678   */\n          gt\n            /* \"#utility.yul\":4665:4701   */\n          iszero\n          tag_145\n          jumpi\n            /* \"#utility.yul\":4681:4699   */\n          tag_146\n          tag_86\n          jump\t// in\n        tag_146:\n            /* \"#utility.yul\":4665:4701   */\n        tag_145:\n            /* \"#utility.yul\":4517:4708   */\n          swap3\n          swap2\n          pop\n          pop\n          jump\t// out\n            /* \"#utility.yul\":4714:4947   */\n        tag_63:\n            /* \"#utility.yul\":4753:4756   */\n          0x00\n            /* \"#utility.yul\":4776:4800   */\n          tag_148\n            /* \"#utility.yul\":4794:4799   */\n          dup3\n            /* \"#utility.yul\":4776:4800   */\n          tag_77\n          jump\t// in\n        tag_148:\n            /* \"#utility.yul\":4767:4800   */\n          swap2\n          pop\n            /* \"#utility.yul\":4822:4888   */\n          0xffffffffffffffffffffffffffffffffffffffffffffffffffffffffffffffff\n            /* \"#utility.yul\":4815:4820   */\n          dup3\n            /* \"#utility.yul\":4812:4889   */\n          sub\n            /* \"#utility.yul\":4809:4912   */\n          tag_149\n          jumpi\n            /* \"#utility.yul\":4892:4910   */\n          tag_150\n          tag_86\n          jump\t// in\n        tag_150:\n            /* \"#utility.yul\":4809:4912   */\n        tag_149:\n            /* \"#utility.yul\":4939:4940   */\n          0x01\n            /* \"#utility.yul\":4932:4937   */\n          dup3\n            /* \"#utility.yul\":4928:4941   */\n          add\n            /* \"#utility.yul\":4921:4941   */\n          swap1\n          pop\n            /* \"#utility.yul\":4714:4947   */\n          swap2\n          swap1\n          pop\n          jump\t// out\n\n        auxdata: 0xa26469706673582212201018deaef6b9f90518f864be8eca0a87919b6708c231ceb53b0f3bfeb6c97d2464736f6c63430008100033\n    }\n}\n",
				"bytecode": {
					"linkReferences": {},
					"object": "60806040526000600460006101000a81548160ff02191690831515021790555060006007556040516100309061009f565b604051809103906000f08015801561004c573d6000803e3d6000fd5b50600860006101000a81548173ffffffffffffffffffffffffffffffffffffffff021916908373ffffffffffffffffffffffffffffffffffffffff16021790555034801561009957600080fd5b506100ac565b610a0080610a7b83390190565b6109c0806100bb6000396000f3fe60806040526004361061007b5760003560e01c80638bf963b61161004e5780638bf963b61461013d5780638d68cf5914610154578063abb6ae891461016b578063ed88c68e146101825761007b565b806327e235e31461008057806339788bc8146100c05780634956eaf0146100d75780635eed3dcb14610100575b600080fd5b34801561008c57600080fd5b506100a760048036038101906100a2919061071b565b61018c565b6040516100b79493929190610761565b60405180910390f35b3480156100cc57600080fd5b506100d56101bc565b005b3480156100e357600080fd5b506100fe60048036038101906100f99190610810565b610231565b005b34801561010c57600080fd5b5061012760048036038101906101229190610850565b610283565b604051610134919061088c565b60405180910390f35b34801561014957600080fd5b506101526102c2565b005b34801561016057600080fd5b5061016961038c565b005b34801561017757600080fd5b5061018061047f565b005b61018a61050b565b005b60056020528060005260406000206000915090508060000154908060010154908060020154908060030154905084565b60008054906101000a900473ffffffffffffffffffffffffffffffffffffffff1673ffffffffffffffffffffffffffffffffffffffff163373ffffffffffffffffffffffffffffffffffffffff161461021457600080fd5b6001600460006101000a81548160ff021916908315150217905550565b816000806101000a81548173ffffffffffffffffffffffffffffffffffffffff021916908373ffffffffffffffffffffffffffffffffffffffff16021790555042600281905550806003819055505050565b6006818154811061029357600080fd5b906000526020600020016000915054906101000a900473ffffffffffffffffffffffffffffffffffffffff1681565b6000600560003373ffffffffffffffffffffffffffffffffffffffff1673ffffffffffffffffffffffffffffffffffffffff1681526020019081526020016000206002015490503373ffffffffffffffffffffffffffffffffffffffff166108fc829081150290604051600060405180830381858888f1935050505015801561034f573d6000803e3d6000fd5b507fe0e5873eb9d996d2ab087b071a9a50522121c02b43308c8728c06739f52b3f8733826040516103819291906108b6565b60405180910390a150565b60008054906101000a900473ffffffffffffffffffffffffffffffffffffffff1673ffffffffffffffffffffffffffffffffffffffff166108fc600560003373ffffffffffffffffffffffffffffffffffffffff1673ffffffffffffffffffffffffffffffffffffffff168152602001908152602001600020600001549081150290604051600060405180830381858888f19350505050158015610434573d6000803e3d6000fd5b506000600560003373ffffffffffffffffffffffffffffffffffffffff1673ffffffffffffffffffffffffffffffffffffffff16815260200190815260200160002060020181905550565b60008054906101000a900473ffffffffffffffffffffffffffffffffffffffff1673ffffffffffffffffffffffffffffffffffffffff163373ffffffffffffffffffffffffffffffffffffffff16146104d757600080fd5b60006007540361050957600380546104ef919061090e565b506007600081548092919061050390610942565b91905055505b565b34600560003373ffffffffffffffffffffffffffffffffffffffff1673ffffffffffffffffffffffffffffffffffffffff168152602001908152602001600020600001600082825461055d919061090e565b9250508190555034600560003373ffffffffffffffffffffffffffffffffffffffff1673ffffffffffffffffffffffffffffffffffffffff16815260200190815260200160002060020160008282546105b6919061090e565b92505081905550600160008154809291906105d090610942565b91905055600560003373ffffffffffffffffffffffffffffffffffffffff1673ffffffffffffffffffffffffffffffffffffffff168152602001908152602001600020600301819055506006339080600181540180825580915050600190039060005260206000200160009091909190916101000a81548173ffffffffffffffffffffffffffffffffffffffff021916908373ffffffffffffffffffffffffffffffffffffffff1602179055507f81d2c188629cc4a1c694d285150cb5fa3dde3157a2684460d3ac7a1e331f616433346040516106ae9291906108b6565b60405180910390a1565b600080fd5b600073ffffffffffffffffffffffffffffffffffffffff82169050919050565b60006106e8826106bd565b9050919050565b6106f8816106dd565b811461070357600080fd5b50565b600081359050610715816106ef565b92915050565b600060208284031215610731576107306106b8565b5b600061073f84828501610706565b91505092915050565b6000819050919050565b61075b81610748565b82525050565b60006080820190506107766000830187610752565b6107836020830186610752565b6107906040830185610752565b61079d6060830184610752565b95945050505050565b60006107b1826106bd565b9050919050565b6107c1816107a6565b81146107cc57600080fd5b50565b6000813590506107de816107b8565b92915050565b6107ed81610748565b81146107f857600080fd5b50565b60008135905061080a816107e4565b92915050565b60008060408385031215610827576108266106b8565b5b6000610835858286016107cf565b9250506020610846858286016107fb565b9150509250929050565b600060208284031215610866576108656106b8565b5b6000610874848285016107fb565b91505092915050565b610886816107a6565b82525050565b60006020820190506108a1600083018461087d565b92915050565b6108b0816106dd565b82525050565b60006040820190506108cb60008301856108a7565b6108d86020830184610752565b9392505050565b7f4e487b7100000000000000000000000000000000000000000000000000000000600052601160045260246000fd5b600061091982610748565b915061092483610748565b925082820190508082111561093c5761093b6108df565b5b92915050565b600061094d82610748565b91507fffffffffffffffffffffffffffffffffffffffffffffffffffffffffffffffff820361097f5761097e6108df565b5b60018201905091905056fea26469706673582212204f904a29680f4329999e86eb097af17c4fc6c2fb4eb748792398ed139c9fcd1964736f6c6343000810003360806040526000600460006101000a81548160ff021916908315150217905550600060075534801561003057600080fd5b506109c0806100406000396000f3fe60806040526004361061007b5760003560e01c80638bf963b61161004e5780638bf963b61461013d5780638d68cf5914610154578063abb6ae891461016b578063ed88c68e146101825761007b565b806327e235e31461008057806339788bc8146100c05780634956eaf0146100d75780635eed3dcb14610100575b600080fd5b34801561008c57600080fd5b506100a760048036038101906100a2919061071b565b61018c565b6040516100b79493929190610761565b60405180910390f35b3480156100cc57600080fd5b506100d56101bc565b005b3480156100e357600080fd5b506100fe60048036038101906100f99190610810565b610231565b005b34801561010c57600080fd5b5061012760048036038101906101229190610850565b610283565b604051610134919061088c565b60405180910390f35b34801561014957600080fd5b506101526102c2565b005b34801561016057600080fd5b5061016961038c565b005b34801561017757600080fd5b5061018061047f565b005b61018a61050b565b005b60056020528060005260406000206000915090508060000154908060010154908060020154908060030154905084565b60008054906101000a900473ffffffffffffffffffffffffffffffffffffffff1673ffffffffffffffffffffffffffffffffffffffff163373ffffffffffffffffffffffffffffffffffffffff161461021457600080fd5b6001600460006101000a81548160ff021916908315150217905550565b816000806101000a81548173ffffffffffffffffffffffffffffffffffffffff021916908373ffffffffffffffffffffffffffffffffffffffff16021790555042600281905550806003819055505050565b6006818154811061029357600080fd5b906000526020600020016000915054906101000a900473ffffffffffffffffffffffffffffffffffffffff1681565b6000600560003373ffffffffffffffffffffffffffffffffffffffff1673ffffffffffffffffffffffffffffffffffffffff1681526020019081526020016000206002015490503373ffffffffffffffffffffffffffffffffffffffff166108fc829081150290604051600060405180830381858888f1935050505015801561034f573d6000803e3d6000fd5b507fe0e5873eb9d996d2ab087b071a9a50522121c02b43308c8728c06739f52b3f8733826040516103819291906108b6565b60405180910390a150565b60008054906101000a900473ffffffffffffffffffffffffffffffffffffffff1673ffffffffffffffffffffffffffffffffffffffff166108fc600560003373ffffffffffffffffffffffffffffffffffffffff1673ffffffffffffffffffffffffffffffffffffffff168152602001908152602001600020600001549081150290604051600060405180830381858888f19350505050158015610434573d6000803e3d6000fd5b506000600560003373ffffffffffffffffffffffffffffffffffffffff1673ffffffffffffffffffffffffffffffffffffffff16815260200190815260200160002060020181905550565b60008054906101000a900473ffffffffffffffffffffffffffffffffffffffff1673ffffffffffffffffffffffffffffffffffffffff163373ffffffffffffffffffffffffffffffffffffffff16146104d757600080fd5b60006007540361050957600380546104ef919061090e565b506007600081548092919061050390610942565b91905055505b565b34600560003373ffffffffffffffffffffffffffffffffffffffff1673ffffffffffffffffffffffffffffffffffffffff168152602001908152602001600020600001600082825461055d919061090e565b9250508190555034600560003373ffffffffffffffffffffffffffffffffffffffff1673ffffffffffffffffffffffffffffffffffffffff16815260200190815260200160002060020160008282546105b6919061090e565b92505081905550600160008154809291906105d090610942565b91905055600560003373ffffffffffffffffffffffffffffffffffffffff1673ffffffffffffffffffffffffffffffffffffffff168152602001908152602001600020600301819055506006339080600181540180825580915050600190039060005260206000200160009091909190916101000a81548173ffffffffffffffffffffffffffffffffffffffff021916908373ffffffffffffffffffffffffffffffffffffffff1602179055507f81d2c188629cc4a1c694d285150cb5fa3dde3157a2684460d3ac7a1e331f616433346040516106ae9291906108b6565b60405180910390a1565b600080fd5b600073ffffffffffffffffffffffffffffffffffffffff82169050919050565b60006106e8826106bd565b9050919050565b6106f8816106dd565b811461070357600080fd5b50565b600081359050610715816106ef565b92915050565b600060208284031215610731576107306106b8565b5b600061073f84828501610706565b91505092915050565b6000819050919050565b61075b81610748565b82525050565b60006080820190506107766000830187610752565b6107836020830186610752565b6107906040830185610752565b61079d6060830184610752565b95945050505050565b60006107b1826106bd565b9050919050565b6107c1816107a6565b81146107cc57600080fd5b50565b6000813590506107de816107b8565b92915050565b6107ed81610748565b81146107f857600080fd5b50565b60008135905061080a816107e4565b92915050565b60008060408385031215610827576108266106b8565b5b6000610835858286016107cf565b9250506020610846858286016107fb565b9150509250929050565b600060208284031215610866576108656106b8565b5b6000610874848285016107fb565b91505092915050565b610886816107a6565b82525050565b60006020820190506108a1600083018461087d565b92915050565b6108b0816106dd565b82525050565b60006040820190506108cb60008301856108a7565b6108d86020830184610752565b9392505050565b7f4e487b7100000000000000000000000000000000000000000000000000000000600052601160045260246000fd5b600061091982610748565b915061092483610748565b925082820190508082111561093c5761093b6108df565b5b92915050565b600061094d82610748565b91507fffffffffffffffffffffffffffffffffffffffffffffffffffffffffffffffff820361097f5761097e6108df565b5b60018201905091905056fea26469706673582212201018deaef6b9f90518f864be8eca0a87919b6708c231ceb53b0f3bfeb6c97d2464736f6c63430008100033",
					"opcodes": "PUSH1 0x80 PUSH1 0x40 MSTORE PUSH1 0x0 PUSH1 0x4 PUSH1 0x0 PUSH2 0x100 EXP DUP2 SLOAD DUP2 PUSH1 0xFF MUL NOT AND SWAP1 DUP4 ISZERO ISZERO MUL OR SWAP1 SSTORE POP PUSH1 0x0 PUSH1 0x7 SSTORE PUSH1 0x40 MLOAD PUSH2 0x30 SWAP1 PUSH2 0x9F JUMP JUMPDEST PUSH1 0x40 MLOAD DUP1 SWAP2 SUB SWAP1 PUSH1 0x0 CREATE DUP1 ISZERO DUP1 ISZERO PUSH2 0x4C JUMPI RETURNDATASIZE PUSH1 0x0 DUP1 RETURNDATACOPY RETURNDATASIZE PUSH1 0x0 REVERT JUMPDEST POP PUSH1 0x8 PUSH1 0x0 PUSH2 0x100 EXP DUP2 SLOAD DUP2 PUSH20 0xFFFFFFFFFFFFFFFFFFFFFFFFFFFFFFFFFFFFFFFF MUL NOT AND SWAP1 DUP4 PUSH20 0xFFFFFFFFFFFFFFFFFFFFFFFFFFFFFFFFFFFFFFFF AND MUL OR SWAP1 SSTORE POP CALLVALUE DUP1 ISZERO PUSH2 0x99 JUMPI PUSH1 0x0 DUP1 REVERT JUMPDEST POP PUSH2 0xAC JUMP JUMPDEST PUSH2 0xA00 DUP1 PUSH2 0xA7B DUP4 CODECOPY ADD SWAP1 JUMP JUMPDEST PUSH2 0x9C0 DUP1 PUSH2 0xBB PUSH1 0x0 CODECOPY PUSH1 0x0 RETURN INVALID PUSH1 0x80 PUSH1 0x40 MSTORE PUSH1 0x4 CALLDATASIZE LT PUSH2 0x7B JUMPI PUSH1 0x0 CALLDATALOAD PUSH1 0xE0 SHR DUP1 PUSH4 0x8BF963B6 GT PUSH2 0x4E JUMPI DUP1 PUSH4 0x8BF963B6 EQ PUSH2 0x13D JUMPI DUP1 PUSH4 0x8D68CF59 EQ PUSH2 0x154 JUMPI DUP1 PUSH4 0xABB6AE89 EQ PUSH2 0x16B JUMPI DUP1 PUSH4 0xED88C68E EQ PUSH2 0x182 JUMPI PUSH2 0x7B JUMP JUMPDEST DUP1 PUSH4 0x27E235E3 EQ PUSH2 0x80 JUMPI DUP1 PUSH4 0x39788BC8 EQ PUSH2 0xC0 JUMPI DUP1 PUSH4 0x4956EAF0 EQ PUSH2 0xD7 JUMPI DUP1 PUSH4 0x5EED3DCB EQ PUSH2 0x100 JUMPI JUMPDEST PUSH1 0x0 DUP1 REVERT JUMPDEST CALLVALUE DUP1 ISZERO PUSH2 0x8C JUMPI PUSH1 0x0 DUP1 REVERT JUMPDEST POP PUSH2 0xA7 PUSH1 0x4 DUP1 CALLDATASIZE SUB DUP2 ADD SWAP1 PUSH2 0xA2 SWAP2 SWAP1 PUSH2 0x71B JUMP JUMPDEST PUSH2 0x18C JUMP JUMPDEST PUSH1 0x40 MLOAD PUSH2 0xB7 SWAP5 SWAP4 SWAP3 SWAP2 SWAP1 PUSH2 0x761 JUMP JUMPDEST PUSH1 0x40 MLOAD DUP1 SWAP2 SUB SWAP1 RETURN JUMPDEST CALLVALUE DUP1 ISZERO PUSH2 0xCC JUMPI PUSH1 0x0 DUP1 REVERT JUMPDEST POP PUSH2 0xD5 PUSH2 0x1BC JUMP JUMPDEST STOP JUMPDEST CALLVALUE DUP1 ISZERO PUSH2 0xE3 JUMPI PUSH1 0x0 DUP1 REVERT JUMPDEST POP PUSH2 0xFE PUSH1 0x4 DUP1 CALLDATASIZE SUB DUP2 ADD SWAP1 PUSH2 0xF9 SWAP2 SWAP1 PUSH2 0x810 JUMP JUMPDEST PUSH2 0x231 JUMP JUMPDEST STOP JUMPDEST CALLVALUE DUP1 ISZERO PUSH2 0x10C JUMPI PUSH1 0x0 DUP1 REVERT JUMPDEST POP PUSH2 0x127 PUSH1 0x4 DUP1 CALLDATASIZE SUB DUP2 ADD SWAP1 PUSH2 0x122 SWAP2 SWAP1 PUSH2 0x850 JUMP JUMPDEST PUSH2 0x283 JUMP JUMPDEST PUSH1 0x40 MLOAD PUSH2 0x134 SWAP2 SWAP1 PUSH2 0x88C JUMP JUMPDEST PUSH1 0x40 MLOAD DUP1 SWAP2 SUB SWAP1 RETURN JUMPDEST CALLVALUE DUP1 ISZERO PUSH2 0x149 JUMPI PUSH1 0x0 DUP1 REVERT JUMPDEST POP PUSH2 0x152 PUSH2 0x2C2 JUMP JUMPDEST STOP JUMPDEST CALLVALUE DUP1 ISZERO PUSH2 0x160 JUMPI PUSH1 0x0 DUP1 REVERT JUMPDEST POP PUSH2 0x169 PUSH2 0x38C JUMP JUMPDEST STOP JUMPDEST CALLVALUE DUP1 ISZERO PUSH2 0x177 JUMPI PUSH1 0x0 DUP1 REVERT JUMPDEST POP PUSH2 0x180 PUSH2 0x47F JUMP JUMPDEST STOP JUMPDEST PUSH2 0x18A PUSH2 0x50B JUMP JUMPDEST STOP JUMPDEST PUSH1 0x5 PUSH1 0x20 MSTORE DUP1 PUSH1 0x0 MSTORE PUSH1 0x40 PUSH1 0x0 KECCAK256 PUSH1 0x0 SWAP2 POP SWAP1 POP DUP1 PUSH1 0x0 ADD SLOAD SWAP1 DUP1 PUSH1 0x1 ADD SLOAD SWAP1 DUP1 PUSH1 0x2 ADD SLOAD SWAP1 DUP1 PUSH1 0x3 ADD SLOAD SWAP1 POP DUP5 JUMP JUMPDEST PUSH1 0x0 DUP1 SLOAD SWAP1 PUSH2 0x100 EXP SWAP1 DIV PUSH20 0xFFFFFFFFFFFFFFFFFFFFFFFFFFFFFFFFFFFFFFFF AND PUSH20 0xFFFFFFFFFFFFFFFFFFFFFFFFFFFFFFFFFFFFFFFF AND CALLER PUSH20 0xFFFFFFFFFFFFFFFFFFFFFFFFFFFFFFFFFFFFFFFF AND EQ PUSH2 0x214 JUMPI PUSH1 0x0 DUP1 REVERT JUMPDEST PUSH1 0x1 PUSH1 0x4 PUSH1 0x0 PUSH2 0x100 EXP DUP2 SLOAD DUP2 PUSH1 0xFF MUL NOT AND SWAP1 DUP4 ISZERO ISZERO MUL OR SWAP1 SSTORE POP JUMP JUMPDEST DUP2 PUSH1 0x0 DUP1 PUSH2 0x100 EXP DUP2 SLOAD DUP2 PUSH20 0xFFFFFFFFFFFFFFFFFFFFFFFFFFFFFFFFFFFFFFFF MUL NOT AND SWAP1 DUP4 PUSH20 0xFFFFFFFFFFFFFFFFFFFFFFFFFFFFFFFFFFFFFFFF AND MUL OR SWAP1 SSTORE POP TIMESTAMP PUSH1 0x2 DUP2 SWAP1 SSTORE POP DUP1 PUSH1 0x3 DUP2 SWAP1 SSTORE POP POP POP JUMP JUMPDEST PUSH1 0x6 DUP2 DUP2 SLOAD DUP2 LT PUSH2 0x293 JUMPI PUSH1 0x0 DUP1 REVERT JUMPDEST SWAP1 PUSH1 0x0 MSTORE PUSH1 0x20 PUSH1 0x0 KECCAK256 ADD PUSH1 0x0 SWAP2 POP SLOAD SWAP1 PUSH2 0x100 EXP SWAP1 DIV PUSH20 0xFFFFFFFFFFFFFFFFFFFFFFFFFFFFFFFFFFFFFFFF AND DUP2 JUMP JUMPDEST PUSH1 0x0 PUSH1 0x5 PUSH1 0x0 CALLER PUSH20 0xFFFFFFFFFFFFFFFFFFFFFFFFFFFFFFFFFFFFFFFF AND PUSH20 0xFFFFFFFFFFFFFFFFFFFFFFFFFFFFFFFFFFFFFFFF AND DUP2 MSTORE PUSH1 0x20 ADD SWAP1 DUP2 MSTORE PUSH1 0x20 ADD PUSH1 0x0 KECCAK256 PUSH1 0x2 ADD SLOAD SWAP1 POP CALLER PUSH20 0xFFFFFFFFFFFFFFFFFFFFFFFFFFFFFFFFFFFFFFFF AND PUSH2 0x8FC DUP3 SWAP1 DUP2 ISZERO MUL SWAP1 PUSH1 0x40 MLOAD PUSH1 0x0 PUSH1 0x40 MLOAD DUP1 DUP4 SUB DUP2 DUP6 DUP9 DUP9 CALL SWAP4 POP POP POP POP ISZERO DUP1 ISZERO PUSH2 0x34F JUMPI RETURNDATASIZE PUSH1 0x0 DUP1 RETURNDATACOPY RETURNDATASIZE PUSH1 0x0 REVERT JUMPDEST POP PUSH32 0xE0E5873EB9D996D2AB087B071A9A50522121C02B43308C8728C06739F52B3F87 CALLER DUP3 PUSH1 0x40 MLOAD PUSH2 0x381 SWAP3 SWAP2 SWAP1 PUSH2 0x8B6 JUMP JUMPDEST PUSH1 0x40 MLOAD DUP1 SWAP2 SUB SWAP1 LOG1 POP JUMP JUMPDEST PUSH1 0x0 DUP1 SLOAD SWAP1 PUSH2 0x100 EXP SWAP1 DIV PUSH20 0xFFFFFFFFFFFFFFFFFFFFFFFFFFFFFFFFFFFFFFFF AND PUSH20 0xFFFFFFFFFFFFFFFFFFFFFFFFFFFFFFFFFFFFFFFF AND PUSH2 0x8FC PUSH1 0x5 PUSH1 0x0 CALLER PUSH20 0xFFFFFFFFFFFFFFFFFFFFFFFFFFFFFFFFFFFFFFFF AND PUSH20 0xFFFFFFFFFFFFFFFFFFFFFFFFFFFFFFFFFFFFFFFF AND DUP2 MSTORE PUSH1 0x20 ADD SWAP1 DUP2 MSTORE PUSH1 0x20 ADD PUSH1 0x0 KECCAK256 PUSH1 0x0 ADD SLOAD SWAP1 DUP2 ISZERO MUL SWAP1 PUSH1 0x40 MLOAD PUSH1 0x0 PUSH1 0x40 MLOAD DUP1 DUP4 SUB DUP2 DUP6 DUP9 DUP9 CALL SWAP4 POP POP POP POP ISZERO DUP1 ISZERO PUSH2 0x434 JUMPI RETURNDATASIZE PUSH1 0x0 DUP1 RETURNDATACOPY RETURNDATASIZE PUSH1 0x0 REVERT JUMPDEST POP PUSH1 0x0 PUSH1 0x5 PUSH1 0x0 CALLER PUSH20 0xFFFFFFFFFFFFFFFFFFFFFFFFFFFFFFFFFFFFFFFF AND PUSH20 0xFFFFFFFFFFFFFFFFFFFFFFFFFFFFFFFFFFFFFFFF AND DUP2 MSTORE PUSH1 0x20 ADD SWAP1 DUP2 MSTORE PUSH1 0x20 ADD PUSH1 0x0 KECCAK256 PUSH1 0x2 ADD DUP2 SWAP1 SSTORE POP JUMP JUMPDEST PUSH1 0x0 DUP1 SLOAD SWAP1 PUSH2 0x100 EXP SWAP1 DIV PUSH20 0xFFFFFFFFFFFFFFFFFFFFFFFFFFFFFFFFFFFFFFFF AND PUSH20 0xFFFFFFFFFFFFFFFFFFFFFFFFFFFFFFFFFFFFFFFF AND CALLER PUSH20 0xFFFFFFFFFFFFFFFFFFFFFFFFFFFFFFFFFFFFFFFF AND EQ PUSH2 0x4D7 JUMPI PUSH1 0x0 DUP1 REVERT JUMPDEST PUSH1 0x0 PUSH1 0x7 SLOAD SUB PUSH2 0x509 JUMPI PUSH1 0x3 DUP1 SLOAD PUSH2 0x4EF SWAP2 SWAP1 PUSH2 0x90E JUMP JUMPDEST POP PUSH1 0x7 PUSH1 0x0 DUP2 SLOAD DUP1 SWAP3 SWAP2 SWAP1 PUSH2 0x503 SWAP1 PUSH2 0x942 JUMP JUMPDEST SWAP2 SWAP1 POP SSTORE POP JUMPDEST JUMP JUMPDEST CALLVALUE PUSH1 0x5 PUSH1 0x0 CALLER PUSH20 0xFFFFFFFFFFFFFFFFFFFFFFFFFFFFFFFFFFFFFFFF AND PUSH20 0xFFFFFFFFFFFFFFFFFFFFFFFFFFFFFFFFFFFFFFFF AND DUP2 MSTORE PUSH1 0x20 ADD SWAP1 DUP2 MSTORE PUSH1 0x20 ADD PUSH1 0x0 KECCAK256 PUSH1 0x0 ADD PUSH1 0x0 DUP3 DUP3 SLOAD PUSH2 0x55D SWAP2 SWAP1 PUSH2 0x90E JUMP JUMPDEST SWAP3 POP POP DUP2 SWAP1 SSTORE POP CALLVALUE PUSH1 0x5 PUSH1 0x0 CALLER PUSH20 0xFFFFFFFFFFFFFFFFFFFFFFFFFFFFFFFFFFFFFFFF AND PUSH20 0xFFFFFFFFFFFFFFFFFFFFFFFFFFFFFFFFFFFFFFFF AND DUP2 MSTORE PUSH1 0x20 ADD SWAP1 DUP2 MSTORE PUSH1 0x20 ADD PUSH1 0x0 KECCAK256 PUSH1 0x2 ADD PUSH1 0x0 DUP3 DUP3 SLOAD PUSH2 0x5B6 SWAP2 SWAP1 PUSH2 0x90E JUMP JUMPDEST SWAP3 POP POP DUP2 SWAP1 SSTORE POP PUSH1 0x1 PUSH1 0x0 DUP2 SLOAD DUP1 SWAP3 SWAP2 SWAP1 PUSH2 0x5D0 SWAP1 PUSH2 0x942 JUMP JUMPDEST SWAP2 SWAP1 POP SSTORE PUSH1 0x5 PUSH1 0x0 CALLER PUSH20 0xFFFFFFFFFFFFFFFFFFFFFFFFFFFFFFFFFFFFFFFF AND PUSH20 0xFFFFFFFFFFFFFFFFFFFFFFFFFFFFFFFFFFFFFFFF AND DUP2 MSTORE PUSH1 0x20 ADD SWAP1 DUP2 MSTORE PUSH1 0x20 ADD PUSH1 0x0 KECCAK256 PUSH1 0x3 ADD DUP2 SWAP1 SSTORE POP PUSH1 0x6 CALLER SWAP1 DUP1 PUSH1 0x1 DUP2 SLOAD ADD DUP1 DUP3 SSTORE DUP1 SWAP2 POP POP PUSH1 0x1 SWAP1 SUB SWAP1 PUSH1 0x0 MSTORE PUSH1 0x20 PUSH1 0x0 KECCAK256 ADD PUSH1 0x0 SWAP1 SWAP2 SWAP1 SWAP2 SWAP1 SWAP2 PUSH2 0x100 EXP DUP2 SLOAD DUP2 PUSH20 0xFFFFFFFFFFFFFFFFFFFFFFFFFFFFFFFFFFFFFFFF MUL NOT AND SWAP1 DUP4 PUSH20 0xFFFFFFFFFFFFFFFFFFFFFFFFFFFFFFFFFFFFFFFF AND MUL OR SWAP1 SSTORE POP PUSH32 0x81D2C188629CC4A1C694D285150CB5FA3DDE3157A2684460D3AC7A1E331F6164 CALLER CALLVALUE PUSH1 0x40 MLOAD PUSH2 0x6AE SWAP3 SWAP2 SWAP1 PUSH2 0x8B6 JUMP JUMPDEST PUSH1 0x40 MLOAD DUP1 SWAP2 SUB SWAP1 LOG1 JUMP JUMPDEST PUSH1 0x0 DUP1 REVERT JUMPDEST PUSH1 0x0 PUSH20 0xFFFFFFFFFFFFFFFFFFFFFFFFFFFFFFFFFFFFFFFF DUP3 AND SWAP1 POP SWAP2 SWAP1 POP JUMP JUMPDEST PUSH1 0x0 PUSH2 0x6E8 DUP3 PUSH2 0x6BD JUMP JUMPDEST SWAP1 POP SWAP2 SWAP1 POP JUMP JUMPDEST PUSH2 0x6F8 DUP2 PUSH2 0x6DD JUMP JUMPDEST DUP2 EQ PUSH2 0x703 JUMPI PUSH1 0x0 DUP1 REVERT JUMPDEST POP JUMP JUMPDEST PUSH1 0x0 DUP2 CALLDATALOAD SWAP1 POP PUSH2 0x715 DUP2 PUSH2 0x6EF JUMP JUMPDEST SWAP3 SWAP2 POP POP JUMP JUMPDEST PUSH1 0x0 PUSH1 0x20 DUP3 DUP5 SUB SLT ISZERO PUSH2 0x731 JUMPI PUSH2 0x730 PUSH2 0x6B8 JUMP JUMPDEST JUMPDEST PUSH1 0x0 PUSH2 0x73F DUP5 DUP3 DUP6 ADD PUSH2 0x706 JUMP JUMPDEST SWAP2 POP POP SWAP3 SWAP2 POP POP JUMP JUMPDEST PUSH1 0x0 DUP2 SWAP1 POP SWAP2 SWAP1 POP JUMP JUMPDEST PUSH2 0x75B DUP2 PUSH2 0x748 JUMP JUMPDEST DUP3 MSTORE POP POP JUMP JUMPDEST PUSH1 0x0 PUSH1 0x80 DUP3 ADD SWAP1 POP PUSH2 0x776 PUSH1 0x0 DUP4 ADD DUP8 PUSH2 0x752 JUMP JUMPDEST PUSH2 0x783 PUSH1 0x20 DUP4 ADD DUP7 PUSH2 0x752 JUMP JUMPDEST PUSH2 0x790 PUSH1 0x40 DUP4 ADD DUP6 PUSH2 0x752 JUMP JUMPDEST PUSH2 0x79D PUSH1 0x60 DUP4 ADD DUP5 PUSH2 0x752 JUMP JUMPDEST SWAP6 SWAP5 POP POP POP POP POP JUMP JUMPDEST PUSH1 0x0 PUSH2 0x7B1 DUP3 PUSH2 0x6BD JUMP JUMPDEST SWAP1 POP SWAP2 SWAP1 POP JUMP JUMPDEST PUSH2 0x7C1 DUP2 PUSH2 0x7A6 JUMP JUMPDEST DUP2 EQ PUSH2 0x7CC JUMPI PUSH1 0x0 DUP1 REVERT JUMPDEST POP JUMP JUMPDEST PUSH1 0x0 DUP2 CALLDATALOAD SWAP1 POP PUSH2 0x7DE DUP2 PUSH2 0x7B8 JUMP JUMPDEST SWAP3 SWAP2 POP POP JUMP JUMPDEST PUSH2 0x7ED DUP2 PUSH2 0x748 JUMP JUMPDEST DUP2 EQ PUSH2 0x7F8 JUMPI PUSH1 0x0 DUP1 REVERT JUMPDEST POP JUMP JUMPDEST PUSH1 0x0 DUP2 CALLDATALOAD SWAP1 POP PUSH2 0x80A DUP2 PUSH2 0x7E4 JUMP JUMPDEST SWAP3 SWAP2 POP POP JUMP JUMPDEST PUSH1 0x0 DUP1 PUSH1 0x40 DUP4 DUP6 SUB SLT ISZERO PUSH2 0x827 JUMPI PUSH2 0x826 PUSH2 0x6B8 JUMP JUMPDEST JUMPDEST PUSH1 0x0 PUSH2 0x835 DUP6 DUP3 DUP7 ADD PUSH2 0x7CF JUMP JUMPDEST SWAP3 POP POP PUSH1 0x20 PUSH2 0x846 DUP6 DUP3 DUP7 ADD PUSH2 0x7FB JUMP JUMPDEST SWAP2 POP POP SWAP3 POP SWAP3 SWAP1 POP JUMP JUMPDEST PUSH1 0x0 PUSH1 0x20 DUP3 DUP5 SUB SLT ISZERO PUSH2 0x866 JUMPI PUSH2 0x865 PUSH2 0x6B8 JUMP JUMPDEST JUMPDEST PUSH1 0x0 PUSH2 0x874 DUP5 DUP3 DUP6 ADD PUSH2 0x7FB JUMP JUMPDEST SWAP2 POP POP SWAP3 SWAP2 POP POP JUMP JUMPDEST PUSH2 0x886 DUP2 PUSH2 0x7A6 JUMP JUMPDEST DUP3 MSTORE POP POP JUMP JUMPDEST PUSH1 0x0 PUSH1 0x20 DUP3 ADD SWAP1 POP PUSH2 0x8A1 PUSH1 0x0 DUP4 ADD DUP5 PUSH2 0x87D JUMP JUMPDEST SWAP3 SWAP2 POP POP JUMP JUMPDEST PUSH2 0x8B0 DUP2 PUSH2 0x6DD JUMP JUMPDEST DUP3 MSTORE POP POP JUMP JUMPDEST PUSH1 0x0 PUSH1 0x40 DUP3 ADD SWAP1 POP PUSH2 0x8CB PUSH1 0x0 DUP4 ADD DUP6 PUSH2 0x8A7 JUMP JUMPDEST PUSH2 0x8D8 PUSH1 0x20 DUP4 ADD DUP5 PUSH2 0x752 JUMP JUMPDEST SWAP4 SWAP3 POP POP POP JUMP JUMPDEST PUSH32 0x4E487B7100000000000000000000000000000000000000000000000000000000 PUSH1 0x0 MSTORE PUSH1 0x11 PUSH1 0x4 MSTORE PUSH1 0x24 PUSH1 0x0 REVERT JUMPDEST PUSH1 0x0 PUSH2 0x919 DUP3 PUSH2 0x748 JUMP JUMPDEST SWAP2 POP PUSH2 0x924 DUP4 PUSH2 0x748 JUMP JUMPDEST SWAP3 POP DUP3 DUP3 ADD SWAP1 POP DUP1 DUP3 GT ISZERO PUSH2 0x93C JUMPI PUSH2 0x93B PUSH2 0x8DF JUMP JUMPDEST JUMPDEST SWAP3 SWAP2 POP POP JUMP JUMPDEST PUSH1 0x0 PUSH2 0x94D DUP3 PUSH2 0x748 JUMP JUMPDEST SWAP2 POP PUSH32 0xFFFFFFFFFFFFFFFFFFFFFFFFFFFFFFFFFFFFFFFFFFFFFFFFFFFFFFFFFFFFFFFF DUP3 SUB PUSH2 0x97F JUMPI PUSH2 0x97E PUSH2 0x8DF JUMP JUMPDEST JUMPDEST PUSH1 0x1 DUP3 ADD SWAP1 POP SWAP2 SWAP1 POP JUMP INVALID LOG2 PUSH5 0x6970667358 0x22 SLT KECCAK256 0x4F SWAP1 0x4A 0x29 PUSH9 0xF4329999E86EB097A CALL PUSH29 0x4FC6C2FB4EB748792398ED139C9FCD1964736F6C634300081000336080 PUSH1 0x40 MSTORE PUSH1 0x0 PUSH1 0x4 PUSH1 0x0 PUSH2 0x100 EXP DUP2 SLOAD DUP2 PUSH1 0xFF MUL NOT AND SWAP1 DUP4 ISZERO ISZERO MUL OR SWAP1 SSTORE POP PUSH1 0x0 PUSH1 0x7 SSTORE CALLVALUE DUP1 ISZERO PUSH2 0x30 JUMPI PUSH1 0x0 DUP1 REVERT JUMPDEST POP PUSH2 0x9C0 DUP1 PUSH2 0x40 PUSH1 0x0 CODECOPY PUSH1 0x0 RETURN INVALID PUSH1 0x80 PUSH1 0x40 MSTORE PUSH1 0x4 CALLDATASIZE LT PUSH2 0x7B JUMPI PUSH1 0x0 CALLDATALOAD PUSH1 0xE0 SHR DUP1 PUSH4 0x8BF963B6 GT PUSH2 0x4E JUMPI DUP1 PUSH4 0x8BF963B6 EQ PUSH2 0x13D JUMPI DUP1 PUSH4 0x8D68CF59 EQ PUSH2 0x154 JUMPI DUP1 PUSH4 0xABB6AE89 EQ PUSH2 0x16B JUMPI DUP1 PUSH4 0xED88C68E EQ PUSH2 0x182 JUMPI PUSH2 0x7B JUMP JUMPDEST DUP1 PUSH4 0x27E235E3 EQ PUSH2 0x80 JUMPI DUP1 PUSH4 0x39788BC8 EQ PUSH2 0xC0 JUMPI DUP1 PUSH4 0x4956EAF0 EQ PUSH2 0xD7 JUMPI DUP1 PUSH4 0x5EED3DCB EQ PUSH2 0x100 JUMPI JUMPDEST PUSH1 0x0 DUP1 REVERT JUMPDEST CALLVALUE DUP1 ISZERO PUSH2 0x8C JUMPI PUSH1 0x0 DUP1 REVERT JUMPDEST POP PUSH2 0xA7 PUSH1 0x4 DUP1 CALLDATASIZE SUB DUP2 ADD SWAP1 PUSH2 0xA2 SWAP2 SWAP1 PUSH2 0x71B JUMP JUMPDEST PUSH2 0x18C JUMP JUMPDEST PUSH1 0x40 MLOAD PUSH2 0xB7 SWAP5 SWAP4 SWAP3 SWAP2 SWAP1 PUSH2 0x761 JUMP JUMPDEST PUSH1 0x40 MLOAD DUP1 SWAP2 SUB SWAP1 RETURN JUMPDEST CALLVALUE DUP1 ISZERO PUSH2 0xCC JUMPI PUSH1 0x0 DUP1 REVERT JUMPDEST POP PUSH2 0xD5 PUSH2 0x1BC JUMP JUMPDEST STOP JUMPDEST CALLVALUE DUP1 ISZERO PUSH2 0xE3 JUMPI PUSH1 0x0 DUP1 REVERT JUMPDEST POP PUSH2 0xFE PUSH1 0x4 DUP1 CALLDATASIZE SUB DUP2 ADD SWAP1 PUSH2 0xF9 SWAP2 SWAP1 PUSH2 0x810 JUMP JUMPDEST PUSH2 0x231 JUMP JUMPDEST STOP JUMPDEST CALLVALUE DUP1 ISZERO PUSH2 0x10C JUMPI PUSH1 0x0 DUP1 REVERT JUMPDEST POP PUSH2 0x127 PUSH1 0x4 DUP1 CALLDATASIZE SUB DUP2 ADD SWAP1 PUSH2 0x122 SWAP2 SWAP1 PUSH2 0x850 JUMP JUMPDEST PUSH2 0x283 JUMP JUMPDEST PUSH1 0x40 MLOAD PUSH2 0x134 SWAP2 SWAP1 PUSH2 0x88C JUMP JUMPDEST PUSH1 0x40 MLOAD DUP1 SWAP2 SUB SWAP1 RETURN JUMPDEST CALLVALUE DUP1 ISZERO PUSH2 0x149 JUMPI PUSH1 0x0 DUP1 REVERT JUMPDEST POP PUSH2 0x152 PUSH2 0x2C2 JUMP JUMPDEST STOP JUMPDEST CALLVALUE DUP1 ISZERO PUSH2 0x160 JUMPI PUSH1 0x0 DUP1 REVERT JUMPDEST POP PUSH2 0x169 PUSH2 0x38C JUMP JUMPDEST STOP JUMPDEST CALLVALUE DUP1 ISZERO PUSH2 0x177 JUMPI PUSH1 0x0 DUP1 REVERT JUMPDEST POP PUSH2 0x180 PUSH2 0x47F JUMP JUMPDEST STOP JUMPDEST PUSH2 0x18A PUSH2 0x50B JUMP JUMPDEST STOP JUMPDEST PUSH1 0x5 PUSH1 0x20 MSTORE DUP1 PUSH1 0x0 MSTORE PUSH1 0x40 PUSH1 0x0 KECCAK256 PUSH1 0x0 SWAP2 POP SWAP1 POP DUP1 PUSH1 0x0 ADD SLOAD SWAP1 DUP1 PUSH1 0x1 ADD SLOAD SWAP1 DUP1 PUSH1 0x2 ADD SLOAD SWAP1 DUP1 PUSH1 0x3 ADD SLOAD SWAP1 POP DUP5 JUMP JUMPDEST PUSH1 0x0 DUP1 SLOAD SWAP1 PUSH2 0x100 EXP SWAP1 DIV PUSH20 0xFFFFFFFFFFFFFFFFFFFFFFFFFFFFFFFFFFFFFFFF AND PUSH20 0xFFFFFFFFFFFFFFFFFFFFFFFFFFFFFFFFFFFFFFFF AND CALLER PUSH20 0xFFFFFFFFFFFFFFFFFFFFFFFFFFFFFFFFFFFFFFFF AND EQ PUSH2 0x214 JUMPI PUSH1 0x0 DUP1 REVERT JUMPDEST PUSH1 0x1 PUSH1 0x4 PUSH1 0x0 PUSH2 0x100 EXP DUP2 SLOAD DUP2 PUSH1 0xFF MUL NOT AND SWAP1 DUP4 ISZERO ISZERO MUL OR SWAP1 SSTORE POP JUMP JUMPDEST DUP2 PUSH1 0x0 DUP1 PUSH2 0x100 EXP DUP2 SLOAD DUP2 PUSH20 0xFFFFFFFFFFFFFFFFFFFFFFFFFFFFFFFFFFFFFFFF MUL NOT AND SWAP1 DUP4 PUSH20 0xFFFFFFFFFFFFFFFFFFFFFFFFFFFFFFFFFFFFFFFF AND MUL OR SWAP1 SSTORE POP TIMESTAMP PUSH1 0x2 DUP2 SWAP1 SSTORE POP DUP1 PUSH1 0x3 DUP2 SWAP1 SSTORE POP POP POP JUMP JUMPDEST PUSH1 0x6 DUP2 DUP2 SLOAD DUP2 LT PUSH2 0x293 JUMPI PUSH1 0x0 DUP1 REVERT JUMPDEST SWAP1 PUSH1 0x0 MSTORE PUSH1 0x20 PUSH1 0x0 KECCAK256 ADD PUSH1 0x0 SWAP2 POP SLOAD SWAP1 PUSH2 0x100 EXP SWAP1 DIV PUSH20 0xFFFFFFFFFFFFFFFFFFFFFFFFFFFFFFFFFFFFFFFF AND DUP2 JUMP JUMPDEST PUSH1 0x0 PUSH1 0x5 PUSH1 0x0 CALLER PUSH20 0xFFFFFFFFFFFFFFFFFFFFFFFFFFFFFFFFFFFFFFFF AND PUSH20 0xFFFFFFFFFFFFFFFFFFFFFFFFFFFFFFFFFFFFFFFF AND DUP2 MSTORE PUSH1 0x20 ADD SWAP1 DUP2 MSTORE PUSH1 0x20 ADD PUSH1 0x0 KECCAK256 PUSH1 0x2 ADD SLOAD SWAP1 POP CALLER PUSH20 0xFFFFFFFFFFFFFFFFFFFFFFFFFFFFFFFFFFFFFFFF AND PUSH2 0x8FC DUP3 SWAP1 DUP2 ISZERO MUL SWAP1 PUSH1 0x40 MLOAD PUSH1 0x0 PUSH1 0x40 MLOAD DUP1 DUP4 SUB DUP2 DUP6 DUP9 DUP9 CALL SWAP4 POP POP POP POP ISZERO DUP1 ISZERO PUSH2 0x34F JUMPI RETURNDATASIZE PUSH1 0x0 DUP1 RETURNDATACOPY RETURNDATASIZE PUSH1 0x0 REVERT JUMPDEST POP PUSH32 0xE0E5873EB9D996D2AB087B071A9A50522121C02B43308C8728C06739F52B3F87 CALLER DUP3 PUSH1 0x40 MLOAD PUSH2 0x381 SWAP3 SWAP2 SWAP1 PUSH2 0x8B6 JUMP JUMPDEST PUSH1 0x40 MLOAD DUP1 SWAP2 SUB SWAP1 LOG1 POP JUMP JUMPDEST PUSH1 0x0 DUP1 SLOAD SWAP1 PUSH2 0x100 EXP SWAP1 DIV PUSH20 0xFFFFFFFFFFFFFFFFFFFFFFFFFFFFFFFFFFFFFFFF AND PUSH20 0xFFFFFFFFFFFFFFFFFFFFFFFFFFFFFFFFFFFFFFFF AND PUSH2 0x8FC PUSH1 0x5 PUSH1 0x0 CALLER PUSH20 0xFFFFFFFFFFFFFFFFFFFFFFFFFFFFFFFFFFFFFFFF AND PUSH20 0xFFFFFFFFFFFFFFFFFFFFFFFFFFFFFFFFFFFFFFFF AND DUP2 MSTORE PUSH1 0x20 ADD SWAP1 DUP2 MSTORE PUSH1 0x20 ADD PUSH1 0x0 KECCAK256 PUSH1 0x0 ADD SLOAD SWAP1 DUP2 ISZERO MUL SWAP1 PUSH1 0x40 MLOAD PUSH1 0x0 PUSH1 0x40 MLOAD DUP1 DUP4 SUB DUP2 DUP6 DUP9 DUP9 CALL SWAP4 POP POP POP POP ISZERO DUP1 ISZERO PUSH2 0x434 JUMPI RETURNDATASIZE PUSH1 0x0 DUP1 RETURNDATACOPY RETURNDATASIZE PUSH1 0x0 REVERT JUMPDEST POP PUSH1 0x0 PUSH1 0x5 PUSH1 0x0 CALLER PUSH20 0xFFFFFFFFFFFFFFFFFFFFFFFFFFFFFFFFFFFFFFFF AND PUSH20 0xFFFFFFFFFFFFFFFFFFFFFFFFFFFFFFFFFFFFFFFF AND DUP2 MSTORE PUSH1 0x20 ADD SWAP1 DUP2 MSTORE PUSH1 0x20 ADD PUSH1 0x0 KECCAK256 PUSH1 0x2 ADD DUP2 SWAP1 SSTORE POP JUMP JUMPDEST PUSH1 0x0 DUP1 SLOAD SWAP1 PUSH2 0x100 EXP SWAP1 DIV PUSH20 0xFFFFFFFFFFFFFFFFFFFFFFFFFFFFFFFFFFFFFFFF AND PUSH20 0xFFFFFFFFFFFFFFFFFFFFFFFFFFFFFFFFFFFFFFFF AND CALLER PUSH20 0xFFFFFFFFFFFFFFFFFFFFFFFFFFFFFFFFFFFFFFFF AND EQ PUSH2 0x4D7 JUMPI PUSH1 0x0 DUP1 REVERT JUMPDEST PUSH1 0x0 PUSH1 0x7 SLOAD SUB PUSH2 0x509 JUMPI PUSH1 0x3 DUP1 SLOAD PUSH2 0x4EF SWAP2 SWAP1 PUSH2 0x90E JUMP JUMPDEST POP PUSH1 0x7 PUSH1 0x0 DUP2 SLOAD DUP1 SWAP3 SWAP2 SWAP1 PUSH2 0x503 SWAP1 PUSH2 0x942 JUMP JUMPDEST SWAP2 SWAP1 POP SSTORE POP JUMPDEST JUMP JUMPDEST CALLVALUE PUSH1 0x5 PUSH1 0x0 CALLER PUSH20 0xFFFFFFFFFFFFFFFFFFFFFFFFFFFFFFFFFFFFFFFF AND PUSH20 0xFFFFFFFFFFFFFFFFFFFFFFFFFFFFFFFFFFFFFFFF AND DUP2 MSTORE PUSH1 0x20 ADD SWAP1 DUP2 MSTORE PUSH1 0x20 ADD PUSH1 0x0 KECCAK256 PUSH1 0x0 ADD PUSH1 0x0 DUP3 DUP3 SLOAD PUSH2 0x55D SWAP2 SWAP1 PUSH2 0x90E JUMP JUMPDEST SWAP3 POP POP DUP2 SWAP1 SSTORE POP CALLVALUE PUSH1 0x5 PUSH1 0x0 CALLER PUSH20 0xFFFFFFFFFFFFFFFFFFFFFFFFFFFFFFFFFFFFFFFF AND PUSH20 0xFFFFFFFFFFFFFFFFFFFFFFFFFFFFFFFFFFFFFFFF AND DUP2 MSTORE PUSH1 0x20 ADD SWAP1 DUP2 MSTORE PUSH1 0x20 ADD PUSH1 0x0 KECCAK256 PUSH1 0x2 ADD PUSH1 0x0 DUP3 DUP3 SLOAD PUSH2 0x5B6 SWAP2 SWAP1 PUSH2 0x90E JUMP JUMPDEST SWAP3 POP POP DUP2 SWAP1 SSTORE POP PUSH1 0x1 PUSH1 0x0 DUP2 SLOAD DUP1 SWAP3 SWAP2 SWAP1 PUSH2 0x5D0 SWAP1 PUSH2 0x942 JUMP JUMPDEST SWAP2 SWAP1 POP SSTORE PUSH1 0x5 PUSH1 0x0 CALLER PUSH20 0xFFFFFFFFFFFFFFFFFFFFFFFFFFFFFFFFFFFFFFFF AND PUSH20 0xFFFFFFFFFFFFFFFFFFFFFFFFFFFFFFFFFFFFFFFF AND DUP2 MSTORE PUSH1 0x20 ADD SWAP1 DUP2 MSTORE PUSH1 0x20 ADD PUSH1 0x0 KECCAK256 PUSH1 0x3 ADD DUP2 SWAP1 SSTORE POP PUSH1 0x6 CALLER SWAP1 DUP1 PUSH1 0x1 DUP2 SLOAD ADD DUP1 DUP3 SSTORE DUP1 SWAP2 POP POP PUSH1 0x1 SWAP1 SUB SWAP1 PUSH1 0x0 MSTORE PUSH1 0x20 PUSH1 0x0 KECCAK256 ADD PUSH1 0x0 SWAP1 SWAP2 SWAP1 SWAP2 SWAP1 SWAP2 PUSH2 0x100 EXP DUP2 SLOAD DUP2 PUSH20 0xFFFFFFFFFFFFFFFFFFFFFFFFFFFFFFFFFFFFFFFF MUL NOT AND SWAP1 DUP4 PUSH20 0xFFFFFFFFFFFFFFFFFFFFFFFFFFFFFFFFFFFFFFFF AND MUL OR SWAP1 SSTORE POP PUSH32 0x81D2C188629CC4A1C694D285150CB5FA3DDE3157A2684460D3AC7A1E331F6164 CALLER CALLVALUE PUSH1 0x40 MLOAD PUSH2 0x6AE SWAP3 SWAP2 SWAP1 PUSH2 0x8B6 JUMP JUMPDEST PUSH1 0x40 MLOAD DUP1 SWAP2 SUB SWAP1 LOG1 JUMP JUMPDEST PUSH1 0x0 DUP1 REVERT JUMPDEST PUSH1 0x0 PUSH20 0xFFFFFFFFFFFFFFFFFFFFFFFFFFFFFFFFFFFFFFFF DUP3 AND SWAP1 POP SWAP2 SWAP1 POP JUMP JUMPDEST PUSH1 0x0 PUSH2 0x6E8 DUP3 PUSH2 0x6BD JUMP JUMPDEST SWAP1 POP SWAP2 SWAP1 POP JUMP JUMPDEST PUSH2 0x6F8 DUP2 PUSH2 0x6DD JUMP JUMPDEST DUP2 EQ PUSH2 0x703 JUMPI PUSH1 0x0 DUP1 REVERT JUMPDEST POP JUMP JUMPDEST PUSH1 0x0 DUP2 CALLDATALOAD SWAP1 POP PUSH2 0x715 DUP2 PUSH2 0x6EF JUMP JUMPDEST SWAP3 SWAP2 POP POP JUMP JUMPDEST PUSH1 0x0 PUSH1 0x20 DUP3 DUP5 SUB SLT ISZERO PUSH2 0x731 JUMPI PUSH2 0x730 PUSH2 0x6B8 JUMP JUMPDEST JUMPDEST PUSH1 0x0 PUSH2 0x73F DUP5 DUP3 DUP6 ADD PUSH2 0x706 JUMP JUMPDEST SWAP2 POP POP SWAP3 SWAP2 POP POP JUMP JUMPDEST PUSH1 0x0 DUP2 SWAP1 POP SWAP2 SWAP1 POP JUMP JUMPDEST PUSH2 0x75B DUP2 PUSH2 0x748 JUMP JUMPDEST DUP3 MSTORE POP POP JUMP JUMPDEST PUSH1 0x0 PUSH1 0x80 DUP3 ADD SWAP1 POP PUSH2 0x776 PUSH1 0x0 DUP4 ADD DUP8 PUSH2 0x752 JUMP JUMPDEST PUSH2 0x783 PUSH1 0x20 DUP4 ADD DUP7 PUSH2 0x752 JUMP JUMPDEST PUSH2 0x790 PUSH1 0x40 DUP4 ADD DUP6 PUSH2 0x752 JUMP JUMPDEST PUSH2 0x79D PUSH1 0x60 DUP4 ADD DUP5 PUSH2 0x752 JUMP JUMPDEST SWAP6 SWAP5 POP POP POP POP POP JUMP JUMPDEST PUSH1 0x0 PUSH2 0x7B1 DUP3 PUSH2 0x6BD JUMP JUMPDEST SWAP1 POP SWAP2 SWAP1 POP JUMP JUMPDEST PUSH2 0x7C1 DUP2 PUSH2 0x7A6 JUMP JUMPDEST DUP2 EQ PUSH2 0x7CC JUMPI PUSH1 0x0 DUP1 REVERT JUMPDEST POP JUMP JUMPDEST PUSH1 0x0 DUP2 CALLDATALOAD SWAP1 POP PUSH2 0x7DE DUP2 PUSH2 0x7B8 JUMP JUMPDEST SWAP3 SWAP2 POP POP JUMP JUMPDEST PUSH2 0x7ED DUP2 PUSH2 0x748 JUMP JUMPDEST DUP2 EQ PUSH2 0x7F8 JUMPI PUSH1 0x0 DUP1 REVERT JUMPDEST POP JUMP JUMPDEST PUSH1 0x0 DUP2 CALLDATALOAD SWAP1 POP PUSH2 0x80A DUP2 PUSH2 0x7E4 JUMP JUMPDEST SWAP3 SWAP2 POP POP JUMP JUMPDEST PUSH1 0x0 DUP1 PUSH1 0x40 DUP4 DUP6 SUB SLT ISZERO PUSH2 0x827 JUMPI PUSH2 0x826 PUSH2 0x6B8 JUMP JUMPDEST JUMPDEST PUSH1 0x0 PUSH2 0x835 DUP6 DUP3 DUP7 ADD PUSH2 0x7CF JUMP JUMPDEST SWAP3 POP POP PUSH1 0x20 PUSH2 0x846 DUP6 DUP3 DUP7 ADD PUSH2 0x7FB JUMP JUMPDEST SWAP2 POP POP SWAP3 POP SWAP3 SWAP1 POP JUMP JUMPDEST PUSH1 0x0 PUSH1 0x20 DUP3 DUP5 SUB SLT ISZERO PUSH2 0x866 JUMPI PUSH2 0x865 PUSH2 0x6B8 JUMP JUMPDEST JUMPDEST PUSH1 0x0 PUSH2 0x874 DUP5 DUP3 DUP6 ADD PUSH2 0x7FB JUMP JUMPDEST SWAP2 POP POP SWAP3 SWAP2 POP POP JUMP JUMPDEST PUSH2 0x886 DUP2 PUSH2 0x7A6 JUMP JUMPDEST DUP3 MSTORE POP POP JUMP JUMPDEST PUSH1 0x0 PUSH1 0x20 DUP3 ADD SWAP1 POP PUSH2 0x8A1 PUSH1 0x0 DUP4 ADD DUP5 PUSH2 0x87D JUMP JUMPDEST SWAP3 SWAP2 POP POP JUMP JUMPDEST PUSH2 0x8B0 DUP2 PUSH2 0x6DD JUMP JUMPDEST DUP3 MSTORE POP POP JUMP JUMPDEST PUSH1 0x0 PUSH1 0x40 DUP3 ADD SWAP1 POP PUSH2 0x8CB PUSH1 0x0 DUP4 ADD DUP6 PUSH2 0x8A7 JUMP JUMPDEST PUSH2 0x8D8 PUSH1 0x20 DUP4 ADD DUP5 PUSH2 0x752 JUMP JUMPDEST SWAP4 SWAP3 POP POP POP JUMP JUMPDEST PUSH32 0x4E487B7100000000000000000000000000000000000000000000000000000000 PUSH1 0x0 MSTORE PUSH1 0x11 PUSH1 0x4 MSTORE PUSH1 0x24 PUSH1 0x0 REVERT JUMPDEST PUSH1 0x0 PUSH2 0x919 DUP3 PUSH2 0x748 JUMP JUMPDEST SWAP2 POP PUSH2 0x924 DUP4 PUSH2 0x748 JUMP JUMPDEST SWAP3 POP DUP3 DUP3 ADD SWAP1 POP DUP1 DUP3 GT ISZERO PUSH2 0x93C JUMPI PUSH2 0x93B PUSH2 0x8DF JUMP JUMPDEST JUMPDEST SWAP3 SWAP2 POP POP JUMP JUMPDEST PUSH1 0x0 PUSH2 0x94D DUP3 PUSH2 0x748 JUMP JUMPDEST SWAP2 POP PUSH32 0xFFFFFFFFFFFFFFFFFFFFFFFFFFFFFFFFFFFFFFFFFFFFFFFFFFFFFFFFFFFFFFFF DUP3 SUB PUSH2 0x97F JUMPI PUSH2 0x97E PUSH2 0x8DF JUMP JUMPDEST JUMPDEST PUSH1 0x1 DUP3 ADD SWAP1 POP SWAP2 SWAP1 POP JUMP INVALID LOG2 PUSH5 0x6970667358 0x22 SLT KECCAK256 LT XOR 0xDE 0xAE 0xF6 0xB9 0xF9 SDIV XOR 0xF8 PUSH5 0xBE8ECA0A87 SWAP2 SWAP12 PUSH8 0x8C231CEB53B0F3B INVALID 0xB6 0xC9 PUSH30 0x2464736F6C63430008100033000000000000000000000000000000000000 "
				},
				"gasEstimates": {
					"creation": {
						"codeDepositCost": "499200",
						"executionCost": "infinite",
						"totalCost": "infinite"
					},
					"external": {
						"approval()": "26601",
						"balances(address)": "infinite",
						"deploy(address,uint256)": "69167",
						"donate()": "infinite",
						"donorList(uint256)": "5023",
						"extendTime()": "infinite",
						"sendFunds()": "infinite",
						"singleRefund()": "infinite"
					}
				},
				"methodIdentifiers": {
					"approval()": "39788bc8",
					"balances(address)": "27e235e3",
					"deploy(address,uint256)": "4956eaf0",
					"donate()": "ed88c68e",
					"donorList(uint256)": "5eed3dcb",
					"extendTime()": "abb6ae89",
					"sendFunds()": "8d68cf59",
					"singleRefund()": "8bf963b6"
				}
			},
			"storageLayout": {
				"storage": [
					{
						"astId": 3,
						"contract": "contracts/senior project.sol:Caller",
						"label": "wallet",
						"offset": 0,
						"slot": "0",
						"type": "t_address_payable"
					},
					{
						"astId": 5,
						"contract": "contracts/senior project.sol:Caller",
						"label": "Dcounter",
						"offset": 0,
						"slot": "1",
						"type": "t_uint256"
					},
					{
						"astId": 7,
						"contract": "contracts/senior project.sol:Caller",
						"label": "deployDate",
						"offset": 0,
						"slot": "2",
						"type": "t_uint256"
					},
					{
						"astId": 9,
						"contract": "contracts/senior project.sol:Caller",
						"label": "deadline",
						"offset": 0,
						"slot": "3",
						"type": "t_uint256"
					},
					{
						"astId": 12,
						"contract": "contracts/senior project.sol:Caller",
						"label": "approved",
						"offset": 0,
						"slot": "4",
						"type": "t_bool"
					},
					{
						"astId": 47,
						"contract": "contracts/senior project.sol:Caller",
						"label": "balances",
						"offset": 0,
						"slot": "5",
						"type": "t_mapping(t_address,t_struct(donor)42_storage)"
					},
					{
						"astId": 50,
						"contract": "contracts/senior project.sol:Caller",
						"label": "donorList",
						"offset": 0,
						"slot": "6",
						"type": "t_array(t_address_payable)dyn_storage"
					},
					{
						"astId": 249,
						"contract": "contracts/senior project.sol:Caller",
						"label": "EXcounter",
						"offset": 0,
						"slot": "7",
						"type": "t_uint256"
					},
					{
						"astId": 325,
						"contract": "contracts/senior project.sol:Caller",
						"label": "c",
						"offset": 0,
						"slot": "8",
						"type": "t_contract(MyContract)316"
					}
				],
				"types": {
					"t_address": {
						"encoding": "inplace",
						"label": "address",
						"numberOfBytes": "20"
					},
					"t_address_payable": {
						"encoding": "inplace",
						"label": "address payable",
						"numberOfBytes": "20"
					},
					"t_array(t_address_payable)dyn_storage": {
						"base": "t_address_payable",
						"encoding": "dynamic_array",
						"label": "address payable[]",
						"numberOfBytes": "32"
					},
					"t_bool": {
						"encoding": "inplace",
						"label": "bool",
						"numberOfBytes": "1"
					},
					"t_contract(MyContract)316": {
						"encoding": "inplace",
						"label": "contract MyContract",
						"numberOfBytes": "20"
					},
					"t_mapping(t_address,t_struct(donor)42_storage)": {
						"encoding": "mapping",
						"key": "t_address",
						"label": "mapping(address => struct MyContract.donor)",
						"numberOfBytes": "32",
						"value": "t_struct(donor)42_storage"
					},
					"t_struct(donor)42_storage": {
						"encoding": "inplace",
						"label": "struct MyContract.donor",
						"members": [
							{
								"astId": 35,
								"contract": "contracts/senior project.sol:Caller",
								"label": "totalDono",
								"offset": 0,
								"slot": "0",
								"type": "t_uint256"
							},
							{
								"astId": 37,
								"contract": "contracts/senior project.sol:Caller",
								"label": "returnedDono",
								"offset": 0,
								"slot": "1",
								"type": "t_uint256"
							},
							{
								"astId": 39,
								"contract": "contracts/senior project.sol:Caller",
								"label": "returnable",
								"offset": 0,
								"slot": "2",
								"type": "t_uint256"
							},
							{
								"astId": 41,
								"contract": "contracts/senior project.sol:Caller",
								"label": "donorListPointer",
								"offset": 0,
								"slot": "3",
								"type": "t_uint256"
							}
						],
						"numberOfBytes": "128"
					},
					"t_uint256": {
						"encoding": "inplace",
						"label": "uint256",
						"numberOfBytes": "32"
					}
				}
			},
			"userdoc": {
				"kind": "user",
				"methods": {},
				"version": 1
			}
		}
	}
}