{
	"contracts/senior project.sol": {
		"Caller": {
			"abi": [
				{
					"anonymous": false,
					"inputs": [
						{
							"indexed": false,
							"internalType": "address",
							"name": "sender",
							"type": "address"
						},
						{
							"indexed": false,
							"internalType": "uint256",
							"name": "amount",
							"type": "uint256"
						}
					],
					"name": "LogReceivedFunds",
					"type": "event"
				},
				{
					"anonymous": false,
					"inputs": [
						{
							"indexed": false,
							"internalType": "address",
							"name": "recipient",
							"type": "address"
						},
						{
							"indexed": false,
							"internalType": "uint256",
							"name": "amount",
							"type": "uint256"
						}
					],
					"name": "LogReturnedFunds",
					"type": "event"
				},
				{
					"inputs": [],
					"name": "approval",
					"outputs": [],
					"stateMutability": "nonpayable",
					"type": "function"
				},
				{
					"inputs": [
						{
							"internalType": "address",
							"name": "",
							"type": "address"
						}
					],
					"name": "balances",
					"outputs": [
						{
							"internalType": "uint256",
							"name": "totalDono",
							"type": "uint256"
						},
						{
							"internalType": "uint256",
							"name": "returnedDono",
							"type": "uint256"
						},
						{
							"internalType": "uint256",
							"name": "returnable",
							"type": "uint256"
						},
						{
							"internalType": "uint256",
							"name": "donorListPointer",
							"type": "uint256"
						}
					],
					"stateMutability": "view",
					"type": "function"
				},
				{
					"inputs": [
						{
							"internalType": "address payable",
							"name": "_wallet",
							"type": "address"
						},
						{
							"internalType": "uint256",
							"name": "numWeeks",
							"type": "uint256"
						}
					],
					"name": "deploy",
					"outputs": [],
					"stateMutability": "nonpayable",
					"type": "function"
				},
				{
					"inputs": [],
					"name": "donate",
					"outputs": [],
					"stateMutability": "payable",
					"type": "function"
				},
				{
					"inputs": [
						{
							"internalType": "uint256",
							"name": "",
							"type": "uint256"
						}
					],
					"name": "donorList",
					"outputs": [
						{
							"internalType": "address payable",
							"name": "",
							"type": "address"
						}
					],
					"stateMutability": "view",
					"type": "function"
				},
				{
					"inputs": [],
					"name": "extendTime",
					"outputs": [],
					"stateMutability": "nonpayable",
					"type": "function"
				},
				{
					"inputs": [],
					"name": "sendFunds",
					"outputs": [],
					"stateMutability": "nonpayable",
					"type": "function"
				},
				{
					"inputs": [],
					"name": "singleRefund",
					"outputs": [],
					"stateMutability": "nonpayable",
					"type": "function"
				},
				{
					"inputs": [],
					"name": "wallet",
					"outputs": [
						{
							"internalType": "address payable",
							"name": "",
							"type": "address"
						}
					],
					"stateMutability": "view",
					"type": "function"
				}
			],
			"devdoc": {
				"kind": "dev",
				"methods": {},
				"version": 1
			},
			"evm": {
				"assembly": "    /* \"contracts/senior project.sol\":3086:3351  contract Caller is MyContract{... */\n  mstore(0x40, 0x80)\n    /* \"contracts/senior project.sol\":316:321  false */\n  0x00\n    /* \"contracts/senior project.sol\":300:321  bool approved = false */\n  0x04\n  exp(0x0100, 0x00)\n  dup2\n  sload\n  dup2\n  0xff\n  mul\n  not\n  and\n  swap1\n  dup4\n  iszero\n  iszero\n  mul\n  or\n  swap1\n  sstore\n  pop\n    /* \"contracts/senior project.sol\":2368:2369  0 */\n  0x00\n    /* \"contracts/senior project.sol\":2352:2369  uint EXcounter =0 */\n  0x07\n  sstore\n    /* \"contracts/senior project.sol\":3086:3351  contract Caller is MyContract{... */\n  callvalue\n  dup1\n  iszero\n  tag_1\n  jumpi\n  0x00\n  dup1\n  revert\ntag_1:\n  pop\n  dataSize(sub_0)\n  dup1\n  dataOffset(sub_0)\n  0x00\n  codecopy\n  0x00\n  return\nstop\n\nsub_0: assembly {\n        /* \"contracts/senior project.sol\":3086:3351  contract Caller is MyContract{... */\n      mstore(0x40, 0x80)\n      jumpi(tag_1, lt(calldatasize, 0x04))\n      shr(0xe0, calldataload(0x00))\n      dup1\n      0x5eed3dcb\n      gt\n      tag_11\n      jumpi\n      dup1\n      0x5eed3dcb\n      eq\n      tag_6\n      jumpi\n      dup1\n      0x8bf963b6\n      eq\n      tag_7\n      jumpi\n      dup1\n      0x8d68cf59\n      eq\n      tag_8\n      jumpi\n      dup1\n      0xabb6ae89\n      eq\n      tag_9\n      jumpi\n      dup1\n      0xed88c68e\n      eq\n      tag_10\n      jumpi\n      jump(tag_1)\n    tag_11:\n      dup1\n      0x27e235e3\n      eq\n      tag_2\n      jumpi\n      dup1\n      0x39788bc8\n      eq\n      tag_3\n      jumpi\n      dup1\n      0x4956eaf0\n      eq\n      tag_4\n      jumpi\n      dup1\n      0x521eb273\n      eq\n      tag_5\n      jumpi\n    tag_1:\n      0x00\n      dup1\n      revert\n        /* \"contracts/senior project.sol\":494:535  mapping(address => donor) public balances */\n    tag_2:\n      callvalue\n      dup1\n      iszero\n      tag_12\n      jumpi\n      0x00\n      dup1\n      revert\n    tag_12:\n      pop\n      tag_13\n      0x04\n      dup1\n      calldatasize\n      sub\n      dup2\n      add\n      swap1\n      tag_14\n      swap2\n      swap1\n      tag_15\n      jump\t// in\n    tag_14:\n      tag_16\n      jump\t// in\n    tag_13:\n      mload(0x40)\n      tag_17\n      swap5\n      swap4\n      swap3\n      swap2\n      swap1\n      tag_18\n      jump\t// in\n    tag_17:\n      mload(0x40)\n      dup1\n      swap2\n      sub\n      swap1\n      return\n        /* \"contracts/senior project.sol\":2183:2288  function approval() public{       ... */\n    tag_3:\n      callvalue\n      dup1\n      iszero\n      tag_19\n      jumpi\n      0x00\n      dup1\n      revert\n    tag_19:\n      pop\n      tag_20\n      tag_21\n      jump\t// in\n    tag_20:\n      stop\n        /* \"contracts/senior project.sol\":3122:3346  function deploy(address payable _wallet, uint numWeeks) external  {... */\n    tag_4:\n      callvalue\n      dup1\n      iszero\n      tag_22\n      jumpi\n      0x00\n      dup1\n      revert\n    tag_22:\n      pop\n      tag_23\n      0x04\n      dup1\n      calldatasize\n      sub\n      dup2\n      add\n      swap1\n      tag_24\n      swap2\n      swap1\n      tag_25\n      jump\t// in\n    tag_24:\n      tag_26\n      jump\t// in\n    tag_23:\n      stop\n        /* \"contracts/senior project.sol\":89:118  address payable public wallet */\n    tag_5:\n      callvalue\n      dup1\n      iszero\n      tag_27\n      jumpi\n      0x00\n      dup1\n      revert\n    tag_27:\n      pop\n      tag_28\n      tag_29\n      jump\t// in\n    tag_28:\n      mload(0x40)\n      tag_30\n      swap2\n      swap1\n      tag_31\n      jump\t// in\n    tag_30:\n      mload(0x40)\n      dup1\n      swap2\n      sub\n      swap1\n      return\n        /* \"contracts/senior project.sol\":542:576  address payable[] public donorList */\n    tag_6:\n      callvalue\n      dup1\n      iszero\n      tag_32\n      jumpi\n      0x00\n      dup1\n      revert\n    tag_32:\n      pop\n      tag_33\n      0x04\n      dup1\n      calldatasize\n      sub\n      dup2\n      add\n      swap1\n      tag_34\n      swap2\n      swap1\n      tag_35\n      jump\t// in\n    tag_34:\n      tag_36\n      jump\t// in\n    tag_33:\n      mload(0x40)\n      tag_37\n      swap2\n      swap1\n      tag_31\n      jump\t// in\n    tag_37:\n      mload(0x40)\n      dup1\n      swap2\n      sub\n      swap1\n      return\n        /* \"contracts/senior project.sol\":1304:1508  function singleRefund () public{... */\n    tag_7:\n      callvalue\n      dup1\n      iszero\n      tag_38\n      jumpi\n      0x00\n      dup1\n      revert\n    tag_38:\n      pop\n      tag_39\n      tag_40\n      jump\t// in\n    tag_39:\n      stop\n        /* \"contracts/senior project.sol\":1155:1296  function sendFunds () public{... */\n    tag_8:\n      callvalue\n      dup1\n      iszero\n      tag_41\n      jumpi\n      0x00\n      dup1\n      revert\n    tag_41:\n      pop\n      tag_42\n      tag_43\n      jump\t// in\n    tag_42:\n      stop\n        /* \"contracts/senior project.sol\":2445:2607  function extendTime() public {... */\n    tag_9:\n      callvalue\n      dup1\n      iszero\n      tag_44\n      jumpi\n      0x00\n      dup1\n      revert\n    tag_44:\n      pop\n      tag_45\n      tag_46\n      jump\t// in\n    tag_45:\n      stop\n        /* \"contracts/senior project.sol\":772:1083  function donate() public payable{... */\n    tag_10:\n      tag_47\n      tag_48\n      jump\t// in\n    tag_47:\n      stop\n        /* \"contracts/senior project.sol\":494:535  mapping(address => donor) public balances */\n    tag_16:\n      mstore(0x20, 0x05)\n      dup1\n      0x00\n      mstore\n      keccak256(0x00, 0x40)\n      0x00\n      swap2\n      pop\n      swap1\n      pop\n      dup1\n      0x00\n      add\n      sload\n      swap1\n      dup1\n      0x01\n      add\n      sload\n      swap1\n      dup1\n      0x02\n      add\n      sload\n      swap1\n      dup1\n      0x03\n      add\n      sload\n      swap1\n      pop\n      dup5\n      jump\t// out\n        /* \"contracts/senior project.sol\":2183:2288  function approval() public{       ... */\n    tag_21:\n        /* \"contracts/senior project.sol\":2247:2253  wallet */\n      0x00\n      dup1\n      sload\n      swap1\n      0x0100\n      exp\n      swap1\n      div\n      0xffffffffffffffffffffffffffffffffffffffff\n      and\n        /* \"contracts/senior project.sol\":2233:2253  msg.sender == wallet */\n      0xffffffffffffffffffffffffffffffffffffffff\n      and\n        /* \"contracts/senior project.sol\":2233:2243  msg.sender */\n      caller\n        /* \"contracts/senior project.sol\":2233:2253  msg.sender == wallet */\n      0xffffffffffffffffffffffffffffffffffffffff\n      and\n      eq\n        /* \"contracts/senior project.sol\":2225:2254  require(msg.sender == wallet) */\n      tag_50\n      jumpi\n      0x00\n      dup1\n      revert\n    tag_50:\n        /* \"contracts/senior project.sol\":2276:2280  true */\n      0x01\n        /* \"contracts/senior project.sol\":2265:2273  approved */\n      0x04\n      0x00\n        /* \"contracts/senior project.sol\":2265:2280  approved = true */\n      0x0100\n      exp\n      dup2\n      sload\n      dup2\n      0xff\n      mul\n      not\n      and\n      swap1\n      dup4\n      iszero\n      iszero\n      mul\n      or\n      swap1\n      sstore\n      pop\n        /* \"contracts/senior project.sol\":2183:2288  function approval() public{       ... */\n      jump\t// out\n        /* \"contracts/senior project.sol\":3122:3346  function deploy(address payable _wallet, uint numWeeks) external  {... */\n    tag_26:\n        /* \"contracts/senior project.sol\":3199:3211  MyContract c */\n      0x00\n        /* \"contracts/senior project.sol\":3214:3230  new MyContract() */\n      mload(0x40)\n      tag_52\n      swap1\n      tag_53\n      jump\t// in\n    tag_52:\n      mload(0x40)\n      dup1\n      swap2\n      sub\n      swap1\n      0x00\n      create\n      dup1\n      iszero\n      dup1\n      iszero\n      tag_54\n      jumpi\n      returndatasize\n      0x00\n      dup1\n      returndatacopy\n      revert(0x00, returndatasize)\n    tag_54:\n      pop\n        /* \"contracts/senior project.sol\":3199:3230  MyContract c = new MyContract() */\n      swap1\n      pop\n        /* \"contracts/senior project.sol\":3250:3257  _wallet */\n      dup3\n        /* \"contracts/senior project.sol\":3241:3247  wallet */\n      0x00\n      dup1\n        /* \"contracts/senior project.sol\":3241:3257  wallet = _wallet */\n      0x0100\n      exp\n      dup2\n      sload\n      dup2\n      0xffffffffffffffffffffffffffffffffffffffff\n      mul\n      not\n      and\n      swap1\n      dup4\n      0xffffffffffffffffffffffffffffffffffffffff\n      and\n      mul\n      or\n      swap1\n      sstore\n      pop\n        /* \"contracts/senior project.sol\":3281:3296  block.timestamp */\n      timestamp\n        /* \"contracts/senior project.sol\":3268:3278  deployDate */\n      0x02\n        /* \"contracts/senior project.sol\":3268:3296  deployDate = block.timestamp */\n      dup2\n      swap1\n      sstore\n      pop\n        /* \"contracts/senior project.sol\":3318:3326  numWeeks */\n      dup2\n        /* \"contracts/senior project.sol\":3307:3315  deadline */\n      0x03\n        /* \"contracts/senior project.sol\":3307:3326  deadline = numWeeks */\n      dup2\n      swap1\n      sstore\n      pop\n        /* \"contracts/senior project.sol\":3188:3346  {... */\n      pop\n        /* \"contracts/senior project.sol\":3122:3346  function deploy(address payable _wallet, uint numWeeks) external  {... */\n      pop\n      pop\n      jump\t// out\n        /* \"contracts/senior project.sol\":89:118  address payable public wallet */\n    tag_29:\n      0x00\n      dup1\n      sload\n      swap1\n      0x0100\n      exp\n      swap1\n      div\n      0xffffffffffffffffffffffffffffffffffffffff\n      and\n      dup2\n      jump\t// out\n        /* \"contracts/senior project.sol\":542:576  address payable[] public donorList */\n    tag_36:\n      0x06\n      dup2\n      dup2\n      sload\n      dup2\n      lt\n      tag_55\n      jumpi\n      0x00\n      dup1\n      revert\n    tag_55:\n      swap1\n      0x00\n      mstore\n      keccak256(0x00, 0x20)\n      add\n      0x00\n      swap2\n      pop\n      sload\n      swap1\n      0x0100\n      exp\n      swap1\n      div\n      0xffffffffffffffffffffffffffffffffffffffff\n      and\n      dup2\n      jump\t// out\n        /* \"contracts/senior project.sol\":1304:1508  function singleRefund () public{... */\n    tag_40:\n        /* \"contracts/senior project.sol\":1346:1360  uint returnAmt */\n      0x00\n        /* \"contracts/senior project.sol\":1363:1371  balances */\n      0x05\n        /* \"contracts/senior project.sol\":1363:1383  balances[msg.sender] */\n      0x00\n        /* \"contracts/senior project.sol\":1372:1382  msg.sender */\n      caller\n        /* \"contracts/senior project.sol\":1363:1383  balances[msg.sender] */\n      0xffffffffffffffffffffffffffffffffffffffff\n      and\n      0xffffffffffffffffffffffffffffffffffffffff\n      and\n      dup2\n      mstore\n      0x20\n      add\n      swap1\n      dup2\n      mstore\n      0x20\n      add\n      0x00\n      keccak256\n        /* \"contracts/senior project.sol\":1363:1394  balances[msg.sender].returnable */\n      0x02\n      add\n      sload\n        /* \"contracts/senior project.sol\":1346:1394  uint returnAmt = balances[msg.sender].returnable */\n      swap1\n      pop\n        /* \"contracts/senior project.sol\":1414:1424  msg.sender */\n      caller\n        /* \"contracts/senior project.sol\":1405:1434  payable (msg.sender).transfer */\n      0xffffffffffffffffffffffffffffffffffffffff\n      and\n        /* \"contracts/senior project.sol\":1405:1445  payable (msg.sender).transfer(returnAmt) */\n      0x08fc\n        /* \"contracts/senior project.sol\":1435:1444  returnAmt */\n      dup3\n        /* \"contracts/senior project.sol\":1405:1445  payable (msg.sender).transfer(returnAmt) */\n      swap1\n      dup2\n      iszero\n      mul\n      swap1\n      mload(0x40)\n      0x00\n      mload(0x40)\n      dup1\n      dup4\n      sub\n      dup2\n      dup6\n      dup9\n      dup9\n      call\n      swap4\n      pop\n      pop\n      pop\n      pop\n      iszero\n      dup1\n      iszero\n      tag_59\n      jumpi\n      returndatasize\n      0x00\n      dup1\n      returndatacopy\n      revert(0x00, returndatasize)\n    tag_59:\n      pop\n        /* \"contracts/senior project.sol\":1461:1500  LogReturnedFunds(msg.sender, returnAmt) */\n      0xe0e5873eb9d996d2ab087b071a9a50522121c02b43308c8728c06739f52b3f87\n        /* \"contracts/senior project.sol\":1478:1488  msg.sender */\n      caller\n        /* \"contracts/senior project.sol\":1490:1499  returnAmt */\n      dup3\n        /* \"contracts/senior project.sol\":1461:1500  LogReturnedFunds(msg.sender, returnAmt) */\n      mload(0x40)\n      tag_60\n      swap3\n      swap2\n      swap1\n      tag_61\n      jump\t// in\n    tag_60:\n      mload(0x40)\n      dup1\n      swap2\n      sub\n      swap1\n      log1\n        /* \"contracts/senior project.sol\":1335:1508  {... */\n      pop\n        /* \"contracts/senior project.sol\":1304:1508  function singleRefund () public{... */\n      jump\t// out\n        /* \"contracts/senior project.sol\":1155:1296  function sendFunds () public{... */\n    tag_43:\n        /* \"contracts/senior project.sol\":1194:1200  wallet */\n      0x00\n      dup1\n      sload\n      swap1\n      0x0100\n      exp\n      swap1\n      div\n      0xffffffffffffffffffffffffffffffffffffffff\n      and\n        /* \"contracts/senior project.sol\":1194:1209  wallet.transfer */\n      0xffffffffffffffffffffffffffffffffffffffff\n      and\n        /* \"contracts/senior project.sol\":1194:1241  wallet.transfer(balances[msg.sender].totalDono) */\n      0x08fc\n        /* \"contracts/senior project.sol\":1210:1218  balances */\n      0x05\n        /* \"contracts/senior project.sol\":1210:1230  balances[msg.sender] */\n      0x00\n        /* \"contracts/senior project.sol\":1219:1229  msg.sender */\n      caller\n        /* \"contracts/senior project.sol\":1210:1230  balances[msg.sender] */\n      0xffffffffffffffffffffffffffffffffffffffff\n      and\n      0xffffffffffffffffffffffffffffffffffffffff\n      and\n      dup2\n      mstore\n      0x20\n      add\n      swap1\n      dup2\n      mstore\n      0x20\n      add\n      0x00\n      keccak256\n        /* \"contracts/senior project.sol\":1210:1240  balances[msg.sender].totalDono */\n      0x00\n      add\n      sload\n        /* \"contracts/senior project.sol\":1194:1241  wallet.transfer(balances[msg.sender].totalDono) */\n      swap1\n      dup2\n      iszero\n      mul\n      swap1\n      mload(0x40)\n      0x00\n      mload(0x40)\n      dup1\n      dup4\n      sub\n      dup2\n      dup6\n      dup9\n      dup9\n      call\n      swap4\n      pop\n      pop\n      pop\n      pop\n      iszero\n      dup1\n      iszero\n      tag_64\n      jumpi\n      returndatasize\n      0x00\n      dup1\n      returndatacopy\n      revert(0x00, returndatasize)\n    tag_64:\n      pop\n        /* \"contracts/senior project.sol\":1287:1288  0 */\n      0x00\n        /* \"contracts/senior project.sol\":1253:1261  balances */\n      0x05\n        /* \"contracts/senior project.sol\":1253:1273  balances[msg.sender] */\n      0x00\n        /* \"contracts/senior project.sol\":1262:1272  msg.sender */\n      caller\n        /* \"contracts/senior project.sol\":1253:1273  balances[msg.sender] */\n      0xffffffffffffffffffffffffffffffffffffffff\n      and\n      0xffffffffffffffffffffffffffffffffffffffff\n      and\n      dup2\n      mstore\n      0x20\n      add\n      swap1\n      dup2\n      mstore\n      0x20\n      add\n      0x00\n      keccak256\n        /* \"contracts/senior project.sol\":1253:1284  balances[msg.sender].returnable */\n      0x02\n      add\n        /* \"contracts/senior project.sol\":1253:1288  balances[msg.sender].returnable = 0 */\n      dup2\n      swap1\n      sstore\n      pop\n        /* \"contracts/senior project.sol\":1155:1296  function sendFunds () public{... */\n      jump\t// out\n        /* \"contracts/senior project.sol\":2445:2607  function extendTime() public {... */\n    tag_46:\n        /* \"contracts/senior project.sol\":2507:2513  wallet */\n      0x00\n      dup1\n      sload\n      swap1\n      0x0100\n      exp\n      swap1\n      div\n      0xffffffffffffffffffffffffffffffffffffffff\n      and\n        /* \"contracts/senior project.sol\":2493:2513  msg.sender == wallet */\n      0xffffffffffffffffffffffffffffffffffffffff\n      and\n        /* \"contracts/senior project.sol\":2493:2503  msg.sender */\n      caller\n        /* \"contracts/senior project.sol\":2493:2513  msg.sender == wallet */\n      0xffffffffffffffffffffffffffffffffffffffff\n      and\n      eq\n        /* \"contracts/senior project.sol\":2485:2514  require(msg.sender == wallet) */\n      tag_66\n      jumpi\n      0x00\n      dup1\n      revert\n    tag_66:\n        /* \"contracts/senior project.sol\":2541:2542  0 */\n      0x00\n        /* \"contracts/senior project.sol\":2528:2537  EXcounter */\n      sload(0x07)\n        /* \"contracts/senior project.sol\":2528:2542  EXcounter == 0 */\n      sub\n        /* \"contracts/senior project.sol\":2525:2600  if(EXcounter == 0){... */\n      tag_67\n      jumpi\n        /* \"contracts/senior project.sol\":2565:2566  3 */\n      0x03\n        /* \"contracts/senior project.sol\":2554:2562  deadline */\n      dup1\n      sload\n        /* \"contracts/senior project.sol\":2554:2566  deadline + 3 */\n      tag_68\n      swap2\n      swap1\n      tag_69\n      jump\t// in\n    tag_68:\n      pop\n        /* \"contracts/senior project.sol\":2577:2586  EXcounter */\n      0x07\n      0x00\n        /* \"contracts/senior project.sol\":2577:2588  EXcounter++ */\n      dup2\n      sload\n      dup1\n      swap3\n      swap2\n      swap1\n      tag_70\n      swap1\n      tag_71\n      jump\t// in\n    tag_70:\n      swap2\n      swap1\n      pop\n      sstore\n      pop\n        /* \"contracts/senior project.sol\":2525:2600  if(EXcounter == 0){... */\n    tag_67:\n        /* \"contracts/senior project.sol\":2445:2607  function extendTime() public {... */\n      jump\t// out\n        /* \"contracts/senior project.sol\":772:1083  function donate() public payable{... */\n    tag_48:\n        /* \"contracts/senior project.sol\":849:858  msg.value */\n      callvalue\n        /* \"contracts/senior project.sol\":815:823  balances */\n      0x05\n        /* \"contracts/senior project.sol\":815:835  balances[msg.sender] */\n      0x00\n        /* \"contracts/senior project.sol\":824:834  msg.sender */\n      caller\n        /* \"contracts/senior project.sol\":815:835  balances[msg.sender] */\n      0xffffffffffffffffffffffffffffffffffffffff\n      and\n      0xffffffffffffffffffffffffffffffffffffffff\n      and\n      dup2\n      mstore\n      0x20\n      add\n      swap1\n      dup2\n      mstore\n      0x20\n      add\n      0x00\n      keccak256\n        /* \"contracts/senior project.sol\":815:845  balances[msg.sender].totalDono */\n      0x00\n      add\n      0x00\n        /* \"contracts/senior project.sol\":815:858  balances[msg.sender].totalDono += msg.value */\n      dup3\n      dup3\n      sload\n      tag_73\n      swap2\n      swap1\n      tag_69\n      jump\t// in\n    tag_73:\n      swap3\n      pop\n      pop\n      dup2\n      swap1\n      sstore\n      pop\n        /* \"contracts/senior project.sol\":904:913  msg.value */\n      callvalue\n        /* \"contracts/senior project.sol\":869:877  balances */\n      0x05\n        /* \"contracts/senior project.sol\":869:889  balances[msg.sender] */\n      0x00\n        /* \"contracts/senior project.sol\":878:888  msg.sender */\n      caller\n        /* \"contracts/senior project.sol\":869:889  balances[msg.sender] */\n      0xffffffffffffffffffffffffffffffffffffffff\n      and\n      0xffffffffffffffffffffffffffffffffffffffff\n      and\n      dup2\n      mstore\n      0x20\n      add\n      swap1\n      dup2\n      mstore\n      0x20\n      add\n      0x00\n      keccak256\n        /* \"contracts/senior project.sol\":869:900  balances[msg.sender].returnable */\n      0x02\n      add\n      0x00\n        /* \"contracts/senior project.sol\":869:913  balances[msg.sender].returnable += msg.value */\n      dup3\n      dup3\n      sload\n      tag_74\n      swap2\n      swap1\n      tag_69\n      jump\t// in\n    tag_74:\n      swap3\n      pop\n      pop\n      dup2\n      swap1\n      sstore\n      pop\n        /* \"contracts/senior project.sol\":964:972  Dcounter */\n      0x01\n      0x00\n        /* \"contracts/senior project.sol\":964:974  Dcounter++ */\n      dup2\n      sload\n      dup1\n      swap3\n      swap2\n      swap1\n      tag_75\n      swap1\n      tag_71\n      jump\t// in\n    tag_75:\n      swap2\n      swap1\n      pop\n      sstore\n        /* \"contracts/senior project.sol\":924:932  balances */\n      0x05\n        /* \"contracts/senior project.sol\":924:944  balances[msg.sender] */\n      0x00\n        /* \"contracts/senior project.sol\":933:943  msg.sender */\n      caller\n        /* \"contracts/senior project.sol\":924:944  balances[msg.sender] */\n      0xffffffffffffffffffffffffffffffffffffffff\n      and\n      0xffffffffffffffffffffffffffffffffffffffff\n      and\n      dup2\n      mstore\n      0x20\n      add\n      swap1\n      dup2\n      mstore\n      0x20\n      add\n      0x00\n      keccak256\n        /* \"contracts/senior project.sol\":924:961  balances[msg.sender].donorListPointer */\n      0x03\n      add\n        /* \"contracts/senior project.sol\":924:974  balances[msg.sender].donorListPointer = Dcounter++ */\n      dup2\n      swap1\n      sstore\n      pop\n        /* \"contracts/senior project.sol\":985:994  donorList */\n      0x06\n        /* \"contracts/senior project.sol\":1008:1018  msg.sender */\n      caller\n        /* \"contracts/senior project.sol\":985:1020  donorList.push(payable(msg.sender)) */\n      swap1\n      dup1\n      0x01\n      dup2\n      sload\n      add\n      dup1\n      dup3\n      sstore\n      dup1\n      swap2\n      pop\n      pop\n      0x01\n      swap1\n      sub\n      swap1\n      0x00\n      mstore\n      keccak256(0x00, 0x20)\n      add\n      0x00\n      swap1\n      swap2\n      swap1\n      swap2\n      swap1\n      swap2\n      0x0100\n      exp\n      dup2\n      sload\n      dup2\n      0xffffffffffffffffffffffffffffffffffffffff\n      mul\n      not\n      and\n      swap1\n      dup4\n      0xffffffffffffffffffffffffffffffffffffffff\n      and\n      mul\n      or\n      swap1\n      sstore\n      pop\n        /* \"contracts/senior project.sol\":1036:1075  LogReceivedFunds(msg.sender, msg.value) */\n      0x81d2c188629cc4a1c694d285150cb5fa3dde3157a2684460d3ac7a1e331f6164\n        /* \"contracts/senior project.sol\":1053:1063  msg.sender */\n      caller\n        /* \"contracts/senior project.sol\":1065:1074  msg.value */\n      callvalue\n        /* \"contracts/senior project.sol\":1036:1075  LogReceivedFunds(msg.sender, msg.value) */\n      mload(0x40)\n      tag_77\n      swap3\n      swap2\n      swap1\n      tag_61\n      jump\t// in\n    tag_77:\n      mload(0x40)\n      dup1\n      swap2\n      sub\n      swap1\n      log1\n        /* \"contracts/senior project.sol\":772:1083  function donate() public payable{... */\n      jump\t// out\n    tag_53:\n      dataSize(sub_0)\n      dup1\n      dataOffset(sub_0)\n      dup4\n      codecopy\n      add\n      swap1\n      jump\t// out\n        /* \"#utility.yul\":88:205   */\n    tag_79:\n        /* \"#utility.yul\":197:198   */\n      0x00\n        /* \"#utility.yul\":194:195   */\n      dup1\n        /* \"#utility.yul\":187:199   */\n      revert\n        /* \"#utility.yul\":334:460   */\n    tag_81:\n        /* \"#utility.yul\":371:378   */\n      0x00\n        /* \"#utility.yul\":411:453   */\n      0xffffffffffffffffffffffffffffffffffffffff\n        /* \"#utility.yul\":404:409   */\n      dup3\n        /* \"#utility.yul\":400:454   */\n      and\n        /* \"#utility.yul\":389:454   */\n      swap1\n      pop\n        /* \"#utility.yul\":334:460   */\n      swap2\n      swap1\n      pop\n      jump\t// out\n        /* \"#utility.yul\":466:562   */\n    tag_82:\n        /* \"#utility.yul\":503:510   */\n      0x00\n        /* \"#utility.yul\":532:556   */\n      tag_101\n        /* \"#utility.yul\":550:555   */\n      dup3\n        /* \"#utility.yul\":532:556   */\n      tag_81\n      jump\t// in\n    tag_101:\n        /* \"#utility.yul\":521:556   */\n      swap1\n      pop\n        /* \"#utility.yul\":466:562   */\n      swap2\n      swap1\n      pop\n      jump\t// out\n        /* \"#utility.yul\":568:690   */\n    tag_83:\n        /* \"#utility.yul\":641:665   */\n      tag_103\n        /* \"#utility.yul\":659:664   */\n      dup2\n        /* \"#utility.yul\":641:665   */\n      tag_82\n      jump\t// in\n    tag_103:\n        /* \"#utility.yul\":634:639   */\n      dup2\n        /* \"#utility.yul\":631:666   */\n      eq\n        /* \"#utility.yul\":621:684   */\n      tag_104\n      jumpi\n        /* \"#utility.yul\":680:681   */\n      0x00\n        /* \"#utility.yul\":677:678   */\n      dup1\n        /* \"#utility.yul\":670:682   */\n      revert\n        /* \"#utility.yul\":621:684   */\n    tag_104:\n        /* \"#utility.yul\":568:690   */\n      pop\n      jump\t// out\n        /* \"#utility.yul\":696:835   */\n    tag_84:\n        /* \"#utility.yul\":742:747   */\n      0x00\n        /* \"#utility.yul\":780:786   */\n      dup2\n        /* \"#utility.yul\":767:787   */\n      calldataload\n        /* \"#utility.yul\":758:787   */\n      swap1\n      pop\n        /* \"#utility.yul\":796:829   */\n      tag_106\n        /* \"#utility.yul\":823:828   */\n      dup2\n        /* \"#utility.yul\":796:829   */\n      tag_83\n      jump\t// in\n    tag_106:\n        /* \"#utility.yul\":696:835   */\n      swap3\n      swap2\n      pop\n      pop\n      jump\t// out\n        /* \"#utility.yul\":841:1170   */\n    tag_15:\n        /* \"#utility.yul\":900:906   */\n      0x00\n        /* \"#utility.yul\":949:951   */\n      0x20\n        /* \"#utility.yul\":937:946   */\n      dup3\n        /* \"#utility.yul\":928:935   */\n      dup5\n        /* \"#utility.yul\":924:947   */\n      sub\n        /* \"#utility.yul\":920:952   */\n      slt\n        /* \"#utility.yul\":917:1036   */\n      iszero\n      tag_108\n      jumpi\n        /* \"#utility.yul\":955:1034   */\n      tag_109\n      tag_79\n      jump\t// in\n    tag_109:\n        /* \"#utility.yul\":917:1036   */\n    tag_108:\n        /* \"#utility.yul\":1075:1076   */\n      0x00\n        /* \"#utility.yul\":1100:1153   */\n      tag_110\n        /* \"#utility.yul\":1145:1152   */\n      dup5\n        /* \"#utility.yul\":1136:1142   */\n      dup3\n        /* \"#utility.yul\":1125:1134   */\n      dup6\n        /* \"#utility.yul\":1121:1143   */\n      add\n        /* \"#utility.yul\":1100:1153   */\n      tag_84\n      jump\t// in\n    tag_110:\n        /* \"#utility.yul\":1090:1153   */\n      swap2\n      pop\n        /* \"#utility.yul\":1046:1163   */\n      pop\n        /* \"#utility.yul\":841:1170   */\n      swap3\n      swap2\n      pop\n      pop\n      jump\t// out\n        /* \"#utility.yul\":1176:1253   */\n    tag_85:\n        /* \"#utility.yul\":1213:1220   */\n      0x00\n        /* \"#utility.yul\":1242:1247   */\n      dup2\n        /* \"#utility.yul\":1231:1247   */\n      swap1\n      pop\n        /* \"#utility.yul\":1176:1253   */\n      swap2\n      swap1\n      pop\n      jump\t// out\n        /* \"#utility.yul\":1259:1377   */\n    tag_86:\n        /* \"#utility.yul\":1346:1370   */\n      tag_113\n        /* \"#utility.yul\":1364:1369   */\n      dup2\n        /* \"#utility.yul\":1346:1370   */\n      tag_85\n      jump\t// in\n    tag_113:\n        /* \"#utility.yul\":1341:1344   */\n      dup3\n        /* \"#utility.yul\":1334:1371   */\n      mstore\n        /* \"#utility.yul\":1259:1377   */\n      pop\n      pop\n      jump\t// out\n        /* \"#utility.yul\":1383:1936   */\n    tag_18:\n        /* \"#utility.yul\":1560:1564   */\n      0x00\n        /* \"#utility.yul\":1598:1601   */\n      0x80\n        /* \"#utility.yul\":1587:1596   */\n      dup3\n        /* \"#utility.yul\":1583:1602   */\n      add\n        /* \"#utility.yul\":1575:1602   */\n      swap1\n      pop\n        /* \"#utility.yul\":1612:1683   */\n      tag_115\n        /* \"#utility.yul\":1680:1681   */\n      0x00\n        /* \"#utility.yul\":1669:1678   */\n      dup4\n        /* \"#utility.yul\":1665:1682   */\n      add\n        /* \"#utility.yul\":1656:1662   */\n      dup8\n        /* \"#utility.yul\":1612:1683   */\n      tag_86\n      jump\t// in\n    tag_115:\n        /* \"#utility.yul\":1693:1765   */\n      tag_116\n        /* \"#utility.yul\":1761:1763   */\n      0x20\n        /* \"#utility.yul\":1750:1759   */\n      dup4\n        /* \"#utility.yul\":1746:1764   */\n      add\n        /* \"#utility.yul\":1737:1743   */\n      dup7\n        /* \"#utility.yul\":1693:1765   */\n      tag_86\n      jump\t// in\n    tag_116:\n        /* \"#utility.yul\":1775:1847   */\n      tag_117\n        /* \"#utility.yul\":1843:1845   */\n      0x40\n        /* \"#utility.yul\":1832:1841   */\n      dup4\n        /* \"#utility.yul\":1828:1846   */\n      add\n        /* \"#utility.yul\":1819:1825   */\n      dup6\n        /* \"#utility.yul\":1775:1847   */\n      tag_86\n      jump\t// in\n    tag_117:\n        /* \"#utility.yul\":1857:1929   */\n      tag_118\n        /* \"#utility.yul\":1925:1927   */\n      0x60\n        /* \"#utility.yul\":1914:1923   */\n      dup4\n        /* \"#utility.yul\":1910:1928   */\n      add\n        /* \"#utility.yul\":1901:1907   */\n      dup5\n        /* \"#utility.yul\":1857:1929   */\n      tag_86\n      jump\t// in\n    tag_118:\n        /* \"#utility.yul\":1383:1936   */\n      swap6\n      swap5\n      pop\n      pop\n      pop\n      pop\n      pop\n      jump\t// out\n        /* \"#utility.yul\":1942:2046   */\n    tag_87:\n        /* \"#utility.yul\":1987:1994   */\n      0x00\n        /* \"#utility.yul\":2016:2040   */\n      tag_120\n        /* \"#utility.yul\":2034:2039   */\n      dup3\n        /* \"#utility.yul\":2016:2040   */\n      tag_81\n      jump\t// in\n    tag_120:\n        /* \"#utility.yul\":2005:2040   */\n      swap1\n      pop\n        /* \"#utility.yul\":1942:2046   */\n      swap2\n      swap1\n      pop\n      jump\t// out\n        /* \"#utility.yul\":2052:2190   */\n    tag_88:\n        /* \"#utility.yul\":2133:2165   */\n      tag_122\n        /* \"#utility.yul\":2159:2164   */\n      dup2\n        /* \"#utility.yul\":2133:2165   */\n      tag_87\n      jump\t// in\n    tag_122:\n        /* \"#utility.yul\":2126:2131   */\n      dup2\n        /* \"#utility.yul\":2123:2166   */\n      eq\n        /* \"#utility.yul\":2113:2184   */\n      tag_123\n      jumpi\n        /* \"#utility.yul\":2180:2181   */\n      0x00\n        /* \"#utility.yul\":2177:2178   */\n      dup1\n        /* \"#utility.yul\":2170:2182   */\n      revert\n        /* \"#utility.yul\":2113:2184   */\n    tag_123:\n        /* \"#utility.yul\":2052:2190   */\n      pop\n      jump\t// out\n        /* \"#utility.yul\":2196:2351   */\n    tag_89:\n        /* \"#utility.yul\":2250:2255   */\n      0x00\n        /* \"#utility.yul\":2288:2294   */\n      dup2\n        /* \"#utility.yul\":2275:2295   */\n      calldataload\n        /* \"#utility.yul\":2266:2295   */\n      swap1\n      pop\n        /* \"#utility.yul\":2304:2345   */\n      tag_125\n        /* \"#utility.yul\":2339:2344   */\n      dup2\n        /* \"#utility.yul\":2304:2345   */\n      tag_88\n      jump\t// in\n    tag_125:\n        /* \"#utility.yul\":2196:2351   */\n      swap3\n      swap2\n      pop\n      pop\n      jump\t// out\n        /* \"#utility.yul\":2357:2479   */\n    tag_90:\n        /* \"#utility.yul\":2430:2454   */\n      tag_127\n        /* \"#utility.yul\":2448:2453   */\n      dup2\n        /* \"#utility.yul\":2430:2454   */\n      tag_85\n      jump\t// in\n    tag_127:\n        /* \"#utility.yul\":2423:2428   */\n      dup2\n        /* \"#utility.yul\":2420:2455   */\n      eq\n        /* \"#utility.yul\":2410:2473   */\n      tag_128\n      jumpi\n        /* \"#utility.yul\":2469:2470   */\n      0x00\n        /* \"#utility.yul\":2466:2467   */\n      dup1\n        /* \"#utility.yul\":2459:2471   */\n      revert\n        /* \"#utility.yul\":2410:2473   */\n    tag_128:\n        /* \"#utility.yul\":2357:2479   */\n      pop\n      jump\t// out\n        /* \"#utility.yul\":2485:2624   */\n    tag_91:\n        /* \"#utility.yul\":2531:2536   */\n      0x00\n        /* \"#utility.yul\":2569:2575   */\n      dup2\n        /* \"#utility.yul\":2556:2576   */\n      calldataload\n        /* \"#utility.yul\":2547:2576   */\n      swap1\n      pop\n        /* \"#utility.yul\":2585:2618   */\n      tag_130\n        /* \"#utility.yul\":2612:2617   */\n      dup2\n        /* \"#utility.yul\":2585:2618   */\n      tag_90\n      jump\t// in\n    tag_130:\n        /* \"#utility.yul\":2485:2624   */\n      swap3\n      swap2\n      pop\n      pop\n      jump\t// out\n        /* \"#utility.yul\":2630:3120   */\n    tag_25:\n        /* \"#utility.yul\":2706:2712   */\n      0x00\n        /* \"#utility.yul\":2714:2720   */\n      dup1\n        /* \"#utility.yul\":2763:2765   */\n      0x40\n        /* \"#utility.yul\":2751:2760   */\n      dup4\n        /* \"#utility.yul\":2742:2749   */\n      dup6\n        /* \"#utility.yul\":2738:2761   */\n      sub\n        /* \"#utility.yul\":2734:2766   */\n      slt\n        /* \"#utility.yul\":2731:2850   */\n      iszero\n      tag_132\n      jumpi\n        /* \"#utility.yul\":2769:2848   */\n      tag_133\n      tag_79\n      jump\t// in\n    tag_133:\n        /* \"#utility.yul\":2731:2850   */\n    tag_132:\n        /* \"#utility.yul\":2889:2890   */\n      0x00\n        /* \"#utility.yul\":2914:2975   */\n      tag_134\n        /* \"#utility.yul\":2967:2974   */\n      dup6\n        /* \"#utility.yul\":2958:2964   */\n      dup3\n        /* \"#utility.yul\":2947:2956   */\n      dup7\n        /* \"#utility.yul\":2943:2965   */\n      add\n        /* \"#utility.yul\":2914:2975   */\n      tag_89\n      jump\t// in\n    tag_134:\n        /* \"#utility.yul\":2904:2975   */\n      swap3\n      pop\n        /* \"#utility.yul\":2860:2985   */\n      pop\n        /* \"#utility.yul\":3024:3026   */\n      0x20\n        /* \"#utility.yul\":3050:3103   */\n      tag_135\n        /* \"#utility.yul\":3095:3102   */\n      dup6\n        /* \"#utility.yul\":3086:3092   */\n      dup3\n        /* \"#utility.yul\":3075:3084   */\n      dup7\n        /* \"#utility.yul\":3071:3093   */\n      add\n        /* \"#utility.yul\":3050:3103   */\n      tag_91\n      jump\t// in\n    tag_135:\n        /* \"#utility.yul\":3040:3103   */\n      swap2\n      pop\n        /* \"#utility.yul\":2995:3113   */\n      pop\n        /* \"#utility.yul\":2630:3120   */\n      swap3\n      pop\n      swap3\n      swap1\n      pop\n      jump\t// out\n        /* \"#utility.yul\":3126:3268   */\n    tag_92:\n        /* \"#utility.yul\":3229:3261   */\n      tag_137\n        /* \"#utility.yul\":3255:3260   */\n      dup2\n        /* \"#utility.yul\":3229:3261   */\n      tag_87\n      jump\t// in\n    tag_137:\n        /* \"#utility.yul\":3224:3227   */\n      dup3\n        /* \"#utility.yul\":3217:3262   */\n      mstore\n        /* \"#utility.yul\":3126:3268   */\n      pop\n      pop\n      jump\t// out\n        /* \"#utility.yul\":3274:3528   */\n    tag_31:\n        /* \"#utility.yul\":3383:3387   */\n      0x00\n        /* \"#utility.yul\":3421:3423   */\n      0x20\n        /* \"#utility.yul\":3410:3419   */\n      dup3\n        /* \"#utility.yul\":3406:3424   */\n      add\n        /* \"#utility.yul\":3398:3424   */\n      swap1\n      pop\n        /* \"#utility.yul\":3434:3521   */\n      tag_139\n        /* \"#utility.yul\":3518:3519   */\n      0x00\n        /* \"#utility.yul\":3507:3516   */\n      dup4\n        /* \"#utility.yul\":3503:3520   */\n      add\n        /* \"#utility.yul\":3494:3500   */\n      dup5\n        /* \"#utility.yul\":3434:3521   */\n      tag_92\n      jump\t// in\n    tag_139:\n        /* \"#utility.yul\":3274:3528   */\n      swap3\n      swap2\n      pop\n      pop\n      jump\t// out\n        /* \"#utility.yul\":3534:3863   */\n    tag_35:\n        /* \"#utility.yul\":3593:3599   */\n      0x00\n        /* \"#utility.yul\":3642:3644   */\n      0x20\n        /* \"#utility.yul\":3630:3639   */\n      dup3\n        /* \"#utility.yul\":3621:3628   */\n      dup5\n        /* \"#utility.yul\":3617:3640   */\n      sub\n        /* \"#utility.yul\":3613:3645   */\n      slt\n        /* \"#utility.yul\":3610:3729   */\n      iszero\n      tag_141\n      jumpi\n        /* \"#utility.yul\":3648:3727   */\n      tag_142\n      tag_79\n      jump\t// in\n    tag_142:\n        /* \"#utility.yul\":3610:3729   */\n    tag_141:\n        /* \"#utility.yul\":3768:3769   */\n      0x00\n        /* \"#utility.yul\":3793:3846   */\n      tag_143\n        /* \"#utility.yul\":3838:3845   */\n      dup5\n        /* \"#utility.yul\":3829:3835   */\n      dup3\n        /* \"#utility.yul\":3818:3827   */\n      dup6\n        /* \"#utility.yul\":3814:3836   */\n      add\n        /* \"#utility.yul\":3793:3846   */\n      tag_91\n      jump\t// in\n    tag_143:\n        /* \"#utility.yul\":3783:3846   */\n      swap2\n      pop\n        /* \"#utility.yul\":3739:3856   */\n      pop\n        /* \"#utility.yul\":3534:3863   */\n      swap3\n      swap2\n      pop\n      pop\n      jump\t// out\n        /* \"#utility.yul\":3869:3987   */\n    tag_93:\n        /* \"#utility.yul\":3956:3980   */\n      tag_145\n        /* \"#utility.yul\":3974:3979   */\n      dup2\n        /* \"#utility.yul\":3956:3980   */\n      tag_82\n      jump\t// in\n    tag_145:\n        /* \"#utility.yul\":3951:3954   */\n      dup3\n        /* \"#utility.yul\":3944:3981   */\n      mstore\n        /* \"#utility.yul\":3869:3987   */\n      pop\n      pop\n      jump\t// out\n        /* \"#utility.yul\":3993:4325   */\n    tag_61:\n        /* \"#utility.yul\":4114:4118   */\n      0x00\n        /* \"#utility.yul\":4152:4154   */\n      0x40\n        /* \"#utility.yul\":4141:4150   */\n      dup3\n        /* \"#utility.yul\":4137:4155   */\n      add\n        /* \"#utility.yul\":4129:4155   */\n      swap1\n      pop\n        /* \"#utility.yul\":4165:4236   */\n      tag_147\n        /* \"#utility.yul\":4233:4234   */\n      0x00\n        /* \"#utility.yul\":4222:4231   */\n      dup4\n        /* \"#utility.yul\":4218:4235   */\n      add\n        /* \"#utility.yul\":4209:4215   */\n      dup6\n        /* \"#utility.yul\":4165:4236   */\n      tag_93\n      jump\t// in\n    tag_147:\n        /* \"#utility.yul\":4246:4318   */\n      tag_148\n        /* \"#utility.yul\":4314:4316   */\n      0x20\n        /* \"#utility.yul\":4303:4312   */\n      dup4\n        /* \"#utility.yul\":4299:4317   */\n      add\n        /* \"#utility.yul\":4290:4296   */\n      dup5\n        /* \"#utility.yul\":4246:4318   */\n      tag_86\n      jump\t// in\n    tag_148:\n        /* \"#utility.yul\":3993:4325   */\n      swap4\n      swap3\n      pop\n      pop\n      pop\n      jump\t// out\n        /* \"#utility.yul\":4331:4511   */\n    tag_94:\n        /* \"#utility.yul\":4379:4456   */\n      0x4e487b7100000000000000000000000000000000000000000000000000000000\n        /* \"#utility.yul\":4376:4377   */\n      0x00\n        /* \"#utility.yul\":4369:4457   */\n      mstore\n        /* \"#utility.yul\":4476:4480   */\n      0x11\n        /* \"#utility.yul\":4473:4474   */\n      0x04\n        /* \"#utility.yul\":4466:4481   */\n      mstore\n        /* \"#utility.yul\":4500:4504   */\n      0x24\n        /* \"#utility.yul\":4497:4498   */\n      0x00\n        /* \"#utility.yul\":4490:4505   */\n      revert\n        /* \"#utility.yul\":4517:4708   */\n    tag_69:\n        /* \"#utility.yul\":4557:4560   */\n      0x00\n        /* \"#utility.yul\":4576:4596   */\n      tag_151\n        /* \"#utility.yul\":4594:4595   */\n      dup3\n        /* \"#utility.yul\":4576:4596   */\n      tag_85\n      jump\t// in\n    tag_151:\n        /* \"#utility.yul\":4571:4596   */\n      swap2\n      pop\n        /* \"#utility.yul\":4610:4630   */\n      tag_152\n        /* \"#utility.yul\":4628:4629   */\n      dup4\n        /* \"#utility.yul\":4610:4630   */\n      tag_85\n      jump\t// in\n    tag_152:\n        /* \"#utility.yul\":4605:4630   */\n      swap3\n      pop\n        /* \"#utility.yul\":4653:4654   */\n      dup3\n        /* \"#utility.yul\":4650:4651   */\n      dup3\n        /* \"#utility.yul\":4646:4655   */\n      add\n        /* \"#utility.yul\":4639:4655   */\n      swap1\n      pop\n        /* \"#utility.yul\":4674:4677   */\n      dup1\n        /* \"#utility.yul\":4671:4672   */\n      dup3\n        /* \"#utility.yul\":4668:4678   */\n      gt\n        /* \"#utility.yul\":4665:4701   */\n      iszero\n      tag_153\n      jumpi\n        /* \"#utility.yul\":4681:4699   */\n      tag_154\n      tag_94\n      jump\t// in\n    tag_154:\n        /* \"#utility.yul\":4665:4701   */\n    tag_153:\n        /* \"#utility.yul\":4517:4708   */\n      swap3\n      swap2\n      pop\n      pop\n      jump\t// out\n        /* \"#utility.yul\":4714:4947   */\n    tag_71:\n        /* \"#utility.yul\":4753:4756   */\n      0x00\n        /* \"#utility.yul\":4776:4800   */\n      tag_156\n        /* \"#utility.yul\":4794:4799   */\n      dup3\n        /* \"#utility.yul\":4776:4800   */\n      tag_85\n      jump\t// in\n    tag_156:\n        /* \"#utility.yul\":4767:4800   */\n      swap2\n      pop\n        /* \"#utility.yul\":4822:4888   */\n      0xffffffffffffffffffffffffffffffffffffffffffffffffffffffffffffffff\n        /* \"#utility.yul\":4815:4820   */\n      dup3\n        /* \"#utility.yul\":4812:4889   */\n      sub\n        /* \"#utility.yul\":4809:4912   */\n      tag_157\n      jumpi\n        /* \"#utility.yul\":4892:4910   */\n      tag_158\n      tag_94\n      jump\t// in\n    tag_158:\n        /* \"#utility.yul\":4809:4912   */\n    tag_157:\n        /* \"#utility.yul\":4939:4940   */\n      0x01\n        /* \"#utility.yul\":4932:4937   */\n      dup3\n        /* \"#utility.yul\":4928:4941   */\n      add\n        /* \"#utility.yul\":4921:4941   */\n      swap1\n      pop\n        /* \"#utility.yul\":4714:4947   */\n      swap2\n      swap1\n      pop\n      jump\t// out\n    stop\n\n    sub_0: assembly {\n            /* \"contracts/senior project.sol\":62:3076  contract MyContract{ ... */\n          mstore(0x40, 0x80)\n            /* \"contracts/senior project.sol\":316:321  false */\n          0x00\n            /* \"contracts/senior project.sol\":300:321  bool approved = false */\n          0x04\n          exp(0x0100, 0x00)\n          dup2\n          sload\n          dup2\n          0xff\n          mul\n          not\n          and\n          swap1\n          dup4\n          iszero\n          iszero\n          mul\n          or\n          swap1\n          sstore\n          pop\n            /* \"contracts/senior project.sol\":2368:2369  0 */\n          0x00\n            /* \"contracts/senior project.sol\":2352:2369  uint EXcounter =0 */\n          0x07\n          sstore\n            /* \"contracts/senior project.sol\":62:3076  contract MyContract{ ... */\n          callvalue\n          dup1\n          iszero\n          tag_1\n          jumpi\n          0x00\n          dup1\n          revert\n        tag_1:\n          pop\n          dataSize(sub_0)\n          dup1\n          dataOffset(sub_0)\n          0x00\n          codecopy\n          0x00\n          return\n        stop\n\n        sub_0: assembly {\n                /* \"contracts/senior project.sol\":62:3076  contract MyContract{ ... */\n              mstore(0x40, 0x80)\n              jumpi(tag_1, lt(calldatasize, 0x04))\n              shr(0xe0, calldataload(0x00))\n              dup1\n              0x8bf963b6\n              gt\n              tag_10\n              jumpi\n              dup1\n              0x8bf963b6\n              eq\n              tag_6\n              jumpi\n              dup1\n              0x8d68cf59\n              eq\n              tag_7\n              jumpi\n              dup1\n              0xabb6ae89\n              eq\n              tag_8\n              jumpi\n              dup1\n              0xed88c68e\n              eq\n              tag_9\n              jumpi\n              jump(tag_1)\n            tag_10:\n              dup1\n              0x27e235e3\n              eq\n              tag_2\n              jumpi\n              dup1\n              0x39788bc8\n              eq\n              tag_3\n              jumpi\n              dup1\n              0x521eb273\n              eq\n              tag_4\n              jumpi\n              dup1\n              0x5eed3dcb\n              eq\n              tag_5\n              jumpi\n            tag_1:\n              0x00\n              dup1\n              revert\n                /* \"contracts/senior project.sol\":494:535  mapping(address => donor) public balances */\n            tag_2:\n              callvalue\n              dup1\n              iszero\n              tag_11\n              jumpi\n              0x00\n              dup1\n              revert\n            tag_11:\n              pop\n              tag_12\n              0x04\n              dup1\n              calldatasize\n              sub\n              dup2\n              add\n              swap1\n              tag_13\n              swap2\n              swap1\n              tag_14\n              jump\t// in\n            tag_13:\n              tag_15\n              jump\t// in\n            tag_12:\n              mload(0x40)\n              tag_16\n              swap5\n              swap4\n              swap3\n              swap2\n              swap1\n              tag_17\n              jump\t// in\n            tag_16:\n              mload(0x40)\n              dup1\n              swap2\n              sub\n              swap1\n              return\n                /* \"contracts/senior project.sol\":2183:2288  function approval() public{       ... */\n            tag_3:\n              callvalue\n              dup1\n              iszero\n              tag_18\n              jumpi\n              0x00\n              dup1\n              revert\n            tag_18:\n              pop\n              tag_19\n              tag_20\n              jump\t// in\n            tag_19:\n              stop\n                /* \"contracts/senior project.sol\":89:118  address payable public wallet */\n            tag_4:\n              callvalue\n              dup1\n              iszero\n              tag_21\n              jumpi\n              0x00\n              dup1\n              revert\n            tag_21:\n              pop\n              tag_22\n              tag_23\n              jump\t// in\n            tag_22:\n              mload(0x40)\n              tag_24\n              swap2\n              swap1\n              tag_25\n              jump\t// in\n            tag_24:\n              mload(0x40)\n              dup1\n              swap2\n              sub\n              swap1\n              return\n                /* \"contracts/senior project.sol\":542:576  address payable[] public donorList */\n            tag_5:\n              callvalue\n              dup1\n              iszero\n              tag_26\n              jumpi\n              0x00\n              dup1\n              revert\n            tag_26:\n              pop\n              tag_27\n              0x04\n              dup1\n              calldatasize\n              sub\n              dup2\n              add\n              swap1\n              tag_28\n              swap2\n              swap1\n              tag_29\n              jump\t// in\n            tag_28:\n              tag_30\n              jump\t// in\n            tag_27:\n              mload(0x40)\n              tag_31\n              swap2\n              swap1\n              tag_25\n              jump\t// in\n            tag_31:\n              mload(0x40)\n              dup1\n              swap2\n              sub\n              swap1\n              return\n                /* \"contracts/senior project.sol\":1304:1508  function singleRefund () public{... */\n            tag_6:\n              callvalue\n              dup1\n              iszero\n              tag_32\n              jumpi\n              0x00\n              dup1\n              revert\n            tag_32:\n              pop\n              tag_33\n              tag_34\n              jump\t// in\n            tag_33:\n              stop\n                /* \"contracts/senior project.sol\":1155:1296  function sendFunds () public{... */\n            tag_7:\n              callvalue\n              dup1\n              iszero\n              tag_35\n              jumpi\n              0x00\n              dup1\n              revert\n            tag_35:\n              pop\n              tag_36\n              tag_37\n              jump\t// in\n            tag_36:\n              stop\n                /* \"contracts/senior project.sol\":2445:2607  function extendTime() public {... */\n            tag_8:\n              callvalue\n              dup1\n              iszero\n              tag_38\n              jumpi\n              0x00\n              dup1\n              revert\n            tag_38:\n              pop\n              tag_39\n              tag_40\n              jump\t// in\n            tag_39:\n              stop\n                /* \"contracts/senior project.sol\":772:1083  function donate() public payable{... */\n            tag_9:\n              tag_41\n              tag_42\n              jump\t// in\n            tag_41:\n              stop\n                /* \"contracts/senior project.sol\":494:535  mapping(address => donor) public balances */\n            tag_15:\n              mstore(0x20, 0x05)\n              dup1\n              0x00\n              mstore\n              keccak256(0x00, 0x40)\n              0x00\n              swap2\n              pop\n              swap1\n              pop\n              dup1\n              0x00\n              add\n              sload\n              swap1\n              dup1\n              0x01\n              add\n              sload\n              swap1\n              dup1\n              0x02\n              add\n              sload\n              swap1\n              dup1\n              0x03\n              add\n              sload\n              swap1\n              pop\n              dup5\n              jump\t// out\n                /* \"contracts/senior project.sol\":2183:2288  function approval() public{       ... */\n            tag_20:\n                /* \"contracts/senior project.sol\":2247:2253  wallet */\n              0x00\n              dup1\n              sload\n              swap1\n              0x0100\n              exp\n              swap1\n              div\n              0xffffffffffffffffffffffffffffffffffffffff\n              and\n                /* \"contracts/senior project.sol\":2233:2253  msg.sender == wallet */\n              0xffffffffffffffffffffffffffffffffffffffff\n              and\n                /* \"contracts/senior project.sol\":2233:2243  msg.sender */\n              caller\n                /* \"contracts/senior project.sol\":2233:2253  msg.sender == wallet */\n              0xffffffffffffffffffffffffffffffffffffffff\n              and\n              eq\n                /* \"contracts/senior project.sol\":2225:2254  require(msg.sender == wallet) */\n              tag_44\n              jumpi\n              0x00\n              dup1\n              revert\n            tag_44:\n                /* \"contracts/senior project.sol\":2276:2280  true */\n              0x01\n                /* \"contracts/senior project.sol\":2265:2273  approved */\n              0x04\n              0x00\n                /* \"contracts/senior project.sol\":2265:2280  approved = true */\n              0x0100\n              exp\n              dup2\n              sload\n              dup2\n              0xff\n              mul\n              not\n              and\n              swap1\n              dup4\n              iszero\n              iszero\n              mul\n              or\n              swap1\n              sstore\n              pop\n                /* \"contracts/senior project.sol\":2183:2288  function approval() public{       ... */\n              jump\t// out\n                /* \"contracts/senior project.sol\":89:118  address payable public wallet */\n            tag_23:\n              0x00\n              dup1\n              sload\n              swap1\n              0x0100\n              exp\n              swap1\n              div\n              0xffffffffffffffffffffffffffffffffffffffff\n              and\n              dup2\n              jump\t// out\n                /* \"contracts/senior project.sol\":542:576  address payable[] public donorList */\n            tag_30:\n              0x06\n              dup2\n              dup2\n              sload\n              dup2\n              lt\n              tag_45\n              jumpi\n              0x00\n              dup1\n              revert\n            tag_45:\n              swap1\n              0x00\n              mstore\n              keccak256(0x00, 0x20)\n              add\n              0x00\n              swap2\n              pop\n              sload\n              swap1\n              0x0100\n              exp\n              swap1\n              div\n              0xffffffffffffffffffffffffffffffffffffffff\n              and\n              dup2\n              jump\t// out\n                /* \"contracts/senior project.sol\":1304:1508  function singleRefund () public{... */\n            tag_34:\n                /* \"contracts/senior project.sol\":1346:1360  uint returnAmt */\n              0x00\n                /* \"contracts/senior project.sol\":1363:1371  balances */\n              0x05\n                /* \"contracts/senior project.sol\":1363:1383  balances[msg.sender] */\n              0x00\n                /* \"contracts/senior project.sol\":1372:1382  msg.sender */\n              caller\n                /* \"contracts/senior project.sol\":1363:1383  balances[msg.sender] */\n              0xffffffffffffffffffffffffffffffffffffffff\n              and\n              0xffffffffffffffffffffffffffffffffffffffff\n              and\n              dup2\n              mstore\n              0x20\n              add\n              swap1\n              dup2\n              mstore\n              0x20\n              add\n              0x00\n              keccak256\n                /* \"contracts/senior project.sol\":1363:1394  balances[msg.sender].returnable */\n              0x02\n              add\n              sload\n                /* \"contracts/senior project.sol\":1346:1394  uint returnAmt = balances[msg.sender].returnable */\n              swap1\n              pop\n                /* \"contracts/senior project.sol\":1414:1424  msg.sender */\n              caller\n                /* \"contracts/senior project.sol\":1405:1434  payable (msg.sender).transfer */\n              0xffffffffffffffffffffffffffffffffffffffff\n              and\n                /* \"contracts/senior project.sol\":1405:1445  payable (msg.sender).transfer(returnAmt) */\n              0x08fc\n                /* \"contracts/senior project.sol\":1435:1444  returnAmt */\n              dup3\n                /* \"contracts/senior project.sol\":1405:1445  payable (msg.sender).transfer(returnAmt) */\n              swap1\n              dup2\n              iszero\n              mul\n              swap1\n              mload(0x40)\n              0x00\n              mload(0x40)\n              dup1\n              dup4\n              sub\n              dup2\n              dup6\n              dup9\n              dup9\n              call\n              swap4\n              pop\n              pop\n              pop\n              pop\n              iszero\n              dup1\n              iszero\n              tag_49\n              jumpi\n              returndatasize\n              0x00\n              dup1\n              returndatacopy\n              revert(0x00, returndatasize)\n            tag_49:\n              pop\n                /* \"contracts/senior project.sol\":1461:1500  LogReturnedFunds(msg.sender, returnAmt) */\n              0xe0e5873eb9d996d2ab087b071a9a50522121c02b43308c8728c06739f52b3f87\n                /* \"contracts/senior project.sol\":1478:1488  msg.sender */\n              caller\n                /* \"contracts/senior project.sol\":1490:1499  returnAmt */\n              dup3\n                /* \"contracts/senior project.sol\":1461:1500  LogReturnedFunds(msg.sender, returnAmt) */\n              mload(0x40)\n              tag_50\n              swap3\n              swap2\n              swap1\n              tag_51\n              jump\t// in\n            tag_50:\n              mload(0x40)\n              dup1\n              swap2\n              sub\n              swap1\n              log1\n                /* \"contracts/senior project.sol\":1335:1508  {... */\n              pop\n                /* \"contracts/senior project.sol\":1304:1508  function singleRefund () public{... */\n              jump\t// out\n                /* \"contracts/senior project.sol\":1155:1296  function sendFunds () public{... */\n            tag_37:\n                /* \"contracts/senior project.sol\":1194:1200  wallet */\n              0x00\n              dup1\n              sload\n              swap1\n              0x0100\n              exp\n              swap1\n              div\n              0xffffffffffffffffffffffffffffffffffffffff\n              and\n                /* \"contracts/senior project.sol\":1194:1209  wallet.transfer */\n              0xffffffffffffffffffffffffffffffffffffffff\n              and\n                /* \"contracts/senior project.sol\":1194:1241  wallet.transfer(balances[msg.sender].totalDono) */\n              0x08fc\n                /* \"contracts/senior project.sol\":1210:1218  balances */\n              0x05\n                /* \"contracts/senior project.sol\":1210:1230  balances[msg.sender] */\n              0x00\n                /* \"contracts/senior project.sol\":1219:1229  msg.sender */\n              caller\n                /* \"contracts/senior project.sol\":1210:1230  balances[msg.sender] */\n              0xffffffffffffffffffffffffffffffffffffffff\n              and\n              0xffffffffffffffffffffffffffffffffffffffff\n              and\n              dup2\n              mstore\n              0x20\n              add\n              swap1\n              dup2\n              mstore\n              0x20\n              add\n              0x00\n              keccak256\n                /* \"contracts/senior project.sol\":1210:1240  balances[msg.sender].totalDono */\n              0x00\n              add\n              sload\n                /* \"contracts/senior project.sol\":1194:1241  wallet.transfer(balances[msg.sender].totalDono) */\n              swap1\n              dup2\n              iszero\n              mul\n              swap1\n              mload(0x40)\n              0x00\n              mload(0x40)\n              dup1\n              dup4\n              sub\n              dup2\n              dup6\n              dup9\n              dup9\n              call\n              swap4\n              pop\n              pop\n              pop\n              pop\n              iszero\n              dup1\n              iszero\n              tag_54\n              jumpi\n              returndatasize\n              0x00\n              dup1\n              returndatacopy\n              revert(0x00, returndatasize)\n            tag_54:\n              pop\n                /* \"contracts/senior project.sol\":1287:1288  0 */\n              0x00\n                /* \"contracts/senior project.sol\":1253:1261  balances */\n              0x05\n                /* \"contracts/senior project.sol\":1253:1273  balances[msg.sender] */\n              0x00\n                /* \"contracts/senior project.sol\":1262:1272  msg.sender */\n              caller\n                /* \"contracts/senior project.sol\":1253:1273  balances[msg.sender] */\n              0xffffffffffffffffffffffffffffffffffffffff\n              and\n              0xffffffffffffffffffffffffffffffffffffffff\n              and\n              dup2\n              mstore\n              0x20\n              add\n              swap1\n              dup2\n              mstore\n              0x20\n              add\n              0x00\n              keccak256\n                /* \"contracts/senior project.sol\":1253:1284  balances[msg.sender].returnable */\n              0x02\n              add\n                /* \"contracts/senior project.sol\":1253:1288  balances[msg.sender].returnable = 0 */\n              dup2\n              swap1\n              sstore\n              pop\n                /* \"contracts/senior project.sol\":1155:1296  function sendFunds () public{... */\n              jump\t// out\n                /* \"contracts/senior project.sol\":2445:2607  function extendTime() public {... */\n            tag_40:\n                /* \"contracts/senior project.sol\":2507:2513  wallet */\n              0x00\n              dup1\n              sload\n              swap1\n              0x0100\n              exp\n              swap1\n              div\n              0xffffffffffffffffffffffffffffffffffffffff\n              and\n                /* \"contracts/senior project.sol\":2493:2513  msg.sender == wallet */\n              0xffffffffffffffffffffffffffffffffffffffff\n              and\n                /* \"contracts/senior project.sol\":2493:2503  msg.sender */\n              caller\n                /* \"contracts/senior project.sol\":2493:2513  msg.sender == wallet */\n              0xffffffffffffffffffffffffffffffffffffffff\n              and\n              eq\n                /* \"contracts/senior project.sol\":2485:2514  require(msg.sender == wallet) */\n              tag_56\n              jumpi\n              0x00\n              dup1\n              revert\n            tag_56:\n                /* \"contracts/senior project.sol\":2541:2542  0 */\n              0x00\n                /* \"contracts/senior project.sol\":2528:2537  EXcounter */\n              sload(0x07)\n                /* \"contracts/senior project.sol\":2528:2542  EXcounter == 0 */\n              sub\n                /* \"contracts/senior project.sol\":2525:2600  if(EXcounter == 0){... */\n              tag_57\n              jumpi\n                /* \"contracts/senior project.sol\":2565:2566  3 */\n              0x03\n                /* \"contracts/senior project.sol\":2554:2562  deadline */\n              dup1\n              sload\n                /* \"contracts/senior project.sol\":2554:2566  deadline + 3 */\n              tag_58\n              swap2\n              swap1\n              tag_59\n              jump\t// in\n            tag_58:\n              pop\n                /* \"contracts/senior project.sol\":2577:2586  EXcounter */\n              0x07\n              0x00\n                /* \"contracts/senior project.sol\":2577:2588  EXcounter++ */\n              dup2\n              sload\n              dup1\n              swap3\n              swap2\n              swap1\n              tag_60\n              swap1\n              tag_61\n              jump\t// in\n            tag_60:\n              swap2\n              swap1\n              pop\n              sstore\n              pop\n                /* \"contracts/senior project.sol\":2525:2600  if(EXcounter == 0){... */\n            tag_57:\n                /* \"contracts/senior project.sol\":2445:2607  function extendTime() public {... */\n              jump\t// out\n                /* \"contracts/senior project.sol\":772:1083  function donate() public payable{... */\n            tag_42:\n                /* \"contracts/senior project.sol\":849:858  msg.value */\n              callvalue\n                /* \"contracts/senior project.sol\":815:823  balances */\n              0x05\n                /* \"contracts/senior project.sol\":815:835  balances[msg.sender] */\n              0x00\n                /* \"contracts/senior project.sol\":824:834  msg.sender */\n              caller\n                /* \"contracts/senior project.sol\":815:835  balances[msg.sender] */\n              0xffffffffffffffffffffffffffffffffffffffff\n              and\n              0xffffffffffffffffffffffffffffffffffffffff\n              and\n              dup2\n              mstore\n              0x20\n              add\n              swap1\n              dup2\n              mstore\n              0x20\n              add\n              0x00\n              keccak256\n                /* \"contracts/senior project.sol\":815:845  balances[msg.sender].totalDono */\n              0x00\n              add\n              0x00\n                /* \"contracts/senior project.sol\":815:858  balances[msg.sender].totalDono += msg.value */\n              dup3\n              dup3\n              sload\n              tag_63\n              swap2\n              swap1\n              tag_59\n              jump\t// in\n            tag_63:\n              swap3\n              pop\n              pop\n              dup2\n              swap1\n              sstore\n              pop\n                /* \"contracts/senior project.sol\":904:913  msg.value */\n              callvalue\n                /* \"contracts/senior project.sol\":869:877  balances */\n              0x05\n                /* \"contracts/senior project.sol\":869:889  balances[msg.sender] */\n              0x00\n                /* \"contracts/senior project.sol\":878:888  msg.sender */\n              caller\n                /* \"contracts/senior project.sol\":869:889  balances[msg.sender] */\n              0xffffffffffffffffffffffffffffffffffffffff\n              and\n              0xffffffffffffffffffffffffffffffffffffffff\n              and\n              dup2\n              mstore\n              0x20\n              add\n              swap1\n              dup2\n              mstore\n              0x20\n              add\n              0x00\n              keccak256\n                /* \"contracts/senior project.sol\":869:900  balances[msg.sender].returnable */\n              0x02\n              add\n              0x00\n                /* \"contracts/senior project.sol\":869:913  balances[msg.sender].returnable += msg.value */\n              dup3\n              dup3\n              sload\n              tag_64\n              swap2\n              swap1\n              tag_59\n              jump\t// in\n            tag_64:\n              swap3\n              pop\n              pop\n              dup2\n              swap1\n              sstore\n              pop\n                /* \"contracts/senior project.sol\":964:972  Dcounter */\n              0x01\n              0x00\n                /* \"contracts/senior project.sol\":964:974  Dcounter++ */\n              dup2\n              sload\n              dup1\n              swap3\n              swap2\n              swap1\n              tag_65\n              swap1\n              tag_61\n              jump\t// in\n            tag_65:\n              swap2\n              swap1\n              pop\n              sstore\n                /* \"contracts/senior project.sol\":924:932  balances */\n              0x05\n                /* \"contracts/senior project.sol\":924:944  balances[msg.sender] */\n              0x00\n                /* \"contracts/senior project.sol\":933:943  msg.sender */\n              caller\n                /* \"contracts/senior project.sol\":924:944  balances[msg.sender] */\n              0xffffffffffffffffffffffffffffffffffffffff\n              and\n              0xffffffffffffffffffffffffffffffffffffffff\n              and\n              dup2\n              mstore\n              0x20\n              add\n              swap1\n              dup2\n              mstore\n              0x20\n              add\n              0x00\n              keccak256\n                /* \"contracts/senior project.sol\":924:961  balances[msg.sender].donorListPointer */\n              0x03\n              add\n                /* \"contracts/senior project.sol\":924:974  balances[msg.sender].donorListPointer = Dcounter++ */\n              dup2\n              swap1\n              sstore\n              pop\n                /* \"contracts/senior project.sol\":985:994  donorList */\n              0x06\n                /* \"contracts/senior project.sol\":1008:1018  msg.sender */\n              caller\n                /* \"contracts/senior project.sol\":985:1020  donorList.push(payable(msg.sender)) */\n              swap1\n              dup1\n              0x01\n              dup2\n              sload\n              add\n              dup1\n              dup3\n              sstore\n              dup1\n              swap2\n              pop\n              pop\n              0x01\n              swap1\n              sub\n              swap1\n              0x00\n              mstore\n              keccak256(0x00, 0x20)\n              add\n              0x00\n              swap1\n              swap2\n              swap1\n              swap2\n              swap1\n              swap2\n              0x0100\n              exp\n              dup2\n              sload\n              dup2\n              0xffffffffffffffffffffffffffffffffffffffff\n              mul\n              not\n              and\n              swap1\n              dup4\n              0xffffffffffffffffffffffffffffffffffffffff\n              and\n              mul\n              or\n              swap1\n              sstore\n              pop\n                /* \"contracts/senior project.sol\":1036:1075  LogReceivedFunds(msg.sender, msg.value) */\n              0x81d2c188629cc4a1c694d285150cb5fa3dde3157a2684460d3ac7a1e331f6164\n                /* \"contracts/senior project.sol\":1053:1063  msg.sender */\n              caller\n                /* \"contracts/senior project.sol\":1065:1074  msg.value */\n              callvalue\n                /* \"contracts/senior project.sol\":1036:1075  LogReceivedFunds(msg.sender, msg.value) */\n              mload(0x40)\n              tag_67\n              swap3\n              swap2\n              swap1\n              tag_51\n              jump\t// in\n            tag_67:\n              mload(0x40)\n              dup1\n              swap2\n              sub\n              swap1\n              log1\n                /* \"contracts/senior project.sol\":772:1083  function donate() public payable{... */\n              jump\t// out\n                /* \"#utility.yul\":88:205   */\n            tag_69:\n                /* \"#utility.yul\":197:198   */\n              0x00\n                /* \"#utility.yul\":194:195   */\n              dup1\n                /* \"#utility.yul\":187:199   */\n              revert\n                /* \"#utility.yul\":334:460   */\n            tag_71:\n                /* \"#utility.yul\":371:378   */\n              0x00\n                /* \"#utility.yul\":411:453   */\n              0xffffffffffffffffffffffffffffffffffffffff\n                /* \"#utility.yul\":404:409   */\n              dup3\n                /* \"#utility.yul\":400:454   */\n              and\n                /* \"#utility.yul\":389:454   */\n              swap1\n              pop\n                /* \"#utility.yul\":334:460   */\n              swap2\n              swap1\n              pop\n              jump\t// out\n                /* \"#utility.yul\":466:562   */\n            tag_72:\n                /* \"#utility.yul\":503:510   */\n              0x00\n                /* \"#utility.yul\":532:556   */\n              tag_89\n                /* \"#utility.yul\":550:555   */\n              dup3\n                /* \"#utility.yul\":532:556   */\n              tag_71\n              jump\t// in\n            tag_89:\n                /* \"#utility.yul\":521:556   */\n              swap1\n              pop\n                /* \"#utility.yul\":466:562   */\n              swap2\n              swap1\n              pop\n              jump\t// out\n                /* \"#utility.yul\":568:690   */\n            tag_73:\n                /* \"#utility.yul\":641:665   */\n              tag_91\n                /* \"#utility.yul\":659:664   */\n              dup2\n                /* \"#utility.yul\":641:665   */\n              tag_72\n              jump\t// in\n            tag_91:\n                /* \"#utility.yul\":634:639   */\n              dup2\n                /* \"#utility.yul\":631:666   */\n              eq\n                /* \"#utility.yul\":621:684   */\n              tag_92\n              jumpi\n                /* \"#utility.yul\":680:681   */\n              0x00\n                /* \"#utility.yul\":677:678   */\n              dup1\n                /* \"#utility.yul\":670:682   */\n              revert\n                /* \"#utility.yul\":621:684   */\n            tag_92:\n                /* \"#utility.yul\":568:690   */\n              pop\n              jump\t// out\n                /* \"#utility.yul\":696:835   */\n            tag_74:\n                /* \"#utility.yul\":742:747   */\n              0x00\n                /* \"#utility.yul\":780:786   */\n              dup2\n                /* \"#utility.yul\":767:787   */\n              calldataload\n                /* \"#utility.yul\":758:787   */\n              swap1\n              pop\n                /* \"#utility.yul\":796:829   */\n              tag_94\n                /* \"#utility.yul\":823:828   */\n              dup2\n                /* \"#utility.yul\":796:829   */\n              tag_73\n              jump\t// in\n            tag_94:\n                /* \"#utility.yul\":696:835   */\n              swap3\n              swap2\n              pop\n              pop\n              jump\t// out\n                /* \"#utility.yul\":841:1170   */\n            tag_14:\n                /* \"#utility.yul\":900:906   */\n              0x00\n                /* \"#utility.yul\":949:951   */\n              0x20\n                /* \"#utility.yul\":937:946   */\n              dup3\n                /* \"#utility.yul\":928:935   */\n              dup5\n                /* \"#utility.yul\":924:947   */\n              sub\n                /* \"#utility.yul\":920:952   */\n              slt\n                /* \"#utility.yul\":917:1036   */\n              iszero\n              tag_96\n              jumpi\n                /* \"#utility.yul\":955:1034   */\n              tag_97\n              tag_69\n              jump\t// in\n            tag_97:\n                /* \"#utility.yul\":917:1036   */\n            tag_96:\n                /* \"#utility.yul\":1075:1076   */\n              0x00\n                /* \"#utility.yul\":1100:1153   */\n              tag_98\n                /* \"#utility.yul\":1145:1152   */\n              dup5\n                /* \"#utility.yul\":1136:1142   */\n              dup3\n                /* \"#utility.yul\":1125:1134   */\n              dup6\n                /* \"#utility.yul\":1121:1143   */\n              add\n                /* \"#utility.yul\":1100:1153   */\n              tag_74\n              jump\t// in\n            tag_98:\n                /* \"#utility.yul\":1090:1153   */\n              swap2\n              pop\n                /* \"#utility.yul\":1046:1163   */\n              pop\n                /* \"#utility.yul\":841:1170   */\n              swap3\n              swap2\n              pop\n              pop\n              jump\t// out\n                /* \"#utility.yul\":1176:1253   */\n            tag_75:\n                /* \"#utility.yul\":1213:1220   */\n              0x00\n                /* \"#utility.yul\":1242:1247   */\n              dup2\n                /* \"#utility.yul\":1231:1247   */\n              swap1\n              pop\n                /* \"#utility.yul\":1176:1253   */\n              swap2\n              swap1\n              pop\n              jump\t// out\n                /* \"#utility.yul\":1259:1377   */\n            tag_76:\n                /* \"#utility.yul\":1346:1370   */\n              tag_101\n                /* \"#utility.yul\":1364:1369   */\n              dup2\n                /* \"#utility.yul\":1346:1370   */\n              tag_75\n              jump\t// in\n            tag_101:\n                /* \"#utility.yul\":1341:1344   */\n              dup3\n                /* \"#utility.yul\":1334:1371   */\n              mstore\n                /* \"#utility.yul\":1259:1377   */\n              pop\n              pop\n              jump\t// out\n                /* \"#utility.yul\":1383:1936   */\n            tag_17:\n                /* \"#utility.yul\":1560:1564   */\n              0x00\n                /* \"#utility.yul\":1598:1601   */\n              0x80\n                /* \"#utility.yul\":1587:1596   */\n              dup3\n                /* \"#utility.yul\":1583:1602   */\n              add\n                /* \"#utility.yul\":1575:1602   */\n              swap1\n              pop\n                /* \"#utility.yul\":1612:1683   */\n              tag_103\n                /* \"#utility.yul\":1680:1681   */\n              0x00\n                /* \"#utility.yul\":1669:1678   */\n              dup4\n                /* \"#utility.yul\":1665:1682   */\n              add\n                /* \"#utility.yul\":1656:1662   */\n              dup8\n                /* \"#utility.yul\":1612:1683   */\n              tag_76\n              jump\t// in\n            tag_103:\n                /* \"#utility.yul\":1693:1765   */\n              tag_104\n                /* \"#utility.yul\":1761:1763   */\n              0x20\n                /* \"#utility.yul\":1750:1759   */\n              dup4\n                /* \"#utility.yul\":1746:1764   */\n              add\n                /* \"#utility.yul\":1737:1743   */\n              dup7\n                /* \"#utility.yul\":1693:1765   */\n              tag_76\n              jump\t// in\n            tag_104:\n                /* \"#utility.yul\":1775:1847   */\n              tag_105\n                /* \"#utility.yul\":1843:1845   */\n              0x40\n                /* \"#utility.yul\":1832:1841   */\n              dup4\n                /* \"#utility.yul\":1828:1846   */\n              add\n                /* \"#utility.yul\":1819:1825   */\n              dup6\n                /* \"#utility.yul\":1775:1847   */\n              tag_76\n              jump\t// in\n            tag_105:\n                /* \"#utility.yul\":1857:1929   */\n              tag_106\n                /* \"#utility.yul\":1925:1927   */\n              0x60\n                /* \"#utility.yul\":1914:1923   */\n              dup4\n                /* \"#utility.yul\":1910:1928   */\n              add\n                /* \"#utility.yul\":1901:1907   */\n              dup5\n                /* \"#utility.yul\":1857:1929   */\n              tag_76\n              jump\t// in\n            tag_106:\n                /* \"#utility.yul\":1383:1936   */\n              swap6\n              swap5\n              pop\n              pop\n              pop\n              pop\n              pop\n              jump\t// out\n                /* \"#utility.yul\":1942:2046   */\n            tag_77:\n                /* \"#utility.yul\":1987:1994   */\n              0x00\n                /* \"#utility.yul\":2016:2040   */\n              tag_108\n                /* \"#utility.yul\":2034:2039   */\n              dup3\n                /* \"#utility.yul\":2016:2040   */\n              tag_71\n              jump\t// in\n            tag_108:\n                /* \"#utility.yul\":2005:2040   */\n              swap1\n              pop\n                /* \"#utility.yul\":1942:2046   */\n              swap2\n              swap1\n              pop\n              jump\t// out\n                /* \"#utility.yul\":2052:2194   */\n            tag_78:\n                /* \"#utility.yul\":2155:2187   */\n              tag_110\n                /* \"#utility.yul\":2181:2186   */\n              dup2\n                /* \"#utility.yul\":2155:2187   */\n              tag_77\n              jump\t// in\n            tag_110:\n                /* \"#utility.yul\":2150:2153   */\n              dup3\n                /* \"#utility.yul\":2143:2188   */\n              mstore\n                /* \"#utility.yul\":2052:2194   */\n              pop\n              pop\n              jump\t// out\n                /* \"#utility.yul\":2200:2454   */\n            tag_25:\n                /* \"#utility.yul\":2309:2313   */\n              0x00\n                /* \"#utility.yul\":2347:2349   */\n              0x20\n                /* \"#utility.yul\":2336:2345   */\n              dup3\n                /* \"#utility.yul\":2332:2350   */\n              add\n                /* \"#utility.yul\":2324:2350   */\n              swap1\n              pop\n                /* \"#utility.yul\":2360:2447   */\n              tag_112\n                /* \"#utility.yul\":2444:2445   */\n              0x00\n                /* \"#utility.yul\":2433:2442   */\n              dup4\n                /* \"#utility.yul\":2429:2446   */\n              add\n                /* \"#utility.yul\":2420:2426   */\n              dup5\n                /* \"#utility.yul\":2360:2447   */\n              tag_78\n              jump\t// in\n            tag_112:\n                /* \"#utility.yul\":2200:2454   */\n              swap3\n              swap2\n              pop\n              pop\n              jump\t// out\n                /* \"#utility.yul\":2460:2582   */\n            tag_79:\n                /* \"#utility.yul\":2533:2557   */\n              tag_114\n                /* \"#utility.yul\":2551:2556   */\n              dup2\n                /* \"#utility.yul\":2533:2557   */\n              tag_75\n              jump\t// in\n            tag_114:\n                /* \"#utility.yul\":2526:2531   */\n              dup2\n                /* \"#utility.yul\":2523:2558   */\n              eq\n                /* \"#utility.yul\":2513:2576   */\n              tag_115\n              jumpi\n                /* \"#utility.yul\":2572:2573   */\n              0x00\n                /* \"#utility.yul\":2569:2570   */\n              dup1\n                /* \"#utility.yul\":2562:2574   */\n              revert\n                /* \"#utility.yul\":2513:2576   */\n            tag_115:\n                /* \"#utility.yul\":2460:2582   */\n              pop\n              jump\t// out\n                /* \"#utility.yul\":2588:2727   */\n            tag_80:\n                /* \"#utility.yul\":2634:2639   */\n              0x00\n                /* \"#utility.yul\":2672:2678   */\n              dup2\n                /* \"#utility.yul\":2659:2679   */\n              calldataload\n                /* \"#utility.yul\":2650:2679   */\n              swap1\n              pop\n                /* \"#utility.yul\":2688:2721   */\n              tag_117\n                /* \"#utility.yul\":2715:2720   */\n              dup2\n                /* \"#utility.yul\":2688:2721   */\n              tag_79\n              jump\t// in\n            tag_117:\n                /* \"#utility.yul\":2588:2727   */\n              swap3\n              swap2\n              pop\n              pop\n              jump\t// out\n                /* \"#utility.yul\":2733:3062   */\n            tag_29:\n                /* \"#utility.yul\":2792:2798   */\n              0x00\n                /* \"#utility.yul\":2841:2843   */\n              0x20\n                /* \"#utility.yul\":2829:2838   */\n              dup3\n                /* \"#utility.yul\":2820:2827   */\n              dup5\n                /* \"#utility.yul\":2816:2839   */\n              sub\n                /* \"#utility.yul\":2812:2844   */\n              slt\n                /* \"#utility.yul\":2809:2928   */\n              iszero\n              tag_119\n              jumpi\n                /* \"#utility.yul\":2847:2926   */\n              tag_120\n              tag_69\n              jump\t// in\n            tag_120:\n                /* \"#utility.yul\":2809:2928   */\n            tag_119:\n                /* \"#utility.yul\":2967:2968   */\n              0x00\n                /* \"#utility.yul\":2992:3045   */\n              tag_121\n                /* \"#utility.yul\":3037:3044   */\n              dup5\n                /* \"#utility.yul\":3028:3034   */\n              dup3\n                /* \"#utility.yul\":3017:3026   */\n              dup6\n                /* \"#utility.yul\":3013:3035   */\n              add\n                /* \"#utility.yul\":2992:3045   */\n              tag_80\n              jump\t// in\n            tag_121:\n                /* \"#utility.yul\":2982:3045   */\n              swap2\n              pop\n                /* \"#utility.yul\":2938:3055   */\n              pop\n                /* \"#utility.yul\":2733:3062   */\n              swap3\n              swap2\n              pop\n              pop\n              jump\t// out\n                /* \"#utility.yul\":3068:3186   */\n            tag_81:\n                /* \"#utility.yul\":3155:3179   */\n              tag_123\n                /* \"#utility.yul\":3173:3178   */\n              dup2\n                /* \"#utility.yul\":3155:3179   */\n              tag_72\n              jump\t// in\n            tag_123:\n                /* \"#utility.yul\":3150:3153   */\n              dup3\n                /* \"#utility.yul\":3143:3180   */\n              mstore\n                /* \"#utility.yul\":3068:3186   */\n              pop\n              pop\n              jump\t// out\n                /* \"#utility.yul\":3192:3524   */\n            tag_51:\n                /* \"#utility.yul\":3313:3317   */\n              0x00\n                /* \"#utility.yul\":3351:3353   */\n              0x40\n                /* \"#utility.yul\":3340:3349   */\n              dup3\n                /* \"#utility.yul\":3336:3354   */\n              add\n                /* \"#utility.yul\":3328:3354   */\n              swap1\n              pop\n                /* \"#utility.yul\":3364:3435   */\n              tag_125\n                /* \"#utility.yul\":3432:3433   */\n              0x00\n                /* \"#utility.yul\":3421:3430   */\n              dup4\n                /* \"#utility.yul\":3417:3434   */\n              add\n                /* \"#utility.yul\":3408:3414   */\n              dup6\n                /* \"#utility.yul\":3364:3435   */\n              tag_81\n              jump\t// in\n            tag_125:\n                /* \"#utility.yul\":3445:3517   */\n              tag_126\n                /* \"#utility.yul\":3513:3515   */\n              0x20\n                /* \"#utility.yul\":3502:3511   */\n              dup4\n                /* \"#utility.yul\":3498:3516   */\n              add\n                /* \"#utility.yul\":3489:3495   */\n              dup5\n                /* \"#utility.yul\":3445:3517   */\n              tag_76\n              jump\t// in\n            tag_126:\n                /* \"#utility.yul\":3192:3524   */\n              swap4\n              swap3\n              pop\n              pop\n              pop\n              jump\t// out\n                /* \"#utility.yul\":3530:3710   */\n            tag_82:\n                /* \"#utility.yul\":3578:3655   */\n              0x4e487b7100000000000000000000000000000000000000000000000000000000\n                /* \"#utility.yul\":3575:3576   */\n              0x00\n                /* \"#utility.yul\":3568:3656   */\n              mstore\n                /* \"#utility.yul\":3675:3679   */\n              0x11\n                /* \"#utility.yul\":3672:3673   */\n              0x04\n                /* \"#utility.yul\":3665:3680   */\n              mstore\n                /* \"#utility.yul\":3699:3703   */\n              0x24\n                /* \"#utility.yul\":3696:3697   */\n              0x00\n                /* \"#utility.yul\":3689:3704   */\n              revert\n                /* \"#utility.yul\":3716:3907   */\n            tag_59:\n                /* \"#utility.yul\":3756:3759   */\n              0x00\n                /* \"#utility.yul\":3775:3795   */\n              tag_129\n                /* \"#utility.yul\":3793:3794   */\n              dup3\n                /* \"#utility.yul\":3775:3795   */\n              tag_75\n              jump\t// in\n            tag_129:\n                /* \"#utility.yul\":3770:3795   */\n              swap2\n              pop\n                /* \"#utility.yul\":3809:3829   */\n              tag_130\n                /* \"#utility.yul\":3827:3828   */\n              dup4\n                /* \"#utility.yul\":3809:3829   */\n              tag_75\n              jump\t// in\n            tag_130:\n                /* \"#utility.yul\":3804:3829   */\n              swap3\n              pop\n                /* \"#utility.yul\":3852:3853   */\n              dup3\n                /* \"#utility.yul\":3849:3850   */\n              dup3\n                /* \"#utility.yul\":3845:3854   */\n              add\n                /* \"#utility.yul\":3838:3854   */\n              swap1\n              pop\n                /* \"#utility.yul\":3873:3876   */\n              dup1\n                /* \"#utility.yul\":3870:3871   */\n              dup3\n                /* \"#utility.yul\":3867:3877   */\n              gt\n                /* \"#utility.yul\":3864:3900   */\n              iszero\n              tag_131\n              jumpi\n                /* \"#utility.yul\":3880:3898   */\n              tag_132\n              tag_82\n              jump\t// in\n            tag_132:\n                /* \"#utility.yul\":3864:3900   */\n            tag_131:\n                /* \"#utility.yul\":3716:3907   */\n              swap3\n              swap2\n              pop\n              pop\n              jump\t// out\n                /* \"#utility.yul\":3913:4146   */\n            tag_61:\n                /* \"#utility.yul\":3952:3955   */\n              0x00\n                /* \"#utility.yul\":3975:3999   */\n              tag_134\n                /* \"#utility.yul\":3993:3998   */\n              dup3\n                /* \"#utility.yul\":3975:3999   */\n              tag_75\n              jump\t// in\n            tag_134:\n                /* \"#utility.yul\":3966:3999   */\n              swap2\n              pop\n                /* \"#utility.yul\":4021:4087   */\n              0xffffffffffffffffffffffffffffffffffffffffffffffffffffffffffffffff\n                /* \"#utility.yul\":4014:4019   */\n              dup3\n                /* \"#utility.yul\":4011:4088   */\n              sub\n                /* \"#utility.yul\":4008:4111   */\n              tag_135\n              jumpi\n                /* \"#utility.yul\":4091:4109   */\n              tag_136\n              tag_82\n              jump\t// in\n            tag_136:\n                /* \"#utility.yul\":4008:4111   */\n            tag_135:\n                /* \"#utility.yul\":4138:4139   */\n              0x01\n                /* \"#utility.yul\":4131:4136   */\n              dup3\n                /* \"#utility.yul\":4127:4140   */\n              add\n                /* \"#utility.yul\":4120:4140   */\n              swap1\n              pop\n                /* \"#utility.yul\":3913:4146   */\n              swap2\n              swap1\n              pop\n              jump\t// out\n\n            auxdata: 0xa26469706673582212200976b31e8496e75b1b9a4100476854d47b5093312faaa1c4daea5b9500dccf9464736f6c63430008100033\n        }\n    }\n\n    auxdata: 0xa264697066735822122020db761c6d62b74ea9c30e397947fb1578154692517cd3c798e5ff045b02625e64736f6c63430008100033\n}\n",
				"bytecode": {
					"linkReferences": {},
					"object": "60806040526000600460006101000a81548160ff021916908315150217905550600060075534801561003057600080fd5b506113bd806100406000396000f3fe6080604052600436106100865760003560e01c80635eed3dcb116100595780635eed3dcb146101365780638bf963b6146101735780638d68cf591461018a578063abb6ae89146101a1578063ed88c68e146101b857610086565b806327e235e31461008b57806339788bc8146100cb5780634956eaf0146100e2578063521eb2731461010b575b600080fd5b34801561009757600080fd5b506100b260048036038101906100ad91906107b0565b6101c2565b6040516100c294939291906107f6565b60405180910390f35b3480156100d757600080fd5b506100e06101f2565b005b3480156100ee57600080fd5b50610109600480360381019061010491906108a5565b610267565b005b34801561011757600080fd5b506101206102e7565b60405161012d91906108f4565b60405180910390f35b34801561014257600080fd5b5061015d6004803603810190610158919061090f565b61030b565b60405161016a91906108f4565b60405180910390f35b34801561017f57600080fd5b5061018861034a565b005b34801561019657600080fd5b5061019f610414565b005b3480156101ad57600080fd5b506101b6610507565b005b6101c0610593565b005b60056020528060005260406000206000915090508060000154908060010154908060020154908060030154905084565b60008054906101000a900473ffffffffffffffffffffffffffffffffffffffff1673ffffffffffffffffffffffffffffffffffffffff163373ffffffffffffffffffffffffffffffffffffffff161461024a57600080fd5b6001600460006101000a81548160ff021916908315150217905550565b600060405161027590610740565b604051809103906000f080158015610291573d6000803e3d6000fd5b509050826000806101000a81548173ffffffffffffffffffffffffffffffffffffffff021916908373ffffffffffffffffffffffffffffffffffffffff1602179055504260028190555081600381905550505050565b60008054906101000a900473ffffffffffffffffffffffffffffffffffffffff1681565b6006818154811061031b57600080fd5b906000526020600020016000915054906101000a900473ffffffffffffffffffffffffffffffffffffffff1681565b6000600560003373ffffffffffffffffffffffffffffffffffffffff1673ffffffffffffffffffffffffffffffffffffffff1681526020019081526020016000206002015490503373ffffffffffffffffffffffffffffffffffffffff166108fc829081150290604051600060405180830381858888f193505050501580156103d7573d6000803e3d6000fd5b507fe0e5873eb9d996d2ab087b071a9a50522121c02b43308c8728c06739f52b3f87338260405161040992919061094b565b60405180910390a150565b60008054906101000a900473ffffffffffffffffffffffffffffffffffffffff1673ffffffffffffffffffffffffffffffffffffffff166108fc600560003373ffffffffffffffffffffffffffffffffffffffff1673ffffffffffffffffffffffffffffffffffffffff168152602001908152602001600020600001549081150290604051600060405180830381858888f193505050501580156104bc573d6000803e3d6000fd5b506000600560003373ffffffffffffffffffffffffffffffffffffffff1673ffffffffffffffffffffffffffffffffffffffff16815260200190815260200160002060020181905550565b60008054906101000a900473ffffffffffffffffffffffffffffffffffffffff1673ffffffffffffffffffffffffffffffffffffffff163373ffffffffffffffffffffffffffffffffffffffff161461055f57600080fd5b600060075403610591576003805461057791906109a3565b506007600081548092919061058b906109d7565b91905055505b565b34600560003373ffffffffffffffffffffffffffffffffffffffff1673ffffffffffffffffffffffffffffffffffffffff16815260200190815260200160002060000160008282546105e591906109a3565b9250508190555034600560003373ffffffffffffffffffffffffffffffffffffffff1673ffffffffffffffffffffffffffffffffffffffff168152602001908152602001600020600201600082825461063e91906109a3565b9250508190555060016000815480929190610658906109d7565b91905055600560003373ffffffffffffffffffffffffffffffffffffffff1673ffffffffffffffffffffffffffffffffffffffff168152602001908152602001600020600301819055506006339080600181540180825580915050600190039060005260206000200160009091909190916101000a81548173ffffffffffffffffffffffffffffffffffffffff021916908373ffffffffffffffffffffffffffffffffffffffff1602179055507f81d2c188629cc4a1c694d285150cb5fa3dde3157a2684460d3ac7a1e331f6164333460405161073692919061094b565b60405180910390a1565b61096880610a2083390190565b600080fd5b600073ffffffffffffffffffffffffffffffffffffffff82169050919050565b600061077d82610752565b9050919050565b61078d81610772565b811461079857600080fd5b50565b6000813590506107aa81610784565b92915050565b6000602082840312156107c6576107c561074d565b5b60006107d48482850161079b565b91505092915050565b6000819050919050565b6107f0816107dd565b82525050565b600060808201905061080b60008301876107e7565b61081860208301866107e7565b61082560408301856107e7565b61083260608301846107e7565b95945050505050565b600061084682610752565b9050919050565b6108568161083b565b811461086157600080fd5b50565b6000813590506108738161084d565b92915050565b610882816107dd565b811461088d57600080fd5b50565b60008135905061089f81610879565b92915050565b600080604083850312156108bc576108bb61074d565b5b60006108ca85828601610864565b92505060206108db85828601610890565b9150509250929050565b6108ee8161083b565b82525050565b600060208201905061090960008301846108e5565b92915050565b6000602082840312156109255761092461074d565b5b600061093384828501610890565b91505092915050565b61094581610772565b82525050565b6000604082019050610960600083018561093c565b61096d60208301846107e7565b9392505050565b7f4e487b7100000000000000000000000000000000000000000000000000000000600052601160045260246000fd5b60006109ae826107dd565b91506109b9836107dd565b92508282019050808211156109d1576109d0610974565b5b92915050565b60006109e2826107dd565b91507fffffffffffffffffffffffffffffffffffffffffffffffffffffffffffffffff8203610a1457610a13610974565b5b60018201905091905056fe60806040526000600460006101000a81548160ff021916908315150217905550600060075534801561003057600080fd5b50610928806100406000396000f3fe60806040526004361061007b5760003560e01c80638bf963b61161004e5780638bf963b61461013f5780638d68cf5914610156578063abb6ae891461016d578063ed88c68e146101845761007b565b806327e235e31461008057806339788bc8146100c0578063521eb273146100d75780635eed3dcb14610102575b600080fd5b34801561008c57600080fd5b506100a760048036038101906100a291906106ef565b61018e565b6040516100b79493929190610735565b60405180910390f35b3480156100cc57600080fd5b506100d56101be565b005b3480156100e357600080fd5b506100ec610233565b6040516100f9919061079b565b60405180910390f35b34801561010e57600080fd5b50610129600480360381019061012491906107e2565b610257565b604051610136919061079b565b60405180910390f35b34801561014b57600080fd5b50610154610296565b005b34801561016257600080fd5b5061016b610360565b005b34801561017957600080fd5b50610182610453565b005b61018c6104df565b005b60056020528060005260406000206000915090508060000154908060010154908060020154908060030154905084565b60008054906101000a900473ffffffffffffffffffffffffffffffffffffffff1673ffffffffffffffffffffffffffffffffffffffff163373ffffffffffffffffffffffffffffffffffffffff161461021657600080fd5b6001600460006101000a81548160ff021916908315150217905550565b60008054906101000a900473ffffffffffffffffffffffffffffffffffffffff1681565b6006818154811061026757600080fd5b906000526020600020016000915054906101000a900473ffffffffffffffffffffffffffffffffffffffff1681565b6000600560003373ffffffffffffffffffffffffffffffffffffffff1673ffffffffffffffffffffffffffffffffffffffff1681526020019081526020016000206002015490503373ffffffffffffffffffffffffffffffffffffffff166108fc829081150290604051600060405180830381858888f19350505050158015610323573d6000803e3d6000fd5b507fe0e5873eb9d996d2ab087b071a9a50522121c02b43308c8728c06739f52b3f87338260405161035592919061081e565b60405180910390a150565b60008054906101000a900473ffffffffffffffffffffffffffffffffffffffff1673ffffffffffffffffffffffffffffffffffffffff166108fc600560003373ffffffffffffffffffffffffffffffffffffffff1673ffffffffffffffffffffffffffffffffffffffff168152602001908152602001600020600001549081150290604051600060405180830381858888f19350505050158015610408573d6000803e3d6000fd5b506000600560003373ffffffffffffffffffffffffffffffffffffffff1673ffffffffffffffffffffffffffffffffffffffff16815260200190815260200160002060020181905550565b60008054906101000a900473ffffffffffffffffffffffffffffffffffffffff1673ffffffffffffffffffffffffffffffffffffffff163373ffffffffffffffffffffffffffffffffffffffff16146104ab57600080fd5b6000600754036104dd57600380546104c39190610876565b50600760008154809291906104d7906108aa565b91905055505b565b34600560003373ffffffffffffffffffffffffffffffffffffffff1673ffffffffffffffffffffffffffffffffffffffff16815260200190815260200160002060000160008282546105319190610876565b9250508190555034600560003373ffffffffffffffffffffffffffffffffffffffff1673ffffffffffffffffffffffffffffffffffffffff168152602001908152602001600020600201600082825461058a9190610876565b92505081905550600160008154809291906105a4906108aa565b91905055600560003373ffffffffffffffffffffffffffffffffffffffff1673ffffffffffffffffffffffffffffffffffffffff168152602001908152602001600020600301819055506006339080600181540180825580915050600190039060005260206000200160009091909190916101000a81548173ffffffffffffffffffffffffffffffffffffffff021916908373ffffffffffffffffffffffffffffffffffffffff1602179055507f81d2c188629cc4a1c694d285150cb5fa3dde3157a2684460d3ac7a1e331f6164333460405161068292919061081e565b60405180910390a1565b600080fd5b600073ffffffffffffffffffffffffffffffffffffffff82169050919050565b60006106bc82610691565b9050919050565b6106cc816106b1565b81146106d757600080fd5b50565b6000813590506106e9816106c3565b92915050565b6000602082840312156107055761070461068c565b5b6000610713848285016106da565b91505092915050565b6000819050919050565b61072f8161071c565b82525050565b600060808201905061074a6000830187610726565b6107576020830186610726565b6107646040830185610726565b6107716060830184610726565b95945050505050565b600061078582610691565b9050919050565b6107958161077a565b82525050565b60006020820190506107b0600083018461078c565b92915050565b6107bf8161071c565b81146107ca57600080fd5b50565b6000813590506107dc816107b6565b92915050565b6000602082840312156107f8576107f761068c565b5b6000610806848285016107cd565b91505092915050565b610818816106b1565b82525050565b6000604082019050610833600083018561080f565b6108406020830184610726565b9392505050565b7f4e487b7100000000000000000000000000000000000000000000000000000000600052601160045260246000fd5b60006108818261071c565b915061088c8361071c565b92508282019050808211156108a4576108a3610847565b5b92915050565b60006108b58261071c565b91507fffffffffffffffffffffffffffffffffffffffffffffffffffffffffffffffff82036108e7576108e6610847565b5b60018201905091905056fea26469706673582212200976b31e8496e75b1b9a4100476854d47b5093312faaa1c4daea5b9500dccf9464736f6c63430008100033a264697066735822122020db761c6d62b74ea9c30e397947fb1578154692517cd3c798e5ff045b02625e64736f6c63430008100033",
					"opcodes": "PUSH1 0x80 PUSH1 0x40 MSTORE PUSH1 0x0 PUSH1 0x4 PUSH1 0x0 PUSH2 0x100 EXP DUP2 SLOAD DUP2 PUSH1 0xFF MUL NOT AND SWAP1 DUP4 ISZERO ISZERO MUL OR SWAP1 SSTORE POP PUSH1 0x0 PUSH1 0x7 SSTORE CALLVALUE DUP1 ISZERO PUSH2 0x30 JUMPI PUSH1 0x0 DUP1 REVERT JUMPDEST POP PUSH2 0x13BD DUP1 PUSH2 0x40 PUSH1 0x0 CODECOPY PUSH1 0x0 RETURN INVALID PUSH1 0x80 PUSH1 0x40 MSTORE PUSH1 0x4 CALLDATASIZE LT PUSH2 0x86 JUMPI PUSH1 0x0 CALLDATALOAD PUSH1 0xE0 SHR DUP1 PUSH4 0x5EED3DCB GT PUSH2 0x59 JUMPI DUP1 PUSH4 0x5EED3DCB EQ PUSH2 0x136 JUMPI DUP1 PUSH4 0x8BF963B6 EQ PUSH2 0x173 JUMPI DUP1 PUSH4 0x8D68CF59 EQ PUSH2 0x18A JUMPI DUP1 PUSH4 0xABB6AE89 EQ PUSH2 0x1A1 JUMPI DUP1 PUSH4 0xED88C68E EQ PUSH2 0x1B8 JUMPI PUSH2 0x86 JUMP JUMPDEST DUP1 PUSH4 0x27E235E3 EQ PUSH2 0x8B JUMPI DUP1 PUSH4 0x39788BC8 EQ PUSH2 0xCB JUMPI DUP1 PUSH4 0x4956EAF0 EQ PUSH2 0xE2 JUMPI DUP1 PUSH4 0x521EB273 EQ PUSH2 0x10B JUMPI JUMPDEST PUSH1 0x0 DUP1 REVERT JUMPDEST CALLVALUE DUP1 ISZERO PUSH2 0x97 JUMPI PUSH1 0x0 DUP1 REVERT JUMPDEST POP PUSH2 0xB2 PUSH1 0x4 DUP1 CALLDATASIZE SUB DUP2 ADD SWAP1 PUSH2 0xAD SWAP2 SWAP1 PUSH2 0x7B0 JUMP JUMPDEST PUSH2 0x1C2 JUMP JUMPDEST PUSH1 0x40 MLOAD PUSH2 0xC2 SWAP5 SWAP4 SWAP3 SWAP2 SWAP1 PUSH2 0x7F6 JUMP JUMPDEST PUSH1 0x40 MLOAD DUP1 SWAP2 SUB SWAP1 RETURN JUMPDEST CALLVALUE DUP1 ISZERO PUSH2 0xD7 JUMPI PUSH1 0x0 DUP1 REVERT JUMPDEST POP PUSH2 0xE0 PUSH2 0x1F2 JUMP JUMPDEST STOP JUMPDEST CALLVALUE DUP1 ISZERO PUSH2 0xEE JUMPI PUSH1 0x0 DUP1 REVERT JUMPDEST POP PUSH2 0x109 PUSH1 0x4 DUP1 CALLDATASIZE SUB DUP2 ADD SWAP1 PUSH2 0x104 SWAP2 SWAP1 PUSH2 0x8A5 JUMP JUMPDEST PUSH2 0x267 JUMP JUMPDEST STOP JUMPDEST CALLVALUE DUP1 ISZERO PUSH2 0x117 JUMPI PUSH1 0x0 DUP1 REVERT JUMPDEST POP PUSH2 0x120 PUSH2 0x2E7 JUMP JUMPDEST PUSH1 0x40 MLOAD PUSH2 0x12D SWAP2 SWAP1 PUSH2 0x8F4 JUMP JUMPDEST PUSH1 0x40 MLOAD DUP1 SWAP2 SUB SWAP1 RETURN JUMPDEST CALLVALUE DUP1 ISZERO PUSH2 0x142 JUMPI PUSH1 0x0 DUP1 REVERT JUMPDEST POP PUSH2 0x15D PUSH1 0x4 DUP1 CALLDATASIZE SUB DUP2 ADD SWAP1 PUSH2 0x158 SWAP2 SWAP1 PUSH2 0x90F JUMP JUMPDEST PUSH2 0x30B JUMP JUMPDEST PUSH1 0x40 MLOAD PUSH2 0x16A SWAP2 SWAP1 PUSH2 0x8F4 JUMP JUMPDEST PUSH1 0x40 MLOAD DUP1 SWAP2 SUB SWAP1 RETURN JUMPDEST CALLVALUE DUP1 ISZERO PUSH2 0x17F JUMPI PUSH1 0x0 DUP1 REVERT JUMPDEST POP PUSH2 0x188 PUSH2 0x34A JUMP JUMPDEST STOP JUMPDEST CALLVALUE DUP1 ISZERO PUSH2 0x196 JUMPI PUSH1 0x0 DUP1 REVERT JUMPDEST POP PUSH2 0x19F PUSH2 0x414 JUMP JUMPDEST STOP JUMPDEST CALLVALUE DUP1 ISZERO PUSH2 0x1AD JUMPI PUSH1 0x0 DUP1 REVERT JUMPDEST POP PUSH2 0x1B6 PUSH2 0x507 JUMP JUMPDEST STOP JUMPDEST PUSH2 0x1C0 PUSH2 0x593 JUMP JUMPDEST STOP JUMPDEST PUSH1 0x5 PUSH1 0x20 MSTORE DUP1 PUSH1 0x0 MSTORE PUSH1 0x40 PUSH1 0x0 KECCAK256 PUSH1 0x0 SWAP2 POP SWAP1 POP DUP1 PUSH1 0x0 ADD SLOAD SWAP1 DUP1 PUSH1 0x1 ADD SLOAD SWAP1 DUP1 PUSH1 0x2 ADD SLOAD SWAP1 DUP1 PUSH1 0x3 ADD SLOAD SWAP1 POP DUP5 JUMP JUMPDEST PUSH1 0x0 DUP1 SLOAD SWAP1 PUSH2 0x100 EXP SWAP1 DIV PUSH20 0xFFFFFFFFFFFFFFFFFFFFFFFFFFFFFFFFFFFFFFFF AND PUSH20 0xFFFFFFFFFFFFFFFFFFFFFFFFFFFFFFFFFFFFFFFF AND CALLER PUSH20 0xFFFFFFFFFFFFFFFFFFFFFFFFFFFFFFFFFFFFFFFF AND EQ PUSH2 0x24A JUMPI PUSH1 0x0 DUP1 REVERT JUMPDEST PUSH1 0x1 PUSH1 0x4 PUSH1 0x0 PUSH2 0x100 EXP DUP2 SLOAD DUP2 PUSH1 0xFF MUL NOT AND SWAP1 DUP4 ISZERO ISZERO MUL OR SWAP1 SSTORE POP JUMP JUMPDEST PUSH1 0x0 PUSH1 0x40 MLOAD PUSH2 0x275 SWAP1 PUSH2 0x740 JUMP JUMPDEST PUSH1 0x40 MLOAD DUP1 SWAP2 SUB SWAP1 PUSH1 0x0 CREATE DUP1 ISZERO DUP1 ISZERO PUSH2 0x291 JUMPI RETURNDATASIZE PUSH1 0x0 DUP1 RETURNDATACOPY RETURNDATASIZE PUSH1 0x0 REVERT JUMPDEST POP SWAP1 POP DUP3 PUSH1 0x0 DUP1 PUSH2 0x100 EXP DUP2 SLOAD DUP2 PUSH20 0xFFFFFFFFFFFFFFFFFFFFFFFFFFFFFFFFFFFFFFFF MUL NOT AND SWAP1 DUP4 PUSH20 0xFFFFFFFFFFFFFFFFFFFFFFFFFFFFFFFFFFFFFFFF AND MUL OR SWAP1 SSTORE POP TIMESTAMP PUSH1 0x2 DUP2 SWAP1 SSTORE POP DUP2 PUSH1 0x3 DUP2 SWAP1 SSTORE POP POP POP POP JUMP JUMPDEST PUSH1 0x0 DUP1 SLOAD SWAP1 PUSH2 0x100 EXP SWAP1 DIV PUSH20 0xFFFFFFFFFFFFFFFFFFFFFFFFFFFFFFFFFFFFFFFF AND DUP2 JUMP JUMPDEST PUSH1 0x6 DUP2 DUP2 SLOAD DUP2 LT PUSH2 0x31B JUMPI PUSH1 0x0 DUP1 REVERT JUMPDEST SWAP1 PUSH1 0x0 MSTORE PUSH1 0x20 PUSH1 0x0 KECCAK256 ADD PUSH1 0x0 SWAP2 POP SLOAD SWAP1 PUSH2 0x100 EXP SWAP1 DIV PUSH20 0xFFFFFFFFFFFFFFFFFFFFFFFFFFFFFFFFFFFFFFFF AND DUP2 JUMP JUMPDEST PUSH1 0x0 PUSH1 0x5 PUSH1 0x0 CALLER PUSH20 0xFFFFFFFFFFFFFFFFFFFFFFFFFFFFFFFFFFFFFFFF AND PUSH20 0xFFFFFFFFFFFFFFFFFFFFFFFFFFFFFFFFFFFFFFFF AND DUP2 MSTORE PUSH1 0x20 ADD SWAP1 DUP2 MSTORE PUSH1 0x20 ADD PUSH1 0x0 KECCAK256 PUSH1 0x2 ADD SLOAD SWAP1 POP CALLER PUSH20 0xFFFFFFFFFFFFFFFFFFFFFFFFFFFFFFFFFFFFFFFF AND PUSH2 0x8FC DUP3 SWAP1 DUP2 ISZERO MUL SWAP1 PUSH1 0x40 MLOAD PUSH1 0x0 PUSH1 0x40 MLOAD DUP1 DUP4 SUB DUP2 DUP6 DUP9 DUP9 CALL SWAP4 POP POP POP POP ISZERO DUP1 ISZERO PUSH2 0x3D7 JUMPI RETURNDATASIZE PUSH1 0x0 DUP1 RETURNDATACOPY RETURNDATASIZE PUSH1 0x0 REVERT JUMPDEST POP PUSH32 0xE0E5873EB9D996D2AB087B071A9A50522121C02B43308C8728C06739F52B3F87 CALLER DUP3 PUSH1 0x40 MLOAD PUSH2 0x409 SWAP3 SWAP2 SWAP1 PUSH2 0x94B JUMP JUMPDEST PUSH1 0x40 MLOAD DUP1 SWAP2 SUB SWAP1 LOG1 POP JUMP JUMPDEST PUSH1 0x0 DUP1 SLOAD SWAP1 PUSH2 0x100 EXP SWAP1 DIV PUSH20 0xFFFFFFFFFFFFFFFFFFFFFFFFFFFFFFFFFFFFFFFF AND PUSH20 0xFFFFFFFFFFFFFFFFFFFFFFFFFFFFFFFFFFFFFFFF AND PUSH2 0x8FC PUSH1 0x5 PUSH1 0x0 CALLER PUSH20 0xFFFFFFFFFFFFFFFFFFFFFFFFFFFFFFFFFFFFFFFF AND PUSH20 0xFFFFFFFFFFFFFFFFFFFFFFFFFFFFFFFFFFFFFFFF AND DUP2 MSTORE PUSH1 0x20 ADD SWAP1 DUP2 MSTORE PUSH1 0x20 ADD PUSH1 0x0 KECCAK256 PUSH1 0x0 ADD SLOAD SWAP1 DUP2 ISZERO MUL SWAP1 PUSH1 0x40 MLOAD PUSH1 0x0 PUSH1 0x40 MLOAD DUP1 DUP4 SUB DUP2 DUP6 DUP9 DUP9 CALL SWAP4 POP POP POP POP ISZERO DUP1 ISZERO PUSH2 0x4BC JUMPI RETURNDATASIZE PUSH1 0x0 DUP1 RETURNDATACOPY RETURNDATASIZE PUSH1 0x0 REVERT JUMPDEST POP PUSH1 0x0 PUSH1 0x5 PUSH1 0x0 CALLER PUSH20 0xFFFFFFFFFFFFFFFFFFFFFFFFFFFFFFFFFFFFFFFF AND PUSH20 0xFFFFFFFFFFFFFFFFFFFFFFFFFFFFFFFFFFFFFFFF AND DUP2 MSTORE PUSH1 0x20 ADD SWAP1 DUP2 MSTORE PUSH1 0x20 ADD PUSH1 0x0 KECCAK256 PUSH1 0x2 ADD DUP2 SWAP1 SSTORE POP JUMP JUMPDEST PUSH1 0x0 DUP1 SLOAD SWAP1 PUSH2 0x100 EXP SWAP1 DIV PUSH20 0xFFFFFFFFFFFFFFFFFFFFFFFFFFFFFFFFFFFFFFFF AND PUSH20 0xFFFFFFFFFFFFFFFFFFFFFFFFFFFFFFFFFFFFFFFF AND CALLER PUSH20 0xFFFFFFFFFFFFFFFFFFFFFFFFFFFFFFFFFFFFFFFF AND EQ PUSH2 0x55F JUMPI PUSH1 0x0 DUP1 REVERT JUMPDEST PUSH1 0x0 PUSH1 0x7 SLOAD SUB PUSH2 0x591 JUMPI PUSH1 0x3 DUP1 SLOAD PUSH2 0x577 SWAP2 SWAP1 PUSH2 0x9A3 JUMP JUMPDEST POP PUSH1 0x7 PUSH1 0x0 DUP2 SLOAD DUP1 SWAP3 SWAP2 SWAP1 PUSH2 0x58B SWAP1 PUSH2 0x9D7 JUMP JUMPDEST SWAP2 SWAP1 POP SSTORE POP JUMPDEST JUMP JUMPDEST CALLVALUE PUSH1 0x5 PUSH1 0x0 CALLER PUSH20 0xFFFFFFFFFFFFFFFFFFFFFFFFFFFFFFFFFFFFFFFF AND PUSH20 0xFFFFFFFFFFFFFFFFFFFFFFFFFFFFFFFFFFFFFFFF AND DUP2 MSTORE PUSH1 0x20 ADD SWAP1 DUP2 MSTORE PUSH1 0x20 ADD PUSH1 0x0 KECCAK256 PUSH1 0x0 ADD PUSH1 0x0 DUP3 DUP3 SLOAD PUSH2 0x5E5 SWAP2 SWAP1 PUSH2 0x9A3 JUMP JUMPDEST SWAP3 POP POP DUP2 SWAP1 SSTORE POP CALLVALUE PUSH1 0x5 PUSH1 0x0 CALLER PUSH20 0xFFFFFFFFFFFFFFFFFFFFFFFFFFFFFFFFFFFFFFFF AND PUSH20 0xFFFFFFFFFFFFFFFFFFFFFFFFFFFFFFFFFFFFFFFF AND DUP2 MSTORE PUSH1 0x20 ADD SWAP1 DUP2 MSTORE PUSH1 0x20 ADD PUSH1 0x0 KECCAK256 PUSH1 0x2 ADD PUSH1 0x0 DUP3 DUP3 SLOAD PUSH2 0x63E SWAP2 SWAP1 PUSH2 0x9A3 JUMP JUMPDEST SWAP3 POP POP DUP2 SWAP1 SSTORE POP PUSH1 0x1 PUSH1 0x0 DUP2 SLOAD DUP1 SWAP3 SWAP2 SWAP1 PUSH2 0x658 SWAP1 PUSH2 0x9D7 JUMP JUMPDEST SWAP2 SWAP1 POP SSTORE PUSH1 0x5 PUSH1 0x0 CALLER PUSH20 0xFFFFFFFFFFFFFFFFFFFFFFFFFFFFFFFFFFFFFFFF AND PUSH20 0xFFFFFFFFFFFFFFFFFFFFFFFFFFFFFFFFFFFFFFFF AND DUP2 MSTORE PUSH1 0x20 ADD SWAP1 DUP2 MSTORE PUSH1 0x20 ADD PUSH1 0x0 KECCAK256 PUSH1 0x3 ADD DUP2 SWAP1 SSTORE POP PUSH1 0x6 CALLER SWAP1 DUP1 PUSH1 0x1 DUP2 SLOAD ADD DUP1 DUP3 SSTORE DUP1 SWAP2 POP POP PUSH1 0x1 SWAP1 SUB SWAP1 PUSH1 0x0 MSTORE PUSH1 0x20 PUSH1 0x0 KECCAK256 ADD PUSH1 0x0 SWAP1 SWAP2 SWAP1 SWAP2 SWAP1 SWAP2 PUSH2 0x100 EXP DUP2 SLOAD DUP2 PUSH20 0xFFFFFFFFFFFFFFFFFFFFFFFFFFFFFFFFFFFFFFFF MUL NOT AND SWAP1 DUP4 PUSH20 0xFFFFFFFFFFFFFFFFFFFFFFFFFFFFFFFFFFFFFFFF AND MUL OR SWAP1 SSTORE POP PUSH32 0x81D2C188629CC4A1C694D285150CB5FA3DDE3157A2684460D3AC7A1E331F6164 CALLER CALLVALUE PUSH1 0x40 MLOAD PUSH2 0x736 SWAP3 SWAP2 SWAP1 PUSH2 0x94B JUMP JUMPDEST PUSH1 0x40 MLOAD DUP1 SWAP2 SUB SWAP1 LOG1 JUMP JUMPDEST PUSH2 0x968 DUP1 PUSH2 0xA20 DUP4 CODECOPY ADD SWAP1 JUMP JUMPDEST PUSH1 0x0 DUP1 REVERT JUMPDEST PUSH1 0x0 PUSH20 0xFFFFFFFFFFFFFFFFFFFFFFFFFFFFFFFFFFFFFFFF DUP3 AND SWAP1 POP SWAP2 SWAP1 POP JUMP JUMPDEST PUSH1 0x0 PUSH2 0x77D DUP3 PUSH2 0x752 JUMP JUMPDEST SWAP1 POP SWAP2 SWAP1 POP JUMP JUMPDEST PUSH2 0x78D DUP2 PUSH2 0x772 JUMP JUMPDEST DUP2 EQ PUSH2 0x798 JUMPI PUSH1 0x0 DUP1 REVERT JUMPDEST POP JUMP JUMPDEST PUSH1 0x0 DUP2 CALLDATALOAD SWAP1 POP PUSH2 0x7AA DUP2 PUSH2 0x784 JUMP JUMPDEST SWAP3 SWAP2 POP POP JUMP JUMPDEST PUSH1 0x0 PUSH1 0x20 DUP3 DUP5 SUB SLT ISZERO PUSH2 0x7C6 JUMPI PUSH2 0x7C5 PUSH2 0x74D JUMP JUMPDEST JUMPDEST PUSH1 0x0 PUSH2 0x7D4 DUP5 DUP3 DUP6 ADD PUSH2 0x79B JUMP JUMPDEST SWAP2 POP POP SWAP3 SWAP2 POP POP JUMP JUMPDEST PUSH1 0x0 DUP2 SWAP1 POP SWAP2 SWAP1 POP JUMP JUMPDEST PUSH2 0x7F0 DUP2 PUSH2 0x7DD JUMP JUMPDEST DUP3 MSTORE POP POP JUMP JUMPDEST PUSH1 0x0 PUSH1 0x80 DUP3 ADD SWAP1 POP PUSH2 0x80B PUSH1 0x0 DUP4 ADD DUP8 PUSH2 0x7E7 JUMP JUMPDEST PUSH2 0x818 PUSH1 0x20 DUP4 ADD DUP7 PUSH2 0x7E7 JUMP JUMPDEST PUSH2 0x825 PUSH1 0x40 DUP4 ADD DUP6 PUSH2 0x7E7 JUMP JUMPDEST PUSH2 0x832 PUSH1 0x60 DUP4 ADD DUP5 PUSH2 0x7E7 JUMP JUMPDEST SWAP6 SWAP5 POP POP POP POP POP JUMP JUMPDEST PUSH1 0x0 PUSH2 0x846 DUP3 PUSH2 0x752 JUMP JUMPDEST SWAP1 POP SWAP2 SWAP1 POP JUMP JUMPDEST PUSH2 0x856 DUP2 PUSH2 0x83B JUMP JUMPDEST DUP2 EQ PUSH2 0x861 JUMPI PUSH1 0x0 DUP1 REVERT JUMPDEST POP JUMP JUMPDEST PUSH1 0x0 DUP2 CALLDATALOAD SWAP1 POP PUSH2 0x873 DUP2 PUSH2 0x84D JUMP JUMPDEST SWAP3 SWAP2 POP POP JUMP JUMPDEST PUSH2 0x882 DUP2 PUSH2 0x7DD JUMP JUMPDEST DUP2 EQ PUSH2 0x88D JUMPI PUSH1 0x0 DUP1 REVERT JUMPDEST POP JUMP JUMPDEST PUSH1 0x0 DUP2 CALLDATALOAD SWAP1 POP PUSH2 0x89F DUP2 PUSH2 0x879 JUMP JUMPDEST SWAP3 SWAP2 POP POP JUMP JUMPDEST PUSH1 0x0 DUP1 PUSH1 0x40 DUP4 DUP6 SUB SLT ISZERO PUSH2 0x8BC JUMPI PUSH2 0x8BB PUSH2 0x74D JUMP JUMPDEST JUMPDEST PUSH1 0x0 PUSH2 0x8CA DUP6 DUP3 DUP7 ADD PUSH2 0x864 JUMP JUMPDEST SWAP3 POP POP PUSH1 0x20 PUSH2 0x8DB DUP6 DUP3 DUP7 ADD PUSH2 0x890 JUMP JUMPDEST SWAP2 POP POP SWAP3 POP SWAP3 SWAP1 POP JUMP JUMPDEST PUSH2 0x8EE DUP2 PUSH2 0x83B JUMP JUMPDEST DUP3 MSTORE POP POP JUMP JUMPDEST PUSH1 0x0 PUSH1 0x20 DUP3 ADD SWAP1 POP PUSH2 0x909 PUSH1 0x0 DUP4 ADD DUP5 PUSH2 0x8E5 JUMP JUMPDEST SWAP3 SWAP2 POP POP JUMP JUMPDEST PUSH1 0x0 PUSH1 0x20 DUP3 DUP5 SUB SLT ISZERO PUSH2 0x925 JUMPI PUSH2 0x924 PUSH2 0x74D JUMP JUMPDEST JUMPDEST PUSH1 0x0 PUSH2 0x933 DUP5 DUP3 DUP6 ADD PUSH2 0x890 JUMP JUMPDEST SWAP2 POP POP SWAP3 SWAP2 POP POP JUMP JUMPDEST PUSH2 0x945 DUP2 PUSH2 0x772 JUMP JUMPDEST DUP3 MSTORE POP POP JUMP JUMPDEST PUSH1 0x0 PUSH1 0x40 DUP3 ADD SWAP1 POP PUSH2 0x960 PUSH1 0x0 DUP4 ADD DUP6 PUSH2 0x93C JUMP JUMPDEST PUSH2 0x96D PUSH1 0x20 DUP4 ADD DUP5 PUSH2 0x7E7 JUMP JUMPDEST SWAP4 SWAP3 POP POP POP JUMP JUMPDEST PUSH32 0x4E487B7100000000000000000000000000000000000000000000000000000000 PUSH1 0x0 MSTORE PUSH1 0x11 PUSH1 0x4 MSTORE PUSH1 0x24 PUSH1 0x0 REVERT JUMPDEST PUSH1 0x0 PUSH2 0x9AE DUP3 PUSH2 0x7DD JUMP JUMPDEST SWAP2 POP PUSH2 0x9B9 DUP4 PUSH2 0x7DD JUMP JUMPDEST SWAP3 POP DUP3 DUP3 ADD SWAP1 POP DUP1 DUP3 GT ISZERO PUSH2 0x9D1 JUMPI PUSH2 0x9D0 PUSH2 0x974 JUMP JUMPDEST JUMPDEST SWAP3 SWAP2 POP POP JUMP JUMPDEST PUSH1 0x0 PUSH2 0x9E2 DUP3 PUSH2 0x7DD JUMP JUMPDEST SWAP2 POP PUSH32 0xFFFFFFFFFFFFFFFFFFFFFFFFFFFFFFFFFFFFFFFFFFFFFFFFFFFFFFFFFFFFFFFF DUP3 SUB PUSH2 0xA14 JUMPI PUSH2 0xA13 PUSH2 0x974 JUMP JUMPDEST JUMPDEST PUSH1 0x1 DUP3 ADD SWAP1 POP SWAP2 SWAP1 POP JUMP INVALID PUSH1 0x80 PUSH1 0x40 MSTORE PUSH1 0x0 PUSH1 0x4 PUSH1 0x0 PUSH2 0x100 EXP DUP2 SLOAD DUP2 PUSH1 0xFF MUL NOT AND SWAP1 DUP4 ISZERO ISZERO MUL OR SWAP1 SSTORE POP PUSH1 0x0 PUSH1 0x7 SSTORE CALLVALUE DUP1 ISZERO PUSH2 0x30 JUMPI PUSH1 0x0 DUP1 REVERT JUMPDEST POP PUSH2 0x928 DUP1 PUSH2 0x40 PUSH1 0x0 CODECOPY PUSH1 0x0 RETURN INVALID PUSH1 0x80 PUSH1 0x40 MSTORE PUSH1 0x4 CALLDATASIZE LT PUSH2 0x7B JUMPI PUSH1 0x0 CALLDATALOAD PUSH1 0xE0 SHR DUP1 PUSH4 0x8BF963B6 GT PUSH2 0x4E JUMPI DUP1 PUSH4 0x8BF963B6 EQ PUSH2 0x13F JUMPI DUP1 PUSH4 0x8D68CF59 EQ PUSH2 0x156 JUMPI DUP1 PUSH4 0xABB6AE89 EQ PUSH2 0x16D JUMPI DUP1 PUSH4 0xED88C68E EQ PUSH2 0x184 JUMPI PUSH2 0x7B JUMP JUMPDEST DUP1 PUSH4 0x27E235E3 EQ PUSH2 0x80 JUMPI DUP1 PUSH4 0x39788BC8 EQ PUSH2 0xC0 JUMPI DUP1 PUSH4 0x521EB273 EQ PUSH2 0xD7 JUMPI DUP1 PUSH4 0x5EED3DCB EQ PUSH2 0x102 JUMPI JUMPDEST PUSH1 0x0 DUP1 REVERT JUMPDEST CALLVALUE DUP1 ISZERO PUSH2 0x8C JUMPI PUSH1 0x0 DUP1 REVERT JUMPDEST POP PUSH2 0xA7 PUSH1 0x4 DUP1 CALLDATASIZE SUB DUP2 ADD SWAP1 PUSH2 0xA2 SWAP2 SWAP1 PUSH2 0x6EF JUMP JUMPDEST PUSH2 0x18E JUMP JUMPDEST PUSH1 0x40 MLOAD PUSH2 0xB7 SWAP5 SWAP4 SWAP3 SWAP2 SWAP1 PUSH2 0x735 JUMP JUMPDEST PUSH1 0x40 MLOAD DUP1 SWAP2 SUB SWAP1 RETURN JUMPDEST CALLVALUE DUP1 ISZERO PUSH2 0xCC JUMPI PUSH1 0x0 DUP1 REVERT JUMPDEST POP PUSH2 0xD5 PUSH2 0x1BE JUMP JUMPDEST STOP JUMPDEST CALLVALUE DUP1 ISZERO PUSH2 0xE3 JUMPI PUSH1 0x0 DUP1 REVERT JUMPDEST POP PUSH2 0xEC PUSH2 0x233 JUMP JUMPDEST PUSH1 0x40 MLOAD PUSH2 0xF9 SWAP2 SWAP1 PUSH2 0x79B JUMP JUMPDEST PUSH1 0x40 MLOAD DUP1 SWAP2 SUB SWAP1 RETURN JUMPDEST CALLVALUE DUP1 ISZERO PUSH2 0x10E JUMPI PUSH1 0x0 DUP1 REVERT JUMPDEST POP PUSH2 0x129 PUSH1 0x4 DUP1 CALLDATASIZE SUB DUP2 ADD SWAP1 PUSH2 0x124 SWAP2 SWAP1 PUSH2 0x7E2 JUMP JUMPDEST PUSH2 0x257 JUMP JUMPDEST PUSH1 0x40 MLOAD PUSH2 0x136 SWAP2 SWAP1 PUSH2 0x79B JUMP JUMPDEST PUSH1 0x40 MLOAD DUP1 SWAP2 SUB SWAP1 RETURN JUMPDEST CALLVALUE DUP1 ISZERO PUSH2 0x14B JUMPI PUSH1 0x0 DUP1 REVERT JUMPDEST POP PUSH2 0x154 PUSH2 0x296 JUMP JUMPDEST STOP JUMPDEST CALLVALUE DUP1 ISZERO PUSH2 0x162 JUMPI PUSH1 0x0 DUP1 REVERT JUMPDEST POP PUSH2 0x16B PUSH2 0x360 JUMP JUMPDEST STOP JUMPDEST CALLVALUE DUP1 ISZERO PUSH2 0x179 JUMPI PUSH1 0x0 DUP1 REVERT JUMPDEST POP PUSH2 0x182 PUSH2 0x453 JUMP JUMPDEST STOP JUMPDEST PUSH2 0x18C PUSH2 0x4DF JUMP JUMPDEST STOP JUMPDEST PUSH1 0x5 PUSH1 0x20 MSTORE DUP1 PUSH1 0x0 MSTORE PUSH1 0x40 PUSH1 0x0 KECCAK256 PUSH1 0x0 SWAP2 POP SWAP1 POP DUP1 PUSH1 0x0 ADD SLOAD SWAP1 DUP1 PUSH1 0x1 ADD SLOAD SWAP1 DUP1 PUSH1 0x2 ADD SLOAD SWAP1 DUP1 PUSH1 0x3 ADD SLOAD SWAP1 POP DUP5 JUMP JUMPDEST PUSH1 0x0 DUP1 SLOAD SWAP1 PUSH2 0x100 EXP SWAP1 DIV PUSH20 0xFFFFFFFFFFFFFFFFFFFFFFFFFFFFFFFFFFFFFFFF AND PUSH20 0xFFFFFFFFFFFFFFFFFFFFFFFFFFFFFFFFFFFFFFFF AND CALLER PUSH20 0xFFFFFFFFFFFFFFFFFFFFFFFFFFFFFFFFFFFFFFFF AND EQ PUSH2 0x216 JUMPI PUSH1 0x0 DUP1 REVERT JUMPDEST PUSH1 0x1 PUSH1 0x4 PUSH1 0x0 PUSH2 0x100 EXP DUP2 SLOAD DUP2 PUSH1 0xFF MUL NOT AND SWAP1 DUP4 ISZERO ISZERO MUL OR SWAP1 SSTORE POP JUMP JUMPDEST PUSH1 0x0 DUP1 SLOAD SWAP1 PUSH2 0x100 EXP SWAP1 DIV PUSH20 0xFFFFFFFFFFFFFFFFFFFFFFFFFFFFFFFFFFFFFFFF AND DUP2 JUMP JUMPDEST PUSH1 0x6 DUP2 DUP2 SLOAD DUP2 LT PUSH2 0x267 JUMPI PUSH1 0x0 DUP1 REVERT JUMPDEST SWAP1 PUSH1 0x0 MSTORE PUSH1 0x20 PUSH1 0x0 KECCAK256 ADD PUSH1 0x0 SWAP2 POP SLOAD SWAP1 PUSH2 0x100 EXP SWAP1 DIV PUSH20 0xFFFFFFFFFFFFFFFFFFFFFFFFFFFFFFFFFFFFFFFF AND DUP2 JUMP JUMPDEST PUSH1 0x0 PUSH1 0x5 PUSH1 0x0 CALLER PUSH20 0xFFFFFFFFFFFFFFFFFFFFFFFFFFFFFFFFFFFFFFFF AND PUSH20 0xFFFFFFFFFFFFFFFFFFFFFFFFFFFFFFFFFFFFFFFF AND DUP2 MSTORE PUSH1 0x20 ADD SWAP1 DUP2 MSTORE PUSH1 0x20 ADD PUSH1 0x0 KECCAK256 PUSH1 0x2 ADD SLOAD SWAP1 POP CALLER PUSH20 0xFFFFFFFFFFFFFFFFFFFFFFFFFFFFFFFFFFFFFFFF AND PUSH2 0x8FC DUP3 SWAP1 DUP2 ISZERO MUL SWAP1 PUSH1 0x40 MLOAD PUSH1 0x0 PUSH1 0x40 MLOAD DUP1 DUP4 SUB DUP2 DUP6 DUP9 DUP9 CALL SWAP4 POP POP POP POP ISZERO DUP1 ISZERO PUSH2 0x323 JUMPI RETURNDATASIZE PUSH1 0x0 DUP1 RETURNDATACOPY RETURNDATASIZE PUSH1 0x0 REVERT JUMPDEST POP PUSH32 0xE0E5873EB9D996D2AB087B071A9A50522121C02B43308C8728C06739F52B3F87 CALLER DUP3 PUSH1 0x40 MLOAD PUSH2 0x355 SWAP3 SWAP2 SWAP1 PUSH2 0x81E JUMP JUMPDEST PUSH1 0x40 MLOAD DUP1 SWAP2 SUB SWAP1 LOG1 POP JUMP JUMPDEST PUSH1 0x0 DUP1 SLOAD SWAP1 PUSH2 0x100 EXP SWAP1 DIV PUSH20 0xFFFFFFFFFFFFFFFFFFFFFFFFFFFFFFFFFFFFFFFF AND PUSH20 0xFFFFFFFFFFFFFFFFFFFFFFFFFFFFFFFFFFFFFFFF AND PUSH2 0x8FC PUSH1 0x5 PUSH1 0x0 CALLER PUSH20 0xFFFFFFFFFFFFFFFFFFFFFFFFFFFFFFFFFFFFFFFF AND PUSH20 0xFFFFFFFFFFFFFFFFFFFFFFFFFFFFFFFFFFFFFFFF AND DUP2 MSTORE PUSH1 0x20 ADD SWAP1 DUP2 MSTORE PUSH1 0x20 ADD PUSH1 0x0 KECCAK256 PUSH1 0x0 ADD SLOAD SWAP1 DUP2 ISZERO MUL SWAP1 PUSH1 0x40 MLOAD PUSH1 0x0 PUSH1 0x40 MLOAD DUP1 DUP4 SUB DUP2 DUP6 DUP9 DUP9 CALL SWAP4 POP POP POP POP ISZERO DUP1 ISZERO PUSH2 0x408 JUMPI RETURNDATASIZE PUSH1 0x0 DUP1 RETURNDATACOPY RETURNDATASIZE PUSH1 0x0 REVERT JUMPDEST POP PUSH1 0x0 PUSH1 0x5 PUSH1 0x0 CALLER PUSH20 0xFFFFFFFFFFFFFFFFFFFFFFFFFFFFFFFFFFFFFFFF AND PUSH20 0xFFFFFFFFFFFFFFFFFFFFFFFFFFFFFFFFFFFFFFFF AND DUP2 MSTORE PUSH1 0x20 ADD SWAP1 DUP2 MSTORE PUSH1 0x20 ADD PUSH1 0x0 KECCAK256 PUSH1 0x2 ADD DUP2 SWAP1 SSTORE POP JUMP JUMPDEST PUSH1 0x0 DUP1 SLOAD SWAP1 PUSH2 0x100 EXP SWAP1 DIV PUSH20 0xFFFFFFFFFFFFFFFFFFFFFFFFFFFFFFFFFFFFFFFF AND PUSH20 0xFFFFFFFFFFFFFFFFFFFFFFFFFFFFFFFFFFFFFFFF AND CALLER PUSH20 0xFFFFFFFFFFFFFFFFFFFFFFFFFFFFFFFFFFFFFFFF AND EQ PUSH2 0x4AB JUMPI PUSH1 0x0 DUP1 REVERT JUMPDEST PUSH1 0x0 PUSH1 0x7 SLOAD SUB PUSH2 0x4DD JUMPI PUSH1 0x3 DUP1 SLOAD PUSH2 0x4C3 SWAP2 SWAP1 PUSH2 0x876 JUMP JUMPDEST POP PUSH1 0x7 PUSH1 0x0 DUP2 SLOAD DUP1 SWAP3 SWAP2 SWAP1 PUSH2 0x4D7 SWAP1 PUSH2 0x8AA JUMP JUMPDEST SWAP2 SWAP1 POP SSTORE POP JUMPDEST JUMP JUMPDEST CALLVALUE PUSH1 0x5 PUSH1 0x0 CALLER PUSH20 0xFFFFFFFFFFFFFFFFFFFFFFFFFFFFFFFFFFFFFFFF AND PUSH20 0xFFFFFFFFFFFFFFFFFFFFFFFFFFFFFFFFFFFFFFFF AND DUP2 MSTORE PUSH1 0x20 ADD SWAP1 DUP2 MSTORE PUSH1 0x20 ADD PUSH1 0x0 KECCAK256 PUSH1 0x0 ADD PUSH1 0x0 DUP3 DUP3 SLOAD PUSH2 0x531 SWAP2 SWAP1 PUSH2 0x876 JUMP JUMPDEST SWAP3 POP POP DUP2 SWAP1 SSTORE POP CALLVALUE PUSH1 0x5 PUSH1 0x0 CALLER PUSH20 0xFFFFFFFFFFFFFFFFFFFFFFFFFFFFFFFFFFFFFFFF AND PUSH20 0xFFFFFFFFFFFFFFFFFFFFFFFFFFFFFFFFFFFFFFFF AND DUP2 MSTORE PUSH1 0x20 ADD SWAP1 DUP2 MSTORE PUSH1 0x20 ADD PUSH1 0x0 KECCAK256 PUSH1 0x2 ADD PUSH1 0x0 DUP3 DUP3 SLOAD PUSH2 0x58A SWAP2 SWAP1 PUSH2 0x876 JUMP JUMPDEST SWAP3 POP POP DUP2 SWAP1 SSTORE POP PUSH1 0x1 PUSH1 0x0 DUP2 SLOAD DUP1 SWAP3 SWAP2 SWAP1 PUSH2 0x5A4 SWAP1 PUSH2 0x8AA JUMP JUMPDEST SWAP2 SWAP1 POP SSTORE PUSH1 0x5 PUSH1 0x0 CALLER PUSH20 0xFFFFFFFFFFFFFFFFFFFFFFFFFFFFFFFFFFFFFFFF AND PUSH20 0xFFFFFFFFFFFFFFFFFFFFFFFFFFFFFFFFFFFFFFFF AND DUP2 MSTORE PUSH1 0x20 ADD SWAP1 DUP2 MSTORE PUSH1 0x20 ADD PUSH1 0x0 KECCAK256 PUSH1 0x3 ADD DUP2 SWAP1 SSTORE POP PUSH1 0x6 CALLER SWAP1 DUP1 PUSH1 0x1 DUP2 SLOAD ADD DUP1 DUP3 SSTORE DUP1 SWAP2 POP POP PUSH1 0x1 SWAP1 SUB SWAP1 PUSH1 0x0 MSTORE PUSH1 0x20 PUSH1 0x0 KECCAK256 ADD PUSH1 0x0 SWAP1 SWAP2 SWAP1 SWAP2 SWAP1 SWAP2 PUSH2 0x100 EXP DUP2 SLOAD DUP2 PUSH20 0xFFFFFFFFFFFFFFFFFFFFFFFFFFFFFFFFFFFFFFFF MUL NOT AND SWAP1 DUP4 PUSH20 0xFFFFFFFFFFFFFFFFFFFFFFFFFFFFFFFFFFFFFFFF AND MUL OR SWAP1 SSTORE POP PUSH32 0x81D2C188629CC4A1C694D285150CB5FA3DDE3157A2684460D3AC7A1E331F6164 CALLER CALLVALUE PUSH1 0x40 MLOAD PUSH2 0x682 SWAP3 SWAP2 SWAP1 PUSH2 0x81E JUMP JUMPDEST PUSH1 0x40 MLOAD DUP1 SWAP2 SUB SWAP1 LOG1 JUMP JUMPDEST PUSH1 0x0 DUP1 REVERT JUMPDEST PUSH1 0x0 PUSH20 0xFFFFFFFFFFFFFFFFFFFFFFFFFFFFFFFFFFFFFFFF DUP3 AND SWAP1 POP SWAP2 SWAP1 POP JUMP JUMPDEST PUSH1 0x0 PUSH2 0x6BC DUP3 PUSH2 0x691 JUMP JUMPDEST SWAP1 POP SWAP2 SWAP1 POP JUMP JUMPDEST PUSH2 0x6CC DUP2 PUSH2 0x6B1 JUMP JUMPDEST DUP2 EQ PUSH2 0x6D7 JUMPI PUSH1 0x0 DUP1 REVERT JUMPDEST POP JUMP JUMPDEST PUSH1 0x0 DUP2 CALLDATALOAD SWAP1 POP PUSH2 0x6E9 DUP2 PUSH2 0x6C3 JUMP JUMPDEST SWAP3 SWAP2 POP POP JUMP JUMPDEST PUSH1 0x0 PUSH1 0x20 DUP3 DUP5 SUB SLT ISZERO PUSH2 0x705 JUMPI PUSH2 0x704 PUSH2 0x68C JUMP JUMPDEST JUMPDEST PUSH1 0x0 PUSH2 0x713 DUP5 DUP3 DUP6 ADD PUSH2 0x6DA JUMP JUMPDEST SWAP2 POP POP SWAP3 SWAP2 POP POP JUMP JUMPDEST PUSH1 0x0 DUP2 SWAP1 POP SWAP2 SWAP1 POP JUMP JUMPDEST PUSH2 0x72F DUP2 PUSH2 0x71C JUMP JUMPDEST DUP3 MSTORE POP POP JUMP JUMPDEST PUSH1 0x0 PUSH1 0x80 DUP3 ADD SWAP1 POP PUSH2 0x74A PUSH1 0x0 DUP4 ADD DUP8 PUSH2 0x726 JUMP JUMPDEST PUSH2 0x757 PUSH1 0x20 DUP4 ADD DUP7 PUSH2 0x726 JUMP JUMPDEST PUSH2 0x764 PUSH1 0x40 DUP4 ADD DUP6 PUSH2 0x726 JUMP JUMPDEST PUSH2 0x771 PUSH1 0x60 DUP4 ADD DUP5 PUSH2 0x726 JUMP JUMPDEST SWAP6 SWAP5 POP POP POP POP POP JUMP JUMPDEST PUSH1 0x0 PUSH2 0x785 DUP3 PUSH2 0x691 JUMP JUMPDEST SWAP1 POP SWAP2 SWAP1 POP JUMP JUMPDEST PUSH2 0x795 DUP2 PUSH2 0x77A JUMP JUMPDEST DUP3 MSTORE POP POP JUMP JUMPDEST PUSH1 0x0 PUSH1 0x20 DUP3 ADD SWAP1 POP PUSH2 0x7B0 PUSH1 0x0 DUP4 ADD DUP5 PUSH2 0x78C JUMP JUMPDEST SWAP3 SWAP2 POP POP JUMP JUMPDEST PUSH2 0x7BF DUP2 PUSH2 0x71C JUMP JUMPDEST DUP2 EQ PUSH2 0x7CA JUMPI PUSH1 0x0 DUP1 REVERT JUMPDEST POP JUMP JUMPDEST PUSH1 0x0 DUP2 CALLDATALOAD SWAP1 POP PUSH2 0x7DC DUP2 PUSH2 0x7B6 JUMP JUMPDEST SWAP3 SWAP2 POP POP JUMP JUMPDEST PUSH1 0x0 PUSH1 0x20 DUP3 DUP5 SUB SLT ISZERO PUSH2 0x7F8 JUMPI PUSH2 0x7F7 PUSH2 0x68C JUMP JUMPDEST JUMPDEST PUSH1 0x0 PUSH2 0x806 DUP5 DUP3 DUP6 ADD PUSH2 0x7CD JUMP JUMPDEST SWAP2 POP POP SWAP3 SWAP2 POP POP JUMP JUMPDEST PUSH2 0x818 DUP2 PUSH2 0x6B1 JUMP JUMPDEST DUP3 MSTORE POP POP JUMP JUMPDEST PUSH1 0x0 PUSH1 0x40 DUP3 ADD SWAP1 POP PUSH2 0x833 PUSH1 0x0 DUP4 ADD DUP6 PUSH2 0x80F JUMP JUMPDEST PUSH2 0x840 PUSH1 0x20 DUP4 ADD DUP5 PUSH2 0x726 JUMP JUMPDEST SWAP4 SWAP3 POP POP POP JUMP JUMPDEST PUSH32 0x4E487B7100000000000000000000000000000000000000000000000000000000 PUSH1 0x0 MSTORE PUSH1 0x11 PUSH1 0x4 MSTORE PUSH1 0x24 PUSH1 0x0 REVERT JUMPDEST PUSH1 0x0 PUSH2 0x881 DUP3 PUSH2 0x71C JUMP JUMPDEST SWAP2 POP PUSH2 0x88C DUP4 PUSH2 0x71C JUMP JUMPDEST SWAP3 POP DUP3 DUP3 ADD SWAP1 POP DUP1 DUP3 GT ISZERO PUSH2 0x8A4 JUMPI PUSH2 0x8A3 PUSH2 0x847 JUMP JUMPDEST JUMPDEST SWAP3 SWAP2 POP POP JUMP JUMPDEST PUSH1 0x0 PUSH2 0x8B5 DUP3 PUSH2 0x71C JUMP JUMPDEST SWAP2 POP PUSH32 0xFFFFFFFFFFFFFFFFFFFFFFFFFFFFFFFFFFFFFFFFFFFFFFFFFFFFFFFFFFFFFFFF DUP3 SUB PUSH2 0x8E7 JUMPI PUSH2 0x8E6 PUSH2 0x847 JUMP JUMPDEST JUMPDEST PUSH1 0x1 DUP3 ADD SWAP1 POP SWAP2 SWAP1 POP JUMP INVALID LOG2 PUSH5 0x6970667358 0x22 SLT KECCAK256 MULMOD PUSH23 0xB31E8496E75B1B9A4100476854D47B5093312FAAA1C4DA 0xEA JUMPDEST SWAP6 STOP 0xDC 0xCF SWAP5 PUSH5 0x736F6C6343 STOP ADDMOD LT STOP CALLER LOG2 PUSH5 0x6970667358 0x22 SLT KECCAK256 KECCAK256 0xDB PUSH23 0x1C6D62B74EA9C30E397947FB1578154692517CD3C798E5 SELFDESTRUCT DIV JUMPDEST MUL PUSH3 0x5E6473 PUSH16 0x6C634300081000330000000000000000 "
				},
				"gasEstimates": {
					"creation": {
						"codeDepositCost": "1010600",
						"executionCost": "30320",
						"totalCost": "1040920"
					},
					"external": {
						"approval()": "26601",
						"balances(address)": "infinite",
						"deploy(address,uint256)": "infinite",
						"donate()": "infinite",
						"donorList(uint256)": "4956",
						"extendTime()": "infinite",
						"sendFunds()": "infinite",
						"singleRefund()": "infinite",
						"wallet()": "2578"
					}
				},
				"methodIdentifiers": {
					"approval()": "39788bc8",
					"balances(address)": "27e235e3",
					"deploy(address,uint256)": "4956eaf0",
					"donate()": "ed88c68e",
					"donorList(uint256)": "5eed3dcb",
					"extendTime()": "abb6ae89",
					"sendFunds()": "8d68cf59",
					"singleRefund()": "8bf963b6",
					"wallet()": "521eb273"
				}
			},
			"storageLayout": {
				"storage": [
					{
						"astId": 3,
						"contract": "contracts/senior project.sol:Caller",
						"label": "wallet",
						"offset": 0,
						"slot": "0",
						"type": "t_address_payable"
					},
					{
						"astId": 5,
						"contract": "contracts/senior project.sol:Caller",
						"label": "Dcounter",
						"offset": 0,
						"slot": "1",
						"type": "t_uint256"
					},
					{
						"astId": 7,
						"contract": "contracts/senior project.sol:Caller",
						"label": "deployDate",
						"offset": 0,
						"slot": "2",
						"type": "t_uint256"
					},
					{
						"astId": 9,
						"contract": "contracts/senior project.sol:Caller",
						"label": "deadline",
						"offset": 0,
						"slot": "3",
						"type": "t_uint256"
					},
					{
						"astId": 12,
						"contract": "contracts/senior project.sol:Caller",
						"label": "approved",
						"offset": 0,
						"slot": "4",
						"type": "t_bool"
					},
					{
						"astId": 26,
						"contract": "contracts/senior project.sol:Caller",
						"label": "balances",
						"offset": 0,
						"slot": "5",
						"type": "t_mapping(t_address,t_struct(donor)21_storage)"
					},
					{
						"astId": 29,
						"contract": "contracts/senior project.sol:Caller",
						"label": "donorList",
						"offset": 0,
						"slot": "6",
						"type": "t_array(t_address_payable)dyn_storage"
					},
					{
						"astId": 228,
						"contract": "contracts/senior project.sol:Caller",
						"label": "EXcounter",
						"offset": 0,
						"slot": "7",
						"type": "t_uint256"
					}
				],
				"types": {
					"t_address": {
						"encoding": "inplace",
						"label": "address",
						"numberOfBytes": "20"
					},
					"t_address_payable": {
						"encoding": "inplace",
						"label": "address payable",
						"numberOfBytes": "20"
					},
					"t_array(t_address_payable)dyn_storage": {
						"base": "t_address_payable",
						"encoding": "dynamic_array",
						"label": "address payable[]",
						"numberOfBytes": "32"
					},
					"t_bool": {
						"encoding": "inplace",
						"label": "bool",
						"numberOfBytes": "1"
					},
					"t_mapping(t_address,t_struct(donor)21_storage)": {
						"encoding": "mapping",
						"key": "t_address",
						"label": "mapping(address => struct MyContract.donor)",
						"numberOfBytes": "32",
						"value": "t_struct(donor)21_storage"
					},
					"t_struct(donor)21_storage": {
						"encoding": "inplace",
						"label": "struct MyContract.donor",
						"members": [
							{
								"astId": 14,
								"contract": "contracts/senior project.sol:Caller",
								"label": "totalDono",
								"offset": 0,
								"slot": "0",
								"type": "t_uint256"
							},
							{
								"astId": 16,
								"contract": "contracts/senior project.sol:Caller",
								"label": "returnedDono",
								"offset": 0,
								"slot": "1",
								"type": "t_uint256"
							},
							{
								"astId": 18,
								"contract": "contracts/senior project.sol:Caller",
								"label": "returnable",
								"offset": 0,
								"slot": "2",
								"type": "t_uint256"
							},
							{
								"astId": 20,
								"contract": "contracts/senior project.sol:Caller",
								"label": "donorListPointer",
								"offset": 0,
								"slot": "3",
								"type": "t_uint256"
							}
						],
						"numberOfBytes": "128"
					},
					"t_uint256": {
						"encoding": "inplace",
						"label": "uint256",
						"numberOfBytes": "32"
					}
				}
			},
			"userdoc": {
				"kind": "user",
				"methods": {},
				"version": 1
			}
		}
	}
}