{
	"contracts/senior project.sol": {
		"MyContract": {
			"abi": [
				{
					"inputs": [
						{
							"internalType": "address payable",
							"name": "_wallet",
							"type": "address"
						}
					],
					"stateMutability": "nonpayable",
					"type": "constructor"
				},
				{
					"anonymous": false,
					"inputs": [
						{
							"indexed": false,
							"internalType": "address",
							"name": "sender",
							"type": "address"
						},
						{
							"indexed": false,
							"internalType": "uint256",
							"name": "amount",
							"type": "uint256"
						}
					],
					"name": "LogReceivedFunds",
					"type": "event"
				},
				{
					"anonymous": false,
					"inputs": [
						{
							"indexed": false,
							"internalType": "address",
							"name": "recipient",
							"type": "address"
						},
						{
							"indexed": false,
							"internalType": "uint256",
							"name": "amount",
							"type": "uint256"
						}
					],
					"name": "LogReturnedFunds",
					"type": "event"
				},
				{
					"inputs": [
						{
							"internalType": "address",
							"name": "",
							"type": "address"
						}
					],
					"name": "balances",
					"outputs": [
						{
							"internalType": "uint256",
							"name": "totalDono",
							"type": "uint256"
						},
						{
							"internalType": "uint256",
							"name": "returnedDono",
							"type": "uint256"
						},
						{
							"internalType": "uint256",
							"name": "returnable",
							"type": "uint256"
						},
						{
							"internalType": "uint256",
							"name": "donorListPointer",
							"type": "uint256"
						}
					],
					"stateMutability": "view",
					"type": "function"
				},
				{
					"inputs": [],
					"name": "donate",
					"outputs": [],
					"stateMutability": "payable",
					"type": "function"
				},
				{
					"inputs": [
						{
							"internalType": "uint256",
							"name": "",
							"type": "uint256"
						}
					],
					"name": "donorList",
					"outputs": [
						{
							"internalType": "address payable",
							"name": "",
							"type": "address"
						}
					],
					"stateMutability": "view",
					"type": "function"
				},
				{
					"inputs": [],
					"name": "returnFunds",
					"outputs": [],
					"stateMutability": "payable",
					"type": "function"
				},
				{
					"inputs": [],
					"name": "sendFunds",
					"outputs": [],
					"stateMutability": "nonpayable",
					"type": "function"
				}
			],
			"devdoc": {
				"kind": "dev",
				"methods": {},
				"version": 1
			},
			"evm": {
				"assembly": "    /* \"contracts/senior project.sol\":62:1862  contract MyContract{... */\n  mstore(0x40, 0x80)\n    /* \"contracts/senior project.sol\":145:218  constructor (address payable _wallet) {... */\n  callvalue\n  dup1\n  iszero\n  tag_1\n  jumpi\n  0x00\n  dup1\n  revert\ntag_1:\n  pop\n  mload(0x40)\n  sub(codesize, bytecodeSize)\n  dup1\n  bytecodeSize\n  dup4\n  codecopy\n  dup2\n  dup2\n  add\n  0x40\n  mstore\n  dup2\n  add\n  swap1\n  tag_2\n  swap2\n  swap1\n  tag_3\n  jump\t// in\ntag_2:\n    /* \"contracts/senior project.sol\":203:210  _wallet */\n  dup1\n    /* \"contracts/senior project.sol\":194:200  wallet */\n  0x00\n  dup1\n    /* \"contracts/senior project.sol\":194:210  wallet = _wallet */\n  0x0100\n  exp\n  dup2\n  sload\n  dup2\n  0xffffffffffffffffffffffffffffffffffffffff\n  mul\n  not\n  and\n  swap1\n  dup4\n  0xffffffffffffffffffffffffffffffffffffffff\n  and\n  mul\n  or\n  swap1\n  sstore\n  pop\n    /* \"contracts/senior project.sol\":145:218  constructor (address payable _wallet) {... */\n  pop\n    /* \"contracts/senior project.sol\":62:1862  contract MyContract{... */\n  jump(tag_6)\n    /* \"#utility.yul\":88:205   */\ntag_8:\n    /* \"#utility.yul\":197:198   */\n  0x00\n    /* \"#utility.yul\":194:195   */\n  dup1\n    /* \"#utility.yul\":187:199   */\n  revert\n    /* \"#utility.yul\":334:460   */\ntag_10:\n    /* \"#utility.yul\":371:378   */\n  0x00\n    /* \"#utility.yul\":411:453   */\n  0xffffffffffffffffffffffffffffffffffffffff\n    /* \"#utility.yul\":404:409   */\n  dup3\n    /* \"#utility.yul\":400:454   */\n  and\n    /* \"#utility.yul\":389:454   */\n  swap1\n  pop\n    /* \"#utility.yul\":334:460   */\n  swap2\n  swap1\n  pop\n  jump\t// out\n    /* \"#utility.yul\":466:570   */\ntag_11:\n    /* \"#utility.yul\":511:518   */\n  0x00\n    /* \"#utility.yul\":540:564   */\n  tag_20\n    /* \"#utility.yul\":558:563   */\n  dup3\n    /* \"#utility.yul\":540:564   */\n  tag_10\n  jump\t// in\ntag_20:\n    /* \"#utility.yul\":529:564   */\n  swap1\n  pop\n    /* \"#utility.yul\":466:570   */\n  swap2\n  swap1\n  pop\n  jump\t// out\n    /* \"#utility.yul\":576:714   */\ntag_12:\n    /* \"#utility.yul\":657:689   */\n  tag_22\n    /* \"#utility.yul\":683:688   */\n  dup2\n    /* \"#utility.yul\":657:689   */\n  tag_11\n  jump\t// in\ntag_22:\n    /* \"#utility.yul\":650:655   */\n  dup2\n    /* \"#utility.yul\":647:690   */\n  eq\n    /* \"#utility.yul\":637:708   */\n  tag_23\n  jumpi\n    /* \"#utility.yul\":704:705   */\n  0x00\n    /* \"#utility.yul\":701:702   */\n  dup1\n    /* \"#utility.yul\":694:706   */\n  revert\n    /* \"#utility.yul\":637:708   */\ntag_23:\n    /* \"#utility.yul\":576:714   */\n  pop\n  jump\t// out\n    /* \"#utility.yul\":720:879   */\ntag_13:\n    /* \"#utility.yul\":785:790   */\n  0x00\n    /* \"#utility.yul\":816:822   */\n  dup2\n    /* \"#utility.yul\":810:823   */\n  mload\n    /* \"#utility.yul\":801:823   */\n  swap1\n  pop\n    /* \"#utility.yul\":832:873   */\n  tag_25\n    /* \"#utility.yul\":867:872   */\n  dup2\n    /* \"#utility.yul\":832:873   */\n  tag_12\n  jump\t// in\ntag_25:\n    /* \"#utility.yul\":720:879   */\n  swap3\n  swap2\n  pop\n  pop\n  jump\t// out\n    /* \"#utility.yul\":885:1252   */\ntag_3:\n    /* \"#utility.yul\":963:969   */\n  0x00\n    /* \"#utility.yul\":1012:1014   */\n  0x20\n    /* \"#utility.yul\":1000:1009   */\n  dup3\n    /* \"#utility.yul\":991:998   */\n  dup5\n    /* \"#utility.yul\":987:1010   */\n  sub\n    /* \"#utility.yul\":983:1015   */\n  slt\n    /* \"#utility.yul\":980:1099   */\n  iszero\n  tag_27\n  jumpi\n    /* \"#utility.yul\":1018:1097   */\n  tag_28\n  tag_8\n  jump\t// in\ntag_28:\n    /* \"#utility.yul\":980:1099   */\ntag_27:\n    /* \"#utility.yul\":1138:1139   */\n  0x00\n    /* \"#utility.yul\":1163:1235   */\n  tag_29\n    /* \"#utility.yul\":1227:1234   */\n  dup5\n    /* \"#utility.yul\":1218:1224   */\n  dup3\n    /* \"#utility.yul\":1207:1216   */\n  dup6\n    /* \"#utility.yul\":1203:1225   */\n  add\n    /* \"#utility.yul\":1163:1235   */\n  tag_13\n  jump\t// in\ntag_29:\n    /* \"#utility.yul\":1153:1235   */\n  swap2\n  pop\n    /* \"#utility.yul\":1109:1245   */\n  pop\n    /* \"#utility.yul\":885:1252   */\n  swap3\n  swap2\n  pop\n  pop\n  jump\t// out\n    /* \"contracts/senior project.sol\":62:1862  contract MyContract{... */\ntag_6:\n  dataSize(sub_0)\n  dup1\n  dataOffset(sub_0)\n  0x00\n  codecopy\n  0x00\n  return\nstop\n\nsub_0: assembly {\n        /* \"contracts/senior project.sol\":62:1862  contract MyContract{... */\n      mstore(0x40, 0x80)\n      jumpi(tag_1, lt(calldatasize, 0x04))\n      shr(0xe0, calldataload(0x00))\n      dup1\n      0x1eb5ea2e\n      eq\n      tag_2\n      jumpi\n      dup1\n      0x27e235e3\n      eq\n      tag_3\n      jumpi\n      dup1\n      0x5eed3dcb\n      eq\n      tag_4\n      jumpi\n      dup1\n      0x8d68cf59\n      eq\n      tag_5\n      jumpi\n      dup1\n      0xed88c68e\n      eq\n      tag_6\n      jumpi\n    tag_1:\n      0x00\n      dup1\n      revert\n        /* \"contracts/senior project.sol\":1329:1857  function returnFunds() public payable{... */\n    tag_2:\n      tag_7\n      tag_8\n      jump\t// in\n    tag_7:\n      stop\n        /* \"contracts/senior project.sol\":381:422  mapping(address => donor) public balances */\n    tag_3:\n      callvalue\n      dup1\n      iszero\n      tag_9\n      jumpi\n      0x00\n      dup1\n      revert\n    tag_9:\n      pop\n      tag_10\n      0x04\n      dup1\n      calldatasize\n      sub\n      dup2\n      add\n      swap1\n      tag_11\n      swap2\n      swap1\n      tag_12\n      jump\t// in\n    tag_11:\n      tag_13\n      jump\t// in\n    tag_10:\n      mload(0x40)\n      tag_14\n      swap5\n      swap4\n      swap3\n      swap2\n      swap1\n      tag_15\n      jump\t// in\n    tag_14:\n      mload(0x40)\n      dup1\n      swap2\n      sub\n      swap1\n      return\n        /* \"contracts/senior project.sol\":429:463  address payable[] public donorList */\n    tag_4:\n      callvalue\n      dup1\n      iszero\n      tag_16\n      jumpi\n      0x00\n      dup1\n      revert\n    tag_16:\n      pop\n      tag_17\n      0x04\n      dup1\n      calldatasize\n      sub\n      dup2\n      add\n      swap1\n      tag_18\n      swap2\n      swap1\n      tag_19\n      jump\t// in\n    tag_18:\n      tag_20\n      jump\t// in\n    tag_17:\n      mload(0x40)\n      tag_21\n      swap2\n      swap1\n      tag_22\n      jump\t// in\n    tag_21:\n      mload(0x40)\n      dup1\n      swap2\n      sub\n      swap1\n      return\n        /* \"contracts/senior project.sol\":1116:1258  function sendFunds () public{... */\n    tag_5:\n      callvalue\n      dup1\n      iszero\n      tag_23\n      jumpi\n      0x00\n      dup1\n      revert\n    tag_23:\n      pop\n      tag_24\n      tag_25\n      jump\t// in\n    tag_24:\n      stop\n        /* \"contracts/senior project.sol\":733:1044  function donate() public payable{... */\n    tag_6:\n      tag_26\n      tag_27\n      jump\t// in\n    tag_26:\n      stop\n        /* \"contracts/senior project.sol\":1329:1857  function returnFunds() public payable{... */\n    tag_8:\n        /* \"contracts/senior project.sol\":1381:1387  uint i */\n      0x00\n        /* \"contracts/senior project.sol\":1377:1795  for(uint i; i < donorList.length-1; i++){... */\n    tag_29:\n        /* \"contracts/senior project.sol\":1410:1411  1 */\n      0x01\n        /* \"contracts/senior project.sol\":1393:1402  donorList */\n      0x03\n        /* \"contracts/senior project.sol\":1393:1409  donorList.length */\n      dup1\n      sload\n      swap1\n      pop\n        /* \"contracts/senior project.sol\":1393:1411  donorList.length-1 */\n      tag_32\n      swap2\n      swap1\n      tag_33\n      jump\t// in\n    tag_32:\n        /* \"contracts/senior project.sol\":1389:1390  i */\n      dup2\n        /* \"contracts/senior project.sol\":1389:1411  i < donorList.length-1 */\n      lt\n        /* \"contracts/senior project.sol\":1377:1795  for(uint i; i < donorList.length-1; i++){... */\n      iszero\n      tag_30\n      jumpi\n        /* \"contracts/senior project.sol\":1546:1547  0 */\n      0x00\n        /* \"contracts/senior project.sol\":1510:1518  balances */\n      0x02\n        /* \"contracts/senior project.sol\":1510:1532  balances[donorList[i]] */\n      0x00\n        /* \"contracts/senior project.sol\":1519:1528  donorList */\n      0x03\n        /* \"contracts/senior project.sol\":1529:1530  i */\n      dup5\n        /* \"contracts/senior project.sol\":1519:1531  donorList[i] */\n      dup2\n      sload\n      dup2\n      lt\n      tag_34\n      jumpi\n      tag_35\n      tag_36\n      jump\t// in\n    tag_35:\n    tag_34:\n      swap1\n      0x00\n      mstore\n      keccak256(0x00, 0x20)\n      add\n      0x00\n      swap1\n      sload\n      swap1\n      0x0100\n      exp\n      swap1\n      div\n      0xffffffffffffffffffffffffffffffffffffffff\n      and\n        /* \"contracts/senior project.sol\":1510:1532  balances[donorList[i]] */\n      0xffffffffffffffffffffffffffffffffffffffff\n      and\n      0xffffffffffffffffffffffffffffffffffffffff\n      and\n      dup2\n      mstore\n      0x20\n      add\n      swap1\n      dup2\n      mstore\n      0x20\n      add\n      0x00\n      keccak256\n        /* \"contracts/senior project.sol\":1510:1543  balances[donorList[i]].returnable */\n      0x02\n      add\n      sload\n        /* \"contracts/senior project.sol\":1510:1547  balances[donorList[i]].returnable > 0 */\n      gt\n        /* \"contracts/senior project.sol\":1507:1784  if(balances[donorList[i]].returnable > 0){... */\n      iszero\n      tag_38\n      jumpi\n        /* \"contracts/senior project.sol\":1567:1576  donorList */\n      0x03\n        /* \"contracts/senior project.sol\":1577:1578  i */\n      dup2\n        /* \"contracts/senior project.sol\":1567:1579  donorList[i] */\n      dup2\n      sload\n      dup2\n      lt\n      tag_39\n      jumpi\n      tag_40\n      tag_36\n      jump\t// in\n    tag_40:\n    tag_39:\n      swap1\n      0x00\n      mstore\n      keccak256(0x00, 0x20)\n      add\n      0x00\n      swap1\n      sload\n      swap1\n      0x0100\n      exp\n      swap1\n      div\n      0xffffffffffffffffffffffffffffffffffffffff\n      and\n        /* \"contracts/senior project.sol\":1567:1588  donorList[i].transfer */\n      0xffffffffffffffffffffffffffffffffffffffff\n      and\n        /* \"contracts/senior project.sol\":1567:1623  donorList[i].transfer(balances[donorList[i]].returnable) */\n      0x08fc\n        /* \"contracts/senior project.sol\":1589:1597  balances */\n      0x02\n        /* \"contracts/senior project.sol\":1589:1611  balances[donorList[i]] */\n      0x00\n        /* \"contracts/senior project.sol\":1598:1607  donorList */\n      0x03\n        /* \"contracts/senior project.sol\":1608:1609  i */\n      dup6\n        /* \"contracts/senior project.sol\":1598:1610  donorList[i] */\n      dup2\n      sload\n      dup2\n      lt\n      tag_42\n      jumpi\n      tag_43\n      tag_36\n      jump\t// in\n    tag_43:\n    tag_42:\n      swap1\n      0x00\n      mstore\n      keccak256(0x00, 0x20)\n      add\n      0x00\n      swap1\n      sload\n      swap1\n      0x0100\n      exp\n      swap1\n      div\n      0xffffffffffffffffffffffffffffffffffffffff\n      and\n        /* \"contracts/senior project.sol\":1589:1611  balances[donorList[i]] */\n      0xffffffffffffffffffffffffffffffffffffffff\n      and\n      0xffffffffffffffffffffffffffffffffffffffff\n      and\n      dup2\n      mstore\n      0x20\n      add\n      swap1\n      dup2\n      mstore\n      0x20\n      add\n      0x00\n      keccak256\n        /* \"contracts/senior project.sol\":1589:1622  balances[donorList[i]].returnable */\n      0x02\n      add\n      sload\n        /* \"contracts/senior project.sol\":1567:1623  donorList[i].transfer(balances[donorList[i]].returnable) */\n      swap1\n      dup2\n      iszero\n      mul\n      swap1\n      mload(0x40)\n      0x00\n      mload(0x40)\n      dup1\n      dup4\n      sub\n      dup2\n      dup6\n      dup9\n      dup9\n      call\n      swap4\n      pop\n      pop\n      pop\n      pop\n      iszero\n      dup1\n      iszero\n      tag_46\n      jumpi\n      returndatasize\n      0x00\n      dup1\n      returndatacopy\n      revert(0x00, returndatasize)\n    tag_46:\n      pop\n        /* \"contracts/senior project.sol\":1681:1689  balances */\n      0x02\n        /* \"contracts/senior project.sol\":1681:1701  balances[msg.sender] */\n      0x00\n        /* \"contracts/senior project.sol\":1690:1700  msg.sender */\n      caller\n        /* \"contracts/senior project.sol\":1681:1701  balances[msg.sender] */\n      0xffffffffffffffffffffffffffffffffffffffff\n      and\n      0xffffffffffffffffffffffffffffffffffffffff\n      and\n      dup2\n      mstore\n      0x20\n      add\n      swap1\n      dup2\n      mstore\n      0x20\n      add\n      0x00\n      keccak256\n        /* \"contracts/senior project.sol\":1681:1711  balances[msg.sender].totalDono */\n      0x00\n      add\n      sload\n        /* \"contracts/senior project.sol\":1642:1650  balances */\n      0x02\n        /* \"contracts/senior project.sol\":1642:1664  balances[donorList[i]] */\n      0x00\n        /* \"contracts/senior project.sol\":1651:1660  donorList */\n      0x03\n        /* \"contracts/senior project.sol\":1661:1662  i */\n      dup5\n        /* \"contracts/senior project.sol\":1651:1663  donorList[i] */\n      dup2\n      sload\n      dup2\n      lt\n      tag_47\n      jumpi\n      tag_48\n      tag_36\n      jump\t// in\n    tag_48:\n    tag_47:\n      swap1\n      0x00\n      mstore\n      keccak256(0x00, 0x20)\n      add\n      0x00\n      swap1\n      sload\n      swap1\n      0x0100\n      exp\n      swap1\n      div\n      0xffffffffffffffffffffffffffffffffffffffff\n      and\n        /* \"contracts/senior project.sol\":1642:1664  balances[donorList[i]] */\n      0xffffffffffffffffffffffffffffffffffffffff\n      and\n      0xffffffffffffffffffffffffffffffffffffffff\n      and\n      dup2\n      mstore\n      0x20\n      add\n      swap1\n      dup2\n      mstore\n      0x20\n      add\n      0x00\n      keccak256\n        /* \"contracts/senior project.sol\":1642:1677  balances[donorList[i]].returnedDono */\n      pop\n        /* \"contracts/senior project.sol\":1642:1711  balances[donorList[i]].returnedDono == balances[msg.sender].totalDono */\n      pop\n        /* \"contracts/senior project.sol\":1767:1768  0 */\n      0x00\n        /* \"contracts/senior project.sol\":1730:1738  balances */\n      0x02\n        /* \"contracts/senior project.sol\":1730:1752  balances[donorList[i]] */\n      0x00\n        /* \"contracts/senior project.sol\":1739:1748  donorList */\n      0x03\n        /* \"contracts/senior project.sol\":1749:1750  i */\n      dup5\n        /* \"contracts/senior project.sol\":1739:1751  donorList[i] */\n      dup2\n      sload\n      dup2\n      lt\n      tag_50\n      jumpi\n      tag_51\n      tag_36\n      jump\t// in\n    tag_51:\n    tag_50:\n      swap1\n      0x00\n      mstore\n      keccak256(0x00, 0x20)\n      add\n      0x00\n      swap1\n      sload\n      swap1\n      0x0100\n      exp\n      swap1\n      div\n      0xffffffffffffffffffffffffffffffffffffffff\n      and\n        /* \"contracts/senior project.sol\":1730:1752  balances[donorList[i]] */\n      0xffffffffffffffffffffffffffffffffffffffff\n      and\n      0xffffffffffffffffffffffffffffffffffffffff\n      and\n      dup2\n      mstore\n      0x20\n      add\n      swap1\n      dup2\n      mstore\n      0x20\n      add\n      0x00\n      keccak256\n        /* \"contracts/senior project.sol\":1730:1763  balances[donorList[i]].returnable */\n      pop\n        /* \"contracts/senior project.sol\":1730:1768  balances[donorList[i]].returnable == 0 */\n      pop\n        /* \"contracts/senior project.sol\":1507:1784  if(balances[donorList[i]].returnable > 0){... */\n    tag_38:\n        /* \"contracts/senior project.sol\":1413:1416  i++ */\n      dup1\n      dup1\n      tag_53\n      swap1\n      tag_54\n      jump\t// in\n    tag_53:\n      swap2\n      pop\n      pop\n        /* \"contracts/senior project.sol\":1377:1795  for(uint i; i < donorList.length-1; i++){... */\n      jump(tag_29)\n    tag_30:\n      pop\n        /* \"contracts/senior project.sol\":1810:1849  LogReturnedFunds(msg.sender, msg.value) */\n      0xe0e5873eb9d996d2ab087b071a9a50522121c02b43308c8728c06739f52b3f87\n        /* \"contracts/senior project.sol\":1827:1837  msg.sender */\n      caller\n        /* \"contracts/senior project.sol\":1839:1848  msg.value */\n      callvalue\n        /* \"contracts/senior project.sol\":1810:1849  LogReturnedFunds(msg.sender, msg.value) */\n      mload(0x40)\n      tag_55\n      swap3\n      swap2\n      swap1\n      tag_56\n      jump\t// in\n    tag_55:\n      mload(0x40)\n      dup1\n      swap2\n      sub\n      swap1\n      log1\n        /* \"contracts/senior project.sol\":1329:1857  function returnFunds() public payable{... */\n      jump\t// out\n        /* \"contracts/senior project.sol\":381:422  mapping(address => donor) public balances */\n    tag_13:\n      mstore(0x20, 0x02)\n      dup1\n      0x00\n      mstore\n      keccak256(0x00, 0x40)\n      0x00\n      swap2\n      pop\n      swap1\n      pop\n      dup1\n      0x00\n      add\n      sload\n      swap1\n      dup1\n      0x01\n      add\n      sload\n      swap1\n      dup1\n      0x02\n      add\n      sload\n      swap1\n      dup1\n      0x03\n      add\n      sload\n      swap1\n      pop\n      dup5\n      jump\t// out\n        /* \"contracts/senior project.sol\":429:463  address payable[] public donorList */\n    tag_20:\n      0x03\n      dup2\n      dup2\n      sload\n      dup2\n      lt\n      tag_57\n      jumpi\n      0x00\n      dup1\n      revert\n    tag_57:\n      swap1\n      0x00\n      mstore\n      keccak256(0x00, 0x20)\n      add\n      0x00\n      swap2\n      pop\n      sload\n      swap1\n      0x0100\n      exp\n      swap1\n      div\n      0xffffffffffffffffffffffffffffffffffffffff\n      and\n      dup2\n      jump\t// out\n        /* \"contracts/senior project.sol\":1116:1258  function sendFunds () public{... */\n    tag_25:\n        /* \"contracts/senior project.sol\":1155:1161  wallet */\n      0x00\n      dup1\n      sload\n      swap1\n      0x0100\n      exp\n      swap1\n      div\n      0xffffffffffffffffffffffffffffffffffffffff\n      and\n        /* \"contracts/senior project.sol\":1155:1170  wallet.transfer */\n      0xffffffffffffffffffffffffffffffffffffffff\n      and\n        /* \"contracts/senior project.sol\":1155:1202  wallet.transfer(balances[msg.sender].totalDono) */\n      0x08fc\n        /* \"contracts/senior project.sol\":1171:1179  balances */\n      0x02\n        /* \"contracts/senior project.sol\":1171:1191  balances[msg.sender] */\n      0x00\n        /* \"contracts/senior project.sol\":1180:1190  msg.sender */\n      caller\n        /* \"contracts/senior project.sol\":1171:1191  balances[msg.sender] */\n      0xffffffffffffffffffffffffffffffffffffffff\n      and\n      0xffffffffffffffffffffffffffffffffffffffff\n      and\n      dup2\n      mstore\n      0x20\n      add\n      swap1\n      dup2\n      mstore\n      0x20\n      add\n      0x00\n      keccak256\n        /* \"contracts/senior project.sol\":1171:1201  balances[msg.sender].totalDono */\n      0x00\n      add\n      sload\n        /* \"contracts/senior project.sol\":1155:1202  wallet.transfer(balances[msg.sender].totalDono) */\n      swap1\n      dup2\n      iszero\n      mul\n      swap1\n      mload(0x40)\n      0x00\n      mload(0x40)\n      dup1\n      dup4\n      sub\n      dup2\n      dup6\n      dup9\n      dup9\n      call\n      swap4\n      pop\n      pop\n      pop\n      pop\n      iszero\n      dup1\n      iszero\n      tag_61\n      jumpi\n      returndatasize\n      0x00\n      dup1\n      returndatacopy\n      revert(0x00, returndatasize)\n    tag_61:\n      pop\n        /* \"contracts/senior project.sol\":1249:1250  0 */\n      0x00\n        /* \"contracts/senior project.sol\":1214:1222  balances */\n      0x02\n        /* \"contracts/senior project.sol\":1214:1234  balances[msg.sender] */\n      0x00\n        /* \"contracts/senior project.sol\":1223:1233  msg.sender */\n      caller\n        /* \"contracts/senior project.sol\":1214:1234  balances[msg.sender] */\n      0xffffffffffffffffffffffffffffffffffffffff\n      and\n      0xffffffffffffffffffffffffffffffffffffffff\n      and\n      dup2\n      mstore\n      0x20\n      add\n      swap1\n      dup2\n      mstore\n      0x20\n      add\n      0x00\n      keccak256\n        /* \"contracts/senior project.sol\":1214:1245  balances[msg.sender].returnable */\n      pop\n        /* \"contracts/senior project.sol\":1214:1250  balances[msg.sender].returnable == 0 */\n      pop\n        /* \"contracts/senior project.sol\":1116:1258  function sendFunds () public{... */\n      jump\t// out\n        /* \"contracts/senior project.sol\":733:1044  function donate() public payable{... */\n    tag_27:\n        /* \"contracts/senior project.sol\":810:819  msg.value */\n      callvalue\n        /* \"contracts/senior project.sol\":776:784  balances */\n      0x02\n        /* \"contracts/senior project.sol\":776:796  balances[msg.sender] */\n      0x00\n        /* \"contracts/senior project.sol\":785:795  msg.sender */\n      caller\n        /* \"contracts/senior project.sol\":776:796  balances[msg.sender] */\n      0xffffffffffffffffffffffffffffffffffffffff\n      and\n      0xffffffffffffffffffffffffffffffffffffffff\n      and\n      dup2\n      mstore\n      0x20\n      add\n      swap1\n      dup2\n      mstore\n      0x20\n      add\n      0x00\n      keccak256\n        /* \"contracts/senior project.sol\":776:806  balances[msg.sender].totalDono */\n      0x00\n      add\n      0x00\n        /* \"contracts/senior project.sol\":776:819  balances[msg.sender].totalDono += msg.value */\n      dup3\n      dup3\n      sload\n      tag_63\n      swap2\n      swap1\n      tag_64\n      jump\t// in\n    tag_63:\n      swap3\n      pop\n      pop\n      dup2\n      swap1\n      sstore\n      pop\n        /* \"contracts/senior project.sol\":865:874  msg.value */\n      callvalue\n        /* \"contracts/senior project.sol\":830:838  balances */\n      0x02\n        /* \"contracts/senior project.sol\":830:850  balances[msg.sender] */\n      0x00\n        /* \"contracts/senior project.sol\":839:849  msg.sender */\n      caller\n        /* \"contracts/senior project.sol\":830:850  balances[msg.sender] */\n      0xffffffffffffffffffffffffffffffffffffffff\n      and\n      0xffffffffffffffffffffffffffffffffffffffff\n      and\n      dup2\n      mstore\n      0x20\n      add\n      swap1\n      dup2\n      mstore\n      0x20\n      add\n      0x00\n      keccak256\n        /* \"contracts/senior project.sol\":830:861  balances[msg.sender].returnable */\n      0x02\n      add\n      0x00\n        /* \"contracts/senior project.sol\":830:874  balances[msg.sender].returnable += msg.value */\n      dup3\n      dup3\n      sload\n      tag_65\n      swap2\n      swap1\n      tag_64\n      jump\t// in\n    tag_65:\n      swap3\n      pop\n      pop\n      dup2\n      swap1\n      sstore\n      pop\n        /* \"contracts/senior project.sol\":925:933  Dcounter */\n      0x01\n      0x00\n        /* \"contracts/senior project.sol\":925:935  Dcounter++ */\n      dup2\n      sload\n      dup1\n      swap3\n      swap2\n      swap1\n      tag_66\n      swap1\n      tag_54\n      jump\t// in\n    tag_66:\n      swap2\n      swap1\n      pop\n      sstore\n        /* \"contracts/senior project.sol\":885:893  balances */\n      0x02\n        /* \"contracts/senior project.sol\":885:905  balances[msg.sender] */\n      0x00\n        /* \"contracts/senior project.sol\":894:904  msg.sender */\n      caller\n        /* \"contracts/senior project.sol\":885:905  balances[msg.sender] */\n      0xffffffffffffffffffffffffffffffffffffffff\n      and\n      0xffffffffffffffffffffffffffffffffffffffff\n      and\n      dup2\n      mstore\n      0x20\n      add\n      swap1\n      dup2\n      mstore\n      0x20\n      add\n      0x00\n      keccak256\n        /* \"contracts/senior project.sol\":885:922  balances[msg.sender].donorListPointer */\n      0x03\n      add\n        /* \"contracts/senior project.sol\":885:935  balances[msg.sender].donorListPointer = Dcounter++ */\n      dup2\n      swap1\n      sstore\n      pop\n        /* \"contracts/senior project.sol\":946:955  donorList */\n      0x03\n        /* \"contracts/senior project.sol\":969:979  msg.sender */\n      caller\n        /* \"contracts/senior project.sol\":946:981  donorList.push(payable(msg.sender)) */\n      swap1\n      dup1\n      0x01\n      dup2\n      sload\n      add\n      dup1\n      dup3\n      sstore\n      dup1\n      swap2\n      pop\n      pop\n      0x01\n      swap1\n      sub\n      swap1\n      0x00\n      mstore\n      keccak256(0x00, 0x20)\n      add\n      0x00\n      swap1\n      swap2\n      swap1\n      swap2\n      swap1\n      swap2\n      0x0100\n      exp\n      dup2\n      sload\n      dup2\n      0xffffffffffffffffffffffffffffffffffffffff\n      mul\n      not\n      and\n      swap1\n      dup4\n      0xffffffffffffffffffffffffffffffffffffffff\n      and\n      mul\n      or\n      swap1\n      sstore\n      pop\n        /* \"contracts/senior project.sol\":997:1036  LogReceivedFunds(msg.sender, msg.value) */\n      0x81d2c188629cc4a1c694d285150cb5fa3dde3157a2684460d3ac7a1e331f6164\n        /* \"contracts/senior project.sol\":1014:1024  msg.sender */\n      caller\n        /* \"contracts/senior project.sol\":1026:1035  msg.value */\n      callvalue\n        /* \"contracts/senior project.sol\":997:1036  LogReceivedFunds(msg.sender, msg.value) */\n      mload(0x40)\n      tag_68\n      swap3\n      swap2\n      swap1\n      tag_56\n      jump\t// in\n    tag_68:\n      mload(0x40)\n      dup1\n      swap2\n      sub\n      swap1\n      log1\n        /* \"contracts/senior project.sol\":733:1044  function donate() public payable{... */\n      jump\t// out\n        /* \"#utility.yul\":88:205   */\n    tag_70:\n        /* \"#utility.yul\":197:198   */\n      0x00\n        /* \"#utility.yul\":194:195   */\n      dup1\n        /* \"#utility.yul\":187:199   */\n      revert\n        /* \"#utility.yul\":334:460   */\n    tag_72:\n        /* \"#utility.yul\":371:378   */\n      0x00\n        /* \"#utility.yul\":411:453   */\n      0xffffffffffffffffffffffffffffffffffffffff\n        /* \"#utility.yul\":404:409   */\n      dup3\n        /* \"#utility.yul\":400:454   */\n      and\n        /* \"#utility.yul\":389:454   */\n      swap1\n      pop\n        /* \"#utility.yul\":334:460   */\n      swap2\n      swap1\n      pop\n      jump\t// out\n        /* \"#utility.yul\":466:562   */\n    tag_73:\n        /* \"#utility.yul\":503:510   */\n      0x00\n        /* \"#utility.yul\":532:556   */\n      tag_90\n        /* \"#utility.yul\":550:555   */\n      dup3\n        /* \"#utility.yul\":532:556   */\n      tag_72\n      jump\t// in\n    tag_90:\n        /* \"#utility.yul\":521:556   */\n      swap1\n      pop\n        /* \"#utility.yul\":466:562   */\n      swap2\n      swap1\n      pop\n      jump\t// out\n        /* \"#utility.yul\":568:690   */\n    tag_74:\n        /* \"#utility.yul\":641:665   */\n      tag_92\n        /* \"#utility.yul\":659:664   */\n      dup2\n        /* \"#utility.yul\":641:665   */\n      tag_73\n      jump\t// in\n    tag_92:\n        /* \"#utility.yul\":634:639   */\n      dup2\n        /* \"#utility.yul\":631:666   */\n      eq\n        /* \"#utility.yul\":621:684   */\n      tag_93\n      jumpi\n        /* \"#utility.yul\":680:681   */\n      0x00\n        /* \"#utility.yul\":677:678   */\n      dup1\n        /* \"#utility.yul\":670:682   */\n      revert\n        /* \"#utility.yul\":621:684   */\n    tag_93:\n        /* \"#utility.yul\":568:690   */\n      pop\n      jump\t// out\n        /* \"#utility.yul\":696:835   */\n    tag_75:\n        /* \"#utility.yul\":742:747   */\n      0x00\n        /* \"#utility.yul\":780:786   */\n      dup2\n        /* \"#utility.yul\":767:787   */\n      calldataload\n        /* \"#utility.yul\":758:787   */\n      swap1\n      pop\n        /* \"#utility.yul\":796:829   */\n      tag_95\n        /* \"#utility.yul\":823:828   */\n      dup2\n        /* \"#utility.yul\":796:829   */\n      tag_74\n      jump\t// in\n    tag_95:\n        /* \"#utility.yul\":696:835   */\n      swap3\n      swap2\n      pop\n      pop\n      jump\t// out\n        /* \"#utility.yul\":841:1170   */\n    tag_12:\n        /* \"#utility.yul\":900:906   */\n      0x00\n        /* \"#utility.yul\":949:951   */\n      0x20\n        /* \"#utility.yul\":937:946   */\n      dup3\n        /* \"#utility.yul\":928:935   */\n      dup5\n        /* \"#utility.yul\":924:947   */\n      sub\n        /* \"#utility.yul\":920:952   */\n      slt\n        /* \"#utility.yul\":917:1036   */\n      iszero\n      tag_97\n      jumpi\n        /* \"#utility.yul\":955:1034   */\n      tag_98\n      tag_70\n      jump\t// in\n    tag_98:\n        /* \"#utility.yul\":917:1036   */\n    tag_97:\n        /* \"#utility.yul\":1075:1076   */\n      0x00\n        /* \"#utility.yul\":1100:1153   */\n      tag_99\n        /* \"#utility.yul\":1145:1152   */\n      dup5\n        /* \"#utility.yul\":1136:1142   */\n      dup3\n        /* \"#utility.yul\":1125:1134   */\n      dup6\n        /* \"#utility.yul\":1121:1143   */\n      add\n        /* \"#utility.yul\":1100:1153   */\n      tag_75\n      jump\t// in\n    tag_99:\n        /* \"#utility.yul\":1090:1153   */\n      swap2\n      pop\n        /* \"#utility.yul\":1046:1163   */\n      pop\n        /* \"#utility.yul\":841:1170   */\n      swap3\n      swap2\n      pop\n      pop\n      jump\t// out\n        /* \"#utility.yul\":1176:1253   */\n    tag_76:\n        /* \"#utility.yul\":1213:1220   */\n      0x00\n        /* \"#utility.yul\":1242:1247   */\n      dup2\n        /* \"#utility.yul\":1231:1247   */\n      swap1\n      pop\n        /* \"#utility.yul\":1176:1253   */\n      swap2\n      swap1\n      pop\n      jump\t// out\n        /* \"#utility.yul\":1259:1377   */\n    tag_77:\n        /* \"#utility.yul\":1346:1370   */\n      tag_102\n        /* \"#utility.yul\":1364:1369   */\n      dup2\n        /* \"#utility.yul\":1346:1370   */\n      tag_76\n      jump\t// in\n    tag_102:\n        /* \"#utility.yul\":1341:1344   */\n      dup3\n        /* \"#utility.yul\":1334:1371   */\n      mstore\n        /* \"#utility.yul\":1259:1377   */\n      pop\n      pop\n      jump\t// out\n        /* \"#utility.yul\":1383:1936   */\n    tag_15:\n        /* \"#utility.yul\":1560:1564   */\n      0x00\n        /* \"#utility.yul\":1598:1601   */\n      0x80\n        /* \"#utility.yul\":1587:1596   */\n      dup3\n        /* \"#utility.yul\":1583:1602   */\n      add\n        /* \"#utility.yul\":1575:1602   */\n      swap1\n      pop\n        /* \"#utility.yul\":1612:1683   */\n      tag_104\n        /* \"#utility.yul\":1680:1681   */\n      0x00\n        /* \"#utility.yul\":1669:1678   */\n      dup4\n        /* \"#utility.yul\":1665:1682   */\n      add\n        /* \"#utility.yul\":1656:1662   */\n      dup8\n        /* \"#utility.yul\":1612:1683   */\n      tag_77\n      jump\t// in\n    tag_104:\n        /* \"#utility.yul\":1693:1765   */\n      tag_105\n        /* \"#utility.yul\":1761:1763   */\n      0x20\n        /* \"#utility.yul\":1750:1759   */\n      dup4\n        /* \"#utility.yul\":1746:1764   */\n      add\n        /* \"#utility.yul\":1737:1743   */\n      dup7\n        /* \"#utility.yul\":1693:1765   */\n      tag_77\n      jump\t// in\n    tag_105:\n        /* \"#utility.yul\":1775:1847   */\n      tag_106\n        /* \"#utility.yul\":1843:1845   */\n      0x40\n        /* \"#utility.yul\":1832:1841   */\n      dup4\n        /* \"#utility.yul\":1828:1846   */\n      add\n        /* \"#utility.yul\":1819:1825   */\n      dup6\n        /* \"#utility.yul\":1775:1847   */\n      tag_77\n      jump\t// in\n    tag_106:\n        /* \"#utility.yul\":1857:1929   */\n      tag_107\n        /* \"#utility.yul\":1925:1927   */\n      0x60\n        /* \"#utility.yul\":1914:1923   */\n      dup4\n        /* \"#utility.yul\":1910:1928   */\n      add\n        /* \"#utility.yul\":1901:1907   */\n      dup5\n        /* \"#utility.yul\":1857:1929   */\n      tag_77\n      jump\t// in\n    tag_107:\n        /* \"#utility.yul\":1383:1936   */\n      swap6\n      swap5\n      pop\n      pop\n      pop\n      pop\n      pop\n      jump\t// out\n        /* \"#utility.yul\":1942:2064   */\n    tag_78:\n        /* \"#utility.yul\":2015:2039   */\n      tag_109\n        /* \"#utility.yul\":2033:2038   */\n      dup2\n        /* \"#utility.yul\":2015:2039   */\n      tag_76\n      jump\t// in\n    tag_109:\n        /* \"#utility.yul\":2008:2013   */\n      dup2\n        /* \"#utility.yul\":2005:2040   */\n      eq\n        /* \"#utility.yul\":1995:2058   */\n      tag_110\n      jumpi\n        /* \"#utility.yul\":2054:2055   */\n      0x00\n        /* \"#utility.yul\":2051:2052   */\n      dup1\n        /* \"#utility.yul\":2044:2056   */\n      revert\n        /* \"#utility.yul\":1995:2058   */\n    tag_110:\n        /* \"#utility.yul\":1942:2064   */\n      pop\n      jump\t// out\n        /* \"#utility.yul\":2070:2209   */\n    tag_79:\n        /* \"#utility.yul\":2116:2121   */\n      0x00\n        /* \"#utility.yul\":2154:2160   */\n      dup2\n        /* \"#utility.yul\":2141:2161   */\n      calldataload\n        /* \"#utility.yul\":2132:2161   */\n      swap1\n      pop\n        /* \"#utility.yul\":2170:2203   */\n      tag_112\n        /* \"#utility.yul\":2197:2202   */\n      dup2\n        /* \"#utility.yul\":2170:2203   */\n      tag_78\n      jump\t// in\n    tag_112:\n        /* \"#utility.yul\":2070:2209   */\n      swap3\n      swap2\n      pop\n      pop\n      jump\t// out\n        /* \"#utility.yul\":2215:2544   */\n    tag_19:\n        /* \"#utility.yul\":2274:2280   */\n      0x00\n        /* \"#utility.yul\":2323:2325   */\n      0x20\n        /* \"#utility.yul\":2311:2320   */\n      dup3\n        /* \"#utility.yul\":2302:2309   */\n      dup5\n        /* \"#utility.yul\":2298:2321   */\n      sub\n        /* \"#utility.yul\":2294:2326   */\n      slt\n        /* \"#utility.yul\":2291:2410   */\n      iszero\n      tag_114\n      jumpi\n        /* \"#utility.yul\":2329:2408   */\n      tag_115\n      tag_70\n      jump\t// in\n    tag_115:\n        /* \"#utility.yul\":2291:2410   */\n    tag_114:\n        /* \"#utility.yul\":2449:2450   */\n      0x00\n        /* \"#utility.yul\":2474:2527   */\n      tag_116\n        /* \"#utility.yul\":2519:2526   */\n      dup5\n        /* \"#utility.yul\":2510:2516   */\n      dup3\n        /* \"#utility.yul\":2499:2508   */\n      dup6\n        /* \"#utility.yul\":2495:2517   */\n      add\n        /* \"#utility.yul\":2474:2527   */\n      tag_79\n      jump\t// in\n    tag_116:\n        /* \"#utility.yul\":2464:2527   */\n      swap2\n      pop\n        /* \"#utility.yul\":2420:2537   */\n      pop\n        /* \"#utility.yul\":2215:2544   */\n      swap3\n      swap2\n      pop\n      pop\n      jump\t// out\n        /* \"#utility.yul\":2550:2654   */\n    tag_80:\n        /* \"#utility.yul\":2595:2602   */\n      0x00\n        /* \"#utility.yul\":2624:2648   */\n      tag_118\n        /* \"#utility.yul\":2642:2647   */\n      dup3\n        /* \"#utility.yul\":2624:2648   */\n      tag_72\n      jump\t// in\n    tag_118:\n        /* \"#utility.yul\":2613:2648   */\n      swap1\n      pop\n        /* \"#utility.yul\":2550:2654   */\n      swap2\n      swap1\n      pop\n      jump\t// out\n        /* \"#utility.yul\":2660:2802   */\n    tag_81:\n        /* \"#utility.yul\":2763:2795   */\n      tag_120\n        /* \"#utility.yul\":2789:2794   */\n      dup2\n        /* \"#utility.yul\":2763:2795   */\n      tag_80\n      jump\t// in\n    tag_120:\n        /* \"#utility.yul\":2758:2761   */\n      dup3\n        /* \"#utility.yul\":2751:2796   */\n      mstore\n        /* \"#utility.yul\":2660:2802   */\n      pop\n      pop\n      jump\t// out\n        /* \"#utility.yul\":2808:3062   */\n    tag_22:\n        /* \"#utility.yul\":2917:2921   */\n      0x00\n        /* \"#utility.yul\":2955:2957   */\n      0x20\n        /* \"#utility.yul\":2944:2953   */\n      dup3\n        /* \"#utility.yul\":2940:2958   */\n      add\n        /* \"#utility.yul\":2932:2958   */\n      swap1\n      pop\n        /* \"#utility.yul\":2968:3055   */\n      tag_122\n        /* \"#utility.yul\":3052:3053   */\n      0x00\n        /* \"#utility.yul\":3041:3050   */\n      dup4\n        /* \"#utility.yul\":3037:3054   */\n      add\n        /* \"#utility.yul\":3028:3034   */\n      dup5\n        /* \"#utility.yul\":2968:3055   */\n      tag_81\n      jump\t// in\n    tag_122:\n        /* \"#utility.yul\":2808:3062   */\n      swap3\n      swap2\n      pop\n      pop\n      jump\t// out\n        /* \"#utility.yul\":3068:3248   */\n    tag_82:\n        /* \"#utility.yul\":3116:3193   */\n      0x4e487b7100000000000000000000000000000000000000000000000000000000\n        /* \"#utility.yul\":3113:3114   */\n      0x00\n        /* \"#utility.yul\":3106:3194   */\n      mstore\n        /* \"#utility.yul\":3213:3217   */\n      0x11\n        /* \"#utility.yul\":3210:3211   */\n      0x04\n        /* \"#utility.yul\":3203:3218   */\n      mstore\n        /* \"#utility.yul\":3237:3241   */\n      0x24\n        /* \"#utility.yul\":3234:3235   */\n      0x00\n        /* \"#utility.yul\":3227:3242   */\n      revert\n        /* \"#utility.yul\":3254:3448   */\n    tag_33:\n        /* \"#utility.yul\":3294:3298   */\n      0x00\n        /* \"#utility.yul\":3314:3334   */\n      tag_125\n        /* \"#utility.yul\":3332:3333   */\n      dup3\n        /* \"#utility.yul\":3314:3334   */\n      tag_76\n      jump\t// in\n    tag_125:\n        /* \"#utility.yul\":3309:3334   */\n      swap2\n      pop\n        /* \"#utility.yul\":3348:3368   */\n      tag_126\n        /* \"#utility.yul\":3366:3367   */\n      dup4\n        /* \"#utility.yul\":3348:3368   */\n      tag_76\n      jump\t// in\n    tag_126:\n        /* \"#utility.yul\":3343:3368   */\n      swap3\n      pop\n        /* \"#utility.yul\":3392:3393   */\n      dup3\n        /* \"#utility.yul\":3389:3390   */\n      dup3\n        /* \"#utility.yul\":3385:3394   */\n      sub\n        /* \"#utility.yul\":3377:3394   */\n      swap1\n      pop\n        /* \"#utility.yul\":3416:3417   */\n      dup2\n        /* \"#utility.yul\":3410:3414   */\n      dup2\n        /* \"#utility.yul\":3407:3418   */\n      gt\n        /* \"#utility.yul\":3404:3441   */\n      iszero\n      tag_127\n      jumpi\n        /* \"#utility.yul\":3421:3439   */\n      tag_128\n      tag_82\n      jump\t// in\n    tag_128:\n        /* \"#utility.yul\":3404:3441   */\n    tag_127:\n        /* \"#utility.yul\":3254:3448   */\n      swap3\n      swap2\n      pop\n      pop\n      jump\t// out\n        /* \"#utility.yul\":3454:3634   */\n    tag_36:\n        /* \"#utility.yul\":3502:3579   */\n      0x4e487b7100000000000000000000000000000000000000000000000000000000\n        /* \"#utility.yul\":3499:3500   */\n      0x00\n        /* \"#utility.yul\":3492:3580   */\n      mstore\n        /* \"#utility.yul\":3599:3603   */\n      0x32\n        /* \"#utility.yul\":3596:3597   */\n      0x04\n        /* \"#utility.yul\":3589:3604   */\n      mstore\n        /* \"#utility.yul\":3623:3627   */\n      0x24\n        /* \"#utility.yul\":3620:3621   */\n      0x00\n        /* \"#utility.yul\":3613:3628   */\n      revert\n        /* \"#utility.yul\":3640:3873   */\n    tag_54:\n        /* \"#utility.yul\":3679:3682   */\n      0x00\n        /* \"#utility.yul\":3702:3726   */\n      tag_131\n        /* \"#utility.yul\":3720:3725   */\n      dup3\n        /* \"#utility.yul\":3702:3726   */\n      tag_76\n      jump\t// in\n    tag_131:\n        /* \"#utility.yul\":3693:3726   */\n      swap2\n      pop\n        /* \"#utility.yul\":3748:3814   */\n      0xffffffffffffffffffffffffffffffffffffffffffffffffffffffffffffffff\n        /* \"#utility.yul\":3741:3746   */\n      dup3\n        /* \"#utility.yul\":3738:3815   */\n      sub\n        /* \"#utility.yul\":3735:3838   */\n      tag_132\n      jumpi\n        /* \"#utility.yul\":3818:3836   */\n      tag_133\n      tag_82\n      jump\t// in\n    tag_133:\n        /* \"#utility.yul\":3735:3838   */\n    tag_132:\n        /* \"#utility.yul\":3865:3866   */\n      0x01\n        /* \"#utility.yul\":3858:3863   */\n      dup3\n        /* \"#utility.yul\":3854:3867   */\n      add\n        /* \"#utility.yul\":3847:3867   */\n      swap1\n      pop\n        /* \"#utility.yul\":3640:3873   */\n      swap2\n      swap1\n      pop\n      jump\t// out\n        /* \"#utility.yul\":3879:3997   */\n    tag_83:\n        /* \"#utility.yul\":3966:3990   */\n      tag_135\n        /* \"#utility.yul\":3984:3989   */\n      dup2\n        /* \"#utility.yul\":3966:3990   */\n      tag_73\n      jump\t// in\n    tag_135:\n        /* \"#utility.yul\":3961:3964   */\n      dup3\n        /* \"#utility.yul\":3954:3991   */\n      mstore\n        /* \"#utility.yul\":3879:3997   */\n      pop\n      pop\n      jump\t// out\n        /* \"#utility.yul\":4003:4335   */\n    tag_56:\n        /* \"#utility.yul\":4124:4128   */\n      0x00\n        /* \"#utility.yul\":4162:4164   */\n      0x40\n        /* \"#utility.yul\":4151:4160   */\n      dup3\n        /* \"#utility.yul\":4147:4165   */\n      add\n        /* \"#utility.yul\":4139:4165   */\n      swap1\n      pop\n        /* \"#utility.yul\":4175:4246   */\n      tag_137\n        /* \"#utility.yul\":4243:4244   */\n      0x00\n        /* \"#utility.yul\":4232:4241   */\n      dup4\n        /* \"#utility.yul\":4228:4245   */\n      add\n        /* \"#utility.yul\":4219:4225   */\n      dup6\n        /* \"#utility.yul\":4175:4246   */\n      tag_83\n      jump\t// in\n    tag_137:\n        /* \"#utility.yul\":4256:4328   */\n      tag_138\n        /* \"#utility.yul\":4324:4326   */\n      0x20\n        /* \"#utility.yul\":4313:4322   */\n      dup4\n        /* \"#utility.yul\":4309:4327   */\n      add\n        /* \"#utility.yul\":4300:4306   */\n      dup5\n        /* \"#utility.yul\":4256:4328   */\n      tag_77\n      jump\t// in\n    tag_138:\n        /* \"#utility.yul\":4003:4335   */\n      swap4\n      swap3\n      pop\n      pop\n      pop\n      jump\t// out\n        /* \"#utility.yul\":4341:4532   */\n    tag_64:\n        /* \"#utility.yul\":4381:4384   */\n      0x00\n        /* \"#utility.yul\":4400:4420   */\n      tag_140\n        /* \"#utility.yul\":4418:4419   */\n      dup3\n        /* \"#utility.yul\":4400:4420   */\n      tag_76\n      jump\t// in\n    tag_140:\n        /* \"#utility.yul\":4395:4420   */\n      swap2\n      pop\n        /* \"#utility.yul\":4434:4454   */\n      tag_141\n        /* \"#utility.yul\":4452:4453   */\n      dup4\n        /* \"#utility.yul\":4434:4454   */\n      tag_76\n      jump\t// in\n    tag_141:\n        /* \"#utility.yul\":4429:4454   */\n      swap3\n      pop\n        /* \"#utility.yul\":4477:4478   */\n      dup3\n        /* \"#utility.yul\":4474:4475   */\n      dup3\n        /* \"#utility.yul\":4470:4479   */\n      add\n        /* \"#utility.yul\":4463:4479   */\n      swap1\n      pop\n        /* \"#utility.yul\":4498:4501   */\n      dup1\n        /* \"#utility.yul\":4495:4496   */\n      dup3\n        /* \"#utility.yul\":4492:4502   */\n      gt\n        /* \"#utility.yul\":4489:4525   */\n      iszero\n      tag_142\n      jumpi\n        /* \"#utility.yul\":4505:4523   */\n      tag_143\n      tag_82\n      jump\t// in\n    tag_143:\n        /* \"#utility.yul\":4489:4525   */\n    tag_142:\n        /* \"#utility.yul\":4341:4532   */\n      swap3\n      swap2\n      pop\n      pop\n      jump\t// out\n\n    auxdata: 0xa264697066735822122067db67474529ac321532afa36931afb6e3a0a61d2aba8bef268aef8a6426aad264736f6c63430008100033\n}\n",
				"bytecode": {
					"linkReferences": {},
					"object": "608060405234801561001057600080fd5b50604051610b54380380610b54833981810160405281019061003291906100db565b806000806101000a81548173ffffffffffffffffffffffffffffffffffffffff021916908373ffffffffffffffffffffffffffffffffffffffff16021790555050610108565b600080fd5b600073ffffffffffffffffffffffffffffffffffffffff82169050919050565b60006100a88261007d565b9050919050565b6100b88161009d565b81146100c357600080fd5b50565b6000815190506100d5816100af565b92915050565b6000602082840312156100f1576100f0610078565b5b60006100ff848285016100c6565b91505092915050565b610a3d806101176000396000f3fe60806040526004361061004a5760003560e01c80631eb5ea2e1461004f57806327e235e3146100595780635eed3dcb146100995780638d68cf59146100d6578063ed88c68e146100ed575b600080fd5b6100576100f7565b005b34801561006557600080fd5b50610080600480360381019061007b91906107a1565b610434565b60405161009094939291906107e7565b60405180910390f35b3480156100a557600080fd5b506100c060048036038101906100bb9190610858565b610464565b6040516100cd91906108a6565b60405180910390f35b3480156100e257600080fd5b506100eb6104a3565b005b6100f5610591565b005b60005b600160038054905061010c91906108f0565b8110156103f8576000600260006003848154811061012d5761012c610924565b5b9060005260206000200160009054906101000a900473ffffffffffffffffffffffffffffffffffffffff1673ffffffffffffffffffffffffffffffffffffffff1673ffffffffffffffffffffffffffffffffffffffff1681526020019081526020016000206002015411156103e557600381815481106101b0576101af610924565b5b9060005260206000200160009054906101000a900473ffffffffffffffffffffffffffffffffffffffff1673ffffffffffffffffffffffffffffffffffffffff166108fc600260006003858154811061020c5761020b610924565b5b9060005260206000200160009054906101000a900473ffffffffffffffffffffffffffffffffffffffff1673ffffffffffffffffffffffffffffffffffffffff1673ffffffffffffffffffffffffffffffffffffffff168152602001908152602001600020600201549081150290604051600060405180830381858888f193505050501580156102a0573d6000803e3d6000fd5b50600260003373ffffffffffffffffffffffffffffffffffffffff1673ffffffffffffffffffffffffffffffffffffffff1681526020019081526020016000206000015460026000600384815481106102fc576102fb610924565b5b9060005260206000200160009054906101000a900473ffffffffffffffffffffffffffffffffffffffff1673ffffffffffffffffffffffffffffffffffffffff1673ffffffffffffffffffffffffffffffffffffffff16815260200190815260200160002050506000600260006003848154811061037d5761037c610924565b5b9060005260206000200160009054906101000a900473ffffffffffffffffffffffffffffffffffffffff1673ffffffffffffffffffffffffffffffffffffffff1673ffffffffffffffffffffffffffffffffffffffff16815260200190815260200160002050505b80806103f090610953565b9150506100fa565b507fe0e5873eb9d996d2ab087b071a9a50522121c02b43308c8728c06739f52b3f87333460405161042a9291906109aa565b60405180910390a1565b60026020528060005260406000206000915090508060000154908060010154908060020154908060030154905084565b6003818154811061047457600080fd5b906000526020600020016000915054906101000a900473ffffffffffffffffffffffffffffffffffffffff1681565b60008054906101000a900473ffffffffffffffffffffffffffffffffffffffff1673ffffffffffffffffffffffffffffffffffffffff166108fc600260003373ffffffffffffffffffffffffffffffffffffffff1673ffffffffffffffffffffffffffffffffffffffff168152602001908152602001600020600001549081150290604051600060405180830381858888f1935050505015801561054b573d6000803e3d6000fd5b506000600260003373ffffffffffffffffffffffffffffffffffffffff1673ffffffffffffffffffffffffffffffffffffffff1681526020019081526020016000205050565b34600260003373ffffffffffffffffffffffffffffffffffffffff1673ffffffffffffffffffffffffffffffffffffffff16815260200190815260200160002060000160008282546105e391906109d3565b9250508190555034600260003373ffffffffffffffffffffffffffffffffffffffff1673ffffffffffffffffffffffffffffffffffffffff168152602001908152602001600020600201600082825461063c91906109d3565b925050819055506001600081548092919061065690610953565b91905055600260003373ffffffffffffffffffffffffffffffffffffffff1673ffffffffffffffffffffffffffffffffffffffff168152602001908152602001600020600301819055506003339080600181540180825580915050600190039060005260206000200160009091909190916101000a81548173ffffffffffffffffffffffffffffffffffffffff021916908373ffffffffffffffffffffffffffffffffffffffff1602179055507f81d2c188629cc4a1c694d285150cb5fa3dde3157a2684460d3ac7a1e331f616433346040516107349291906109aa565b60405180910390a1565b600080fd5b600073ffffffffffffffffffffffffffffffffffffffff82169050919050565b600061076e82610743565b9050919050565b61077e81610763565b811461078957600080fd5b50565b60008135905061079b81610775565b92915050565b6000602082840312156107b7576107b661073e565b5b60006107c58482850161078c565b91505092915050565b6000819050919050565b6107e1816107ce565b82525050565b60006080820190506107fc60008301876107d8565b61080960208301866107d8565b61081660408301856107d8565b61082360608301846107d8565b95945050505050565b610835816107ce565b811461084057600080fd5b50565b6000813590506108528161082c565b92915050565b60006020828403121561086e5761086d61073e565b5b600061087c84828501610843565b91505092915050565b600061089082610743565b9050919050565b6108a081610885565b82525050565b60006020820190506108bb6000830184610897565b92915050565b7f4e487b7100000000000000000000000000000000000000000000000000000000600052601160045260246000fd5b60006108fb826107ce565b9150610906836107ce565b925082820390508181111561091e5761091d6108c1565b5b92915050565b7f4e487b7100000000000000000000000000000000000000000000000000000000600052603260045260246000fd5b600061095e826107ce565b91507fffffffffffffffffffffffffffffffffffffffffffffffffffffffffffffffff82036109905761098f6108c1565b5b600182019050919050565b6109a481610763565b82525050565b60006040820190506109bf600083018561099b565b6109cc60208301846107d8565b9392505050565b60006109de826107ce565b91506109e9836107ce565b9250828201905080821115610a0157610a006108c1565b5b9291505056fea264697066735822122067db67474529ac321532afa36931afb6e3a0a61d2aba8bef268aef8a6426aad264736f6c63430008100033",
					"opcodes": "PUSH1 0x80 PUSH1 0x40 MSTORE CALLVALUE DUP1 ISZERO PUSH2 0x10 JUMPI PUSH1 0x0 DUP1 REVERT JUMPDEST POP PUSH1 0x40 MLOAD PUSH2 0xB54 CODESIZE SUB DUP1 PUSH2 0xB54 DUP4 CODECOPY DUP2 DUP2 ADD PUSH1 0x40 MSTORE DUP2 ADD SWAP1 PUSH2 0x32 SWAP2 SWAP1 PUSH2 0xDB JUMP JUMPDEST DUP1 PUSH1 0x0 DUP1 PUSH2 0x100 EXP DUP2 SLOAD DUP2 PUSH20 0xFFFFFFFFFFFFFFFFFFFFFFFFFFFFFFFFFFFFFFFF MUL NOT AND SWAP1 DUP4 PUSH20 0xFFFFFFFFFFFFFFFFFFFFFFFFFFFFFFFFFFFFFFFF AND MUL OR SWAP1 SSTORE POP POP PUSH2 0x108 JUMP JUMPDEST PUSH1 0x0 DUP1 REVERT JUMPDEST PUSH1 0x0 PUSH20 0xFFFFFFFFFFFFFFFFFFFFFFFFFFFFFFFFFFFFFFFF DUP3 AND SWAP1 POP SWAP2 SWAP1 POP JUMP JUMPDEST PUSH1 0x0 PUSH2 0xA8 DUP3 PUSH2 0x7D JUMP JUMPDEST SWAP1 POP SWAP2 SWAP1 POP JUMP JUMPDEST PUSH2 0xB8 DUP2 PUSH2 0x9D JUMP JUMPDEST DUP2 EQ PUSH2 0xC3 JUMPI PUSH1 0x0 DUP1 REVERT JUMPDEST POP JUMP JUMPDEST PUSH1 0x0 DUP2 MLOAD SWAP1 POP PUSH2 0xD5 DUP2 PUSH2 0xAF JUMP JUMPDEST SWAP3 SWAP2 POP POP JUMP JUMPDEST PUSH1 0x0 PUSH1 0x20 DUP3 DUP5 SUB SLT ISZERO PUSH2 0xF1 JUMPI PUSH2 0xF0 PUSH2 0x78 JUMP JUMPDEST JUMPDEST PUSH1 0x0 PUSH2 0xFF DUP5 DUP3 DUP6 ADD PUSH2 0xC6 JUMP JUMPDEST SWAP2 POP POP SWAP3 SWAP2 POP POP JUMP JUMPDEST PUSH2 0xA3D DUP1 PUSH2 0x117 PUSH1 0x0 CODECOPY PUSH1 0x0 RETURN INVALID PUSH1 0x80 PUSH1 0x40 MSTORE PUSH1 0x4 CALLDATASIZE LT PUSH2 0x4A JUMPI PUSH1 0x0 CALLDATALOAD PUSH1 0xE0 SHR DUP1 PUSH4 0x1EB5EA2E EQ PUSH2 0x4F JUMPI DUP1 PUSH4 0x27E235E3 EQ PUSH2 0x59 JUMPI DUP1 PUSH4 0x5EED3DCB EQ PUSH2 0x99 JUMPI DUP1 PUSH4 0x8D68CF59 EQ PUSH2 0xD6 JUMPI DUP1 PUSH4 0xED88C68E EQ PUSH2 0xED JUMPI JUMPDEST PUSH1 0x0 DUP1 REVERT JUMPDEST PUSH2 0x57 PUSH2 0xF7 JUMP JUMPDEST STOP JUMPDEST CALLVALUE DUP1 ISZERO PUSH2 0x65 JUMPI PUSH1 0x0 DUP1 REVERT JUMPDEST POP PUSH2 0x80 PUSH1 0x4 DUP1 CALLDATASIZE SUB DUP2 ADD SWAP1 PUSH2 0x7B SWAP2 SWAP1 PUSH2 0x7A1 JUMP JUMPDEST PUSH2 0x434 JUMP JUMPDEST PUSH1 0x40 MLOAD PUSH2 0x90 SWAP5 SWAP4 SWAP3 SWAP2 SWAP1 PUSH2 0x7E7 JUMP JUMPDEST PUSH1 0x40 MLOAD DUP1 SWAP2 SUB SWAP1 RETURN JUMPDEST CALLVALUE DUP1 ISZERO PUSH2 0xA5 JUMPI PUSH1 0x0 DUP1 REVERT JUMPDEST POP PUSH2 0xC0 PUSH1 0x4 DUP1 CALLDATASIZE SUB DUP2 ADD SWAP1 PUSH2 0xBB SWAP2 SWAP1 PUSH2 0x858 JUMP JUMPDEST PUSH2 0x464 JUMP JUMPDEST PUSH1 0x40 MLOAD PUSH2 0xCD SWAP2 SWAP1 PUSH2 0x8A6 JUMP JUMPDEST PUSH1 0x40 MLOAD DUP1 SWAP2 SUB SWAP1 RETURN JUMPDEST CALLVALUE DUP1 ISZERO PUSH2 0xE2 JUMPI PUSH1 0x0 DUP1 REVERT JUMPDEST POP PUSH2 0xEB PUSH2 0x4A3 JUMP JUMPDEST STOP JUMPDEST PUSH2 0xF5 PUSH2 0x591 JUMP JUMPDEST STOP JUMPDEST PUSH1 0x0 JUMPDEST PUSH1 0x1 PUSH1 0x3 DUP1 SLOAD SWAP1 POP PUSH2 0x10C SWAP2 SWAP1 PUSH2 0x8F0 JUMP JUMPDEST DUP2 LT ISZERO PUSH2 0x3F8 JUMPI PUSH1 0x0 PUSH1 0x2 PUSH1 0x0 PUSH1 0x3 DUP5 DUP2 SLOAD DUP2 LT PUSH2 0x12D JUMPI PUSH2 0x12C PUSH2 0x924 JUMP JUMPDEST JUMPDEST SWAP1 PUSH1 0x0 MSTORE PUSH1 0x20 PUSH1 0x0 KECCAK256 ADD PUSH1 0x0 SWAP1 SLOAD SWAP1 PUSH2 0x100 EXP SWAP1 DIV PUSH20 0xFFFFFFFFFFFFFFFFFFFFFFFFFFFFFFFFFFFFFFFF AND PUSH20 0xFFFFFFFFFFFFFFFFFFFFFFFFFFFFFFFFFFFFFFFF AND PUSH20 0xFFFFFFFFFFFFFFFFFFFFFFFFFFFFFFFFFFFFFFFF AND DUP2 MSTORE PUSH1 0x20 ADD SWAP1 DUP2 MSTORE PUSH1 0x20 ADD PUSH1 0x0 KECCAK256 PUSH1 0x2 ADD SLOAD GT ISZERO PUSH2 0x3E5 JUMPI PUSH1 0x3 DUP2 DUP2 SLOAD DUP2 LT PUSH2 0x1B0 JUMPI PUSH2 0x1AF PUSH2 0x924 JUMP JUMPDEST JUMPDEST SWAP1 PUSH1 0x0 MSTORE PUSH1 0x20 PUSH1 0x0 KECCAK256 ADD PUSH1 0x0 SWAP1 SLOAD SWAP1 PUSH2 0x100 EXP SWAP1 DIV PUSH20 0xFFFFFFFFFFFFFFFFFFFFFFFFFFFFFFFFFFFFFFFF AND PUSH20 0xFFFFFFFFFFFFFFFFFFFFFFFFFFFFFFFFFFFFFFFF AND PUSH2 0x8FC PUSH1 0x2 PUSH1 0x0 PUSH1 0x3 DUP6 DUP2 SLOAD DUP2 LT PUSH2 0x20C JUMPI PUSH2 0x20B PUSH2 0x924 JUMP JUMPDEST JUMPDEST SWAP1 PUSH1 0x0 MSTORE PUSH1 0x20 PUSH1 0x0 KECCAK256 ADD PUSH1 0x0 SWAP1 SLOAD SWAP1 PUSH2 0x100 EXP SWAP1 DIV PUSH20 0xFFFFFFFFFFFFFFFFFFFFFFFFFFFFFFFFFFFFFFFF AND PUSH20 0xFFFFFFFFFFFFFFFFFFFFFFFFFFFFFFFFFFFFFFFF AND PUSH20 0xFFFFFFFFFFFFFFFFFFFFFFFFFFFFFFFFFFFFFFFF AND DUP2 MSTORE PUSH1 0x20 ADD SWAP1 DUP2 MSTORE PUSH1 0x20 ADD PUSH1 0x0 KECCAK256 PUSH1 0x2 ADD SLOAD SWAP1 DUP2 ISZERO MUL SWAP1 PUSH1 0x40 MLOAD PUSH1 0x0 PUSH1 0x40 MLOAD DUP1 DUP4 SUB DUP2 DUP6 DUP9 DUP9 CALL SWAP4 POP POP POP POP ISZERO DUP1 ISZERO PUSH2 0x2A0 JUMPI RETURNDATASIZE PUSH1 0x0 DUP1 RETURNDATACOPY RETURNDATASIZE PUSH1 0x0 REVERT JUMPDEST POP PUSH1 0x2 PUSH1 0x0 CALLER PUSH20 0xFFFFFFFFFFFFFFFFFFFFFFFFFFFFFFFFFFFFFFFF AND PUSH20 0xFFFFFFFFFFFFFFFFFFFFFFFFFFFFFFFFFFFFFFFF AND DUP2 MSTORE PUSH1 0x20 ADD SWAP1 DUP2 MSTORE PUSH1 0x20 ADD PUSH1 0x0 KECCAK256 PUSH1 0x0 ADD SLOAD PUSH1 0x2 PUSH1 0x0 PUSH1 0x3 DUP5 DUP2 SLOAD DUP2 LT PUSH2 0x2FC JUMPI PUSH2 0x2FB PUSH2 0x924 JUMP JUMPDEST JUMPDEST SWAP1 PUSH1 0x0 MSTORE PUSH1 0x20 PUSH1 0x0 KECCAK256 ADD PUSH1 0x0 SWAP1 SLOAD SWAP1 PUSH2 0x100 EXP SWAP1 DIV PUSH20 0xFFFFFFFFFFFFFFFFFFFFFFFFFFFFFFFFFFFFFFFF AND PUSH20 0xFFFFFFFFFFFFFFFFFFFFFFFFFFFFFFFFFFFFFFFF AND PUSH20 0xFFFFFFFFFFFFFFFFFFFFFFFFFFFFFFFFFFFFFFFF AND DUP2 MSTORE PUSH1 0x20 ADD SWAP1 DUP2 MSTORE PUSH1 0x20 ADD PUSH1 0x0 KECCAK256 POP POP PUSH1 0x0 PUSH1 0x2 PUSH1 0x0 PUSH1 0x3 DUP5 DUP2 SLOAD DUP2 LT PUSH2 0x37D JUMPI PUSH2 0x37C PUSH2 0x924 JUMP JUMPDEST JUMPDEST SWAP1 PUSH1 0x0 MSTORE PUSH1 0x20 PUSH1 0x0 KECCAK256 ADD PUSH1 0x0 SWAP1 SLOAD SWAP1 PUSH2 0x100 EXP SWAP1 DIV PUSH20 0xFFFFFFFFFFFFFFFFFFFFFFFFFFFFFFFFFFFFFFFF AND PUSH20 0xFFFFFFFFFFFFFFFFFFFFFFFFFFFFFFFFFFFFFFFF AND PUSH20 0xFFFFFFFFFFFFFFFFFFFFFFFFFFFFFFFFFFFFFFFF AND DUP2 MSTORE PUSH1 0x20 ADD SWAP1 DUP2 MSTORE PUSH1 0x20 ADD PUSH1 0x0 KECCAK256 POP POP JUMPDEST DUP1 DUP1 PUSH2 0x3F0 SWAP1 PUSH2 0x953 JUMP JUMPDEST SWAP2 POP POP PUSH2 0xFA JUMP JUMPDEST POP PUSH32 0xE0E5873EB9D996D2AB087B071A9A50522121C02B43308C8728C06739F52B3F87 CALLER CALLVALUE PUSH1 0x40 MLOAD PUSH2 0x42A SWAP3 SWAP2 SWAP1 PUSH2 0x9AA JUMP JUMPDEST PUSH1 0x40 MLOAD DUP1 SWAP2 SUB SWAP1 LOG1 JUMP JUMPDEST PUSH1 0x2 PUSH1 0x20 MSTORE DUP1 PUSH1 0x0 MSTORE PUSH1 0x40 PUSH1 0x0 KECCAK256 PUSH1 0x0 SWAP2 POP SWAP1 POP DUP1 PUSH1 0x0 ADD SLOAD SWAP1 DUP1 PUSH1 0x1 ADD SLOAD SWAP1 DUP1 PUSH1 0x2 ADD SLOAD SWAP1 DUP1 PUSH1 0x3 ADD SLOAD SWAP1 POP DUP5 JUMP JUMPDEST PUSH1 0x3 DUP2 DUP2 SLOAD DUP2 LT PUSH2 0x474 JUMPI PUSH1 0x0 DUP1 REVERT JUMPDEST SWAP1 PUSH1 0x0 MSTORE PUSH1 0x20 PUSH1 0x0 KECCAK256 ADD PUSH1 0x0 SWAP2 POP SLOAD SWAP1 PUSH2 0x100 EXP SWAP1 DIV PUSH20 0xFFFFFFFFFFFFFFFFFFFFFFFFFFFFFFFFFFFFFFFF AND DUP2 JUMP JUMPDEST PUSH1 0x0 DUP1 SLOAD SWAP1 PUSH2 0x100 EXP SWAP1 DIV PUSH20 0xFFFFFFFFFFFFFFFFFFFFFFFFFFFFFFFFFFFFFFFF AND PUSH20 0xFFFFFFFFFFFFFFFFFFFFFFFFFFFFFFFFFFFFFFFF AND PUSH2 0x8FC PUSH1 0x2 PUSH1 0x0 CALLER PUSH20 0xFFFFFFFFFFFFFFFFFFFFFFFFFFFFFFFFFFFFFFFF AND PUSH20 0xFFFFFFFFFFFFFFFFFFFFFFFFFFFFFFFFFFFFFFFF AND DUP2 MSTORE PUSH1 0x20 ADD SWAP1 DUP2 MSTORE PUSH1 0x20 ADD PUSH1 0x0 KECCAK256 PUSH1 0x0 ADD SLOAD SWAP1 DUP2 ISZERO MUL SWAP1 PUSH1 0x40 MLOAD PUSH1 0x0 PUSH1 0x40 MLOAD DUP1 DUP4 SUB DUP2 DUP6 DUP9 DUP9 CALL SWAP4 POP POP POP POP ISZERO DUP1 ISZERO PUSH2 0x54B JUMPI RETURNDATASIZE PUSH1 0x0 DUP1 RETURNDATACOPY RETURNDATASIZE PUSH1 0x0 REVERT JUMPDEST POP PUSH1 0x0 PUSH1 0x2 PUSH1 0x0 CALLER PUSH20 0xFFFFFFFFFFFFFFFFFFFFFFFFFFFFFFFFFFFFFFFF AND PUSH20 0xFFFFFFFFFFFFFFFFFFFFFFFFFFFFFFFFFFFFFFFF AND DUP2 MSTORE PUSH1 0x20 ADD SWAP1 DUP2 MSTORE PUSH1 0x20 ADD PUSH1 0x0 KECCAK256 POP POP JUMP JUMPDEST CALLVALUE PUSH1 0x2 PUSH1 0x0 CALLER PUSH20 0xFFFFFFFFFFFFFFFFFFFFFFFFFFFFFFFFFFFFFFFF AND PUSH20 0xFFFFFFFFFFFFFFFFFFFFFFFFFFFFFFFFFFFFFFFF AND DUP2 MSTORE PUSH1 0x20 ADD SWAP1 DUP2 MSTORE PUSH1 0x20 ADD PUSH1 0x0 KECCAK256 PUSH1 0x0 ADD PUSH1 0x0 DUP3 DUP3 SLOAD PUSH2 0x5E3 SWAP2 SWAP1 PUSH2 0x9D3 JUMP JUMPDEST SWAP3 POP POP DUP2 SWAP1 SSTORE POP CALLVALUE PUSH1 0x2 PUSH1 0x0 CALLER PUSH20 0xFFFFFFFFFFFFFFFFFFFFFFFFFFFFFFFFFFFFFFFF AND PUSH20 0xFFFFFFFFFFFFFFFFFFFFFFFFFFFFFFFFFFFFFFFF AND DUP2 MSTORE PUSH1 0x20 ADD SWAP1 DUP2 MSTORE PUSH1 0x20 ADD PUSH1 0x0 KECCAK256 PUSH1 0x2 ADD PUSH1 0x0 DUP3 DUP3 SLOAD PUSH2 0x63C SWAP2 SWAP1 PUSH2 0x9D3 JUMP JUMPDEST SWAP3 POP POP DUP2 SWAP1 SSTORE POP PUSH1 0x1 PUSH1 0x0 DUP2 SLOAD DUP1 SWAP3 SWAP2 SWAP1 PUSH2 0x656 SWAP1 PUSH2 0x953 JUMP JUMPDEST SWAP2 SWAP1 POP SSTORE PUSH1 0x2 PUSH1 0x0 CALLER PUSH20 0xFFFFFFFFFFFFFFFFFFFFFFFFFFFFFFFFFFFFFFFF AND PUSH20 0xFFFFFFFFFFFFFFFFFFFFFFFFFFFFFFFFFFFFFFFF AND DUP2 MSTORE PUSH1 0x20 ADD SWAP1 DUP2 MSTORE PUSH1 0x20 ADD PUSH1 0x0 KECCAK256 PUSH1 0x3 ADD DUP2 SWAP1 SSTORE POP PUSH1 0x3 CALLER SWAP1 DUP1 PUSH1 0x1 DUP2 SLOAD ADD DUP1 DUP3 SSTORE DUP1 SWAP2 POP POP PUSH1 0x1 SWAP1 SUB SWAP1 PUSH1 0x0 MSTORE PUSH1 0x20 PUSH1 0x0 KECCAK256 ADD PUSH1 0x0 SWAP1 SWAP2 SWAP1 SWAP2 SWAP1 SWAP2 PUSH2 0x100 EXP DUP2 SLOAD DUP2 PUSH20 0xFFFFFFFFFFFFFFFFFFFFFFFFFFFFFFFFFFFFFFFF MUL NOT AND SWAP1 DUP4 PUSH20 0xFFFFFFFFFFFFFFFFFFFFFFFFFFFFFFFFFFFFFFFF AND MUL OR SWAP1 SSTORE POP PUSH32 0x81D2C188629CC4A1C694D285150CB5FA3DDE3157A2684460D3AC7A1E331F6164 CALLER CALLVALUE PUSH1 0x40 MLOAD PUSH2 0x734 SWAP3 SWAP2 SWAP1 PUSH2 0x9AA JUMP JUMPDEST PUSH1 0x40 MLOAD DUP1 SWAP2 SUB SWAP1 LOG1 JUMP JUMPDEST PUSH1 0x0 DUP1 REVERT JUMPDEST PUSH1 0x0 PUSH20 0xFFFFFFFFFFFFFFFFFFFFFFFFFFFFFFFFFFFFFFFF DUP3 AND SWAP1 POP SWAP2 SWAP1 POP JUMP JUMPDEST PUSH1 0x0 PUSH2 0x76E DUP3 PUSH2 0x743 JUMP JUMPDEST SWAP1 POP SWAP2 SWAP1 POP JUMP JUMPDEST PUSH2 0x77E DUP2 PUSH2 0x763 JUMP JUMPDEST DUP2 EQ PUSH2 0x789 JUMPI PUSH1 0x0 DUP1 REVERT JUMPDEST POP JUMP JUMPDEST PUSH1 0x0 DUP2 CALLDATALOAD SWAP1 POP PUSH2 0x79B DUP2 PUSH2 0x775 JUMP JUMPDEST SWAP3 SWAP2 POP POP JUMP JUMPDEST PUSH1 0x0 PUSH1 0x20 DUP3 DUP5 SUB SLT ISZERO PUSH2 0x7B7 JUMPI PUSH2 0x7B6 PUSH2 0x73E JUMP JUMPDEST JUMPDEST PUSH1 0x0 PUSH2 0x7C5 DUP5 DUP3 DUP6 ADD PUSH2 0x78C JUMP JUMPDEST SWAP2 POP POP SWAP3 SWAP2 POP POP JUMP JUMPDEST PUSH1 0x0 DUP2 SWAP1 POP SWAP2 SWAP1 POP JUMP JUMPDEST PUSH2 0x7E1 DUP2 PUSH2 0x7CE JUMP JUMPDEST DUP3 MSTORE POP POP JUMP JUMPDEST PUSH1 0x0 PUSH1 0x80 DUP3 ADD SWAP1 POP PUSH2 0x7FC PUSH1 0x0 DUP4 ADD DUP8 PUSH2 0x7D8 JUMP JUMPDEST PUSH2 0x809 PUSH1 0x20 DUP4 ADD DUP7 PUSH2 0x7D8 JUMP JUMPDEST PUSH2 0x816 PUSH1 0x40 DUP4 ADD DUP6 PUSH2 0x7D8 JUMP JUMPDEST PUSH2 0x823 PUSH1 0x60 DUP4 ADD DUP5 PUSH2 0x7D8 JUMP JUMPDEST SWAP6 SWAP5 POP POP POP POP POP JUMP JUMPDEST PUSH2 0x835 DUP2 PUSH2 0x7CE JUMP JUMPDEST DUP2 EQ PUSH2 0x840 JUMPI PUSH1 0x0 DUP1 REVERT JUMPDEST POP JUMP JUMPDEST PUSH1 0x0 DUP2 CALLDATALOAD SWAP1 POP PUSH2 0x852 DUP2 PUSH2 0x82C JUMP JUMPDEST SWAP3 SWAP2 POP POP JUMP JUMPDEST PUSH1 0x0 PUSH1 0x20 DUP3 DUP5 SUB SLT ISZERO PUSH2 0x86E JUMPI PUSH2 0x86D PUSH2 0x73E JUMP JUMPDEST JUMPDEST PUSH1 0x0 PUSH2 0x87C DUP5 DUP3 DUP6 ADD PUSH2 0x843 JUMP JUMPDEST SWAP2 POP POP SWAP3 SWAP2 POP POP JUMP JUMPDEST PUSH1 0x0 PUSH2 0x890 DUP3 PUSH2 0x743 JUMP JUMPDEST SWAP1 POP SWAP2 SWAP1 POP JUMP JUMPDEST PUSH2 0x8A0 DUP2 PUSH2 0x885 JUMP JUMPDEST DUP3 MSTORE POP POP JUMP JUMPDEST PUSH1 0x0 PUSH1 0x20 DUP3 ADD SWAP1 POP PUSH2 0x8BB PUSH1 0x0 DUP4 ADD DUP5 PUSH2 0x897 JUMP JUMPDEST SWAP3 SWAP2 POP POP JUMP JUMPDEST PUSH32 0x4E487B7100000000000000000000000000000000000000000000000000000000 PUSH1 0x0 MSTORE PUSH1 0x11 PUSH1 0x4 MSTORE PUSH1 0x24 PUSH1 0x0 REVERT JUMPDEST PUSH1 0x0 PUSH2 0x8FB DUP3 PUSH2 0x7CE JUMP JUMPDEST SWAP2 POP PUSH2 0x906 DUP4 PUSH2 0x7CE JUMP JUMPDEST SWAP3 POP DUP3 DUP3 SUB SWAP1 POP DUP2 DUP2 GT ISZERO PUSH2 0x91E JUMPI PUSH2 0x91D PUSH2 0x8C1 JUMP JUMPDEST JUMPDEST SWAP3 SWAP2 POP POP JUMP JUMPDEST PUSH32 0x4E487B7100000000000000000000000000000000000000000000000000000000 PUSH1 0x0 MSTORE PUSH1 0x32 PUSH1 0x4 MSTORE PUSH1 0x24 PUSH1 0x0 REVERT JUMPDEST PUSH1 0x0 PUSH2 0x95E DUP3 PUSH2 0x7CE JUMP JUMPDEST SWAP2 POP PUSH32 0xFFFFFFFFFFFFFFFFFFFFFFFFFFFFFFFFFFFFFFFFFFFFFFFFFFFFFFFFFFFFFFFF DUP3 SUB PUSH2 0x990 JUMPI PUSH2 0x98F PUSH2 0x8C1 JUMP JUMPDEST JUMPDEST PUSH1 0x1 DUP3 ADD SWAP1 POP SWAP2 SWAP1 POP JUMP JUMPDEST PUSH2 0x9A4 DUP2 PUSH2 0x763 JUMP JUMPDEST DUP3 MSTORE POP POP JUMP JUMPDEST PUSH1 0x0 PUSH1 0x40 DUP3 ADD SWAP1 POP PUSH2 0x9BF PUSH1 0x0 DUP4 ADD DUP6 PUSH2 0x99B JUMP JUMPDEST PUSH2 0x9CC PUSH1 0x20 DUP4 ADD DUP5 PUSH2 0x7D8 JUMP JUMPDEST SWAP4 SWAP3 POP POP POP JUMP JUMPDEST PUSH1 0x0 PUSH2 0x9DE DUP3 PUSH2 0x7CE JUMP JUMPDEST SWAP2 POP PUSH2 0x9E9 DUP4 PUSH2 0x7CE JUMP JUMPDEST SWAP3 POP DUP3 DUP3 ADD SWAP1 POP DUP1 DUP3 GT ISZERO PUSH2 0xA01 JUMPI PUSH2 0xA00 PUSH2 0x8C1 JUMP JUMPDEST JUMPDEST SWAP3 SWAP2 POP POP JUMP INVALID LOG2 PUSH5 0x6970667358 0x22 SLT KECCAK256 PUSH8 0xDB67474529AC3215 ORIGIN 0xAF LOG3 PUSH10 0x31AFB6E3A0A61D2ABA8B 0xEF 0x26 DUP11 0xEF DUP11 PUSH5 0x26AAD26473 PUSH16 0x6C634300081000330000000000000000 "
				},
				"gasEstimates": {
					"creation": {
						"codeDepositCost": "524200",
						"executionCost": "infinite",
						"totalCost": "infinite"
					},
					"external": {
						"balances(address)": "infinite",
						"donate()": "infinite",
						"donorList(uint256)": "4978",
						"returnFunds()": "infinite",
						"sendFunds()": "infinite"
					}
				},
				"methodIdentifiers": {
					"balances(address)": "27e235e3",
					"donate()": "ed88c68e",
					"donorList(uint256)": "5eed3dcb",
					"returnFunds()": "1eb5ea2e",
					"sendFunds()": "8d68cf59"
				}
			},
			"storageLayout": {
				"storage": [
					{
						"astId": 3,
						"contract": "contracts/senior project.sol:MyContract",
						"label": "wallet",
						"offset": 0,
						"slot": "0",
						"type": "t_address_payable"
					},
					{
						"astId": 5,
						"contract": "contracts/senior project.sol:MyContract",
						"label": "Dcounter",
						"offset": 0,
						"slot": "1",
						"type": "t_uint256"
					},
					{
						"astId": 29,
						"contract": "contracts/senior project.sol:MyContract",
						"label": "balances",
						"offset": 0,
						"slot": "2",
						"type": "t_mapping(t_address,t_struct(donor)24_storage)"
					},
					{
						"astId": 32,
						"contract": "contracts/senior project.sol:MyContract",
						"label": "donorList",
						"offset": 0,
						"slot": "3",
						"type": "t_array(t_address_payable)dyn_storage"
					}
				],
				"types": {
					"t_address": {
						"encoding": "inplace",
						"label": "address",
						"numberOfBytes": "20"
					},
					"t_address_payable": {
						"encoding": "inplace",
						"label": "address payable",
						"numberOfBytes": "20"
					},
					"t_array(t_address_payable)dyn_storage": {
						"base": "t_address_payable",
						"encoding": "dynamic_array",
						"label": "address payable[]",
						"numberOfBytes": "32"
					},
					"t_mapping(t_address,t_struct(donor)24_storage)": {
						"encoding": "mapping",
						"key": "t_address",
						"label": "mapping(address => struct MyContract.donor)",
						"numberOfBytes": "32",
						"value": "t_struct(donor)24_storage"
					},
					"t_struct(donor)24_storage": {
						"encoding": "inplace",
						"label": "struct MyContract.donor",
						"members": [
							{
								"astId": 17,
								"contract": "contracts/senior project.sol:MyContract",
								"label": "totalDono",
								"offset": 0,
								"slot": "0",
								"type": "t_uint256"
							},
							{
								"astId": 19,
								"contract": "contracts/senior project.sol:MyContract",
								"label": "returnedDono",
								"offset": 0,
								"slot": "1",
								"type": "t_uint256"
							},
							{
								"astId": 21,
								"contract": "contracts/senior project.sol:MyContract",
								"label": "returnable",
								"offset": 0,
								"slot": "2",
								"type": "t_uint256"
							},
							{
								"astId": 23,
								"contract": "contracts/senior project.sol:MyContract",
								"label": "donorListPointer",
								"offset": 0,
								"slot": "3",
								"type": "t_uint256"
							}
						],
						"numberOfBytes": "128"
					},
					"t_uint256": {
						"encoding": "inplace",
						"label": "uint256",
						"numberOfBytes": "32"
					}
				}
			},
			"userdoc": {
				"kind": "user",
				"methods": {},
				"version": 1
			}
		}
	}
}