{
	"contracts/senior project.sol": {
		"MyContract": {
			"abi": [
				{
					"anonymous": false,
					"inputs": [
						{
							"indexed": false,
							"internalType": "address",
							"name": "sender",
							"type": "address"
						},
						{
							"indexed": false,
							"internalType": "uint256",
							"name": "amount",
							"type": "uint256"
						}
					],
					"name": "LogReceivedFunds",
					"type": "event"
				},
				{
					"anonymous": false,
					"inputs": [
						{
							"indexed": false,
							"internalType": "address",
							"name": "recipient",
							"type": "address"
						},
						{
							"indexed": false,
							"internalType": "uint256",
							"name": "amount",
							"type": "uint256"
						}
					],
					"name": "LogReturnedFunds",
					"type": "event"
				},
				{
					"inputs": [],
					"name": "approval",
					"outputs": [],
					"stateMutability": "nonpayable",
					"type": "function"
				},
				{
					"inputs": [
						{
							"internalType": "address",
							"name": "",
							"type": "address"
						}
					],
					"name": "balances",
					"outputs": [
						{
							"internalType": "uint256",
							"name": "totalDono",
							"type": "uint256"
						},
						{
							"internalType": "uint256",
							"name": "returnedDono",
							"type": "uint256"
						},
						{
							"internalType": "uint256",
							"name": "returnable",
							"type": "uint256"
						},
						{
							"internalType": "uint256",
							"name": "donorListPointer",
							"type": "uint256"
						}
					],
					"stateMutability": "view",
					"type": "function"
				},
				{
					"inputs": [],
					"name": "donate",
					"outputs": [],
					"stateMutability": "payable",
					"type": "function"
				},
				{
					"inputs": [
						{
							"internalType": "uint256",
							"name": "",
							"type": "uint256"
						}
					],
					"name": "donorList",
					"outputs": [
						{
							"internalType": "address payable",
							"name": "",
							"type": "address"
						}
					],
					"stateMutability": "view",
					"type": "function"
				},
				{
					"inputs": [],
					"name": "extendTime",
					"outputs": [],
					"stateMutability": "nonpayable",
					"type": "function"
				},
				{
					"inputs": [],
					"name": "sendFunds",
					"outputs": [],
					"stateMutability": "nonpayable",
					"type": "function"
				},
				{
					"inputs": [],
					"name": "singleRefund",
					"outputs": [],
					"stateMutability": "nonpayable",
					"type": "function"
				}
			],
			"devdoc": {
				"kind": "dev",
				"methods": {},
				"version": 1
			},
			"evm": {
				"assembly": "    /* \"contracts/senior project.sol\":62:3069  contract MyContract{ ... */\n  mstore(0x40, 0x80)\n    /* \"contracts/senior project.sol\":309:314  false */\n  0x00\n    /* \"contracts/senior project.sol\":293:314  bool approved = false */\n  0x04\n  exp(0x0100, 0x00)\n  dup2\n  sload\n  dup2\n  0xff\n  mul\n  not\n  and\n  swap1\n  dup4\n  iszero\n  iszero\n  mul\n  or\n  swap1\n  sstore\n  pop\n    /* \"contracts/senior project.sol\":2361:2362  0 */\n  0x00\n    /* \"contracts/senior project.sol\":2345:2362  uint EXcounter =0 */\n  0x07\n  sstore\n    /* \"contracts/senior project.sol\":62:3069  contract MyContract{ ... */\n  callvalue\n  dup1\n  iszero\n  tag_1\n  jumpi\n  0x00\n  dup1\n  revert\ntag_1:\n  pop\n  dataSize(sub_0)\n  dup1\n  dataOffset(sub_0)\n  0x00\n  codecopy\n  0x00\n  return\nstop\n\nsub_0: assembly {\n        /* \"contracts/senior project.sol\":62:3069  contract MyContract{ ... */\n      mstore(0x40, 0x80)\n      jumpi(tag_1, lt(calldatasize, 0x04))\n      shr(0xe0, calldataload(0x00))\n      dup1\n      0x8bf963b6\n      gt\n      tag_9\n      jumpi\n      dup1\n      0x8bf963b6\n      eq\n      tag_5\n      jumpi\n      dup1\n      0x8d68cf59\n      eq\n      tag_6\n      jumpi\n      dup1\n      0xabb6ae89\n      eq\n      tag_7\n      jumpi\n      dup1\n      0xed88c68e\n      eq\n      tag_8\n      jumpi\n      jump(tag_1)\n    tag_9:\n      dup1\n      0x27e235e3\n      eq\n      tag_2\n      jumpi\n      dup1\n      0x39788bc8\n      eq\n      tag_3\n      jumpi\n      dup1\n      0x5eed3dcb\n      eq\n      tag_4\n      jumpi\n    tag_1:\n      0x00\n      dup1\n      revert\n        /* \"contracts/senior project.sol\":487:528  mapping(address => donor) public balances */\n    tag_2:\n      callvalue\n      dup1\n      iszero\n      tag_10\n      jumpi\n      0x00\n      dup1\n      revert\n    tag_10:\n      pop\n      tag_11\n      0x04\n      dup1\n      calldatasize\n      sub\n      dup2\n      add\n      swap1\n      tag_12\n      swap2\n      swap1\n      tag_13\n      jump\t// in\n    tag_12:\n      tag_14\n      jump\t// in\n    tag_11:\n      mload(0x40)\n      tag_15\n      swap5\n      swap4\n      swap3\n      swap2\n      swap1\n      tag_16\n      jump\t// in\n    tag_15:\n      mload(0x40)\n      dup1\n      swap2\n      sub\n      swap1\n      return\n        /* \"contracts/senior project.sol\":2176:2281  function approval() public{       ... */\n    tag_3:\n      callvalue\n      dup1\n      iszero\n      tag_17\n      jumpi\n      0x00\n      dup1\n      revert\n    tag_17:\n      pop\n      tag_18\n      tag_19\n      jump\t// in\n    tag_18:\n      stop\n        /* \"contracts/senior project.sol\":535:569  address payable[] public donorList */\n    tag_4:\n      callvalue\n      dup1\n      iszero\n      tag_20\n      jumpi\n      0x00\n      dup1\n      revert\n    tag_20:\n      pop\n      tag_21\n      0x04\n      dup1\n      calldatasize\n      sub\n      dup2\n      add\n      swap1\n      tag_22\n      swap2\n      swap1\n      tag_23\n      jump\t// in\n    tag_22:\n      tag_24\n      jump\t// in\n    tag_21:\n      mload(0x40)\n      tag_25\n      swap2\n      swap1\n      tag_26\n      jump\t// in\n    tag_25:\n      mload(0x40)\n      dup1\n      swap2\n      sub\n      swap1\n      return\n        /* \"contracts/senior project.sol\":1297:1501  function singleRefund () public{... */\n    tag_5:\n      callvalue\n      dup1\n      iszero\n      tag_27\n      jumpi\n      0x00\n      dup1\n      revert\n    tag_27:\n      pop\n      tag_28\n      tag_29\n      jump\t// in\n    tag_28:\n      stop\n        /* \"contracts/senior project.sol\":1148:1289  function sendFunds () public{... */\n    tag_6:\n      callvalue\n      dup1\n      iszero\n      tag_30\n      jumpi\n      0x00\n      dup1\n      revert\n    tag_30:\n      pop\n      tag_31\n      tag_32\n      jump\t// in\n    tag_31:\n      stop\n        /* \"contracts/senior project.sol\":2438:2600  function extendTime() public {... */\n    tag_7:\n      callvalue\n      dup1\n      iszero\n      tag_33\n      jumpi\n      0x00\n      dup1\n      revert\n    tag_33:\n      pop\n      tag_34\n      tag_35\n      jump\t// in\n    tag_34:\n      stop\n        /* \"contracts/senior project.sol\":765:1076  function donate() public payable{... */\n    tag_8:\n      tag_36\n      tag_37\n      jump\t// in\n    tag_36:\n      stop\n        /* \"contracts/senior project.sol\":487:528  mapping(address => donor) public balances */\n    tag_14:\n      mstore(0x20, 0x05)\n      dup1\n      0x00\n      mstore\n      keccak256(0x00, 0x40)\n      0x00\n      swap2\n      pop\n      swap1\n      pop\n      dup1\n      0x00\n      add\n      sload\n      swap1\n      dup1\n      0x01\n      add\n      sload\n      swap1\n      dup1\n      0x02\n      add\n      sload\n      swap1\n      dup1\n      0x03\n      add\n      sload\n      swap1\n      pop\n      dup5\n      jump\t// out\n        /* \"contracts/senior project.sol\":2176:2281  function approval() public{       ... */\n    tag_19:\n        /* \"contracts/senior project.sol\":2240:2246  wallet */\n      0x00\n      dup1\n      sload\n      swap1\n      0x0100\n      exp\n      swap1\n      div\n      0xffffffffffffffffffffffffffffffffffffffff\n      and\n        /* \"contracts/senior project.sol\":2226:2246  msg.sender == wallet */\n      0xffffffffffffffffffffffffffffffffffffffff\n      and\n        /* \"contracts/senior project.sol\":2226:2236  msg.sender */\n      caller\n        /* \"contracts/senior project.sol\":2226:2246  msg.sender == wallet */\n      0xffffffffffffffffffffffffffffffffffffffff\n      and\n      eq\n        /* \"contracts/senior project.sol\":2218:2247  require(msg.sender == wallet) */\n      tag_39\n      jumpi\n      0x00\n      dup1\n      revert\n    tag_39:\n        /* \"contracts/senior project.sol\":2269:2273  true */\n      0x01\n        /* \"contracts/senior project.sol\":2258:2266  approved */\n      0x04\n      0x00\n        /* \"contracts/senior project.sol\":2258:2273  approved = true */\n      0x0100\n      exp\n      dup2\n      sload\n      dup2\n      0xff\n      mul\n      not\n      and\n      swap1\n      dup4\n      iszero\n      iszero\n      mul\n      or\n      swap1\n      sstore\n      pop\n        /* \"contracts/senior project.sol\":2176:2281  function approval() public{       ... */\n      jump\t// out\n        /* \"contracts/senior project.sol\":535:569  address payable[] public donorList */\n    tag_24:\n      0x06\n      dup2\n      dup2\n      sload\n      dup2\n      lt\n      tag_40\n      jumpi\n      0x00\n      dup1\n      revert\n    tag_40:\n      swap1\n      0x00\n      mstore\n      keccak256(0x00, 0x20)\n      add\n      0x00\n      swap2\n      pop\n      sload\n      swap1\n      0x0100\n      exp\n      swap1\n      div\n      0xffffffffffffffffffffffffffffffffffffffff\n      and\n      dup2\n      jump\t// out\n        /* \"contracts/senior project.sol\":1297:1501  function singleRefund () public{... */\n    tag_29:\n        /* \"contracts/senior project.sol\":1339:1353  uint returnAmt */\n      0x00\n        /* \"contracts/senior project.sol\":1356:1364  balances */\n      0x05\n        /* \"contracts/senior project.sol\":1356:1376  balances[msg.sender] */\n      0x00\n        /* \"contracts/senior project.sol\":1365:1375  msg.sender */\n      caller\n        /* \"contracts/senior project.sol\":1356:1376  balances[msg.sender] */\n      0xffffffffffffffffffffffffffffffffffffffff\n      and\n      0xffffffffffffffffffffffffffffffffffffffff\n      and\n      dup2\n      mstore\n      0x20\n      add\n      swap1\n      dup2\n      mstore\n      0x20\n      add\n      0x00\n      keccak256\n        /* \"contracts/senior project.sol\":1356:1387  balances[msg.sender].returnable */\n      0x02\n      add\n      sload\n        /* \"contracts/senior project.sol\":1339:1387  uint returnAmt = balances[msg.sender].returnable */\n      swap1\n      pop\n        /* \"contracts/senior project.sol\":1407:1417  msg.sender */\n      caller\n        /* \"contracts/senior project.sol\":1398:1427  payable (msg.sender).transfer */\n      0xffffffffffffffffffffffffffffffffffffffff\n      and\n        /* \"contracts/senior project.sol\":1398:1438  payable (msg.sender).transfer(returnAmt) */\n      0x08fc\n        /* \"contracts/senior project.sol\":1428:1437  returnAmt */\n      dup3\n        /* \"contracts/senior project.sol\":1398:1438  payable (msg.sender).transfer(returnAmt) */\n      swap1\n      dup2\n      iszero\n      mul\n      swap1\n      mload(0x40)\n      0x00\n      mload(0x40)\n      dup1\n      dup4\n      sub\n      dup2\n      dup6\n      dup9\n      dup9\n      call\n      swap4\n      pop\n      pop\n      pop\n      pop\n      iszero\n      dup1\n      iszero\n      tag_44\n      jumpi\n      returndatasize\n      0x00\n      dup1\n      returndatacopy\n      revert(0x00, returndatasize)\n    tag_44:\n      pop\n        /* \"contracts/senior project.sol\":1454:1493  LogReturnedFunds(msg.sender, returnAmt) */\n      0xe0e5873eb9d996d2ab087b071a9a50522121c02b43308c8728c06739f52b3f87\n        /* \"contracts/senior project.sol\":1471:1481  msg.sender */\n      caller\n        /* \"contracts/senior project.sol\":1483:1492  returnAmt */\n      dup3\n        /* \"contracts/senior project.sol\":1454:1493  LogReturnedFunds(msg.sender, returnAmt) */\n      mload(0x40)\n      tag_45\n      swap3\n      swap2\n      swap1\n      tag_46\n      jump\t// in\n    tag_45:\n      mload(0x40)\n      dup1\n      swap2\n      sub\n      swap1\n      log1\n        /* \"contracts/senior project.sol\":1328:1501  {... */\n      pop\n        /* \"contracts/senior project.sol\":1297:1501  function singleRefund () public{... */\n      jump\t// out\n        /* \"contracts/senior project.sol\":1148:1289  function sendFunds () public{... */\n    tag_32:\n        /* \"contracts/senior project.sol\":1187:1193  wallet */\n      0x00\n      dup1\n      sload\n      swap1\n      0x0100\n      exp\n      swap1\n      div\n      0xffffffffffffffffffffffffffffffffffffffff\n      and\n        /* \"contracts/senior project.sol\":1187:1202  wallet.transfer */\n      0xffffffffffffffffffffffffffffffffffffffff\n      and\n        /* \"contracts/senior project.sol\":1187:1234  wallet.transfer(balances[msg.sender].totalDono) */\n      0x08fc\n        /* \"contracts/senior project.sol\":1203:1211  balances */\n      0x05\n        /* \"contracts/senior project.sol\":1203:1223  balances[msg.sender] */\n      0x00\n        /* \"contracts/senior project.sol\":1212:1222  msg.sender */\n      caller\n        /* \"contracts/senior project.sol\":1203:1223  balances[msg.sender] */\n      0xffffffffffffffffffffffffffffffffffffffff\n      and\n      0xffffffffffffffffffffffffffffffffffffffff\n      and\n      dup2\n      mstore\n      0x20\n      add\n      swap1\n      dup2\n      mstore\n      0x20\n      add\n      0x00\n      keccak256\n        /* \"contracts/senior project.sol\":1203:1233  balances[msg.sender].totalDono */\n      0x00\n      add\n      sload\n        /* \"contracts/senior project.sol\":1187:1234  wallet.transfer(balances[msg.sender].totalDono) */\n      swap1\n      dup2\n      iszero\n      mul\n      swap1\n      mload(0x40)\n      0x00\n      mload(0x40)\n      dup1\n      dup4\n      sub\n      dup2\n      dup6\n      dup9\n      dup9\n      call\n      swap4\n      pop\n      pop\n      pop\n      pop\n      iszero\n      dup1\n      iszero\n      tag_49\n      jumpi\n      returndatasize\n      0x00\n      dup1\n      returndatacopy\n      revert(0x00, returndatasize)\n    tag_49:\n      pop\n        /* \"contracts/senior project.sol\":1280:1281  0 */\n      0x00\n        /* \"contracts/senior project.sol\":1246:1254  balances */\n      0x05\n        /* \"contracts/senior project.sol\":1246:1266  balances[msg.sender] */\n      0x00\n        /* \"contracts/senior project.sol\":1255:1265  msg.sender */\n      caller\n        /* \"contracts/senior project.sol\":1246:1266  balances[msg.sender] */\n      0xffffffffffffffffffffffffffffffffffffffff\n      and\n      0xffffffffffffffffffffffffffffffffffffffff\n      and\n      dup2\n      mstore\n      0x20\n      add\n      swap1\n      dup2\n      mstore\n      0x20\n      add\n      0x00\n      keccak256\n        /* \"contracts/senior project.sol\":1246:1277  balances[msg.sender].returnable */\n      0x02\n      add\n        /* \"contracts/senior project.sol\":1246:1281  balances[msg.sender].returnable = 0 */\n      dup2\n      swap1\n      sstore\n      pop\n        /* \"contracts/senior project.sol\":1148:1289  function sendFunds () public{... */\n      jump\t// out\n        /* \"contracts/senior project.sol\":2438:2600  function extendTime() public {... */\n    tag_35:\n        /* \"contracts/senior project.sol\":2500:2506  wallet */\n      0x00\n      dup1\n      sload\n      swap1\n      0x0100\n      exp\n      swap1\n      div\n      0xffffffffffffffffffffffffffffffffffffffff\n      and\n        /* \"contracts/senior project.sol\":2486:2506  msg.sender == wallet */\n      0xffffffffffffffffffffffffffffffffffffffff\n      and\n        /* \"contracts/senior project.sol\":2486:2496  msg.sender */\n      caller\n        /* \"contracts/senior project.sol\":2486:2506  msg.sender == wallet */\n      0xffffffffffffffffffffffffffffffffffffffff\n      and\n      eq\n        /* \"contracts/senior project.sol\":2478:2507  require(msg.sender == wallet) */\n      tag_51\n      jumpi\n      0x00\n      dup1\n      revert\n    tag_51:\n        /* \"contracts/senior project.sol\":2534:2535  0 */\n      0x00\n        /* \"contracts/senior project.sol\":2521:2530  EXcounter */\n      sload(0x07)\n        /* \"contracts/senior project.sol\":2521:2535  EXcounter == 0 */\n      sub\n        /* \"contracts/senior project.sol\":2518:2593  if(EXcounter == 0){... */\n      tag_52\n      jumpi\n        /* \"contracts/senior project.sol\":2558:2559  3 */\n      0x03\n        /* \"contracts/senior project.sol\":2547:2555  deadline */\n      dup1\n      sload\n        /* \"contracts/senior project.sol\":2547:2559  deadline + 3 */\n      tag_53\n      swap2\n      swap1\n      tag_54\n      jump\t// in\n    tag_53:\n      pop\n        /* \"contracts/senior project.sol\":2570:2579  EXcounter */\n      0x07\n      0x00\n        /* \"contracts/senior project.sol\":2570:2581  EXcounter++ */\n      dup2\n      sload\n      dup1\n      swap3\n      swap2\n      swap1\n      tag_55\n      swap1\n      tag_56\n      jump\t// in\n    tag_55:\n      swap2\n      swap1\n      pop\n      sstore\n      pop\n        /* \"contracts/senior project.sol\":2518:2593  if(EXcounter == 0){... */\n    tag_52:\n        /* \"contracts/senior project.sol\":2438:2600  function extendTime() public {... */\n      jump\t// out\n        /* \"contracts/senior project.sol\":765:1076  function donate() public payable{... */\n    tag_37:\n        /* \"contracts/senior project.sol\":842:851  msg.value */\n      callvalue\n        /* \"contracts/senior project.sol\":808:816  balances */\n      0x05\n        /* \"contracts/senior project.sol\":808:828  balances[msg.sender] */\n      0x00\n        /* \"contracts/senior project.sol\":817:827  msg.sender */\n      caller\n        /* \"contracts/senior project.sol\":808:828  balances[msg.sender] */\n      0xffffffffffffffffffffffffffffffffffffffff\n      and\n      0xffffffffffffffffffffffffffffffffffffffff\n      and\n      dup2\n      mstore\n      0x20\n      add\n      swap1\n      dup2\n      mstore\n      0x20\n      add\n      0x00\n      keccak256\n        /* \"contracts/senior project.sol\":808:838  balances[msg.sender].totalDono */\n      0x00\n      add\n      0x00\n        /* \"contracts/senior project.sol\":808:851  balances[msg.sender].totalDono += msg.value */\n      dup3\n      dup3\n      sload\n      tag_58\n      swap2\n      swap1\n      tag_54\n      jump\t// in\n    tag_58:\n      swap3\n      pop\n      pop\n      dup2\n      swap1\n      sstore\n      pop\n        /* \"contracts/senior project.sol\":897:906  msg.value */\n      callvalue\n        /* \"contracts/senior project.sol\":862:870  balances */\n      0x05\n        /* \"contracts/senior project.sol\":862:882  balances[msg.sender] */\n      0x00\n        /* \"contracts/senior project.sol\":871:881  msg.sender */\n      caller\n        /* \"contracts/senior project.sol\":862:882  balances[msg.sender] */\n      0xffffffffffffffffffffffffffffffffffffffff\n      and\n      0xffffffffffffffffffffffffffffffffffffffff\n      and\n      dup2\n      mstore\n      0x20\n      add\n      swap1\n      dup2\n      mstore\n      0x20\n      add\n      0x00\n      keccak256\n        /* \"contracts/senior project.sol\":862:893  balances[msg.sender].returnable */\n      0x02\n      add\n      0x00\n        /* \"contracts/senior project.sol\":862:906  balances[msg.sender].returnable += msg.value */\n      dup3\n      dup3\n      sload\n      tag_59\n      swap2\n      swap1\n      tag_54\n      jump\t// in\n    tag_59:\n      swap3\n      pop\n      pop\n      dup2\n      swap1\n      sstore\n      pop\n        /* \"contracts/senior project.sol\":957:965  Dcounter */\n      0x01\n      0x00\n        /* \"contracts/senior project.sol\":957:967  Dcounter++ */\n      dup2\n      sload\n      dup1\n      swap3\n      swap2\n      swap1\n      tag_60\n      swap1\n      tag_56\n      jump\t// in\n    tag_60:\n      swap2\n      swap1\n      pop\n      sstore\n        /* \"contracts/senior project.sol\":917:925  balances */\n      0x05\n        /* \"contracts/senior project.sol\":917:937  balances[msg.sender] */\n      0x00\n        /* \"contracts/senior project.sol\":926:936  msg.sender */\n      caller\n        /* \"contracts/senior project.sol\":917:937  balances[msg.sender] */\n      0xffffffffffffffffffffffffffffffffffffffff\n      and\n      0xffffffffffffffffffffffffffffffffffffffff\n      and\n      dup2\n      mstore\n      0x20\n      add\n      swap1\n      dup2\n      mstore\n      0x20\n      add\n      0x00\n      keccak256\n        /* \"contracts/senior project.sol\":917:954  balances[msg.sender].donorListPointer */\n      0x03\n      add\n        /* \"contracts/senior project.sol\":917:967  balances[msg.sender].donorListPointer = Dcounter++ */\n      dup2\n      swap1\n      sstore\n      pop\n        /* \"contracts/senior project.sol\":978:987  donorList */\n      0x06\n        /* \"contracts/senior project.sol\":1001:1011  msg.sender */\n      caller\n        /* \"contracts/senior project.sol\":978:1013  donorList.push(payable(msg.sender)) */\n      swap1\n      dup1\n      0x01\n      dup2\n      sload\n      add\n      dup1\n      dup3\n      sstore\n      dup1\n      swap2\n      pop\n      pop\n      0x01\n      swap1\n      sub\n      swap1\n      0x00\n      mstore\n      keccak256(0x00, 0x20)\n      add\n      0x00\n      swap1\n      swap2\n      swap1\n      swap2\n      swap1\n      swap2\n      0x0100\n      exp\n      dup2\n      sload\n      dup2\n      0xffffffffffffffffffffffffffffffffffffffff\n      mul\n      not\n      and\n      swap1\n      dup4\n      0xffffffffffffffffffffffffffffffffffffffff\n      and\n      mul\n      or\n      swap1\n      sstore\n      pop\n        /* \"contracts/senior project.sol\":1029:1068  LogReceivedFunds(msg.sender, msg.value) */\n      0x81d2c188629cc4a1c694d285150cb5fa3dde3157a2684460d3ac7a1e331f6164\n        /* \"contracts/senior project.sol\":1046:1056  msg.sender */\n      caller\n        /* \"contracts/senior project.sol\":1058:1067  msg.value */\n      callvalue\n        /* \"contracts/senior project.sol\":1029:1068  LogReceivedFunds(msg.sender, msg.value) */\n      mload(0x40)\n      tag_62\n      swap3\n      swap2\n      swap1\n      tag_46\n      jump\t// in\n    tag_62:\n      mload(0x40)\n      dup1\n      swap2\n      sub\n      swap1\n      log1\n        /* \"contracts/senior project.sol\":765:1076  function donate() public payable{... */\n      jump\t// out\n        /* \"#utility.yul\":88:205   */\n    tag_64:\n        /* \"#utility.yul\":197:198   */\n      0x00\n        /* \"#utility.yul\":194:195   */\n      dup1\n        /* \"#utility.yul\":187:199   */\n      revert\n        /* \"#utility.yul\":334:460   */\n    tag_66:\n        /* \"#utility.yul\":371:378   */\n      0x00\n        /* \"#utility.yul\":411:453   */\n      0xffffffffffffffffffffffffffffffffffffffff\n        /* \"#utility.yul\":404:409   */\n      dup3\n        /* \"#utility.yul\":400:454   */\n      and\n        /* \"#utility.yul\":389:454   */\n      swap1\n      pop\n        /* \"#utility.yul\":334:460   */\n      swap2\n      swap1\n      pop\n      jump\t// out\n        /* \"#utility.yul\":466:562   */\n    tag_67:\n        /* \"#utility.yul\":503:510   */\n      0x00\n        /* \"#utility.yul\":532:556   */\n      tag_84\n        /* \"#utility.yul\":550:555   */\n      dup3\n        /* \"#utility.yul\":532:556   */\n      tag_66\n      jump\t// in\n    tag_84:\n        /* \"#utility.yul\":521:556   */\n      swap1\n      pop\n        /* \"#utility.yul\":466:562   */\n      swap2\n      swap1\n      pop\n      jump\t// out\n        /* \"#utility.yul\":568:690   */\n    tag_68:\n        /* \"#utility.yul\":641:665   */\n      tag_86\n        /* \"#utility.yul\":659:664   */\n      dup2\n        /* \"#utility.yul\":641:665   */\n      tag_67\n      jump\t// in\n    tag_86:\n        /* \"#utility.yul\":634:639   */\n      dup2\n        /* \"#utility.yul\":631:666   */\n      eq\n        /* \"#utility.yul\":621:684   */\n      tag_87\n      jumpi\n        /* \"#utility.yul\":680:681   */\n      0x00\n        /* \"#utility.yul\":677:678   */\n      dup1\n        /* \"#utility.yul\":670:682   */\n      revert\n        /* \"#utility.yul\":621:684   */\n    tag_87:\n        /* \"#utility.yul\":568:690   */\n      pop\n      jump\t// out\n        /* \"#utility.yul\":696:835   */\n    tag_69:\n        /* \"#utility.yul\":742:747   */\n      0x00\n        /* \"#utility.yul\":780:786   */\n      dup2\n        /* \"#utility.yul\":767:787   */\n      calldataload\n        /* \"#utility.yul\":758:787   */\n      swap1\n      pop\n        /* \"#utility.yul\":796:829   */\n      tag_89\n        /* \"#utility.yul\":823:828   */\n      dup2\n        /* \"#utility.yul\":796:829   */\n      tag_68\n      jump\t// in\n    tag_89:\n        /* \"#utility.yul\":696:835   */\n      swap3\n      swap2\n      pop\n      pop\n      jump\t// out\n        /* \"#utility.yul\":841:1170   */\n    tag_13:\n        /* \"#utility.yul\":900:906   */\n      0x00\n        /* \"#utility.yul\":949:951   */\n      0x20\n        /* \"#utility.yul\":937:946   */\n      dup3\n        /* \"#utility.yul\":928:935   */\n      dup5\n        /* \"#utility.yul\":924:947   */\n      sub\n        /* \"#utility.yul\":920:952   */\n      slt\n        /* \"#utility.yul\":917:1036   */\n      iszero\n      tag_91\n      jumpi\n        /* \"#utility.yul\":955:1034   */\n      tag_92\n      tag_64\n      jump\t// in\n    tag_92:\n        /* \"#utility.yul\":917:1036   */\n    tag_91:\n        /* \"#utility.yul\":1075:1076   */\n      0x00\n        /* \"#utility.yul\":1100:1153   */\n      tag_93\n        /* \"#utility.yul\":1145:1152   */\n      dup5\n        /* \"#utility.yul\":1136:1142   */\n      dup3\n        /* \"#utility.yul\":1125:1134   */\n      dup6\n        /* \"#utility.yul\":1121:1143   */\n      add\n        /* \"#utility.yul\":1100:1153   */\n      tag_69\n      jump\t// in\n    tag_93:\n        /* \"#utility.yul\":1090:1153   */\n      swap2\n      pop\n        /* \"#utility.yul\":1046:1163   */\n      pop\n        /* \"#utility.yul\":841:1170   */\n      swap3\n      swap2\n      pop\n      pop\n      jump\t// out\n        /* \"#utility.yul\":1176:1253   */\n    tag_70:\n        /* \"#utility.yul\":1213:1220   */\n      0x00\n        /* \"#utility.yul\":1242:1247   */\n      dup2\n        /* \"#utility.yul\":1231:1247   */\n      swap1\n      pop\n        /* \"#utility.yul\":1176:1253   */\n      swap2\n      swap1\n      pop\n      jump\t// out\n        /* \"#utility.yul\":1259:1377   */\n    tag_71:\n        /* \"#utility.yul\":1346:1370   */\n      tag_96\n        /* \"#utility.yul\":1364:1369   */\n      dup2\n        /* \"#utility.yul\":1346:1370   */\n      tag_70\n      jump\t// in\n    tag_96:\n        /* \"#utility.yul\":1341:1344   */\n      dup3\n        /* \"#utility.yul\":1334:1371   */\n      mstore\n        /* \"#utility.yul\":1259:1377   */\n      pop\n      pop\n      jump\t// out\n        /* \"#utility.yul\":1383:1936   */\n    tag_16:\n        /* \"#utility.yul\":1560:1564   */\n      0x00\n        /* \"#utility.yul\":1598:1601   */\n      0x80\n        /* \"#utility.yul\":1587:1596   */\n      dup3\n        /* \"#utility.yul\":1583:1602   */\n      add\n        /* \"#utility.yul\":1575:1602   */\n      swap1\n      pop\n        /* \"#utility.yul\":1612:1683   */\n      tag_98\n        /* \"#utility.yul\":1680:1681   */\n      0x00\n        /* \"#utility.yul\":1669:1678   */\n      dup4\n        /* \"#utility.yul\":1665:1682   */\n      add\n        /* \"#utility.yul\":1656:1662   */\n      dup8\n        /* \"#utility.yul\":1612:1683   */\n      tag_71\n      jump\t// in\n    tag_98:\n        /* \"#utility.yul\":1693:1765   */\n      tag_99\n        /* \"#utility.yul\":1761:1763   */\n      0x20\n        /* \"#utility.yul\":1750:1759   */\n      dup4\n        /* \"#utility.yul\":1746:1764   */\n      add\n        /* \"#utility.yul\":1737:1743   */\n      dup7\n        /* \"#utility.yul\":1693:1765   */\n      tag_71\n      jump\t// in\n    tag_99:\n        /* \"#utility.yul\":1775:1847   */\n      tag_100\n        /* \"#utility.yul\":1843:1845   */\n      0x40\n        /* \"#utility.yul\":1832:1841   */\n      dup4\n        /* \"#utility.yul\":1828:1846   */\n      add\n        /* \"#utility.yul\":1819:1825   */\n      dup6\n        /* \"#utility.yul\":1775:1847   */\n      tag_71\n      jump\t// in\n    tag_100:\n        /* \"#utility.yul\":1857:1929   */\n      tag_101\n        /* \"#utility.yul\":1925:1927   */\n      0x60\n        /* \"#utility.yul\":1914:1923   */\n      dup4\n        /* \"#utility.yul\":1910:1928   */\n      add\n        /* \"#utility.yul\":1901:1907   */\n      dup5\n        /* \"#utility.yul\":1857:1929   */\n      tag_71\n      jump\t// in\n    tag_101:\n        /* \"#utility.yul\":1383:1936   */\n      swap6\n      swap5\n      pop\n      pop\n      pop\n      pop\n      pop\n      jump\t// out\n        /* \"#utility.yul\":1942:2064   */\n    tag_72:\n        /* \"#utility.yul\":2015:2039   */\n      tag_103\n        /* \"#utility.yul\":2033:2038   */\n      dup2\n        /* \"#utility.yul\":2015:2039   */\n      tag_70\n      jump\t// in\n    tag_103:\n        /* \"#utility.yul\":2008:2013   */\n      dup2\n        /* \"#utility.yul\":2005:2040   */\n      eq\n        /* \"#utility.yul\":1995:2058   */\n      tag_104\n      jumpi\n        /* \"#utility.yul\":2054:2055   */\n      0x00\n        /* \"#utility.yul\":2051:2052   */\n      dup1\n        /* \"#utility.yul\":2044:2056   */\n      revert\n        /* \"#utility.yul\":1995:2058   */\n    tag_104:\n        /* \"#utility.yul\":1942:2064   */\n      pop\n      jump\t// out\n        /* \"#utility.yul\":2070:2209   */\n    tag_73:\n        /* \"#utility.yul\":2116:2121   */\n      0x00\n        /* \"#utility.yul\":2154:2160   */\n      dup2\n        /* \"#utility.yul\":2141:2161   */\n      calldataload\n        /* \"#utility.yul\":2132:2161   */\n      swap1\n      pop\n        /* \"#utility.yul\":2170:2203   */\n      tag_106\n        /* \"#utility.yul\":2197:2202   */\n      dup2\n        /* \"#utility.yul\":2170:2203   */\n      tag_72\n      jump\t// in\n    tag_106:\n        /* \"#utility.yul\":2070:2209   */\n      swap3\n      swap2\n      pop\n      pop\n      jump\t// out\n        /* \"#utility.yul\":2215:2544   */\n    tag_23:\n        /* \"#utility.yul\":2274:2280   */\n      0x00\n        /* \"#utility.yul\":2323:2325   */\n      0x20\n        /* \"#utility.yul\":2311:2320   */\n      dup3\n        /* \"#utility.yul\":2302:2309   */\n      dup5\n        /* \"#utility.yul\":2298:2321   */\n      sub\n        /* \"#utility.yul\":2294:2326   */\n      slt\n        /* \"#utility.yul\":2291:2410   */\n      iszero\n      tag_108\n      jumpi\n        /* \"#utility.yul\":2329:2408   */\n      tag_109\n      tag_64\n      jump\t// in\n    tag_109:\n        /* \"#utility.yul\":2291:2410   */\n    tag_108:\n        /* \"#utility.yul\":2449:2450   */\n      0x00\n        /* \"#utility.yul\":2474:2527   */\n      tag_110\n        /* \"#utility.yul\":2519:2526   */\n      dup5\n        /* \"#utility.yul\":2510:2516   */\n      dup3\n        /* \"#utility.yul\":2499:2508   */\n      dup6\n        /* \"#utility.yul\":2495:2517   */\n      add\n        /* \"#utility.yul\":2474:2527   */\n      tag_73\n      jump\t// in\n    tag_110:\n        /* \"#utility.yul\":2464:2527   */\n      swap2\n      pop\n        /* \"#utility.yul\":2420:2537   */\n      pop\n        /* \"#utility.yul\":2215:2544   */\n      swap3\n      swap2\n      pop\n      pop\n      jump\t// out\n        /* \"#utility.yul\":2550:2654   */\n    tag_74:\n        /* \"#utility.yul\":2595:2602   */\n      0x00\n        /* \"#utility.yul\":2624:2648   */\n      tag_112\n        /* \"#utility.yul\":2642:2647   */\n      dup3\n        /* \"#utility.yul\":2624:2648   */\n      tag_66\n      jump\t// in\n    tag_112:\n        /* \"#utility.yul\":2613:2648   */\n      swap1\n      pop\n        /* \"#utility.yul\":2550:2654   */\n      swap2\n      swap1\n      pop\n      jump\t// out\n        /* \"#utility.yul\":2660:2802   */\n    tag_75:\n        /* \"#utility.yul\":2763:2795   */\n      tag_114\n        /* \"#utility.yul\":2789:2794   */\n      dup2\n        /* \"#utility.yul\":2763:2795   */\n      tag_74\n      jump\t// in\n    tag_114:\n        /* \"#utility.yul\":2758:2761   */\n      dup3\n        /* \"#utility.yul\":2751:2796   */\n      mstore\n        /* \"#utility.yul\":2660:2802   */\n      pop\n      pop\n      jump\t// out\n        /* \"#utility.yul\":2808:3062   */\n    tag_26:\n        /* \"#utility.yul\":2917:2921   */\n      0x00\n        /* \"#utility.yul\":2955:2957   */\n      0x20\n        /* \"#utility.yul\":2944:2953   */\n      dup3\n        /* \"#utility.yul\":2940:2958   */\n      add\n        /* \"#utility.yul\":2932:2958   */\n      swap1\n      pop\n        /* \"#utility.yul\":2968:3055   */\n      tag_116\n        /* \"#utility.yul\":3052:3053   */\n      0x00\n        /* \"#utility.yul\":3041:3050   */\n      dup4\n        /* \"#utility.yul\":3037:3054   */\n      add\n        /* \"#utility.yul\":3028:3034   */\n      dup5\n        /* \"#utility.yul\":2968:3055   */\n      tag_75\n      jump\t// in\n    tag_116:\n        /* \"#utility.yul\":2808:3062   */\n      swap3\n      swap2\n      pop\n      pop\n      jump\t// out\n        /* \"#utility.yul\":3068:3186   */\n    tag_76:\n        /* \"#utility.yul\":3155:3179   */\n      tag_118\n        /* \"#utility.yul\":3173:3178   */\n      dup2\n        /* \"#utility.yul\":3155:3179   */\n      tag_67\n      jump\t// in\n    tag_118:\n        /* \"#utility.yul\":3150:3153   */\n      dup3\n        /* \"#utility.yul\":3143:3180   */\n      mstore\n        /* \"#utility.yul\":3068:3186   */\n      pop\n      pop\n      jump\t// out\n        /* \"#utility.yul\":3192:3524   */\n    tag_46:\n        /* \"#utility.yul\":3313:3317   */\n      0x00\n        /* \"#utility.yul\":3351:3353   */\n      0x40\n        /* \"#utility.yul\":3340:3349   */\n      dup3\n        /* \"#utility.yul\":3336:3354   */\n      add\n        /* \"#utility.yul\":3328:3354   */\n      swap1\n      pop\n        /* \"#utility.yul\":3364:3435   */\n      tag_120\n        /* \"#utility.yul\":3432:3433   */\n      0x00\n        /* \"#utility.yul\":3421:3430   */\n      dup4\n        /* \"#utility.yul\":3417:3434   */\n      add\n        /* \"#utility.yul\":3408:3414   */\n      dup6\n        /* \"#utility.yul\":3364:3435   */\n      tag_76\n      jump\t// in\n    tag_120:\n        /* \"#utility.yul\":3445:3517   */\n      tag_121\n        /* \"#utility.yul\":3513:3515   */\n      0x20\n        /* \"#utility.yul\":3502:3511   */\n      dup4\n        /* \"#utility.yul\":3498:3516   */\n      add\n        /* \"#utility.yul\":3489:3495   */\n      dup5\n        /* \"#utility.yul\":3445:3517   */\n      tag_71\n      jump\t// in\n    tag_121:\n        /* \"#utility.yul\":3192:3524   */\n      swap4\n      swap3\n      pop\n      pop\n      pop\n      jump\t// out\n        /* \"#utility.yul\":3530:3710   */\n    tag_77:\n        /* \"#utility.yul\":3578:3655   */\n      0x4e487b7100000000000000000000000000000000000000000000000000000000\n        /* \"#utility.yul\":3575:3576   */\n      0x00\n        /* \"#utility.yul\":3568:3656   */\n      mstore\n        /* \"#utility.yul\":3675:3679   */\n      0x11\n        /* \"#utility.yul\":3672:3673   */\n      0x04\n        /* \"#utility.yul\":3665:3680   */\n      mstore\n        /* \"#utility.yul\":3699:3703   */\n      0x24\n        /* \"#utility.yul\":3696:3697   */\n      0x00\n        /* \"#utility.yul\":3689:3704   */\n      revert\n        /* \"#utility.yul\":3716:3907   */\n    tag_54:\n        /* \"#utility.yul\":3756:3759   */\n      0x00\n        /* \"#utility.yul\":3775:3795   */\n      tag_124\n        /* \"#utility.yul\":3793:3794   */\n      dup3\n        /* \"#utility.yul\":3775:3795   */\n      tag_70\n      jump\t// in\n    tag_124:\n        /* \"#utility.yul\":3770:3795   */\n      swap2\n      pop\n        /* \"#utility.yul\":3809:3829   */\n      tag_125\n        /* \"#utility.yul\":3827:3828   */\n      dup4\n        /* \"#utility.yul\":3809:3829   */\n      tag_70\n      jump\t// in\n    tag_125:\n        /* \"#utility.yul\":3804:3829   */\n      swap3\n      pop\n        /* \"#utility.yul\":3852:3853   */\n      dup3\n        /* \"#utility.yul\":3849:3850   */\n      dup3\n        /* \"#utility.yul\":3845:3854   */\n      add\n        /* \"#utility.yul\":3838:3854   */\n      swap1\n      pop\n        /* \"#utility.yul\":3873:3876   */\n      dup1\n        /* \"#utility.yul\":3870:3871   */\n      dup3\n        /* \"#utility.yul\":3867:3877   */\n      gt\n        /* \"#utility.yul\":3864:3900   */\n      iszero\n      tag_126\n      jumpi\n        /* \"#utility.yul\":3880:3898   */\n      tag_127\n      tag_77\n      jump\t// in\n    tag_127:\n        /* \"#utility.yul\":3864:3900   */\n    tag_126:\n        /* \"#utility.yul\":3716:3907   */\n      swap3\n      swap2\n      pop\n      pop\n      jump\t// out\n        /* \"#utility.yul\":3913:4146   */\n    tag_56:\n        /* \"#utility.yul\":3952:3955   */\n      0x00\n        /* \"#utility.yul\":3975:3999   */\n      tag_129\n        /* \"#utility.yul\":3993:3998   */\n      dup3\n        /* \"#utility.yul\":3975:3999   */\n      tag_70\n      jump\t// in\n    tag_129:\n        /* \"#utility.yul\":3966:3999   */\n      swap2\n      pop\n        /* \"#utility.yul\":4021:4087   */\n      0xffffffffffffffffffffffffffffffffffffffffffffffffffffffffffffffff\n        /* \"#utility.yul\":4014:4019   */\n      dup3\n        /* \"#utility.yul\":4011:4088   */\n      sub\n        /* \"#utility.yul\":4008:4111   */\n      tag_130\n      jumpi\n        /* \"#utility.yul\":4091:4109   */\n      tag_131\n      tag_77\n      jump\t// in\n    tag_131:\n        /* \"#utility.yul\":4008:4111   */\n    tag_130:\n        /* \"#utility.yul\":4138:4139   */\n      0x01\n        /* \"#utility.yul\":4131:4136   */\n      dup3\n        /* \"#utility.yul\":4127:4140   */\n      add\n        /* \"#utility.yul\":4120:4140   */\n      swap1\n      pop\n        /* \"#utility.yul\":3913:4146   */\n      swap2\n      swap1\n      pop\n      jump\t// out\n\n    auxdata: 0xa264697066735822122076830f25fcbe61561e7695899fc870110358004c0f8a4e867a39d697262c89df64736f6c63430008100033\n}\n",
				"bytecode": {
					"linkReferences": {},
					"object": "60806040526000600460006101000a81548160ff021916908315150217905550600060075534801561003057600080fd5b506108ce806100406000396000f3fe6080604052600436106100705760003560e01c80638bf963b61161004e5780638bf963b6146101095780638d68cf5914610120578063abb6ae8914610137578063ed88c68e1461014e57610070565b806327e235e31461007557806339788bc8146100b55780635eed3dcb146100cc575b600080fd5b34801561008157600080fd5b5061009c60048036038101906100979190610695565b610158565b6040516100ac94939291906106db565b60405180910390f35b3480156100c157600080fd5b506100ca610188565b005b3480156100d857600080fd5b506100f360048036038101906100ee919061074c565b6101fd565b604051610100919061079a565b60405180910390f35b34801561011557600080fd5b5061011e61023c565b005b34801561012c57600080fd5b50610135610306565b005b34801561014357600080fd5b5061014c6103f9565b005b610156610485565b005b60056020528060005260406000206000915090508060000154908060010154908060020154908060030154905084565b60008054906101000a900473ffffffffffffffffffffffffffffffffffffffff1673ffffffffffffffffffffffffffffffffffffffff163373ffffffffffffffffffffffffffffffffffffffff16146101e057600080fd5b6001600460006101000a81548160ff021916908315150217905550565b6006818154811061020d57600080fd5b906000526020600020016000915054906101000a900473ffffffffffffffffffffffffffffffffffffffff1681565b6000600560003373ffffffffffffffffffffffffffffffffffffffff1673ffffffffffffffffffffffffffffffffffffffff1681526020019081526020016000206002015490503373ffffffffffffffffffffffffffffffffffffffff166108fc829081150290604051600060405180830381858888f193505050501580156102c9573d6000803e3d6000fd5b507fe0e5873eb9d996d2ab087b071a9a50522121c02b43308c8728c06739f52b3f8733826040516102fb9291906107c4565b60405180910390a150565b60008054906101000a900473ffffffffffffffffffffffffffffffffffffffff1673ffffffffffffffffffffffffffffffffffffffff166108fc600560003373ffffffffffffffffffffffffffffffffffffffff1673ffffffffffffffffffffffffffffffffffffffff168152602001908152602001600020600001549081150290604051600060405180830381858888f193505050501580156103ae573d6000803e3d6000fd5b506000600560003373ffffffffffffffffffffffffffffffffffffffff1673ffffffffffffffffffffffffffffffffffffffff16815260200190815260200160002060020181905550565b60008054906101000a900473ffffffffffffffffffffffffffffffffffffffff1673ffffffffffffffffffffffffffffffffffffffff163373ffffffffffffffffffffffffffffffffffffffff161461045157600080fd5b6000600754036104835760038054610469919061081c565b506007600081548092919061047d90610850565b91905055505b565b34600560003373ffffffffffffffffffffffffffffffffffffffff1673ffffffffffffffffffffffffffffffffffffffff16815260200190815260200160002060000160008282546104d7919061081c565b9250508190555034600560003373ffffffffffffffffffffffffffffffffffffffff1673ffffffffffffffffffffffffffffffffffffffff1681526020019081526020016000206002016000828254610530919061081c565b925050819055506001600081548092919061054a90610850565b91905055600560003373ffffffffffffffffffffffffffffffffffffffff1673ffffffffffffffffffffffffffffffffffffffff168152602001908152602001600020600301819055506006339080600181540180825580915050600190039060005260206000200160009091909190916101000a81548173ffffffffffffffffffffffffffffffffffffffff021916908373ffffffffffffffffffffffffffffffffffffffff1602179055507f81d2c188629cc4a1c694d285150cb5fa3dde3157a2684460d3ac7a1e331f616433346040516106289291906107c4565b60405180910390a1565b600080fd5b600073ffffffffffffffffffffffffffffffffffffffff82169050919050565b600061066282610637565b9050919050565b61067281610657565b811461067d57600080fd5b50565b60008135905061068f81610669565b92915050565b6000602082840312156106ab576106aa610632565b5b60006106b984828501610680565b91505092915050565b6000819050919050565b6106d5816106c2565b82525050565b60006080820190506106f060008301876106cc565b6106fd60208301866106cc565b61070a60408301856106cc565b61071760608301846106cc565b95945050505050565b610729816106c2565b811461073457600080fd5b50565b60008135905061074681610720565b92915050565b60006020828403121561076257610761610632565b5b600061077084828501610737565b91505092915050565b600061078482610637565b9050919050565b61079481610779565b82525050565b60006020820190506107af600083018461078b565b92915050565b6107be81610657565b82525050565b60006040820190506107d960008301856107b5565b6107e660208301846106cc565b9392505050565b7f4e487b7100000000000000000000000000000000000000000000000000000000600052601160045260246000fd5b6000610827826106c2565b9150610832836106c2565b925082820190508082111561084a576108496107ed565b5b92915050565b600061085b826106c2565b91507fffffffffffffffffffffffffffffffffffffffffffffffffffffffffffffffff820361088d5761088c6107ed565b5b60018201905091905056fea264697066735822122076830f25fcbe61561e7695899fc870110358004c0f8a4e867a39d697262c89df64736f6c63430008100033",
					"opcodes": "PUSH1 0x80 PUSH1 0x40 MSTORE PUSH1 0x0 PUSH1 0x4 PUSH1 0x0 PUSH2 0x100 EXP DUP2 SLOAD DUP2 PUSH1 0xFF MUL NOT AND SWAP1 DUP4 ISZERO ISZERO MUL OR SWAP1 SSTORE POP PUSH1 0x0 PUSH1 0x7 SSTORE CALLVALUE DUP1 ISZERO PUSH2 0x30 JUMPI PUSH1 0x0 DUP1 REVERT JUMPDEST POP PUSH2 0x8CE DUP1 PUSH2 0x40 PUSH1 0x0 CODECOPY PUSH1 0x0 RETURN INVALID PUSH1 0x80 PUSH1 0x40 MSTORE PUSH1 0x4 CALLDATASIZE LT PUSH2 0x70 JUMPI PUSH1 0x0 CALLDATALOAD PUSH1 0xE0 SHR DUP1 PUSH4 0x8BF963B6 GT PUSH2 0x4E JUMPI DUP1 PUSH4 0x8BF963B6 EQ PUSH2 0x109 JUMPI DUP1 PUSH4 0x8D68CF59 EQ PUSH2 0x120 JUMPI DUP1 PUSH4 0xABB6AE89 EQ PUSH2 0x137 JUMPI DUP1 PUSH4 0xED88C68E EQ PUSH2 0x14E JUMPI PUSH2 0x70 JUMP JUMPDEST DUP1 PUSH4 0x27E235E3 EQ PUSH2 0x75 JUMPI DUP1 PUSH4 0x39788BC8 EQ PUSH2 0xB5 JUMPI DUP1 PUSH4 0x5EED3DCB EQ PUSH2 0xCC JUMPI JUMPDEST PUSH1 0x0 DUP1 REVERT JUMPDEST CALLVALUE DUP1 ISZERO PUSH2 0x81 JUMPI PUSH1 0x0 DUP1 REVERT JUMPDEST POP PUSH2 0x9C PUSH1 0x4 DUP1 CALLDATASIZE SUB DUP2 ADD SWAP1 PUSH2 0x97 SWAP2 SWAP1 PUSH2 0x695 JUMP JUMPDEST PUSH2 0x158 JUMP JUMPDEST PUSH1 0x40 MLOAD PUSH2 0xAC SWAP5 SWAP4 SWAP3 SWAP2 SWAP1 PUSH2 0x6DB JUMP JUMPDEST PUSH1 0x40 MLOAD DUP1 SWAP2 SUB SWAP1 RETURN JUMPDEST CALLVALUE DUP1 ISZERO PUSH2 0xC1 JUMPI PUSH1 0x0 DUP1 REVERT JUMPDEST POP PUSH2 0xCA PUSH2 0x188 JUMP JUMPDEST STOP JUMPDEST CALLVALUE DUP1 ISZERO PUSH2 0xD8 JUMPI PUSH1 0x0 DUP1 REVERT JUMPDEST POP PUSH2 0xF3 PUSH1 0x4 DUP1 CALLDATASIZE SUB DUP2 ADD SWAP1 PUSH2 0xEE SWAP2 SWAP1 PUSH2 0x74C JUMP JUMPDEST PUSH2 0x1FD JUMP JUMPDEST PUSH1 0x40 MLOAD PUSH2 0x100 SWAP2 SWAP1 PUSH2 0x79A JUMP JUMPDEST PUSH1 0x40 MLOAD DUP1 SWAP2 SUB SWAP1 RETURN JUMPDEST CALLVALUE DUP1 ISZERO PUSH2 0x115 JUMPI PUSH1 0x0 DUP1 REVERT JUMPDEST POP PUSH2 0x11E PUSH2 0x23C JUMP JUMPDEST STOP JUMPDEST CALLVALUE DUP1 ISZERO PUSH2 0x12C JUMPI PUSH1 0x0 DUP1 REVERT JUMPDEST POP PUSH2 0x135 PUSH2 0x306 JUMP JUMPDEST STOP JUMPDEST CALLVALUE DUP1 ISZERO PUSH2 0x143 JUMPI PUSH1 0x0 DUP1 REVERT JUMPDEST POP PUSH2 0x14C PUSH2 0x3F9 JUMP JUMPDEST STOP JUMPDEST PUSH2 0x156 PUSH2 0x485 JUMP JUMPDEST STOP JUMPDEST PUSH1 0x5 PUSH1 0x20 MSTORE DUP1 PUSH1 0x0 MSTORE PUSH1 0x40 PUSH1 0x0 KECCAK256 PUSH1 0x0 SWAP2 POP SWAP1 POP DUP1 PUSH1 0x0 ADD SLOAD SWAP1 DUP1 PUSH1 0x1 ADD SLOAD SWAP1 DUP1 PUSH1 0x2 ADD SLOAD SWAP1 DUP1 PUSH1 0x3 ADD SLOAD SWAP1 POP DUP5 JUMP JUMPDEST PUSH1 0x0 DUP1 SLOAD SWAP1 PUSH2 0x100 EXP SWAP1 DIV PUSH20 0xFFFFFFFFFFFFFFFFFFFFFFFFFFFFFFFFFFFFFFFF AND PUSH20 0xFFFFFFFFFFFFFFFFFFFFFFFFFFFFFFFFFFFFFFFF AND CALLER PUSH20 0xFFFFFFFFFFFFFFFFFFFFFFFFFFFFFFFFFFFFFFFF AND EQ PUSH2 0x1E0 JUMPI PUSH1 0x0 DUP1 REVERT JUMPDEST PUSH1 0x1 PUSH1 0x4 PUSH1 0x0 PUSH2 0x100 EXP DUP2 SLOAD DUP2 PUSH1 0xFF MUL NOT AND SWAP1 DUP4 ISZERO ISZERO MUL OR SWAP1 SSTORE POP JUMP JUMPDEST PUSH1 0x6 DUP2 DUP2 SLOAD DUP2 LT PUSH2 0x20D JUMPI PUSH1 0x0 DUP1 REVERT JUMPDEST SWAP1 PUSH1 0x0 MSTORE PUSH1 0x20 PUSH1 0x0 KECCAK256 ADD PUSH1 0x0 SWAP2 POP SLOAD SWAP1 PUSH2 0x100 EXP SWAP1 DIV PUSH20 0xFFFFFFFFFFFFFFFFFFFFFFFFFFFFFFFFFFFFFFFF AND DUP2 JUMP JUMPDEST PUSH1 0x0 PUSH1 0x5 PUSH1 0x0 CALLER PUSH20 0xFFFFFFFFFFFFFFFFFFFFFFFFFFFFFFFFFFFFFFFF AND PUSH20 0xFFFFFFFFFFFFFFFFFFFFFFFFFFFFFFFFFFFFFFFF AND DUP2 MSTORE PUSH1 0x20 ADD SWAP1 DUP2 MSTORE PUSH1 0x20 ADD PUSH1 0x0 KECCAK256 PUSH1 0x2 ADD SLOAD SWAP1 POP CALLER PUSH20 0xFFFFFFFFFFFFFFFFFFFFFFFFFFFFFFFFFFFFFFFF AND PUSH2 0x8FC DUP3 SWAP1 DUP2 ISZERO MUL SWAP1 PUSH1 0x40 MLOAD PUSH1 0x0 PUSH1 0x40 MLOAD DUP1 DUP4 SUB DUP2 DUP6 DUP9 DUP9 CALL SWAP4 POP POP POP POP ISZERO DUP1 ISZERO PUSH2 0x2C9 JUMPI RETURNDATASIZE PUSH1 0x0 DUP1 RETURNDATACOPY RETURNDATASIZE PUSH1 0x0 REVERT JUMPDEST POP PUSH32 0xE0E5873EB9D996D2AB087B071A9A50522121C02B43308C8728C06739F52B3F87 CALLER DUP3 PUSH1 0x40 MLOAD PUSH2 0x2FB SWAP3 SWAP2 SWAP1 PUSH2 0x7C4 JUMP JUMPDEST PUSH1 0x40 MLOAD DUP1 SWAP2 SUB SWAP1 LOG1 POP JUMP JUMPDEST PUSH1 0x0 DUP1 SLOAD SWAP1 PUSH2 0x100 EXP SWAP1 DIV PUSH20 0xFFFFFFFFFFFFFFFFFFFFFFFFFFFFFFFFFFFFFFFF AND PUSH20 0xFFFFFFFFFFFFFFFFFFFFFFFFFFFFFFFFFFFFFFFF AND PUSH2 0x8FC PUSH1 0x5 PUSH1 0x0 CALLER PUSH20 0xFFFFFFFFFFFFFFFFFFFFFFFFFFFFFFFFFFFFFFFF AND PUSH20 0xFFFFFFFFFFFFFFFFFFFFFFFFFFFFFFFFFFFFFFFF AND DUP2 MSTORE PUSH1 0x20 ADD SWAP1 DUP2 MSTORE PUSH1 0x20 ADD PUSH1 0x0 KECCAK256 PUSH1 0x0 ADD SLOAD SWAP1 DUP2 ISZERO MUL SWAP1 PUSH1 0x40 MLOAD PUSH1 0x0 PUSH1 0x40 MLOAD DUP1 DUP4 SUB DUP2 DUP6 DUP9 DUP9 CALL SWAP4 POP POP POP POP ISZERO DUP1 ISZERO PUSH2 0x3AE JUMPI RETURNDATASIZE PUSH1 0x0 DUP1 RETURNDATACOPY RETURNDATASIZE PUSH1 0x0 REVERT JUMPDEST POP PUSH1 0x0 PUSH1 0x5 PUSH1 0x0 CALLER PUSH20 0xFFFFFFFFFFFFFFFFFFFFFFFFFFFFFFFFFFFFFFFF AND PUSH20 0xFFFFFFFFFFFFFFFFFFFFFFFFFFFFFFFFFFFFFFFF AND DUP2 MSTORE PUSH1 0x20 ADD SWAP1 DUP2 MSTORE PUSH1 0x20 ADD PUSH1 0x0 KECCAK256 PUSH1 0x2 ADD DUP2 SWAP1 SSTORE POP JUMP JUMPDEST PUSH1 0x0 DUP1 SLOAD SWAP1 PUSH2 0x100 EXP SWAP1 DIV PUSH20 0xFFFFFFFFFFFFFFFFFFFFFFFFFFFFFFFFFFFFFFFF AND PUSH20 0xFFFFFFFFFFFFFFFFFFFFFFFFFFFFFFFFFFFFFFFF AND CALLER PUSH20 0xFFFFFFFFFFFFFFFFFFFFFFFFFFFFFFFFFFFFFFFF AND EQ PUSH2 0x451 JUMPI PUSH1 0x0 DUP1 REVERT JUMPDEST PUSH1 0x0 PUSH1 0x7 SLOAD SUB PUSH2 0x483 JUMPI PUSH1 0x3 DUP1 SLOAD PUSH2 0x469 SWAP2 SWAP1 PUSH2 0x81C JUMP JUMPDEST POP PUSH1 0x7 PUSH1 0x0 DUP2 SLOAD DUP1 SWAP3 SWAP2 SWAP1 PUSH2 0x47D SWAP1 PUSH2 0x850 JUMP JUMPDEST SWAP2 SWAP1 POP SSTORE POP JUMPDEST JUMP JUMPDEST CALLVALUE PUSH1 0x5 PUSH1 0x0 CALLER PUSH20 0xFFFFFFFFFFFFFFFFFFFFFFFFFFFFFFFFFFFFFFFF AND PUSH20 0xFFFFFFFFFFFFFFFFFFFFFFFFFFFFFFFFFFFFFFFF AND DUP2 MSTORE PUSH1 0x20 ADD SWAP1 DUP2 MSTORE PUSH1 0x20 ADD PUSH1 0x0 KECCAK256 PUSH1 0x0 ADD PUSH1 0x0 DUP3 DUP3 SLOAD PUSH2 0x4D7 SWAP2 SWAP1 PUSH2 0x81C JUMP JUMPDEST SWAP3 POP POP DUP2 SWAP1 SSTORE POP CALLVALUE PUSH1 0x5 PUSH1 0x0 CALLER PUSH20 0xFFFFFFFFFFFFFFFFFFFFFFFFFFFFFFFFFFFFFFFF AND PUSH20 0xFFFFFFFFFFFFFFFFFFFFFFFFFFFFFFFFFFFFFFFF AND DUP2 MSTORE PUSH1 0x20 ADD SWAP1 DUP2 MSTORE PUSH1 0x20 ADD PUSH1 0x0 KECCAK256 PUSH1 0x2 ADD PUSH1 0x0 DUP3 DUP3 SLOAD PUSH2 0x530 SWAP2 SWAP1 PUSH2 0x81C JUMP JUMPDEST SWAP3 POP POP DUP2 SWAP1 SSTORE POP PUSH1 0x1 PUSH1 0x0 DUP2 SLOAD DUP1 SWAP3 SWAP2 SWAP1 PUSH2 0x54A SWAP1 PUSH2 0x850 JUMP JUMPDEST SWAP2 SWAP1 POP SSTORE PUSH1 0x5 PUSH1 0x0 CALLER PUSH20 0xFFFFFFFFFFFFFFFFFFFFFFFFFFFFFFFFFFFFFFFF AND PUSH20 0xFFFFFFFFFFFFFFFFFFFFFFFFFFFFFFFFFFFFFFFF AND DUP2 MSTORE PUSH1 0x20 ADD SWAP1 DUP2 MSTORE PUSH1 0x20 ADD PUSH1 0x0 KECCAK256 PUSH1 0x3 ADD DUP2 SWAP1 SSTORE POP PUSH1 0x6 CALLER SWAP1 DUP1 PUSH1 0x1 DUP2 SLOAD ADD DUP1 DUP3 SSTORE DUP1 SWAP2 POP POP PUSH1 0x1 SWAP1 SUB SWAP1 PUSH1 0x0 MSTORE PUSH1 0x20 PUSH1 0x0 KECCAK256 ADD PUSH1 0x0 SWAP1 SWAP2 SWAP1 SWAP2 SWAP1 SWAP2 PUSH2 0x100 EXP DUP2 SLOAD DUP2 PUSH20 0xFFFFFFFFFFFFFFFFFFFFFFFFFFFFFFFFFFFFFFFF MUL NOT AND SWAP1 DUP4 PUSH20 0xFFFFFFFFFFFFFFFFFFFFFFFFFFFFFFFFFFFFFFFF AND MUL OR SWAP1 SSTORE POP PUSH32 0x81D2C188629CC4A1C694D285150CB5FA3DDE3157A2684460D3AC7A1E331F6164 CALLER CALLVALUE PUSH1 0x40 MLOAD PUSH2 0x628 SWAP3 SWAP2 SWAP1 PUSH2 0x7C4 JUMP JUMPDEST PUSH1 0x40 MLOAD DUP1 SWAP2 SUB SWAP1 LOG1 JUMP JUMPDEST PUSH1 0x0 DUP1 REVERT JUMPDEST PUSH1 0x0 PUSH20 0xFFFFFFFFFFFFFFFFFFFFFFFFFFFFFFFFFFFFFFFF DUP3 AND SWAP1 POP SWAP2 SWAP1 POP JUMP JUMPDEST PUSH1 0x0 PUSH2 0x662 DUP3 PUSH2 0x637 JUMP JUMPDEST SWAP1 POP SWAP2 SWAP1 POP JUMP JUMPDEST PUSH2 0x672 DUP2 PUSH2 0x657 JUMP JUMPDEST DUP2 EQ PUSH2 0x67D JUMPI PUSH1 0x0 DUP1 REVERT JUMPDEST POP JUMP JUMPDEST PUSH1 0x0 DUP2 CALLDATALOAD SWAP1 POP PUSH2 0x68F DUP2 PUSH2 0x669 JUMP JUMPDEST SWAP3 SWAP2 POP POP JUMP JUMPDEST PUSH1 0x0 PUSH1 0x20 DUP3 DUP5 SUB SLT ISZERO PUSH2 0x6AB JUMPI PUSH2 0x6AA PUSH2 0x632 JUMP JUMPDEST JUMPDEST PUSH1 0x0 PUSH2 0x6B9 DUP5 DUP3 DUP6 ADD PUSH2 0x680 JUMP JUMPDEST SWAP2 POP POP SWAP3 SWAP2 POP POP JUMP JUMPDEST PUSH1 0x0 DUP2 SWAP1 POP SWAP2 SWAP1 POP JUMP JUMPDEST PUSH2 0x6D5 DUP2 PUSH2 0x6C2 JUMP JUMPDEST DUP3 MSTORE POP POP JUMP JUMPDEST PUSH1 0x0 PUSH1 0x80 DUP3 ADD SWAP1 POP PUSH2 0x6F0 PUSH1 0x0 DUP4 ADD DUP8 PUSH2 0x6CC JUMP JUMPDEST PUSH2 0x6FD PUSH1 0x20 DUP4 ADD DUP7 PUSH2 0x6CC JUMP JUMPDEST PUSH2 0x70A PUSH1 0x40 DUP4 ADD DUP6 PUSH2 0x6CC JUMP JUMPDEST PUSH2 0x717 PUSH1 0x60 DUP4 ADD DUP5 PUSH2 0x6CC JUMP JUMPDEST SWAP6 SWAP5 POP POP POP POP POP JUMP JUMPDEST PUSH2 0x729 DUP2 PUSH2 0x6C2 JUMP JUMPDEST DUP2 EQ PUSH2 0x734 JUMPI PUSH1 0x0 DUP1 REVERT JUMPDEST POP JUMP JUMPDEST PUSH1 0x0 DUP2 CALLDATALOAD SWAP1 POP PUSH2 0x746 DUP2 PUSH2 0x720 JUMP JUMPDEST SWAP3 SWAP2 POP POP JUMP JUMPDEST PUSH1 0x0 PUSH1 0x20 DUP3 DUP5 SUB SLT ISZERO PUSH2 0x762 JUMPI PUSH2 0x761 PUSH2 0x632 JUMP JUMPDEST JUMPDEST PUSH1 0x0 PUSH2 0x770 DUP5 DUP3 DUP6 ADD PUSH2 0x737 JUMP JUMPDEST SWAP2 POP POP SWAP3 SWAP2 POP POP JUMP JUMPDEST PUSH1 0x0 PUSH2 0x784 DUP3 PUSH2 0x637 JUMP JUMPDEST SWAP1 POP SWAP2 SWAP1 POP JUMP JUMPDEST PUSH2 0x794 DUP2 PUSH2 0x779 JUMP JUMPDEST DUP3 MSTORE POP POP JUMP JUMPDEST PUSH1 0x0 PUSH1 0x20 DUP3 ADD SWAP1 POP PUSH2 0x7AF PUSH1 0x0 DUP4 ADD DUP5 PUSH2 0x78B JUMP JUMPDEST SWAP3 SWAP2 POP POP JUMP JUMPDEST PUSH2 0x7BE DUP2 PUSH2 0x657 JUMP JUMPDEST DUP3 MSTORE POP POP JUMP JUMPDEST PUSH1 0x0 PUSH1 0x40 DUP3 ADD SWAP1 POP PUSH2 0x7D9 PUSH1 0x0 DUP4 ADD DUP6 PUSH2 0x7B5 JUMP JUMPDEST PUSH2 0x7E6 PUSH1 0x20 DUP4 ADD DUP5 PUSH2 0x6CC JUMP JUMPDEST SWAP4 SWAP3 POP POP POP JUMP JUMPDEST PUSH32 0x4E487B7100000000000000000000000000000000000000000000000000000000 PUSH1 0x0 MSTORE PUSH1 0x11 PUSH1 0x4 MSTORE PUSH1 0x24 PUSH1 0x0 REVERT JUMPDEST PUSH1 0x0 PUSH2 0x827 DUP3 PUSH2 0x6C2 JUMP JUMPDEST SWAP2 POP PUSH2 0x832 DUP4 PUSH2 0x6C2 JUMP JUMPDEST SWAP3 POP DUP3 DUP3 ADD SWAP1 POP DUP1 DUP3 GT ISZERO PUSH2 0x84A JUMPI PUSH2 0x849 PUSH2 0x7ED JUMP JUMPDEST JUMPDEST SWAP3 SWAP2 POP POP JUMP JUMPDEST PUSH1 0x0 PUSH2 0x85B DUP3 PUSH2 0x6C2 JUMP JUMPDEST SWAP2 POP PUSH32 0xFFFFFFFFFFFFFFFFFFFFFFFFFFFFFFFFFFFFFFFFFFFFFFFFFFFFFFFFFFFFFFFF DUP3 SUB PUSH2 0x88D JUMPI PUSH2 0x88C PUSH2 0x7ED JUMP JUMPDEST JUMPDEST PUSH1 0x1 DUP3 ADD SWAP1 POP SWAP2 SWAP1 POP JUMP INVALID LOG2 PUSH5 0x6970667358 0x22 SLT KECCAK256 PUSH23 0x830F25FCBE61561E7695899FC870110358004C0F8A4E86 PUSH27 0x39D697262C89DF64736F6C63430008100033000000000000000000 "
				},
				"gasEstimates": {
					"creation": {
						"codeDepositCost": "450800",
						"executionCost": "29759",
						"totalCost": "480559"
					},
					"external": {
						"approval()": "26601",
						"balances(address)": "infinite",
						"donate()": "infinite",
						"donorList(uint256)": "5001",
						"extendTime()": "infinite",
						"sendFunds()": "infinite",
						"singleRefund()": "infinite"
					},
					"internal": {
						"returnFunds()": "infinite",
						"timeExpired()": "infinite"
					}
				},
				"methodIdentifiers": {
					"approval()": "39788bc8",
					"balances(address)": "27e235e3",
					"donate()": "ed88c68e",
					"donorList(uint256)": "5eed3dcb",
					"extendTime()": "abb6ae89",
					"sendFunds()": "8d68cf59",
					"singleRefund()": "8bf963b6"
				}
			},
			"storageLayout": {
				"storage": [
					{
						"astId": 3,
						"contract": "contracts/senior project.sol:MyContract",
						"label": "wallet",
						"offset": 0,
						"slot": "0",
						"type": "t_address_payable"
					},
					{
						"astId": 5,
						"contract": "contracts/senior project.sol:MyContract",
						"label": "Dcounter",
						"offset": 0,
						"slot": "1",
						"type": "t_uint256"
					},
					{
						"astId": 7,
						"contract": "contracts/senior project.sol:MyContract",
						"label": "deployDate",
						"offset": 0,
						"slot": "2",
						"type": "t_uint256"
					},
					{
						"astId": 9,
						"contract": "contracts/senior project.sol:MyContract",
						"label": "deadline",
						"offset": 0,
						"slot": "3",
						"type": "t_uint256"
					},
					{
						"astId": 12,
						"contract": "contracts/senior project.sol:MyContract",
						"label": "approved",
						"offset": 0,
						"slot": "4",
						"type": "t_bool"
					},
					{
						"astId": 26,
						"contract": "contracts/senior project.sol:MyContract",
						"label": "balances",
						"offset": 0,
						"slot": "5",
						"type": "t_mapping(t_address,t_struct(donor)21_storage)"
					},
					{
						"astId": 29,
						"contract": "contracts/senior project.sol:MyContract",
						"label": "donorList",
						"offset": 0,
						"slot": "6",
						"type": "t_array(t_address_payable)dyn_storage"
					},
					{
						"astId": 228,
						"contract": "contracts/senior project.sol:MyContract",
						"label": "EXcounter",
						"offset": 0,
						"slot": "7",
						"type": "t_uint256"
					}
				],
				"types": {
					"t_address": {
						"encoding": "inplace",
						"label": "address",
						"numberOfBytes": "20"
					},
					"t_address_payable": {
						"encoding": "inplace",
						"label": "address payable",
						"numberOfBytes": "20"
					},
					"t_array(t_address_payable)dyn_storage": {
						"base": "t_address_payable",
						"encoding": "dynamic_array",
						"label": "address payable[]",
						"numberOfBytes": "32"
					},
					"t_bool": {
						"encoding": "inplace",
						"label": "bool",
						"numberOfBytes": "1"
					},
					"t_mapping(t_address,t_struct(donor)21_storage)": {
						"encoding": "mapping",
						"key": "t_address",
						"label": "mapping(address => struct MyContract.donor)",
						"numberOfBytes": "32",
						"value": "t_struct(donor)21_storage"
					},
					"t_struct(donor)21_storage": {
						"encoding": "inplace",
						"label": "struct MyContract.donor",
						"members": [
							{
								"astId": 14,
								"contract": "contracts/senior project.sol:MyContract",
								"label": "totalDono",
								"offset": 0,
								"slot": "0",
								"type": "t_uint256"
							},
							{
								"astId": 16,
								"contract": "contracts/senior project.sol:MyContract",
								"label": "returnedDono",
								"offset": 0,
								"slot": "1",
								"type": "t_uint256"
							},
							{
								"astId": 18,
								"contract": "contracts/senior project.sol:MyContract",
								"label": "returnable",
								"offset": 0,
								"slot": "2",
								"type": "t_uint256"
							},
							{
								"astId": 20,
								"contract": "contracts/senior project.sol:MyContract",
								"label": "donorListPointer",
								"offset": 0,
								"slot": "3",
								"type": "t_uint256"
							}
						],
						"numberOfBytes": "128"
					},
					"t_uint256": {
						"encoding": "inplace",
						"label": "uint256",
						"numberOfBytes": "32"
					}
				}
			},
			"userdoc": {
				"kind": "user",
				"methods": {},
				"version": 1
			}
		}
	}
}