{
	"contracts/senior project.sol": {
		"MyContract": {
			"abi": [
				{
					"inputs": [
						{
							"internalType": "address payable",
							"name": "_wallet",
							"type": "address"
						},
						{
							"internalType": "uint256",
							"name": "numWeeks",
							"type": "uint256"
						}
					],
					"stateMutability": "nonpayable",
					"type": "constructor"
				},
				{
					"anonymous": false,
					"inputs": [
						{
							"indexed": false,
							"internalType": "address",
							"name": "sender",
							"type": "address"
						},
						{
							"indexed": false,
							"internalType": "uint256",
							"name": "amount",
							"type": "uint256"
						}
					],
					"name": "LogReceivedFunds",
					"type": "event"
				},
				{
					"anonymous": false,
					"inputs": [
						{
							"indexed": false,
							"internalType": "address",
							"name": "recipient",
							"type": "address"
						},
						{
							"indexed": false,
							"internalType": "uint256",
							"name": "amount",
							"type": "uint256"
						}
					],
					"name": "LogReturnedFunds",
					"type": "event"
				},
				{
					"inputs": [
						{
							"internalType": "address",
							"name": "",
							"type": "address"
						}
					],
					"name": "balances",
					"outputs": [
						{
							"internalType": "uint256",
							"name": "totalDono",
							"type": "uint256"
						},
						{
							"internalType": "uint256",
							"name": "returnedDono",
							"type": "uint256"
						},
						{
							"internalType": "uint256",
							"name": "returnable",
							"type": "uint256"
						},
						{
							"internalType": "uint256",
							"name": "donorListPointer",
							"type": "uint256"
						}
					],
					"stateMutability": "view",
					"type": "function"
				},
				{
					"inputs": [],
					"name": "donate",
					"outputs": [],
					"stateMutability": "payable",
					"type": "function"
				},
				{
					"inputs": [
						{
							"internalType": "uint256",
							"name": "",
							"type": "uint256"
						}
					],
					"name": "donorList",
					"outputs": [
						{
							"internalType": "address payable",
							"name": "",
							"type": "address"
						}
					],
					"stateMutability": "view",
					"type": "function"
				},
				{
					"inputs": [],
					"name": "returnFunds",
					"outputs": [],
					"stateMutability": "nonpayable",
					"type": "function"
				},
				{
					"inputs": [],
					"name": "sendFunds",
					"outputs": [],
					"stateMutability": "nonpayable",
					"type": "function"
				},
				{
					"inputs": [],
					"name": "singleRefund",
					"outputs": [],
					"stateMutability": "nonpayable",
					"type": "function"
				},
				{
					"inputs": [],
					"name": "timeExpired",
					"outputs": [],
					"stateMutability": "nonpayable",
					"type": "function"
				}
			],
			"devdoc": {
				"kind": "dev",
				"methods": {},
				"version": 1
			},
			"evm": {
				"assembly": "    /* \"contracts/senior project.sol\":62:2772  contract MyContract{... */\n  mstore(0x40, 0x80)\n    /* \"contracts/senior project.sol\":308:313  false */\n  0x00\n    /* \"contracts/senior project.sol\":292:313  bool approved = false */\n  0x04\n  exp(0x0100, 0x00)\n  dup2\n  sload\n  dup2\n  0xff\n  mul\n  not\n  and\n  swap1\n  dup4\n  iszero\n  iszero\n  mul\n  or\n  swap1\n  sstore\n  pop\n    /* \"contracts/senior project.sol\":322:479  constructor (address payable _wallet, uint numWeeks) {... */\n  callvalue\n  dup1\n  iszero\n  tag_1\n  jumpi\n  0x00\n  dup1\n  revert\ntag_1:\n  pop\n  mload(0x40)\n  sub(codesize, bytecodeSize)\n  dup1\n  bytecodeSize\n  dup4\n  codecopy\n  dup2\n  dup2\n  add\n  0x40\n  mstore\n  dup2\n  add\n  swap1\n  tag_2\n  swap2\n  swap1\n  tag_3\n  jump\t// in\ntag_2:\n    /* \"contracts/senior project.sol\":395:402  _wallet */\n  dup2\n    /* \"contracts/senior project.sol\":386:392  wallet */\n  0x00\n  dup1\n    /* \"contracts/senior project.sol\":386:402  wallet = _wallet */\n  0x0100\n  exp\n  dup2\n  sload\n  dup2\n  0xffffffffffffffffffffffffffffffffffffffff\n  mul\n  not\n  and\n  swap1\n  dup4\n  0xffffffffffffffffffffffffffffffffffffffff\n  and\n  mul\n  or\n  swap1\n  sstore\n  pop\n    /* \"contracts/senior project.sol\":426:441  block.timestamp */\n  timestamp\n    /* \"contracts/senior project.sol\":413:423  deployDate */\n  0x02\n    /* \"contracts/senior project.sol\":413:441  deployDate = block.timestamp */\n  dup2\n  swap1\n  sstore\n  pop\n    /* \"contracts/senior project.sol\":463:471  numWeeks */\n  dup1\n    /* \"contracts/senior project.sol\":452:460  deadline */\n  0x03\n    /* \"contracts/senior project.sol\":452:471  deadline = numWeeks */\n  dup2\n  swap1\n  sstore\n  pop\n    /* \"contracts/senior project.sol\":322:479  constructor (address payable _wallet, uint numWeeks) {... */\n  pop\n  pop\n    /* \"contracts/senior project.sol\":62:2772  contract MyContract{... */\n  jump(tag_6)\n    /* \"#utility.yul\":88:205   */\ntag_8:\n    /* \"#utility.yul\":197:198   */\n  0x00\n    /* \"#utility.yul\":194:195   */\n  dup1\n    /* \"#utility.yul\":187:199   */\n  revert\n    /* \"#utility.yul\":334:460   */\ntag_10:\n    /* \"#utility.yul\":371:378   */\n  0x00\n    /* \"#utility.yul\":411:453   */\n  0xffffffffffffffffffffffffffffffffffffffff\n    /* \"#utility.yul\":404:409   */\n  dup3\n    /* \"#utility.yul\":400:454   */\n  and\n    /* \"#utility.yul\":389:454   */\n  swap1\n  pop\n    /* \"#utility.yul\":334:460   */\n  swap2\n  swap1\n  pop\n  jump\t// out\n    /* \"#utility.yul\":466:570   */\ntag_11:\n    /* \"#utility.yul\":511:518   */\n  0x00\n    /* \"#utility.yul\":540:564   */\n  tag_23\n    /* \"#utility.yul\":558:563   */\n  dup3\n    /* \"#utility.yul\":540:564   */\n  tag_10\n  jump\t// in\ntag_23:\n    /* \"#utility.yul\":529:564   */\n  swap1\n  pop\n    /* \"#utility.yul\":466:570   */\n  swap2\n  swap1\n  pop\n  jump\t// out\n    /* \"#utility.yul\":576:714   */\ntag_12:\n    /* \"#utility.yul\":657:689   */\n  tag_25\n    /* \"#utility.yul\":683:688   */\n  dup2\n    /* \"#utility.yul\":657:689   */\n  tag_11\n  jump\t// in\ntag_25:\n    /* \"#utility.yul\":650:655   */\n  dup2\n    /* \"#utility.yul\":647:690   */\n  eq\n    /* \"#utility.yul\":637:708   */\n  tag_26\n  jumpi\n    /* \"#utility.yul\":704:705   */\n  0x00\n    /* \"#utility.yul\":701:702   */\n  dup1\n    /* \"#utility.yul\":694:706   */\n  revert\n    /* \"#utility.yul\":637:708   */\ntag_26:\n    /* \"#utility.yul\":576:714   */\n  pop\n  jump\t// out\n    /* \"#utility.yul\":720:879   */\ntag_13:\n    /* \"#utility.yul\":785:790   */\n  0x00\n    /* \"#utility.yul\":816:822   */\n  dup2\n    /* \"#utility.yul\":810:823   */\n  mload\n    /* \"#utility.yul\":801:823   */\n  swap1\n  pop\n    /* \"#utility.yul\":832:873   */\n  tag_28\n    /* \"#utility.yul\":867:872   */\n  dup2\n    /* \"#utility.yul\":832:873   */\n  tag_12\n  jump\t// in\ntag_28:\n    /* \"#utility.yul\":720:879   */\n  swap3\n  swap2\n  pop\n  pop\n  jump\t// out\n    /* \"#utility.yul\":885:962   */\ntag_14:\n    /* \"#utility.yul\":922:929   */\n  0x00\n    /* \"#utility.yul\":951:956   */\n  dup2\n    /* \"#utility.yul\":940:956   */\n  swap1\n  pop\n    /* \"#utility.yul\":885:962   */\n  swap2\n  swap1\n  pop\n  jump\t// out\n    /* \"#utility.yul\":968:1090   */\ntag_15:\n    /* \"#utility.yul\":1041:1065   */\n  tag_31\n    /* \"#utility.yul\":1059:1064   */\n  dup2\n    /* \"#utility.yul\":1041:1065   */\n  tag_14\n  jump\t// in\ntag_31:\n    /* \"#utility.yul\":1034:1039   */\n  dup2\n    /* \"#utility.yul\":1031:1066   */\n  eq\n    /* \"#utility.yul\":1021:1084   */\n  tag_32\n  jumpi\n    /* \"#utility.yul\":1080:1081   */\n  0x00\n    /* \"#utility.yul\":1077:1078   */\n  dup1\n    /* \"#utility.yul\":1070:1082   */\n  revert\n    /* \"#utility.yul\":1021:1084   */\ntag_32:\n    /* \"#utility.yul\":968:1090   */\n  pop\n  jump\t// out\n    /* \"#utility.yul\":1096:1239   */\ntag_16:\n    /* \"#utility.yul\":1153:1158   */\n  0x00\n    /* \"#utility.yul\":1184:1190   */\n  dup2\n    /* \"#utility.yul\":1178:1191   */\n  mload\n    /* \"#utility.yul\":1169:1191   */\n  swap1\n  pop\n    /* \"#utility.yul\":1200:1233   */\n  tag_34\n    /* \"#utility.yul\":1227:1232   */\n  dup2\n    /* \"#utility.yul\":1200:1233   */\n  tag_15\n  jump\t// in\ntag_34:\n    /* \"#utility.yul\":1096:1239   */\n  swap3\n  swap2\n  pop\n  pop\n  jump\t// out\n    /* \"#utility.yul\":1245:1768   */\ntag_3:\n    /* \"#utility.yul\":1332:1338   */\n  0x00\n    /* \"#utility.yul\":1340:1346   */\n  dup1\n    /* \"#utility.yul\":1389:1391   */\n  0x40\n    /* \"#utility.yul\":1377:1386   */\n  dup4\n    /* \"#utility.yul\":1368:1375   */\n  dup6\n    /* \"#utility.yul\":1364:1387   */\n  sub\n    /* \"#utility.yul\":1360:1392   */\n  slt\n    /* \"#utility.yul\":1357:1476   */\n  iszero\n  tag_36\n  jumpi\n    /* \"#utility.yul\":1395:1474   */\n  tag_37\n  tag_8\n  jump\t// in\ntag_37:\n    /* \"#utility.yul\":1357:1476   */\ntag_36:\n    /* \"#utility.yul\":1515:1516   */\n  0x00\n    /* \"#utility.yul\":1540:1612   */\n  tag_38\n    /* \"#utility.yul\":1604:1611   */\n  dup6\n    /* \"#utility.yul\":1595:1601   */\n  dup3\n    /* \"#utility.yul\":1584:1593   */\n  dup7\n    /* \"#utility.yul\":1580:1602   */\n  add\n    /* \"#utility.yul\":1540:1612   */\n  tag_13\n  jump\t// in\ntag_38:\n    /* \"#utility.yul\":1530:1612   */\n  swap3\n  pop\n    /* \"#utility.yul\":1486:1622   */\n  pop\n    /* \"#utility.yul\":1661:1663   */\n  0x20\n    /* \"#utility.yul\":1687:1751   */\n  tag_39\n    /* \"#utility.yul\":1743:1750   */\n  dup6\n    /* \"#utility.yul\":1734:1740   */\n  dup3\n    /* \"#utility.yul\":1723:1732   */\n  dup7\n    /* \"#utility.yul\":1719:1741   */\n  add\n    /* \"#utility.yul\":1687:1751   */\n  tag_16\n  jump\t// in\ntag_39:\n    /* \"#utility.yul\":1677:1751   */\n  swap2\n  pop\n    /* \"#utility.yul\":1632:1761   */\n  pop\n    /* \"#utility.yul\":1245:1768   */\n  swap3\n  pop\n  swap3\n  swap1\n  pop\n  jump\t// out\n    /* \"contracts/senior project.sol\":62:2772  contract MyContract{... */\ntag_6:\n  dataSize(sub_0)\n  dup1\n  dataOffset(sub_0)\n  0x00\n  codecopy\n  0x00\n  return\nstop\n\nsub_0: assembly {\n        /* \"contracts/senior project.sol\":62:2772  contract MyContract{... */\n      mstore(0x40, 0x80)\n      jumpi(tag_1, lt(calldatasize, 0x04))\n      shr(0xe0, calldataload(0x00))\n      dup1\n      0x5eed3dcb\n      gt\n      tag_9\n      jumpi\n      dup1\n      0x5eed3dcb\n      eq\n      tag_5\n      jumpi\n      dup1\n      0x8bf963b6\n      eq\n      tag_6\n      jumpi\n      dup1\n      0x8d68cf59\n      eq\n      tag_7\n      jumpi\n      dup1\n      0xed88c68e\n      eq\n      tag_8\n      jumpi\n      jump(tag_1)\n    tag_9:\n      dup1\n      0x1c829ded\n      eq\n      tag_2\n      jumpi\n      dup1\n      0x1eb5ea2e\n      eq\n      tag_3\n      jumpi\n      dup1\n      0x27e235e3\n      eq\n      tag_4\n      jumpi\n    tag_1:\n      0x00\n      dup1\n      revert\n        /* \"contracts/senior project.sol\":2308:2765  function timeExpired() public {... */\n    tag_2:\n      callvalue\n      dup1\n      iszero\n      tag_10\n      jumpi\n      0x00\n      dup1\n      revert\n    tag_10:\n      pop\n      tag_11\n      tag_12\n      jump\t// in\n    tag_11:\n      stop\n        /* \"contracts/senior project.sol\":1710:2300  function returnFunds() public {... */\n    tag_3:\n      callvalue\n      dup1\n      iszero\n      tag_13\n      jumpi\n      0x00\n      dup1\n      revert\n    tag_13:\n      pop\n      tag_14\n      tag_15\n      jump\t// in\n    tag_14:\n      stop\n        /* \"contracts/senior project.sol\":642:683  mapping(address => donor) public balances */\n    tag_4:\n      callvalue\n      dup1\n      iszero\n      tag_16\n      jumpi\n      0x00\n      dup1\n      revert\n    tag_16:\n      pop\n      tag_17\n      0x04\n      dup1\n      calldatasize\n      sub\n      dup2\n      add\n      swap1\n      tag_18\n      swap2\n      swap1\n      tag_19\n      jump\t// in\n    tag_18:\n      tag_20\n      jump\t// in\n    tag_17:\n      mload(0x40)\n      tag_21\n      swap5\n      swap4\n      swap3\n      swap2\n      swap1\n      tag_22\n      jump\t// in\n    tag_21:\n      mload(0x40)\n      dup1\n      swap2\n      sub\n      swap1\n      return\n        /* \"contracts/senior project.sol\":690:724  address payable[] public donorList */\n    tag_5:\n      callvalue\n      dup1\n      iszero\n      tag_23\n      jumpi\n      0x00\n      dup1\n      revert\n    tag_23:\n      pop\n      tag_24\n      0x04\n      dup1\n      calldatasize\n      sub\n      dup2\n      add\n      swap1\n      tag_25\n      swap2\n      swap1\n      tag_26\n      jump\t// in\n    tag_25:\n      tag_27\n      jump\t// in\n    tag_24:\n      mload(0x40)\n      tag_28\n      swap2\n      swap1\n      tag_29\n      jump\t// in\n    tag_28:\n      mload(0x40)\n      dup1\n      swap2\n      sub\n      swap1\n      return\n        /* \"contracts/senior project.sol\":1526:1638  function singleRefund () public{... */\n    tag_6:\n      callvalue\n      dup1\n      iszero\n      tag_30\n      jumpi\n      0x00\n      dup1\n      revert\n    tag_30:\n      pop\n      tag_31\n      tag_32\n      jump\t// in\n    tag_31:\n      stop\n        /* \"contracts/senior project.sol\":1377:1518  function sendFunds () public{... */\n    tag_7:\n      callvalue\n      dup1\n      iszero\n      tag_33\n      jumpi\n      0x00\n      dup1\n      revert\n    tag_33:\n      pop\n      tag_34\n      tag_35\n      jump\t// in\n    tag_34:\n      stop\n        /* \"contracts/senior project.sol\":994:1305  function donate() public payable{... */\n    tag_8:\n      tag_36\n      tag_37\n      jump\t// in\n    tag_36:\n      stop\n        /* \"contracts/senior project.sol\":2308:2765  function timeExpired() public {... */\n    tag_12:\n        /* \"contracts/senior project.sol\":2474:2481  1 weeks */\n      0x093a80\n        /* \"contracts/senior project.sol\":2463:2471  deadline */\n      sload(0x03)\n        /* \"contracts/senior project.sol\":2463:2481  deadline * 1 weeks */\n      tag_39\n      swap2\n      swap1\n      tag_40\n      jump\t// in\n    tag_39:\n        /* \"contracts/senior project.sol\":2449:2459  deployDate */\n      sload(0x02)\n        /* \"contracts/senior project.sol\":2449:2482  deployDate + (deadline * 1 weeks) */\n      tag_41\n      swap2\n      swap1\n      tag_42\n      jump\t// in\n    tag_41:\n        /* \"contracts/senior project.sol\":2429:2444  block.timestamp */\n      timestamp\n        /* \"contracts/senior project.sol\":2429:2483  block.timestamp >= (deployDate + (deadline * 1 weeks)) */\n      lt\n      iszero\n        /* \"contracts/senior project.sol\":2429:2512  block.timestamp >= (deployDate + (deadline * 1 weeks))... */\n      dup1\n      iszero\n      tag_43\n      jumpi\n      pop\n        /* \"contracts/senior project.sol\":2508:2512  true */\n      0x01\n        /* \"contracts/senior project.sol\":2496:2512  approved == true */\n      iszero\n      iszero\n        /* \"contracts/senior project.sol\":2496:2504  approved */\n      0x04\n      0x00\n      swap1\n      sload\n      swap1\n      0x0100\n      exp\n      swap1\n      div\n      0xff\n      and\n        /* \"contracts/senior project.sol\":2496:2512  approved == true */\n      iszero\n      iszero\n      eq\n        /* \"contracts/senior project.sol\":2429:2512  block.timestamp >= (deployDate + (deadline * 1 weeks))... */\n    tag_43:\n        /* \"contracts/senior project.sol\":2426:2760  if(block.timestamp >= (deployDate + (deadline * 1 weeks))... */\n      iszero\n      tag_44\n      jumpi\n        /* \"contracts/senior project.sol\":2541:2547  wallet */\n      0x00\n      dup1\n      sload\n      swap1\n      0x0100\n      exp\n      swap1\n      div\n      0xffffffffffffffffffffffffffffffffffffffff\n      and\n        /* \"contracts/senior project.sol\":2528:2548  selfdestruct(wallet) */\n      0xffffffffffffffffffffffffffffffffffffffff\n      and\n      selfdestruct\n        /* \"contracts/senior project.sol\":2426:2760  if(block.timestamp >= (deployDate + (deadline * 1 weeks))... */\n    tag_44:\n        /* \"contracts/senior project.sol\":2684:2691  1 weeks */\n      0x093a80\n        /* \"contracts/senior project.sol\":2673:2681  deadline */\n      sload(0x03)\n        /* \"contracts/senior project.sol\":2673:2691  deadline * 1 weeks */\n      tag_46\n      swap2\n      swap1\n      tag_40\n      jump\t// in\n    tag_46:\n        /* \"contracts/senior project.sol\":2659:2669  deployDate */\n      sload(0x02)\n        /* \"contracts/senior project.sol\":2659:2692  deployDate + (deadline * 1 weeks) */\n      tag_47\n      swap2\n      swap1\n      tag_42\n      jump\t// in\n    tag_47:\n        /* \"contracts/senior project.sol\":2639:2654  block.timestamp */\n      timestamp\n        /* \"contracts/senior project.sol\":2639:2693  block.timestamp >= (deployDate + (deadline * 1 weeks)) */\n      lt\n      iszero\n        /* \"contracts/senior project.sol\":2639:2723  block.timestamp >= (deployDate + (deadline * 1 weeks))... */\n      dup1\n      iszero\n      tag_48\n      jumpi\n      pop\n        /* \"contracts/senior project.sol\":2718:2723  false */\n      0x00\n        /* \"contracts/senior project.sol\":2706:2723  approved == false */\n      iszero\n      iszero\n        /* \"contracts/senior project.sol\":2706:2714  approved */\n      0x04\n      0x00\n      swap1\n      sload\n      swap1\n      0x0100\n      exp\n      swap1\n      div\n      0xff\n      and\n        /* \"contracts/senior project.sol\":2706:2723  approved == false */\n      iszero\n      iszero\n      eq\n        /* \"contracts/senior project.sol\":2639:2723  block.timestamp >= (deployDate + (deadline * 1 weeks))... */\n    tag_48:\n        /* \"contracts/senior project.sol\":2635:2760  if (block.timestamp >= (deployDate + (deadline * 1 weeks))... */\n      iszero\n      tag_49\n      jumpi\n        /* \"contracts/senior project.sol\":2739:2752  returnFunds() */\n      tag_50\n        /* \"contracts/senior project.sol\":2739:2750  returnFunds */\n      tag_15\n        /* \"contracts/senior project.sol\":2739:2752  returnFunds() */\n      jump\t// in\n    tag_50:\n        /* \"contracts/senior project.sol\":2635:2760  if (block.timestamp >= (deployDate + (deadline * 1 weeks))... */\n    tag_49:\n        /* \"contracts/senior project.sol\":2308:2765  function timeExpired() public {... */\n      jump\t// out\n        /* \"contracts/senior project.sol\":1710:2300  function returnFunds() public {... */\n    tag_15:\n        /* \"contracts/senior project.sol\":1755:1761  uint i */\n      0x00\n        /* \"contracts/senior project.sol\":1751:2289  for(uint i; i <= donorList.length-1; i++){... */\n    tag_52:\n        /* \"contracts/senior project.sol\":1785:1786  1 */\n      0x01\n        /* \"contracts/senior project.sol\":1768:1777  donorList */\n      0x06\n        /* \"contracts/senior project.sol\":1768:1784  donorList.length */\n      dup1\n      sload\n      swap1\n      pop\n        /* \"contracts/senior project.sol\":1768:1786  donorList.length-1 */\n      tag_55\n      swap2\n      swap1\n      tag_56\n      jump\t// in\n    tag_55:\n        /* \"contracts/senior project.sol\":1763:1764  i */\n      dup2\n        /* \"contracts/senior project.sol\":1763:1786  i <= donorList.length-1 */\n      gt\n        /* \"contracts/senior project.sol\":1751:2289  for(uint i; i <= donorList.length-1; i++){... */\n      tag_53\n      jumpi\n        /* \"contracts/senior project.sol\":1807:1821  uint returnAmt */\n      0x00\n        /* \"contracts/senior project.sol\":1950:1951  0 */\n      dup1\n        /* \"contracts/senior project.sol\":1914:1922  balances */\n      0x05\n        /* \"contracts/senior project.sol\":1914:1936  balances[donorList[i]] */\n      0x00\n        /* \"contracts/senior project.sol\":1923:1932  donorList */\n      0x06\n        /* \"contracts/senior project.sol\":1933:1934  i */\n      dup6\n        /* \"contracts/senior project.sol\":1923:1935  donorList[i] */\n      dup2\n      sload\n      dup2\n      lt\n      tag_57\n      jumpi\n      tag_58\n      tag_59\n      jump\t// in\n    tag_58:\n    tag_57:\n      swap1\n      0x00\n      mstore\n      keccak256(0x00, 0x20)\n      add\n      0x00\n      swap1\n      sload\n      swap1\n      0x0100\n      exp\n      swap1\n      div\n      0xffffffffffffffffffffffffffffffffffffffff\n      and\n        /* \"contracts/senior project.sol\":1914:1936  balances[donorList[i]] */\n      0xffffffffffffffffffffffffffffffffffffffff\n      and\n      0xffffffffffffffffffffffffffffffffffffffff\n      and\n      dup2\n      mstore\n      0x20\n      add\n      swap1\n      dup2\n      mstore\n      0x20\n      add\n      0x00\n      keccak256\n        /* \"contracts/senior project.sol\":1914:1947  balances[donorList[i]].returnable */\n      0x02\n      add\n      sload\n        /* \"contracts/senior project.sol\":1914:1951  balances[donorList[i]].returnable > 0 */\n      gt\n        /* \"contracts/senior project.sol\":1911:2274  if(balances[donorList[i]].returnable > 0){... */\n      iszero\n      tag_61\n      jumpi\n        /* \"contracts/senior project.sol\":1983:1991  balances */\n      0x05\n        /* \"contracts/senior project.sol\":1983:2005  balances[donorList[i]] */\n      0x00\n        /* \"contracts/senior project.sol\":1992:2001  donorList */\n      0x06\n        /* \"contracts/senior project.sol\":2002:2003  i */\n      dup5\n        /* \"contracts/senior project.sol\":1992:2004  donorList[i] */\n      dup2\n      sload\n      dup2\n      lt\n      tag_62\n      jumpi\n      tag_63\n      tag_59\n      jump\t// in\n    tag_63:\n    tag_62:\n      swap1\n      0x00\n      mstore\n      keccak256(0x00, 0x20)\n      add\n      0x00\n      swap1\n      sload\n      swap1\n      0x0100\n      exp\n      swap1\n      div\n      0xffffffffffffffffffffffffffffffffffffffff\n      and\n        /* \"contracts/senior project.sol\":1983:2005  balances[donorList[i]] */\n      0xffffffffffffffffffffffffffffffffffffffff\n      and\n      0xffffffffffffffffffffffffffffffffffffffff\n      and\n      dup2\n      mstore\n      0x20\n      add\n      swap1\n      dup2\n      mstore\n      0x20\n      add\n      0x00\n      keccak256\n        /* \"contracts/senior project.sol\":1983:2016  balances[donorList[i]].returnable */\n      0x02\n      add\n      sload\n        /* \"contracts/senior project.sol\":1971:2016  returnAmt = balances[donorList[i]].returnable */\n      swap1\n      pop\n        /* \"contracts/senior project.sol\":2035:2044  donorList */\n      0x06\n        /* \"contracts/senior project.sol\":2045:2046  i */\n      dup3\n        /* \"contracts/senior project.sol\":2035:2047  donorList[i] */\n      dup2\n      sload\n      dup2\n      lt\n      tag_65\n      jumpi\n      tag_66\n      tag_59\n      jump\t// in\n    tag_66:\n    tag_65:\n      swap1\n      0x00\n      mstore\n      keccak256(0x00, 0x20)\n      add\n      0x00\n      swap1\n      sload\n      swap1\n      0x0100\n      exp\n      swap1\n      div\n      0xffffffffffffffffffffffffffffffffffffffff\n      and\n        /* \"contracts/senior project.sol\":2035:2056  donorList[i].transfer */\n      0xffffffffffffffffffffffffffffffffffffffff\n      and\n        /* \"contracts/senior project.sol\":2035:2067  donorList[i].transfer(returnAmt) */\n      0x08fc\n        /* \"contracts/senior project.sol\":2057:2066  returnAmt */\n      dup3\n        /* \"contracts/senior project.sol\":2035:2067  donorList[i].transfer(returnAmt) */\n      swap1\n      dup2\n      iszero\n      mul\n      swap1\n      mload(0x40)\n      0x00\n      mload(0x40)\n      dup1\n      dup4\n      sub\n      dup2\n      dup6\n      dup9\n      dup9\n      call\n      swap4\n      pop\n      pop\n      pop\n      pop\n      iszero\n      dup1\n      iszero\n      tag_69\n      jumpi\n      returndatasize\n      0x00\n      dup1\n      returndatacopy\n      revert(0x00, returndatasize)\n    tag_69:\n      pop\n        /* \"contracts/senior project.sol\":2124:2133  returnAmt */\n      dup1\n        /* \"contracts/senior project.sol\":2086:2094  balances */\n      0x05\n        /* \"contracts/senior project.sol\":2086:2108  balances[donorList[i]] */\n      0x00\n        /* \"contracts/senior project.sol\":2095:2104  donorList */\n      0x06\n        /* \"contracts/senior project.sol\":2105:2106  i */\n      dup6\n        /* \"contracts/senior project.sol\":2095:2107  donorList[i] */\n      dup2\n      sload\n      dup2\n      lt\n      tag_70\n      jumpi\n      tag_71\n      tag_59\n      jump\t// in\n    tag_71:\n    tag_70:\n      swap1\n      0x00\n      mstore\n      keccak256(0x00, 0x20)\n      add\n      0x00\n      swap1\n      sload\n      swap1\n      0x0100\n      exp\n      swap1\n      div\n      0xffffffffffffffffffffffffffffffffffffffff\n      and\n        /* \"contracts/senior project.sol\":2086:2108  balances[donorList[i]] */\n      0xffffffffffffffffffffffffffffffffffffffff\n      and\n      0xffffffffffffffffffffffffffffffffffffffff\n      and\n      dup2\n      mstore\n      0x20\n      add\n      swap1\n      dup2\n      mstore\n      0x20\n      add\n      0x00\n      keccak256\n        /* \"contracts/senior project.sol\":2086:2121  balances[donorList[i]].returnedDono */\n      0x01\n      add\n        /* \"contracts/senior project.sol\":2086:2133  balances[donorList[i]].returnedDono = returnAmt */\n      dup2\n      swap1\n      sstore\n      pop\n        /* \"contracts/senior project.sol\":2188:2189  0 */\n      0x00\n        /* \"contracts/senior project.sol\":2152:2160  balances */\n      0x05\n        /* \"contracts/senior project.sol\":2152:2174  balances[donorList[i]] */\n      0x00\n        /* \"contracts/senior project.sol\":2161:2170  donorList */\n      0x06\n        /* \"contracts/senior project.sol\":2171:2172  i */\n      dup6\n        /* \"contracts/senior project.sol\":2161:2173  donorList[i] */\n      dup2\n      sload\n      dup2\n      lt\n      tag_73\n      jumpi\n      tag_74\n      tag_59\n      jump\t// in\n    tag_74:\n    tag_73:\n      swap1\n      0x00\n      mstore\n      keccak256(0x00, 0x20)\n      add\n      0x00\n      swap1\n      sload\n      swap1\n      0x0100\n      exp\n      swap1\n      div\n      0xffffffffffffffffffffffffffffffffffffffff\n      and\n        /* \"contracts/senior project.sol\":2152:2174  balances[donorList[i]] */\n      0xffffffffffffffffffffffffffffffffffffffff\n      and\n      0xffffffffffffffffffffffffffffffffffffffff\n      and\n      dup2\n      mstore\n      0x20\n      add\n      swap1\n      dup2\n      mstore\n      0x20\n      add\n      0x00\n      keccak256\n        /* \"contracts/senior project.sol\":2152:2185  balances[donorList[i]].returnable */\n      0x02\n      add\n        /* \"contracts/senior project.sol\":2152:2189  balances[donorList[i]].returnable = 0 */\n      dup2\n      swap1\n      sstore\n      pop\n        /* \"contracts/senior project.sol\":2213:2254  LogReturnedFunds(donorList[i], returnAmt) */\n      0xe0e5873eb9d996d2ab087b071a9a50522121c02b43308c8728c06739f52b3f87\n        /* \"contracts/senior project.sol\":2230:2239  donorList */\n      0x06\n        /* \"contracts/senior project.sol\":2240:2241  i */\n      dup4\n        /* \"contracts/senior project.sol\":2230:2242  donorList[i] */\n      dup2\n      sload\n      dup2\n      lt\n      tag_76\n      jumpi\n      tag_77\n      tag_59\n      jump\t// in\n    tag_77:\n    tag_76:\n      swap1\n      0x00\n      mstore\n      keccak256(0x00, 0x20)\n      add\n      0x00\n      swap1\n      sload\n      swap1\n      0x0100\n      exp\n      swap1\n      div\n      0xffffffffffffffffffffffffffffffffffffffff\n      and\n        /* \"contracts/senior project.sol\":2244:2253  returnAmt */\n      dup3\n        /* \"contracts/senior project.sol\":2213:2254  LogReturnedFunds(donorList[i], returnAmt) */\n      mload(0x40)\n      tag_79\n      swap3\n      swap2\n      swap1\n      tag_80\n      jump\t// in\n    tag_79:\n      mload(0x40)\n      dup1\n      swap2\n      sub\n      swap1\n      log1\n        /* \"contracts/senior project.sol\":1911:2274  if(balances[donorList[i]].returnable > 0){... */\n    tag_61:\n        /* \"contracts/senior project.sol\":1792:2289  {... */\n      pop\n        /* \"contracts/senior project.sol\":1788:1791  i++ */\n      dup1\n      dup1\n      tag_81\n      swap1\n      tag_82\n      jump\t// in\n    tag_81:\n      swap2\n      pop\n      pop\n        /* \"contracts/senior project.sol\":1751:2289  for(uint i; i <= donorList.length-1; i++){... */\n      jump(tag_52)\n    tag_53:\n      pop\n        /* \"contracts/senior project.sol\":1710:2300  function returnFunds() public {... */\n      jump\t// out\n        /* \"contracts/senior project.sol\":642:683  mapping(address => donor) public balances */\n    tag_20:\n      mstore(0x20, 0x05)\n      dup1\n      0x00\n      mstore\n      keccak256(0x00, 0x40)\n      0x00\n      swap2\n      pop\n      swap1\n      pop\n      dup1\n      0x00\n      add\n      sload\n      swap1\n      dup1\n      0x01\n      add\n      sload\n      swap1\n      dup1\n      0x02\n      add\n      sload\n      swap1\n      dup1\n      0x03\n      add\n      sload\n      swap1\n      pop\n      dup5\n      jump\t// out\n        /* \"contracts/senior project.sol\":690:724  address payable[] public donorList */\n    tag_27:\n      0x06\n      dup2\n      dup2\n      sload\n      dup2\n      lt\n      tag_83\n      jumpi\n      0x00\n      dup1\n      revert\n    tag_83:\n      swap1\n      0x00\n      mstore\n      keccak256(0x00, 0x20)\n      add\n      0x00\n      swap2\n      pop\n      sload\n      swap1\n      0x0100\n      exp\n      swap1\n      div\n      0xffffffffffffffffffffffffffffffffffffffff\n      and\n      dup2\n      jump\t// out\n        /* \"contracts/senior project.sol\":1526:1638  function singleRefund () public{... */\n    tag_32:\n        /* \"contracts/senior project.sol\":1577:1587  msg.sender */\n      caller\n        /* \"contracts/senior project.sol\":1568:1597  payable (msg.sender).transfer */\n      0xffffffffffffffffffffffffffffffffffffffff\n      and\n        /* \"contracts/senior project.sol\":1568:1630  payable (msg.sender).transfer(balances[msg.sender].returnable) */\n      0x08fc\n        /* \"contracts/senior project.sol\":1598:1606  balances */\n      0x05\n        /* \"contracts/senior project.sol\":1598:1618  balances[msg.sender] */\n      0x00\n        /* \"contracts/senior project.sol\":1607:1617  msg.sender */\n      caller\n        /* \"contracts/senior project.sol\":1598:1618  balances[msg.sender] */\n      0xffffffffffffffffffffffffffffffffffffffff\n      and\n      0xffffffffffffffffffffffffffffffffffffffff\n      and\n      dup2\n      mstore\n      0x20\n      add\n      swap1\n      dup2\n      mstore\n      0x20\n      add\n      0x00\n      keccak256\n        /* \"contracts/senior project.sol\":1598:1629  balances[msg.sender].returnable */\n      0x02\n      add\n      sload\n        /* \"contracts/senior project.sol\":1568:1630  payable (msg.sender).transfer(balances[msg.sender].returnable) */\n      swap1\n      dup2\n      iszero\n      mul\n      swap1\n      mload(0x40)\n      0x00\n      mload(0x40)\n      dup1\n      dup4\n      sub\n      dup2\n      dup6\n      dup9\n      dup9\n      call\n      swap4\n      pop\n      pop\n      pop\n      pop\n      iszero\n      dup1\n      iszero\n      tag_87\n      jumpi\n      returndatasize\n      0x00\n      dup1\n      returndatacopy\n      revert(0x00, returndatasize)\n    tag_87:\n      pop\n        /* \"contracts/senior project.sol\":1526:1638  function singleRefund () public{... */\n      jump\t// out\n        /* \"contracts/senior project.sol\":1377:1518  function sendFunds () public{... */\n    tag_35:\n        /* \"contracts/senior project.sol\":1416:1422  wallet */\n      0x00\n      dup1\n      sload\n      swap1\n      0x0100\n      exp\n      swap1\n      div\n      0xffffffffffffffffffffffffffffffffffffffff\n      and\n        /* \"contracts/senior project.sol\":1416:1431  wallet.transfer */\n      0xffffffffffffffffffffffffffffffffffffffff\n      and\n        /* \"contracts/senior project.sol\":1416:1463  wallet.transfer(balances[msg.sender].totalDono) */\n      0x08fc\n        /* \"contracts/senior project.sol\":1432:1440  balances */\n      0x05\n        /* \"contracts/senior project.sol\":1432:1452  balances[msg.sender] */\n      0x00\n        /* \"contracts/senior project.sol\":1441:1451  msg.sender */\n      caller\n        /* \"contracts/senior project.sol\":1432:1452  balances[msg.sender] */\n      0xffffffffffffffffffffffffffffffffffffffff\n      and\n      0xffffffffffffffffffffffffffffffffffffffff\n      and\n      dup2\n      mstore\n      0x20\n      add\n      swap1\n      dup2\n      mstore\n      0x20\n      add\n      0x00\n      keccak256\n        /* \"contracts/senior project.sol\":1432:1462  balances[msg.sender].totalDono */\n      0x00\n      add\n      sload\n        /* \"contracts/senior project.sol\":1416:1463  wallet.transfer(balances[msg.sender].totalDono) */\n      swap1\n      dup2\n      iszero\n      mul\n      swap1\n      mload(0x40)\n      0x00\n      mload(0x40)\n      dup1\n      dup4\n      sub\n      dup2\n      dup6\n      dup9\n      dup9\n      call\n      swap4\n      pop\n      pop\n      pop\n      pop\n      iszero\n      dup1\n      iszero\n      tag_90\n      jumpi\n      returndatasize\n      0x00\n      dup1\n      returndatacopy\n      revert(0x00, returndatasize)\n    tag_90:\n      pop\n        /* \"contracts/senior project.sol\":1509:1510  0 */\n      0x00\n        /* \"contracts/senior project.sol\":1475:1483  balances */\n      0x05\n        /* \"contracts/senior project.sol\":1475:1495  balances[msg.sender] */\n      0x00\n        /* \"contracts/senior project.sol\":1484:1494  msg.sender */\n      caller\n        /* \"contracts/senior project.sol\":1475:1495  balances[msg.sender] */\n      0xffffffffffffffffffffffffffffffffffffffff\n      and\n      0xffffffffffffffffffffffffffffffffffffffff\n      and\n      dup2\n      mstore\n      0x20\n      add\n      swap1\n      dup2\n      mstore\n      0x20\n      add\n      0x00\n      keccak256\n        /* \"contracts/senior project.sol\":1475:1506  balances[msg.sender].returnable */\n      0x02\n      add\n        /* \"contracts/senior project.sol\":1475:1510  balances[msg.sender].returnable = 0 */\n      dup2\n      swap1\n      sstore\n      pop\n        /* \"contracts/senior project.sol\":1377:1518  function sendFunds () public{... */\n      jump\t// out\n        /* \"contracts/senior project.sol\":994:1305  function donate() public payable{... */\n    tag_37:\n        /* \"contracts/senior project.sol\":1071:1080  msg.value */\n      callvalue\n        /* \"contracts/senior project.sol\":1037:1045  balances */\n      0x05\n        /* \"contracts/senior project.sol\":1037:1057  balances[msg.sender] */\n      0x00\n        /* \"contracts/senior project.sol\":1046:1056  msg.sender */\n      caller\n        /* \"contracts/senior project.sol\":1037:1057  balances[msg.sender] */\n      0xffffffffffffffffffffffffffffffffffffffff\n      and\n      0xffffffffffffffffffffffffffffffffffffffff\n      and\n      dup2\n      mstore\n      0x20\n      add\n      swap1\n      dup2\n      mstore\n      0x20\n      add\n      0x00\n      keccak256\n        /* \"contracts/senior project.sol\":1037:1067  balances[msg.sender].totalDono */\n      0x00\n      add\n      0x00\n        /* \"contracts/senior project.sol\":1037:1080  balances[msg.sender].totalDono += msg.value */\n      dup3\n      dup3\n      sload\n      tag_92\n      swap2\n      swap1\n      tag_42\n      jump\t// in\n    tag_92:\n      swap3\n      pop\n      pop\n      dup2\n      swap1\n      sstore\n      pop\n        /* \"contracts/senior project.sol\":1126:1135  msg.value */\n      callvalue\n        /* \"contracts/senior project.sol\":1091:1099  balances */\n      0x05\n        /* \"contracts/senior project.sol\":1091:1111  balances[msg.sender] */\n      0x00\n        /* \"contracts/senior project.sol\":1100:1110  msg.sender */\n      caller\n        /* \"contracts/senior project.sol\":1091:1111  balances[msg.sender] */\n      0xffffffffffffffffffffffffffffffffffffffff\n      and\n      0xffffffffffffffffffffffffffffffffffffffff\n      and\n      dup2\n      mstore\n      0x20\n      add\n      swap1\n      dup2\n      mstore\n      0x20\n      add\n      0x00\n      keccak256\n        /* \"contracts/senior project.sol\":1091:1122  balances[msg.sender].returnable */\n      0x02\n      add\n      0x00\n        /* \"contracts/senior project.sol\":1091:1135  balances[msg.sender].returnable += msg.value */\n      dup3\n      dup3\n      sload\n      tag_93\n      swap2\n      swap1\n      tag_42\n      jump\t// in\n    tag_93:\n      swap3\n      pop\n      pop\n      dup2\n      swap1\n      sstore\n      pop\n        /* \"contracts/senior project.sol\":1186:1194  Dcounter */\n      0x01\n      0x00\n        /* \"contracts/senior project.sol\":1186:1196  Dcounter++ */\n      dup2\n      sload\n      dup1\n      swap3\n      swap2\n      swap1\n      tag_94\n      swap1\n      tag_82\n      jump\t// in\n    tag_94:\n      swap2\n      swap1\n      pop\n      sstore\n        /* \"contracts/senior project.sol\":1146:1154  balances */\n      0x05\n        /* \"contracts/senior project.sol\":1146:1166  balances[msg.sender] */\n      0x00\n        /* \"contracts/senior project.sol\":1155:1165  msg.sender */\n      caller\n        /* \"contracts/senior project.sol\":1146:1166  balances[msg.sender] */\n      0xffffffffffffffffffffffffffffffffffffffff\n      and\n      0xffffffffffffffffffffffffffffffffffffffff\n      and\n      dup2\n      mstore\n      0x20\n      add\n      swap1\n      dup2\n      mstore\n      0x20\n      add\n      0x00\n      keccak256\n        /* \"contracts/senior project.sol\":1146:1183  balances[msg.sender].donorListPointer */\n      0x03\n      add\n        /* \"contracts/senior project.sol\":1146:1196  balances[msg.sender].donorListPointer = Dcounter++ */\n      dup2\n      swap1\n      sstore\n      pop\n        /* \"contracts/senior project.sol\":1207:1216  donorList */\n      0x06\n        /* \"contracts/senior project.sol\":1230:1240  msg.sender */\n      caller\n        /* \"contracts/senior project.sol\":1207:1242  donorList.push(payable(msg.sender)) */\n      swap1\n      dup1\n      0x01\n      dup2\n      sload\n      add\n      dup1\n      dup3\n      sstore\n      dup1\n      swap2\n      pop\n      pop\n      0x01\n      swap1\n      sub\n      swap1\n      0x00\n      mstore\n      keccak256(0x00, 0x20)\n      add\n      0x00\n      swap1\n      swap2\n      swap1\n      swap2\n      swap1\n      swap2\n      0x0100\n      exp\n      dup2\n      sload\n      dup2\n      0xffffffffffffffffffffffffffffffffffffffff\n      mul\n      not\n      and\n      swap1\n      dup4\n      0xffffffffffffffffffffffffffffffffffffffff\n      and\n      mul\n      or\n      swap1\n      sstore\n      pop\n        /* \"contracts/senior project.sol\":1258:1297  LogReceivedFunds(msg.sender, msg.value) */\n      0x81d2c188629cc4a1c694d285150cb5fa3dde3157a2684460d3ac7a1e331f6164\n        /* \"contracts/senior project.sol\":1275:1285  msg.sender */\n      caller\n        /* \"contracts/senior project.sol\":1287:1296  msg.value */\n      callvalue\n        /* \"contracts/senior project.sol\":1258:1297  LogReceivedFunds(msg.sender, msg.value) */\n      mload(0x40)\n      tag_96\n      swap3\n      swap2\n      swap1\n      tag_97\n      jump\t// in\n    tag_96:\n      mload(0x40)\n      dup1\n      swap2\n      sub\n      swap1\n      log1\n        /* \"contracts/senior project.sol\":994:1305  function donate() public payable{... */\n      jump\t// out\n        /* \"#utility.yul\":88:205   */\n    tag_99:\n        /* \"#utility.yul\":197:198   */\n      0x00\n        /* \"#utility.yul\":194:195   */\n      dup1\n        /* \"#utility.yul\":187:199   */\n      revert\n        /* \"#utility.yul\":334:460   */\n    tag_101:\n        /* \"#utility.yul\":371:378   */\n      0x00\n        /* \"#utility.yul\":411:453   */\n      0xffffffffffffffffffffffffffffffffffffffff\n        /* \"#utility.yul\":404:409   */\n      dup3\n        /* \"#utility.yul\":400:454   */\n      and\n        /* \"#utility.yul\":389:454   */\n      swap1\n      pop\n        /* \"#utility.yul\":334:460   */\n      swap2\n      swap1\n      pop\n      jump\t// out\n        /* \"#utility.yul\":466:562   */\n    tag_102:\n        /* \"#utility.yul\":503:510   */\n      0x00\n        /* \"#utility.yul\":532:556   */\n      tag_124\n        /* \"#utility.yul\":550:555   */\n      dup3\n        /* \"#utility.yul\":532:556   */\n      tag_101\n      jump\t// in\n    tag_124:\n        /* \"#utility.yul\":521:556   */\n      swap1\n      pop\n        /* \"#utility.yul\":466:562   */\n      swap2\n      swap1\n      pop\n      jump\t// out\n        /* \"#utility.yul\":568:690   */\n    tag_103:\n        /* \"#utility.yul\":641:665   */\n      tag_126\n        /* \"#utility.yul\":659:664   */\n      dup2\n        /* \"#utility.yul\":641:665   */\n      tag_102\n      jump\t// in\n    tag_126:\n        /* \"#utility.yul\":634:639   */\n      dup2\n        /* \"#utility.yul\":631:666   */\n      eq\n        /* \"#utility.yul\":621:684   */\n      tag_127\n      jumpi\n        /* \"#utility.yul\":680:681   */\n      0x00\n        /* \"#utility.yul\":677:678   */\n      dup1\n        /* \"#utility.yul\":670:682   */\n      revert\n        /* \"#utility.yul\":621:684   */\n    tag_127:\n        /* \"#utility.yul\":568:690   */\n      pop\n      jump\t// out\n        /* \"#utility.yul\":696:835   */\n    tag_104:\n        /* \"#utility.yul\":742:747   */\n      0x00\n        /* \"#utility.yul\":780:786   */\n      dup2\n        /* \"#utility.yul\":767:787   */\n      calldataload\n        /* \"#utility.yul\":758:787   */\n      swap1\n      pop\n        /* \"#utility.yul\":796:829   */\n      tag_129\n        /* \"#utility.yul\":823:828   */\n      dup2\n        /* \"#utility.yul\":796:829   */\n      tag_103\n      jump\t// in\n    tag_129:\n        /* \"#utility.yul\":696:835   */\n      swap3\n      swap2\n      pop\n      pop\n      jump\t// out\n        /* \"#utility.yul\":841:1170   */\n    tag_19:\n        /* \"#utility.yul\":900:906   */\n      0x00\n        /* \"#utility.yul\":949:951   */\n      0x20\n        /* \"#utility.yul\":937:946   */\n      dup3\n        /* \"#utility.yul\":928:935   */\n      dup5\n        /* \"#utility.yul\":924:947   */\n      sub\n        /* \"#utility.yul\":920:952   */\n      slt\n        /* \"#utility.yul\":917:1036   */\n      iszero\n      tag_131\n      jumpi\n        /* \"#utility.yul\":955:1034   */\n      tag_132\n      tag_99\n      jump\t// in\n    tag_132:\n        /* \"#utility.yul\":917:1036   */\n    tag_131:\n        /* \"#utility.yul\":1075:1076   */\n      0x00\n        /* \"#utility.yul\":1100:1153   */\n      tag_133\n        /* \"#utility.yul\":1145:1152   */\n      dup5\n        /* \"#utility.yul\":1136:1142   */\n      dup3\n        /* \"#utility.yul\":1125:1134   */\n      dup6\n        /* \"#utility.yul\":1121:1143   */\n      add\n        /* \"#utility.yul\":1100:1153   */\n      tag_104\n      jump\t// in\n    tag_133:\n        /* \"#utility.yul\":1090:1153   */\n      swap2\n      pop\n        /* \"#utility.yul\":1046:1163   */\n      pop\n        /* \"#utility.yul\":841:1170   */\n      swap3\n      swap2\n      pop\n      pop\n      jump\t// out\n        /* \"#utility.yul\":1176:1253   */\n    tag_105:\n        /* \"#utility.yul\":1213:1220   */\n      0x00\n        /* \"#utility.yul\":1242:1247   */\n      dup2\n        /* \"#utility.yul\":1231:1247   */\n      swap1\n      pop\n        /* \"#utility.yul\":1176:1253   */\n      swap2\n      swap1\n      pop\n      jump\t// out\n        /* \"#utility.yul\":1259:1377   */\n    tag_106:\n        /* \"#utility.yul\":1346:1370   */\n      tag_136\n        /* \"#utility.yul\":1364:1369   */\n      dup2\n        /* \"#utility.yul\":1346:1370   */\n      tag_105\n      jump\t// in\n    tag_136:\n        /* \"#utility.yul\":1341:1344   */\n      dup3\n        /* \"#utility.yul\":1334:1371   */\n      mstore\n        /* \"#utility.yul\":1259:1377   */\n      pop\n      pop\n      jump\t// out\n        /* \"#utility.yul\":1383:1936   */\n    tag_22:\n        /* \"#utility.yul\":1560:1564   */\n      0x00\n        /* \"#utility.yul\":1598:1601   */\n      0x80\n        /* \"#utility.yul\":1587:1596   */\n      dup3\n        /* \"#utility.yul\":1583:1602   */\n      add\n        /* \"#utility.yul\":1575:1602   */\n      swap1\n      pop\n        /* \"#utility.yul\":1612:1683   */\n      tag_138\n        /* \"#utility.yul\":1680:1681   */\n      0x00\n        /* \"#utility.yul\":1669:1678   */\n      dup4\n        /* \"#utility.yul\":1665:1682   */\n      add\n        /* \"#utility.yul\":1656:1662   */\n      dup8\n        /* \"#utility.yul\":1612:1683   */\n      tag_106\n      jump\t// in\n    tag_138:\n        /* \"#utility.yul\":1693:1765   */\n      tag_139\n        /* \"#utility.yul\":1761:1763   */\n      0x20\n        /* \"#utility.yul\":1750:1759   */\n      dup4\n        /* \"#utility.yul\":1746:1764   */\n      add\n        /* \"#utility.yul\":1737:1743   */\n      dup7\n        /* \"#utility.yul\":1693:1765   */\n      tag_106\n      jump\t// in\n    tag_139:\n        /* \"#utility.yul\":1775:1847   */\n      tag_140\n        /* \"#utility.yul\":1843:1845   */\n      0x40\n        /* \"#utility.yul\":1832:1841   */\n      dup4\n        /* \"#utility.yul\":1828:1846   */\n      add\n        /* \"#utility.yul\":1819:1825   */\n      dup6\n        /* \"#utility.yul\":1775:1847   */\n      tag_106\n      jump\t// in\n    tag_140:\n        /* \"#utility.yul\":1857:1929   */\n      tag_141\n        /* \"#utility.yul\":1925:1927   */\n      0x60\n        /* \"#utility.yul\":1914:1923   */\n      dup4\n        /* \"#utility.yul\":1910:1928   */\n      add\n        /* \"#utility.yul\":1901:1907   */\n      dup5\n        /* \"#utility.yul\":1857:1929   */\n      tag_106\n      jump\t// in\n    tag_141:\n        /* \"#utility.yul\":1383:1936   */\n      swap6\n      swap5\n      pop\n      pop\n      pop\n      pop\n      pop\n      jump\t// out\n        /* \"#utility.yul\":1942:2064   */\n    tag_107:\n        /* \"#utility.yul\":2015:2039   */\n      tag_143\n        /* \"#utility.yul\":2033:2038   */\n      dup2\n        /* \"#utility.yul\":2015:2039   */\n      tag_105\n      jump\t// in\n    tag_143:\n        /* \"#utility.yul\":2008:2013   */\n      dup2\n        /* \"#utility.yul\":2005:2040   */\n      eq\n        /* \"#utility.yul\":1995:2058   */\n      tag_144\n      jumpi\n        /* \"#utility.yul\":2054:2055   */\n      0x00\n        /* \"#utility.yul\":2051:2052   */\n      dup1\n        /* \"#utility.yul\":2044:2056   */\n      revert\n        /* \"#utility.yul\":1995:2058   */\n    tag_144:\n        /* \"#utility.yul\":1942:2064   */\n      pop\n      jump\t// out\n        /* \"#utility.yul\":2070:2209   */\n    tag_108:\n        /* \"#utility.yul\":2116:2121   */\n      0x00\n        /* \"#utility.yul\":2154:2160   */\n      dup2\n        /* \"#utility.yul\":2141:2161   */\n      calldataload\n        /* \"#utility.yul\":2132:2161   */\n      swap1\n      pop\n        /* \"#utility.yul\":2170:2203   */\n      tag_146\n        /* \"#utility.yul\":2197:2202   */\n      dup2\n        /* \"#utility.yul\":2170:2203   */\n      tag_107\n      jump\t// in\n    tag_146:\n        /* \"#utility.yul\":2070:2209   */\n      swap3\n      swap2\n      pop\n      pop\n      jump\t// out\n        /* \"#utility.yul\":2215:2544   */\n    tag_26:\n        /* \"#utility.yul\":2274:2280   */\n      0x00\n        /* \"#utility.yul\":2323:2325   */\n      0x20\n        /* \"#utility.yul\":2311:2320   */\n      dup3\n        /* \"#utility.yul\":2302:2309   */\n      dup5\n        /* \"#utility.yul\":2298:2321   */\n      sub\n        /* \"#utility.yul\":2294:2326   */\n      slt\n        /* \"#utility.yul\":2291:2410   */\n      iszero\n      tag_148\n      jumpi\n        /* \"#utility.yul\":2329:2408   */\n      tag_149\n      tag_99\n      jump\t// in\n    tag_149:\n        /* \"#utility.yul\":2291:2410   */\n    tag_148:\n        /* \"#utility.yul\":2449:2450   */\n      0x00\n        /* \"#utility.yul\":2474:2527   */\n      tag_150\n        /* \"#utility.yul\":2519:2526   */\n      dup5\n        /* \"#utility.yul\":2510:2516   */\n      dup3\n        /* \"#utility.yul\":2499:2508   */\n      dup6\n        /* \"#utility.yul\":2495:2517   */\n      add\n        /* \"#utility.yul\":2474:2527   */\n      tag_108\n      jump\t// in\n    tag_150:\n        /* \"#utility.yul\":2464:2527   */\n      swap2\n      pop\n        /* \"#utility.yul\":2420:2537   */\n      pop\n        /* \"#utility.yul\":2215:2544   */\n      swap3\n      swap2\n      pop\n      pop\n      jump\t// out\n        /* \"#utility.yul\":2550:2654   */\n    tag_109:\n        /* \"#utility.yul\":2595:2602   */\n      0x00\n        /* \"#utility.yul\":2624:2648   */\n      tag_152\n        /* \"#utility.yul\":2642:2647   */\n      dup3\n        /* \"#utility.yul\":2624:2648   */\n      tag_101\n      jump\t// in\n    tag_152:\n        /* \"#utility.yul\":2613:2648   */\n      swap1\n      pop\n        /* \"#utility.yul\":2550:2654   */\n      swap2\n      swap1\n      pop\n      jump\t// out\n        /* \"#utility.yul\":2660:2802   */\n    tag_110:\n        /* \"#utility.yul\":2763:2795   */\n      tag_154\n        /* \"#utility.yul\":2789:2794   */\n      dup2\n        /* \"#utility.yul\":2763:2795   */\n      tag_109\n      jump\t// in\n    tag_154:\n        /* \"#utility.yul\":2758:2761   */\n      dup3\n        /* \"#utility.yul\":2751:2796   */\n      mstore\n        /* \"#utility.yul\":2660:2802   */\n      pop\n      pop\n      jump\t// out\n        /* \"#utility.yul\":2808:3062   */\n    tag_29:\n        /* \"#utility.yul\":2917:2921   */\n      0x00\n        /* \"#utility.yul\":2955:2957   */\n      0x20\n        /* \"#utility.yul\":2944:2953   */\n      dup3\n        /* \"#utility.yul\":2940:2958   */\n      add\n        /* \"#utility.yul\":2932:2958   */\n      swap1\n      pop\n        /* \"#utility.yul\":2968:3055   */\n      tag_156\n        /* \"#utility.yul\":3052:3053   */\n      0x00\n        /* \"#utility.yul\":3041:3050   */\n      dup4\n        /* \"#utility.yul\":3037:3054   */\n      add\n        /* \"#utility.yul\":3028:3034   */\n      dup5\n        /* \"#utility.yul\":2968:3055   */\n      tag_110\n      jump\t// in\n    tag_156:\n        /* \"#utility.yul\":2808:3062   */\n      swap3\n      swap2\n      pop\n      pop\n      jump\t// out\n        /* \"#utility.yul\":3068:3248   */\n    tag_111:\n        /* \"#utility.yul\":3116:3193   */\n      0x4e487b7100000000000000000000000000000000000000000000000000000000\n        /* \"#utility.yul\":3113:3114   */\n      0x00\n        /* \"#utility.yul\":3106:3194   */\n      mstore\n        /* \"#utility.yul\":3213:3217   */\n      0x11\n        /* \"#utility.yul\":3210:3211   */\n      0x04\n        /* \"#utility.yul\":3203:3218   */\n      mstore\n        /* \"#utility.yul\":3237:3241   */\n      0x24\n        /* \"#utility.yul\":3234:3235   */\n      0x00\n        /* \"#utility.yul\":3227:3242   */\n      revert\n        /* \"#utility.yul\":3254:3602   */\n    tag_40:\n        /* \"#utility.yul\":3294:3301   */\n      0x00\n        /* \"#utility.yul\":3317:3337   */\n      tag_159\n        /* \"#utility.yul\":3335:3336   */\n      dup3\n        /* \"#utility.yul\":3317:3337   */\n      tag_105\n      jump\t// in\n    tag_159:\n        /* \"#utility.yul\":3312:3337   */\n      swap2\n      pop\n        /* \"#utility.yul\":3351:3371   */\n      tag_160\n        /* \"#utility.yul\":3369:3370   */\n      dup4\n        /* \"#utility.yul\":3351:3371   */\n      tag_105\n      jump\t// in\n    tag_160:\n        /* \"#utility.yul\":3346:3371   */\n      swap3\n      pop\n        /* \"#utility.yul\":3539:3540   */\n      dup2\n        /* \"#utility.yul\":3471:3537   */\n      0xffffffffffffffffffffffffffffffffffffffffffffffffffffffffffffffff\n        /* \"#utility.yul\":3467:3541   */\n      div\n        /* \"#utility.yul\":3464:3465   */\n      dup4\n        /* \"#utility.yul\":3461:3542   */\n      gt\n        /* \"#utility.yul\":3456:3457   */\n      dup3\n        /* \"#utility.yul\":3449:3458   */\n      iszero\n        /* \"#utility.yul\":3442:3459   */\n      iszero\n        /* \"#utility.yul\":3438:3543   */\n      and\n        /* \"#utility.yul\":3435:3566   */\n      iszero\n      tag_161\n      jumpi\n        /* \"#utility.yul\":3546:3564   */\n      tag_162\n      tag_111\n      jump\t// in\n    tag_162:\n        /* \"#utility.yul\":3435:3566   */\n    tag_161:\n        /* \"#utility.yul\":3594:3595   */\n      dup3\n        /* \"#utility.yul\":3591:3592   */\n      dup3\n        /* \"#utility.yul\":3587:3596   */\n      mul\n        /* \"#utility.yul\":3576:3596   */\n      swap1\n      pop\n        /* \"#utility.yul\":3254:3602   */\n      swap3\n      swap2\n      pop\n      pop\n      jump\t// out\n        /* \"#utility.yul\":3608:3799   */\n    tag_42:\n        /* \"#utility.yul\":3648:3651   */\n      0x00\n        /* \"#utility.yul\":3667:3687   */\n      tag_164\n        /* \"#utility.yul\":3685:3686   */\n      dup3\n        /* \"#utility.yul\":3667:3687   */\n      tag_105\n      jump\t// in\n    tag_164:\n        /* \"#utility.yul\":3662:3687   */\n      swap2\n      pop\n        /* \"#utility.yul\":3701:3721   */\n      tag_165\n        /* \"#utility.yul\":3719:3720   */\n      dup4\n        /* \"#utility.yul\":3701:3721   */\n      tag_105\n      jump\t// in\n    tag_165:\n        /* \"#utility.yul\":3696:3721   */\n      swap3\n      pop\n        /* \"#utility.yul\":3744:3745   */\n      dup3\n        /* \"#utility.yul\":3741:3742   */\n      dup3\n        /* \"#utility.yul\":3737:3746   */\n      add\n        /* \"#utility.yul\":3730:3746   */\n      swap1\n      pop\n        /* \"#utility.yul\":3765:3768   */\n      dup1\n        /* \"#utility.yul\":3762:3763   */\n      dup3\n        /* \"#utility.yul\":3759:3769   */\n      gt\n        /* \"#utility.yul\":3756:3792   */\n      iszero\n      tag_166\n      jumpi\n        /* \"#utility.yul\":3772:3790   */\n      tag_167\n      tag_111\n      jump\t// in\n    tag_167:\n        /* \"#utility.yul\":3756:3792   */\n    tag_166:\n        /* \"#utility.yul\":3608:3799   */\n      swap3\n      swap2\n      pop\n      pop\n      jump\t// out\n        /* \"#utility.yul\":3805:3999   */\n    tag_56:\n        /* \"#utility.yul\":3845:3849   */\n      0x00\n        /* \"#utility.yul\":3865:3885   */\n      tag_169\n        /* \"#utility.yul\":3883:3884   */\n      dup3\n        /* \"#utility.yul\":3865:3885   */\n      tag_105\n      jump\t// in\n    tag_169:\n        /* \"#utility.yul\":3860:3885   */\n      swap2\n      pop\n        /* \"#utility.yul\":3899:3919   */\n      tag_170\n        /* \"#utility.yul\":3917:3918   */\n      dup4\n        /* \"#utility.yul\":3899:3919   */\n      tag_105\n      jump\t// in\n    tag_170:\n        /* \"#utility.yul\":3894:3919   */\n      swap3\n      pop\n        /* \"#utility.yul\":3943:3944   */\n      dup3\n        /* \"#utility.yul\":3940:3941   */\n      dup3\n        /* \"#utility.yul\":3936:3945   */\n      sub\n        /* \"#utility.yul\":3928:3945   */\n      swap1\n      pop\n        /* \"#utility.yul\":3967:3968   */\n      dup2\n        /* \"#utility.yul\":3961:3965   */\n      dup2\n        /* \"#utility.yul\":3958:3969   */\n      gt\n        /* \"#utility.yul\":3955:3992   */\n      iszero\n      tag_171\n      jumpi\n        /* \"#utility.yul\":3972:3990   */\n      tag_172\n      tag_111\n      jump\t// in\n    tag_172:\n        /* \"#utility.yul\":3955:3992   */\n    tag_171:\n        /* \"#utility.yul\":3805:3999   */\n      swap3\n      swap2\n      pop\n      pop\n      jump\t// out\n        /* \"#utility.yul\":4005:4185   */\n    tag_59:\n        /* \"#utility.yul\":4053:4130   */\n      0x4e487b7100000000000000000000000000000000000000000000000000000000\n        /* \"#utility.yul\":4050:4051   */\n      0x00\n        /* \"#utility.yul\":4043:4131   */\n      mstore\n        /* \"#utility.yul\":4150:4154   */\n      0x32\n        /* \"#utility.yul\":4147:4148   */\n      0x04\n        /* \"#utility.yul\":4140:4155   */\n      mstore\n        /* \"#utility.yul\":4174:4178   */\n      0x24\n        /* \"#utility.yul\":4171:4172   */\n      0x00\n        /* \"#utility.yul\":4164:4179   */\n      revert\n        /* \"#utility.yul\":4191:4251   */\n    tag_112:\n        /* \"#utility.yul\":4219:4222   */\n      0x00\n        /* \"#utility.yul\":4240:4245   */\n      dup2\n        /* \"#utility.yul\":4233:4245   */\n      swap1\n      pop\n        /* \"#utility.yul\":4191:4251   */\n      swap2\n      swap1\n      pop\n      jump\t// out\n        /* \"#utility.yul\":4257:4399   */\n    tag_113:\n        /* \"#utility.yul\":4307:4316   */\n      0x00\n        /* \"#utility.yul\":4340:4393   */\n      tag_176\n        /* \"#utility.yul\":4358:4392   */\n      tag_177\n        /* \"#utility.yul\":4367:4391   */\n      tag_178\n        /* \"#utility.yul\":4385:4390   */\n      dup5\n        /* \"#utility.yul\":4367:4391   */\n      tag_101\n      jump\t// in\n    tag_178:\n        /* \"#utility.yul\":4358:4392   */\n      tag_112\n      jump\t// in\n    tag_177:\n        /* \"#utility.yul\":4340:4393   */\n      tag_101\n      jump\t// in\n    tag_176:\n        /* \"#utility.yul\":4327:4393   */\n      swap1\n      pop\n        /* \"#utility.yul\":4257:4399   */\n      swap2\n      swap1\n      pop\n      jump\t// out\n        /* \"#utility.yul\":4405:4531   */\n    tag_114:\n        /* \"#utility.yul\":4455:4464   */\n      0x00\n        /* \"#utility.yul\":4488:4525   */\n      tag_180\n        /* \"#utility.yul\":4519:4524   */\n      dup3\n        /* \"#utility.yul\":4488:4525   */\n      tag_113\n      jump\t// in\n    tag_180:\n        /* \"#utility.yul\":4475:4525   */\n      swap1\n      pop\n        /* \"#utility.yul\":4405:4531   */\n      swap2\n      swap1\n      pop\n      jump\t// out\n        /* \"#utility.yul\":4537:4671   */\n    tag_115:\n        /* \"#utility.yul\":4595:4604   */\n      0x00\n        /* \"#utility.yul\":4628:4665   */\n      tag_182\n        /* \"#utility.yul\":4659:4664   */\n      dup3\n        /* \"#utility.yul\":4628:4665   */\n      tag_114\n      jump\t// in\n    tag_182:\n        /* \"#utility.yul\":4615:4665   */\n      swap1\n      pop\n        /* \"#utility.yul\":4537:4671   */\n      swap2\n      swap1\n      pop\n      jump\t// out\n        /* \"#utility.yul\":4677:4824   */\n    tag_116:\n        /* \"#utility.yul\":4772:4817   */\n      tag_184\n        /* \"#utility.yul\":4811:4816   */\n      dup2\n        /* \"#utility.yul\":4772:4817   */\n      tag_115\n      jump\t// in\n    tag_184:\n        /* \"#utility.yul\":4767:4770   */\n      dup3\n        /* \"#utility.yul\":4760:4818   */\n      mstore\n        /* \"#utility.yul\":4677:4824   */\n      pop\n      pop\n      jump\t// out\n        /* \"#utility.yul\":4830:5178   */\n    tag_80:\n        /* \"#utility.yul\":4959:4963   */\n      0x00\n        /* \"#utility.yul\":4997:4999   */\n      0x40\n        /* \"#utility.yul\":4986:4995   */\n      dup3\n        /* \"#utility.yul\":4982:5000   */\n      add\n        /* \"#utility.yul\":4974:5000   */\n      swap1\n      pop\n        /* \"#utility.yul\":5010:5089   */\n      tag_186\n        /* \"#utility.yul\":5086:5087   */\n      0x00\n        /* \"#utility.yul\":5075:5084   */\n      dup4\n        /* \"#utility.yul\":5071:5088   */\n      add\n        /* \"#utility.yul\":5062:5068   */\n      dup6\n        /* \"#utility.yul\":5010:5089   */\n      tag_116\n      jump\t// in\n    tag_186:\n        /* \"#utility.yul\":5099:5171   */\n      tag_187\n        /* \"#utility.yul\":5167:5169   */\n      0x20\n        /* \"#utility.yul\":5156:5165   */\n      dup4\n        /* \"#utility.yul\":5152:5170   */\n      add\n        /* \"#utility.yul\":5143:5149   */\n      dup5\n        /* \"#utility.yul\":5099:5171   */\n      tag_106\n      jump\t// in\n    tag_187:\n        /* \"#utility.yul\":4830:5178   */\n      swap4\n      swap3\n      pop\n      pop\n      pop\n      jump\t// out\n        /* \"#utility.yul\":5184:5417   */\n    tag_82:\n        /* \"#utility.yul\":5223:5226   */\n      0x00\n        /* \"#utility.yul\":5246:5270   */\n      tag_189\n        /* \"#utility.yul\":5264:5269   */\n      dup3\n        /* \"#utility.yul\":5246:5270   */\n      tag_105\n      jump\t// in\n    tag_189:\n        /* \"#utility.yul\":5237:5270   */\n      swap2\n      pop\n        /* \"#utility.yul\":5292:5358   */\n      0xffffffffffffffffffffffffffffffffffffffffffffffffffffffffffffffff\n        /* \"#utility.yul\":5285:5290   */\n      dup3\n        /* \"#utility.yul\":5282:5359   */\n      sub\n        /* \"#utility.yul\":5279:5382   */\n      tag_190\n      jumpi\n        /* \"#utility.yul\":5362:5380   */\n      tag_191\n      tag_111\n      jump\t// in\n    tag_191:\n        /* \"#utility.yul\":5279:5382   */\n    tag_190:\n        /* \"#utility.yul\":5409:5410   */\n      0x01\n        /* \"#utility.yul\":5402:5407   */\n      dup3\n        /* \"#utility.yul\":5398:5411   */\n      add\n        /* \"#utility.yul\":5391:5411   */\n      swap1\n      pop\n        /* \"#utility.yul\":5184:5417   */\n      swap2\n      swap1\n      pop\n      jump\t// out\n        /* \"#utility.yul\":5423:5541   */\n    tag_117:\n        /* \"#utility.yul\":5510:5534   */\n      tag_193\n        /* \"#utility.yul\":5528:5533   */\n      dup2\n        /* \"#utility.yul\":5510:5534   */\n      tag_102\n      jump\t// in\n    tag_193:\n        /* \"#utility.yul\":5505:5508   */\n      dup3\n        /* \"#utility.yul\":5498:5535   */\n      mstore\n        /* \"#utility.yul\":5423:5541   */\n      pop\n      pop\n      jump\t// out\n        /* \"#utility.yul\":5547:5879   */\n    tag_97:\n        /* \"#utility.yul\":5668:5672   */\n      0x00\n        /* \"#utility.yul\":5706:5708   */\n      0x40\n        /* \"#utility.yul\":5695:5704   */\n      dup3\n        /* \"#utility.yul\":5691:5709   */\n      add\n        /* \"#utility.yul\":5683:5709   */\n      swap1\n      pop\n        /* \"#utility.yul\":5719:5790   */\n      tag_195\n        /* \"#utility.yul\":5787:5788   */\n      0x00\n        /* \"#utility.yul\":5776:5785   */\n      dup4\n        /* \"#utility.yul\":5772:5789   */\n      add\n        /* \"#utility.yul\":5763:5769   */\n      dup6\n        /* \"#utility.yul\":5719:5790   */\n      tag_117\n      jump\t// in\n    tag_195:\n        /* \"#utility.yul\":5800:5872   */\n      tag_196\n        /* \"#utility.yul\":5868:5870   */\n      0x20\n        /* \"#utility.yul\":5857:5866   */\n      dup4\n        /* \"#utility.yul\":5853:5871   */\n      add\n        /* \"#utility.yul\":5844:5850   */\n      dup5\n        /* \"#utility.yul\":5800:5872   */\n      tag_106\n      jump\t// in\n    tag_196:\n        /* \"#utility.yul\":5547:5879   */\n      swap4\n      swap3\n      pop\n      pop\n      pop\n      jump\t// out\n\n    auxdata: 0xa2646970667358221220caf9d4f67f99dd684424157243743d28ddbc2a879b2b595b50de1bfb52a3aaf064736f6c63430008100033\n}\n",
				"bytecode": {
					"linkReferences": {},
					"object": "60806040526000600460006101000a81548160ff0219169083151502179055503480156200002c57600080fd5b5060405162000e8c38038062000e8c83398181016040528101906200005291906200014d565b816000806101000a81548173ffffffffffffffffffffffffffffffffffffffff021916908373ffffffffffffffffffffffffffffffffffffffff1602179055504260028190555080600381905550505062000194565b600080fd5b600073ffffffffffffffffffffffffffffffffffffffff82169050919050565b6000620000da82620000ad565b9050919050565b620000ec81620000cd565b8114620000f857600080fd5b50565b6000815190506200010c81620000e1565b92915050565b6000819050919050565b620001278162000112565b81146200013357600080fd5b50565b60008151905062000147816200011c565b92915050565b60008060408385031215620001675762000166620000a8565b5b60006200017785828601620000fb565b92505060206200018a8582860162000136565b9150509250929050565b610ce880620001a46000396000f3fe6080604052600436106100705760003560e01c80635eed3dcb1161004e5780635eed3dcb146100e35780638bf963b6146101205780638d68cf5914610137578063ed88c68e1461014e57610070565b80631c829ded146100755780631eb5ea2e1461008c57806327e235e3146100a3575b600080fd5b34801561008157600080fd5b5061008a610158565b005b34801561009857600080fd5b506100a1610226565b005b3480156100af57600080fd5b506100ca60048036038101906100c5919061096a565b61056d565b6040516100da94939291906109b0565b60405180910390f35b3480156100ef57600080fd5b5061010a60048036038101906101059190610a21565b61059d565b6040516101179190610a6f565b60405180910390f35b34801561012c57600080fd5b506101356105dc565b005b34801561014357600080fd5b5061014c610667565b005b61015661075a565b005b62093a806003546101699190610ab9565b6002546101769190610b13565b4210158015610198575060011515600460009054906101000a900460ff161515145b156101d65760008054906101000a900473ffffffffffffffffffffffffffffffffffffffff1673ffffffffffffffffffffffffffffffffffffffff16ff5b62093a806003546101e79190610ab9565b6002546101f49190610b13565b4210158015610216575060001515600460009054906101000a900460ff161515145b1561022457610223610226565b5b565b60005b600160068054905061023b9190610b47565b811161056a57600080600560006006858154811061025c5761025b610b7b565b5b9060005260206000200160009054906101000a900473ffffffffffffffffffffffffffffffffffffffff1673ffffffffffffffffffffffffffffffffffffffff1673ffffffffffffffffffffffffffffffffffffffff1681526020019081526020016000206002015411156105565760056000600684815481106102e3576102e2610b7b565b5b9060005260206000200160009054906101000a900473ffffffffffffffffffffffffffffffffffffffff1673ffffffffffffffffffffffffffffffffffffffff1673ffffffffffffffffffffffffffffffffffffffff1681526020019081526020016000206002015490506006828154811061036257610361610b7b565b5b9060005260206000200160009054906101000a900473ffffffffffffffffffffffffffffffffffffffff1673ffffffffffffffffffffffffffffffffffffffff166108fc829081150290604051600060405180830381858888f193505050501580156103d2573d6000803e3d6000fd5b508060056000600685815481106103ec576103eb610b7b565b5b9060005260206000200160009054906101000a900473ffffffffffffffffffffffffffffffffffffffff1673ffffffffffffffffffffffffffffffffffffffff1673ffffffffffffffffffffffffffffffffffffffff168152602001908152602001600020600101819055506000600560006006858154811061047257610471610b7b565b5b9060005260206000200160009054906101000a900473ffffffffffffffffffffffffffffffffffffffff1673ffffffffffffffffffffffffffffffffffffffff1673ffffffffffffffffffffffffffffffffffffffff168152602001908152602001600020600201819055507fe0e5873eb9d996d2ab087b071a9a50522121c02b43308c8728c06739f52b3f876006838154811061051357610512610b7b565b5b9060005260206000200160009054906101000a900473ffffffffffffffffffffffffffffffffffffffff168260405161054d929190610c09565b60405180910390a15b50808061056290610c32565b915050610229565b50565b60056020528060005260406000206000915090508060000154908060010154908060020154908060030154905084565b600681815481106105ad57600080fd5b906000526020600020016000915054906101000a900473ffffffffffffffffffffffffffffffffffffffff1681565b3373ffffffffffffffffffffffffffffffffffffffff166108fc600560003373ffffffffffffffffffffffffffffffffffffffff1673ffffffffffffffffffffffffffffffffffffffff168152602001908152602001600020600201549081150290604051600060405180830381858888f19350505050158015610664573d6000803e3d6000fd5b50565b60008054906101000a900473ffffffffffffffffffffffffffffffffffffffff1673ffffffffffffffffffffffffffffffffffffffff166108fc600560003373ffffffffffffffffffffffffffffffffffffffff1673ffffffffffffffffffffffffffffffffffffffff168152602001908152602001600020600001549081150290604051600060405180830381858888f1935050505015801561070f573d6000803e3d6000fd5b506000600560003373ffffffffffffffffffffffffffffffffffffffff1673ffffffffffffffffffffffffffffffffffffffff16815260200190815260200160002060020181905550565b34600560003373ffffffffffffffffffffffffffffffffffffffff1673ffffffffffffffffffffffffffffffffffffffff16815260200190815260200160002060000160008282546107ac9190610b13565b9250508190555034600560003373ffffffffffffffffffffffffffffffffffffffff1673ffffffffffffffffffffffffffffffffffffffff16815260200190815260200160002060020160008282546108059190610b13565b925050819055506001600081548092919061081f90610c32565b91905055600560003373ffffffffffffffffffffffffffffffffffffffff1673ffffffffffffffffffffffffffffffffffffffff168152602001908152602001600020600301819055506006339080600181540180825580915050600190039060005260206000200160009091909190916101000a81548173ffffffffffffffffffffffffffffffffffffffff021916908373ffffffffffffffffffffffffffffffffffffffff1602179055507f81d2c188629cc4a1c694d285150cb5fa3dde3157a2684460d3ac7a1e331f616433346040516108fd929190610c89565b60405180910390a1565b600080fd5b600073ffffffffffffffffffffffffffffffffffffffff82169050919050565b60006109378261090c565b9050919050565b6109478161092c565b811461095257600080fd5b50565b6000813590506109648161093e565b92915050565b6000602082840312156109805761097f610907565b5b600061098e84828501610955565b91505092915050565b6000819050919050565b6109aa81610997565b82525050565b60006080820190506109c560008301876109a1565b6109d260208301866109a1565b6109df60408301856109a1565b6109ec60608301846109a1565b95945050505050565b6109fe81610997565b8114610a0957600080fd5b50565b600081359050610a1b816109f5565b92915050565b600060208284031215610a3757610a36610907565b5b6000610a4584828501610a0c565b91505092915050565b6000610a598261090c565b9050919050565b610a6981610a4e565b82525050565b6000602082019050610a846000830184610a60565b92915050565b7f4e487b7100000000000000000000000000000000000000000000000000000000600052601160045260246000fd5b6000610ac482610997565b9150610acf83610997565b9250817fffffffffffffffffffffffffffffffffffffffffffffffffffffffffffffffff0483118215151615610b0857610b07610a8a565b5b828202905092915050565b6000610b1e82610997565b9150610b2983610997565b9250828201905080821115610b4157610b40610a8a565b5b92915050565b6000610b5282610997565b9150610b5d83610997565b9250828203905081811115610b7557610b74610a8a565b5b92915050565b7f4e487b7100000000000000000000000000000000000000000000000000000000600052603260045260246000fd5b6000819050919050565b6000610bcf610bca610bc58461090c565b610baa565b61090c565b9050919050565b6000610be182610bb4565b9050919050565b6000610bf382610bd6565b9050919050565b610c0381610be8565b82525050565b6000604082019050610c1e6000830185610bfa565b610c2b60208301846109a1565b9392505050565b6000610c3d82610997565b91507fffffffffffffffffffffffffffffffffffffffffffffffffffffffffffffffff8203610c6f57610c6e610a8a565b5b600182019050919050565b610c838161092c565b82525050565b6000604082019050610c9e6000830185610c7a565b610cab60208301846109a1565b939250505056fea2646970667358221220caf9d4f67f99dd684424157243743d28ddbc2a879b2b595b50de1bfb52a3aaf064736f6c63430008100033",
					"opcodes": "PUSH1 0x80 PUSH1 0x40 MSTORE PUSH1 0x0 PUSH1 0x4 PUSH1 0x0 PUSH2 0x100 EXP DUP2 SLOAD DUP2 PUSH1 0xFF MUL NOT AND SWAP1 DUP4 ISZERO ISZERO MUL OR SWAP1 SSTORE POP CALLVALUE DUP1 ISZERO PUSH3 0x2C JUMPI PUSH1 0x0 DUP1 REVERT JUMPDEST POP PUSH1 0x40 MLOAD PUSH3 0xE8C CODESIZE SUB DUP1 PUSH3 0xE8C DUP4 CODECOPY DUP2 DUP2 ADD PUSH1 0x40 MSTORE DUP2 ADD SWAP1 PUSH3 0x52 SWAP2 SWAP1 PUSH3 0x14D JUMP JUMPDEST DUP2 PUSH1 0x0 DUP1 PUSH2 0x100 EXP DUP2 SLOAD DUP2 PUSH20 0xFFFFFFFFFFFFFFFFFFFFFFFFFFFFFFFFFFFFFFFF MUL NOT AND SWAP1 DUP4 PUSH20 0xFFFFFFFFFFFFFFFFFFFFFFFFFFFFFFFFFFFFFFFF AND MUL OR SWAP1 SSTORE POP TIMESTAMP PUSH1 0x2 DUP2 SWAP1 SSTORE POP DUP1 PUSH1 0x3 DUP2 SWAP1 SSTORE POP POP POP PUSH3 0x194 JUMP JUMPDEST PUSH1 0x0 DUP1 REVERT JUMPDEST PUSH1 0x0 PUSH20 0xFFFFFFFFFFFFFFFFFFFFFFFFFFFFFFFFFFFFFFFF DUP3 AND SWAP1 POP SWAP2 SWAP1 POP JUMP JUMPDEST PUSH1 0x0 PUSH3 0xDA DUP3 PUSH3 0xAD JUMP JUMPDEST SWAP1 POP SWAP2 SWAP1 POP JUMP JUMPDEST PUSH3 0xEC DUP2 PUSH3 0xCD JUMP JUMPDEST DUP2 EQ PUSH3 0xF8 JUMPI PUSH1 0x0 DUP1 REVERT JUMPDEST POP JUMP JUMPDEST PUSH1 0x0 DUP2 MLOAD SWAP1 POP PUSH3 0x10C DUP2 PUSH3 0xE1 JUMP JUMPDEST SWAP3 SWAP2 POP POP JUMP JUMPDEST PUSH1 0x0 DUP2 SWAP1 POP SWAP2 SWAP1 POP JUMP JUMPDEST PUSH3 0x127 DUP2 PUSH3 0x112 JUMP JUMPDEST DUP2 EQ PUSH3 0x133 JUMPI PUSH1 0x0 DUP1 REVERT JUMPDEST POP JUMP JUMPDEST PUSH1 0x0 DUP2 MLOAD SWAP1 POP PUSH3 0x147 DUP2 PUSH3 0x11C JUMP JUMPDEST SWAP3 SWAP2 POP POP JUMP JUMPDEST PUSH1 0x0 DUP1 PUSH1 0x40 DUP4 DUP6 SUB SLT ISZERO PUSH3 0x167 JUMPI PUSH3 0x166 PUSH3 0xA8 JUMP JUMPDEST JUMPDEST PUSH1 0x0 PUSH3 0x177 DUP6 DUP3 DUP7 ADD PUSH3 0xFB JUMP JUMPDEST SWAP3 POP POP PUSH1 0x20 PUSH3 0x18A DUP6 DUP3 DUP7 ADD PUSH3 0x136 JUMP JUMPDEST SWAP2 POP POP SWAP3 POP SWAP3 SWAP1 POP JUMP JUMPDEST PUSH2 0xCE8 DUP1 PUSH3 0x1A4 PUSH1 0x0 CODECOPY PUSH1 0x0 RETURN INVALID PUSH1 0x80 PUSH1 0x40 MSTORE PUSH1 0x4 CALLDATASIZE LT PUSH2 0x70 JUMPI PUSH1 0x0 CALLDATALOAD PUSH1 0xE0 SHR DUP1 PUSH4 0x5EED3DCB GT PUSH2 0x4E JUMPI DUP1 PUSH4 0x5EED3DCB EQ PUSH2 0xE3 JUMPI DUP1 PUSH4 0x8BF963B6 EQ PUSH2 0x120 JUMPI DUP1 PUSH4 0x8D68CF59 EQ PUSH2 0x137 JUMPI DUP1 PUSH4 0xED88C68E EQ PUSH2 0x14E JUMPI PUSH2 0x70 JUMP JUMPDEST DUP1 PUSH4 0x1C829DED EQ PUSH2 0x75 JUMPI DUP1 PUSH4 0x1EB5EA2E EQ PUSH2 0x8C JUMPI DUP1 PUSH4 0x27E235E3 EQ PUSH2 0xA3 JUMPI JUMPDEST PUSH1 0x0 DUP1 REVERT JUMPDEST CALLVALUE DUP1 ISZERO PUSH2 0x81 JUMPI PUSH1 0x0 DUP1 REVERT JUMPDEST POP PUSH2 0x8A PUSH2 0x158 JUMP JUMPDEST STOP JUMPDEST CALLVALUE DUP1 ISZERO PUSH2 0x98 JUMPI PUSH1 0x0 DUP1 REVERT JUMPDEST POP PUSH2 0xA1 PUSH2 0x226 JUMP JUMPDEST STOP JUMPDEST CALLVALUE DUP1 ISZERO PUSH2 0xAF JUMPI PUSH1 0x0 DUP1 REVERT JUMPDEST POP PUSH2 0xCA PUSH1 0x4 DUP1 CALLDATASIZE SUB DUP2 ADD SWAP1 PUSH2 0xC5 SWAP2 SWAP1 PUSH2 0x96A JUMP JUMPDEST PUSH2 0x56D JUMP JUMPDEST PUSH1 0x40 MLOAD PUSH2 0xDA SWAP5 SWAP4 SWAP3 SWAP2 SWAP1 PUSH2 0x9B0 JUMP JUMPDEST PUSH1 0x40 MLOAD DUP1 SWAP2 SUB SWAP1 RETURN JUMPDEST CALLVALUE DUP1 ISZERO PUSH2 0xEF JUMPI PUSH1 0x0 DUP1 REVERT JUMPDEST POP PUSH2 0x10A PUSH1 0x4 DUP1 CALLDATASIZE SUB DUP2 ADD SWAP1 PUSH2 0x105 SWAP2 SWAP1 PUSH2 0xA21 JUMP JUMPDEST PUSH2 0x59D JUMP JUMPDEST PUSH1 0x40 MLOAD PUSH2 0x117 SWAP2 SWAP1 PUSH2 0xA6F JUMP JUMPDEST PUSH1 0x40 MLOAD DUP1 SWAP2 SUB SWAP1 RETURN JUMPDEST CALLVALUE DUP1 ISZERO PUSH2 0x12C JUMPI PUSH1 0x0 DUP1 REVERT JUMPDEST POP PUSH2 0x135 PUSH2 0x5DC JUMP JUMPDEST STOP JUMPDEST CALLVALUE DUP1 ISZERO PUSH2 0x143 JUMPI PUSH1 0x0 DUP1 REVERT JUMPDEST POP PUSH2 0x14C PUSH2 0x667 JUMP JUMPDEST STOP JUMPDEST PUSH2 0x156 PUSH2 0x75A JUMP JUMPDEST STOP JUMPDEST PUSH3 0x93A80 PUSH1 0x3 SLOAD PUSH2 0x169 SWAP2 SWAP1 PUSH2 0xAB9 JUMP JUMPDEST PUSH1 0x2 SLOAD PUSH2 0x176 SWAP2 SWAP1 PUSH2 0xB13 JUMP JUMPDEST TIMESTAMP LT ISZERO DUP1 ISZERO PUSH2 0x198 JUMPI POP PUSH1 0x1 ISZERO ISZERO PUSH1 0x4 PUSH1 0x0 SWAP1 SLOAD SWAP1 PUSH2 0x100 EXP SWAP1 DIV PUSH1 0xFF AND ISZERO ISZERO EQ JUMPDEST ISZERO PUSH2 0x1D6 JUMPI PUSH1 0x0 DUP1 SLOAD SWAP1 PUSH2 0x100 EXP SWAP1 DIV PUSH20 0xFFFFFFFFFFFFFFFFFFFFFFFFFFFFFFFFFFFFFFFF AND PUSH20 0xFFFFFFFFFFFFFFFFFFFFFFFFFFFFFFFFFFFFFFFF AND SELFDESTRUCT JUMPDEST PUSH3 0x93A80 PUSH1 0x3 SLOAD PUSH2 0x1E7 SWAP2 SWAP1 PUSH2 0xAB9 JUMP JUMPDEST PUSH1 0x2 SLOAD PUSH2 0x1F4 SWAP2 SWAP1 PUSH2 0xB13 JUMP JUMPDEST TIMESTAMP LT ISZERO DUP1 ISZERO PUSH2 0x216 JUMPI POP PUSH1 0x0 ISZERO ISZERO PUSH1 0x4 PUSH1 0x0 SWAP1 SLOAD SWAP1 PUSH2 0x100 EXP SWAP1 DIV PUSH1 0xFF AND ISZERO ISZERO EQ JUMPDEST ISZERO PUSH2 0x224 JUMPI PUSH2 0x223 PUSH2 0x226 JUMP JUMPDEST JUMPDEST JUMP JUMPDEST PUSH1 0x0 JUMPDEST PUSH1 0x1 PUSH1 0x6 DUP1 SLOAD SWAP1 POP PUSH2 0x23B SWAP2 SWAP1 PUSH2 0xB47 JUMP JUMPDEST DUP2 GT PUSH2 0x56A JUMPI PUSH1 0x0 DUP1 PUSH1 0x5 PUSH1 0x0 PUSH1 0x6 DUP6 DUP2 SLOAD DUP2 LT PUSH2 0x25C JUMPI PUSH2 0x25B PUSH2 0xB7B JUMP JUMPDEST JUMPDEST SWAP1 PUSH1 0x0 MSTORE PUSH1 0x20 PUSH1 0x0 KECCAK256 ADD PUSH1 0x0 SWAP1 SLOAD SWAP1 PUSH2 0x100 EXP SWAP1 DIV PUSH20 0xFFFFFFFFFFFFFFFFFFFFFFFFFFFFFFFFFFFFFFFF AND PUSH20 0xFFFFFFFFFFFFFFFFFFFFFFFFFFFFFFFFFFFFFFFF AND PUSH20 0xFFFFFFFFFFFFFFFFFFFFFFFFFFFFFFFFFFFFFFFF AND DUP2 MSTORE PUSH1 0x20 ADD SWAP1 DUP2 MSTORE PUSH1 0x20 ADD PUSH1 0x0 KECCAK256 PUSH1 0x2 ADD SLOAD GT ISZERO PUSH2 0x556 JUMPI PUSH1 0x5 PUSH1 0x0 PUSH1 0x6 DUP5 DUP2 SLOAD DUP2 LT PUSH2 0x2E3 JUMPI PUSH2 0x2E2 PUSH2 0xB7B JUMP JUMPDEST JUMPDEST SWAP1 PUSH1 0x0 MSTORE PUSH1 0x20 PUSH1 0x0 KECCAK256 ADD PUSH1 0x0 SWAP1 SLOAD SWAP1 PUSH2 0x100 EXP SWAP1 DIV PUSH20 0xFFFFFFFFFFFFFFFFFFFFFFFFFFFFFFFFFFFFFFFF AND PUSH20 0xFFFFFFFFFFFFFFFFFFFFFFFFFFFFFFFFFFFFFFFF AND PUSH20 0xFFFFFFFFFFFFFFFFFFFFFFFFFFFFFFFFFFFFFFFF AND DUP2 MSTORE PUSH1 0x20 ADD SWAP1 DUP2 MSTORE PUSH1 0x20 ADD PUSH1 0x0 KECCAK256 PUSH1 0x2 ADD SLOAD SWAP1 POP PUSH1 0x6 DUP3 DUP2 SLOAD DUP2 LT PUSH2 0x362 JUMPI PUSH2 0x361 PUSH2 0xB7B JUMP JUMPDEST JUMPDEST SWAP1 PUSH1 0x0 MSTORE PUSH1 0x20 PUSH1 0x0 KECCAK256 ADD PUSH1 0x0 SWAP1 SLOAD SWAP1 PUSH2 0x100 EXP SWAP1 DIV PUSH20 0xFFFFFFFFFFFFFFFFFFFFFFFFFFFFFFFFFFFFFFFF AND PUSH20 0xFFFFFFFFFFFFFFFFFFFFFFFFFFFFFFFFFFFFFFFF AND PUSH2 0x8FC DUP3 SWAP1 DUP2 ISZERO MUL SWAP1 PUSH1 0x40 MLOAD PUSH1 0x0 PUSH1 0x40 MLOAD DUP1 DUP4 SUB DUP2 DUP6 DUP9 DUP9 CALL SWAP4 POP POP POP POP ISZERO DUP1 ISZERO PUSH2 0x3D2 JUMPI RETURNDATASIZE PUSH1 0x0 DUP1 RETURNDATACOPY RETURNDATASIZE PUSH1 0x0 REVERT JUMPDEST POP DUP1 PUSH1 0x5 PUSH1 0x0 PUSH1 0x6 DUP6 DUP2 SLOAD DUP2 LT PUSH2 0x3EC JUMPI PUSH2 0x3EB PUSH2 0xB7B JUMP JUMPDEST JUMPDEST SWAP1 PUSH1 0x0 MSTORE PUSH1 0x20 PUSH1 0x0 KECCAK256 ADD PUSH1 0x0 SWAP1 SLOAD SWAP1 PUSH2 0x100 EXP SWAP1 DIV PUSH20 0xFFFFFFFFFFFFFFFFFFFFFFFFFFFFFFFFFFFFFFFF AND PUSH20 0xFFFFFFFFFFFFFFFFFFFFFFFFFFFFFFFFFFFFFFFF AND PUSH20 0xFFFFFFFFFFFFFFFFFFFFFFFFFFFFFFFFFFFFFFFF AND DUP2 MSTORE PUSH1 0x20 ADD SWAP1 DUP2 MSTORE PUSH1 0x20 ADD PUSH1 0x0 KECCAK256 PUSH1 0x1 ADD DUP2 SWAP1 SSTORE POP PUSH1 0x0 PUSH1 0x5 PUSH1 0x0 PUSH1 0x6 DUP6 DUP2 SLOAD DUP2 LT PUSH2 0x472 JUMPI PUSH2 0x471 PUSH2 0xB7B JUMP JUMPDEST JUMPDEST SWAP1 PUSH1 0x0 MSTORE PUSH1 0x20 PUSH1 0x0 KECCAK256 ADD PUSH1 0x0 SWAP1 SLOAD SWAP1 PUSH2 0x100 EXP SWAP1 DIV PUSH20 0xFFFFFFFFFFFFFFFFFFFFFFFFFFFFFFFFFFFFFFFF AND PUSH20 0xFFFFFFFFFFFFFFFFFFFFFFFFFFFFFFFFFFFFFFFF AND PUSH20 0xFFFFFFFFFFFFFFFFFFFFFFFFFFFFFFFFFFFFFFFF AND DUP2 MSTORE PUSH1 0x20 ADD SWAP1 DUP2 MSTORE PUSH1 0x20 ADD PUSH1 0x0 KECCAK256 PUSH1 0x2 ADD DUP2 SWAP1 SSTORE POP PUSH32 0xE0E5873EB9D996D2AB087B071A9A50522121C02B43308C8728C06739F52B3F87 PUSH1 0x6 DUP4 DUP2 SLOAD DUP2 LT PUSH2 0x513 JUMPI PUSH2 0x512 PUSH2 0xB7B JUMP JUMPDEST JUMPDEST SWAP1 PUSH1 0x0 MSTORE PUSH1 0x20 PUSH1 0x0 KECCAK256 ADD PUSH1 0x0 SWAP1 SLOAD SWAP1 PUSH2 0x100 EXP SWAP1 DIV PUSH20 0xFFFFFFFFFFFFFFFFFFFFFFFFFFFFFFFFFFFFFFFF AND DUP3 PUSH1 0x40 MLOAD PUSH2 0x54D SWAP3 SWAP2 SWAP1 PUSH2 0xC09 JUMP JUMPDEST PUSH1 0x40 MLOAD DUP1 SWAP2 SUB SWAP1 LOG1 JUMPDEST POP DUP1 DUP1 PUSH2 0x562 SWAP1 PUSH2 0xC32 JUMP JUMPDEST SWAP2 POP POP PUSH2 0x229 JUMP JUMPDEST POP JUMP JUMPDEST PUSH1 0x5 PUSH1 0x20 MSTORE DUP1 PUSH1 0x0 MSTORE PUSH1 0x40 PUSH1 0x0 KECCAK256 PUSH1 0x0 SWAP2 POP SWAP1 POP DUP1 PUSH1 0x0 ADD SLOAD SWAP1 DUP1 PUSH1 0x1 ADD SLOAD SWAP1 DUP1 PUSH1 0x2 ADD SLOAD SWAP1 DUP1 PUSH1 0x3 ADD SLOAD SWAP1 POP DUP5 JUMP JUMPDEST PUSH1 0x6 DUP2 DUP2 SLOAD DUP2 LT PUSH2 0x5AD JUMPI PUSH1 0x0 DUP1 REVERT JUMPDEST SWAP1 PUSH1 0x0 MSTORE PUSH1 0x20 PUSH1 0x0 KECCAK256 ADD PUSH1 0x0 SWAP2 POP SLOAD SWAP1 PUSH2 0x100 EXP SWAP1 DIV PUSH20 0xFFFFFFFFFFFFFFFFFFFFFFFFFFFFFFFFFFFFFFFF AND DUP2 JUMP JUMPDEST CALLER PUSH20 0xFFFFFFFFFFFFFFFFFFFFFFFFFFFFFFFFFFFFFFFF AND PUSH2 0x8FC PUSH1 0x5 PUSH1 0x0 CALLER PUSH20 0xFFFFFFFFFFFFFFFFFFFFFFFFFFFFFFFFFFFFFFFF AND PUSH20 0xFFFFFFFFFFFFFFFFFFFFFFFFFFFFFFFFFFFFFFFF AND DUP2 MSTORE PUSH1 0x20 ADD SWAP1 DUP2 MSTORE PUSH1 0x20 ADD PUSH1 0x0 KECCAK256 PUSH1 0x2 ADD SLOAD SWAP1 DUP2 ISZERO MUL SWAP1 PUSH1 0x40 MLOAD PUSH1 0x0 PUSH1 0x40 MLOAD DUP1 DUP4 SUB DUP2 DUP6 DUP9 DUP9 CALL SWAP4 POP POP POP POP ISZERO DUP1 ISZERO PUSH2 0x664 JUMPI RETURNDATASIZE PUSH1 0x0 DUP1 RETURNDATACOPY RETURNDATASIZE PUSH1 0x0 REVERT JUMPDEST POP JUMP JUMPDEST PUSH1 0x0 DUP1 SLOAD SWAP1 PUSH2 0x100 EXP SWAP1 DIV PUSH20 0xFFFFFFFFFFFFFFFFFFFFFFFFFFFFFFFFFFFFFFFF AND PUSH20 0xFFFFFFFFFFFFFFFFFFFFFFFFFFFFFFFFFFFFFFFF AND PUSH2 0x8FC PUSH1 0x5 PUSH1 0x0 CALLER PUSH20 0xFFFFFFFFFFFFFFFFFFFFFFFFFFFFFFFFFFFFFFFF AND PUSH20 0xFFFFFFFFFFFFFFFFFFFFFFFFFFFFFFFFFFFFFFFF AND DUP2 MSTORE PUSH1 0x20 ADD SWAP1 DUP2 MSTORE PUSH1 0x20 ADD PUSH1 0x0 KECCAK256 PUSH1 0x0 ADD SLOAD SWAP1 DUP2 ISZERO MUL SWAP1 PUSH1 0x40 MLOAD PUSH1 0x0 PUSH1 0x40 MLOAD DUP1 DUP4 SUB DUP2 DUP6 DUP9 DUP9 CALL SWAP4 POP POP POP POP ISZERO DUP1 ISZERO PUSH2 0x70F JUMPI RETURNDATASIZE PUSH1 0x0 DUP1 RETURNDATACOPY RETURNDATASIZE PUSH1 0x0 REVERT JUMPDEST POP PUSH1 0x0 PUSH1 0x5 PUSH1 0x0 CALLER PUSH20 0xFFFFFFFFFFFFFFFFFFFFFFFFFFFFFFFFFFFFFFFF AND PUSH20 0xFFFFFFFFFFFFFFFFFFFFFFFFFFFFFFFFFFFFFFFF AND DUP2 MSTORE PUSH1 0x20 ADD SWAP1 DUP2 MSTORE PUSH1 0x20 ADD PUSH1 0x0 KECCAK256 PUSH1 0x2 ADD DUP2 SWAP1 SSTORE POP JUMP JUMPDEST CALLVALUE PUSH1 0x5 PUSH1 0x0 CALLER PUSH20 0xFFFFFFFFFFFFFFFFFFFFFFFFFFFFFFFFFFFFFFFF AND PUSH20 0xFFFFFFFFFFFFFFFFFFFFFFFFFFFFFFFFFFFFFFFF AND DUP2 MSTORE PUSH1 0x20 ADD SWAP1 DUP2 MSTORE PUSH1 0x20 ADD PUSH1 0x0 KECCAK256 PUSH1 0x0 ADD PUSH1 0x0 DUP3 DUP3 SLOAD PUSH2 0x7AC SWAP2 SWAP1 PUSH2 0xB13 JUMP JUMPDEST SWAP3 POP POP DUP2 SWAP1 SSTORE POP CALLVALUE PUSH1 0x5 PUSH1 0x0 CALLER PUSH20 0xFFFFFFFFFFFFFFFFFFFFFFFFFFFFFFFFFFFFFFFF AND PUSH20 0xFFFFFFFFFFFFFFFFFFFFFFFFFFFFFFFFFFFFFFFF AND DUP2 MSTORE PUSH1 0x20 ADD SWAP1 DUP2 MSTORE PUSH1 0x20 ADD PUSH1 0x0 KECCAK256 PUSH1 0x2 ADD PUSH1 0x0 DUP3 DUP3 SLOAD PUSH2 0x805 SWAP2 SWAP1 PUSH2 0xB13 JUMP JUMPDEST SWAP3 POP POP DUP2 SWAP1 SSTORE POP PUSH1 0x1 PUSH1 0x0 DUP2 SLOAD DUP1 SWAP3 SWAP2 SWAP1 PUSH2 0x81F SWAP1 PUSH2 0xC32 JUMP JUMPDEST SWAP2 SWAP1 POP SSTORE PUSH1 0x5 PUSH1 0x0 CALLER PUSH20 0xFFFFFFFFFFFFFFFFFFFFFFFFFFFFFFFFFFFFFFFF AND PUSH20 0xFFFFFFFFFFFFFFFFFFFFFFFFFFFFFFFFFFFFFFFF AND DUP2 MSTORE PUSH1 0x20 ADD SWAP1 DUP2 MSTORE PUSH1 0x20 ADD PUSH1 0x0 KECCAK256 PUSH1 0x3 ADD DUP2 SWAP1 SSTORE POP PUSH1 0x6 CALLER SWAP1 DUP1 PUSH1 0x1 DUP2 SLOAD ADD DUP1 DUP3 SSTORE DUP1 SWAP2 POP POP PUSH1 0x1 SWAP1 SUB SWAP1 PUSH1 0x0 MSTORE PUSH1 0x20 PUSH1 0x0 KECCAK256 ADD PUSH1 0x0 SWAP1 SWAP2 SWAP1 SWAP2 SWAP1 SWAP2 PUSH2 0x100 EXP DUP2 SLOAD DUP2 PUSH20 0xFFFFFFFFFFFFFFFFFFFFFFFFFFFFFFFFFFFFFFFF MUL NOT AND SWAP1 DUP4 PUSH20 0xFFFFFFFFFFFFFFFFFFFFFFFFFFFFFFFFFFFFFFFF AND MUL OR SWAP1 SSTORE POP PUSH32 0x81D2C188629CC4A1C694D285150CB5FA3DDE3157A2684460D3AC7A1E331F6164 CALLER CALLVALUE PUSH1 0x40 MLOAD PUSH2 0x8FD SWAP3 SWAP2 SWAP1 PUSH2 0xC89 JUMP JUMPDEST PUSH1 0x40 MLOAD DUP1 SWAP2 SUB SWAP1 LOG1 JUMP JUMPDEST PUSH1 0x0 DUP1 REVERT JUMPDEST PUSH1 0x0 PUSH20 0xFFFFFFFFFFFFFFFFFFFFFFFFFFFFFFFFFFFFFFFF DUP3 AND SWAP1 POP SWAP2 SWAP1 POP JUMP JUMPDEST PUSH1 0x0 PUSH2 0x937 DUP3 PUSH2 0x90C JUMP JUMPDEST SWAP1 POP SWAP2 SWAP1 POP JUMP JUMPDEST PUSH2 0x947 DUP2 PUSH2 0x92C JUMP JUMPDEST DUP2 EQ PUSH2 0x952 JUMPI PUSH1 0x0 DUP1 REVERT JUMPDEST POP JUMP JUMPDEST PUSH1 0x0 DUP2 CALLDATALOAD SWAP1 POP PUSH2 0x964 DUP2 PUSH2 0x93E JUMP JUMPDEST SWAP3 SWAP2 POP POP JUMP JUMPDEST PUSH1 0x0 PUSH1 0x20 DUP3 DUP5 SUB SLT ISZERO PUSH2 0x980 JUMPI PUSH2 0x97F PUSH2 0x907 JUMP JUMPDEST JUMPDEST PUSH1 0x0 PUSH2 0x98E DUP5 DUP3 DUP6 ADD PUSH2 0x955 JUMP JUMPDEST SWAP2 POP POP SWAP3 SWAP2 POP POP JUMP JUMPDEST PUSH1 0x0 DUP2 SWAP1 POP SWAP2 SWAP1 POP JUMP JUMPDEST PUSH2 0x9AA DUP2 PUSH2 0x997 JUMP JUMPDEST DUP3 MSTORE POP POP JUMP JUMPDEST PUSH1 0x0 PUSH1 0x80 DUP3 ADD SWAP1 POP PUSH2 0x9C5 PUSH1 0x0 DUP4 ADD DUP8 PUSH2 0x9A1 JUMP JUMPDEST PUSH2 0x9D2 PUSH1 0x20 DUP4 ADD DUP7 PUSH2 0x9A1 JUMP JUMPDEST PUSH2 0x9DF PUSH1 0x40 DUP4 ADD DUP6 PUSH2 0x9A1 JUMP JUMPDEST PUSH2 0x9EC PUSH1 0x60 DUP4 ADD DUP5 PUSH2 0x9A1 JUMP JUMPDEST SWAP6 SWAP5 POP POP POP POP POP JUMP JUMPDEST PUSH2 0x9FE DUP2 PUSH2 0x997 JUMP JUMPDEST DUP2 EQ PUSH2 0xA09 JUMPI PUSH1 0x0 DUP1 REVERT JUMPDEST POP JUMP JUMPDEST PUSH1 0x0 DUP2 CALLDATALOAD SWAP1 POP PUSH2 0xA1B DUP2 PUSH2 0x9F5 JUMP JUMPDEST SWAP3 SWAP2 POP POP JUMP JUMPDEST PUSH1 0x0 PUSH1 0x20 DUP3 DUP5 SUB SLT ISZERO PUSH2 0xA37 JUMPI PUSH2 0xA36 PUSH2 0x907 JUMP JUMPDEST JUMPDEST PUSH1 0x0 PUSH2 0xA45 DUP5 DUP3 DUP6 ADD PUSH2 0xA0C JUMP JUMPDEST SWAP2 POP POP SWAP3 SWAP2 POP POP JUMP JUMPDEST PUSH1 0x0 PUSH2 0xA59 DUP3 PUSH2 0x90C JUMP JUMPDEST SWAP1 POP SWAP2 SWAP1 POP JUMP JUMPDEST PUSH2 0xA69 DUP2 PUSH2 0xA4E JUMP JUMPDEST DUP3 MSTORE POP POP JUMP JUMPDEST PUSH1 0x0 PUSH1 0x20 DUP3 ADD SWAP1 POP PUSH2 0xA84 PUSH1 0x0 DUP4 ADD DUP5 PUSH2 0xA60 JUMP JUMPDEST SWAP3 SWAP2 POP POP JUMP JUMPDEST PUSH32 0x4E487B7100000000000000000000000000000000000000000000000000000000 PUSH1 0x0 MSTORE PUSH1 0x11 PUSH1 0x4 MSTORE PUSH1 0x24 PUSH1 0x0 REVERT JUMPDEST PUSH1 0x0 PUSH2 0xAC4 DUP3 PUSH2 0x997 JUMP JUMPDEST SWAP2 POP PUSH2 0xACF DUP4 PUSH2 0x997 JUMP JUMPDEST SWAP3 POP DUP2 PUSH32 0xFFFFFFFFFFFFFFFFFFFFFFFFFFFFFFFFFFFFFFFFFFFFFFFFFFFFFFFFFFFFFFFF DIV DUP4 GT DUP3 ISZERO ISZERO AND ISZERO PUSH2 0xB08 JUMPI PUSH2 0xB07 PUSH2 0xA8A JUMP JUMPDEST JUMPDEST DUP3 DUP3 MUL SWAP1 POP SWAP3 SWAP2 POP POP JUMP JUMPDEST PUSH1 0x0 PUSH2 0xB1E DUP3 PUSH2 0x997 JUMP JUMPDEST SWAP2 POP PUSH2 0xB29 DUP4 PUSH2 0x997 JUMP JUMPDEST SWAP3 POP DUP3 DUP3 ADD SWAP1 POP DUP1 DUP3 GT ISZERO PUSH2 0xB41 JUMPI PUSH2 0xB40 PUSH2 0xA8A JUMP JUMPDEST JUMPDEST SWAP3 SWAP2 POP POP JUMP JUMPDEST PUSH1 0x0 PUSH2 0xB52 DUP3 PUSH2 0x997 JUMP JUMPDEST SWAP2 POP PUSH2 0xB5D DUP4 PUSH2 0x997 JUMP JUMPDEST SWAP3 POP DUP3 DUP3 SUB SWAP1 POP DUP2 DUP2 GT ISZERO PUSH2 0xB75 JUMPI PUSH2 0xB74 PUSH2 0xA8A JUMP JUMPDEST JUMPDEST SWAP3 SWAP2 POP POP JUMP JUMPDEST PUSH32 0x4E487B7100000000000000000000000000000000000000000000000000000000 PUSH1 0x0 MSTORE PUSH1 0x32 PUSH1 0x4 MSTORE PUSH1 0x24 PUSH1 0x0 REVERT JUMPDEST PUSH1 0x0 DUP2 SWAP1 POP SWAP2 SWAP1 POP JUMP JUMPDEST PUSH1 0x0 PUSH2 0xBCF PUSH2 0xBCA PUSH2 0xBC5 DUP5 PUSH2 0x90C JUMP JUMPDEST PUSH2 0xBAA JUMP JUMPDEST PUSH2 0x90C JUMP JUMPDEST SWAP1 POP SWAP2 SWAP1 POP JUMP JUMPDEST PUSH1 0x0 PUSH2 0xBE1 DUP3 PUSH2 0xBB4 JUMP JUMPDEST SWAP1 POP SWAP2 SWAP1 POP JUMP JUMPDEST PUSH1 0x0 PUSH2 0xBF3 DUP3 PUSH2 0xBD6 JUMP JUMPDEST SWAP1 POP SWAP2 SWAP1 POP JUMP JUMPDEST PUSH2 0xC03 DUP2 PUSH2 0xBE8 JUMP JUMPDEST DUP3 MSTORE POP POP JUMP JUMPDEST PUSH1 0x0 PUSH1 0x40 DUP3 ADD SWAP1 POP PUSH2 0xC1E PUSH1 0x0 DUP4 ADD DUP6 PUSH2 0xBFA JUMP JUMPDEST PUSH2 0xC2B PUSH1 0x20 DUP4 ADD DUP5 PUSH2 0x9A1 JUMP JUMPDEST SWAP4 SWAP3 POP POP POP JUMP JUMPDEST PUSH1 0x0 PUSH2 0xC3D DUP3 PUSH2 0x997 JUMP JUMPDEST SWAP2 POP PUSH32 0xFFFFFFFFFFFFFFFFFFFFFFFFFFFFFFFFFFFFFFFFFFFFFFFFFFFFFFFFFFFFFFFF DUP3 SUB PUSH2 0xC6F JUMPI PUSH2 0xC6E PUSH2 0xA8A JUMP JUMPDEST JUMPDEST PUSH1 0x1 DUP3 ADD SWAP1 POP SWAP2 SWAP1 POP JUMP JUMPDEST PUSH2 0xC83 DUP2 PUSH2 0x92C JUMP JUMPDEST DUP3 MSTORE POP POP JUMP JUMPDEST PUSH1 0x0 PUSH1 0x40 DUP3 ADD SWAP1 POP PUSH2 0xC9E PUSH1 0x0 DUP4 ADD DUP6 PUSH2 0xC7A JUMP JUMPDEST PUSH2 0xCAB PUSH1 0x20 DUP4 ADD DUP5 PUSH2 0x9A1 JUMP JUMPDEST SWAP4 SWAP3 POP POP POP JUMP INVALID LOG2 PUSH5 0x6970667358 0x22 SLT KECCAK256 0xCA 0xF9 0xD4 0xF6 PUSH32 0x99DD684424157243743D28DDBC2A879B2B595B50DE1BFB52A3AAF064736F6C63 NUMBER STOP ADDMOD LT STOP CALLER "
				},
				"gasEstimates": {
					"creation": {
						"codeDepositCost": "660800",
						"executionCost": "infinite",
						"totalCost": "infinite"
					},
					"external": {
						"balances(address)": "infinite",
						"donate()": "infinite",
						"donorList(uint256)": "4956",
						"returnFunds()": "infinite",
						"sendFunds()": "infinite",
						"singleRefund()": "infinite",
						"timeExpired()": "infinite"
					}
				},
				"methodIdentifiers": {
					"balances(address)": "27e235e3",
					"donate()": "ed88c68e",
					"donorList(uint256)": "5eed3dcb",
					"returnFunds()": "1eb5ea2e",
					"sendFunds()": "8d68cf59",
					"singleRefund()": "8bf963b6",
					"timeExpired()": "1c829ded"
				}
			},
			"storageLayout": {
				"storage": [
					{
						"astId": 3,
						"contract": "contracts/senior project.sol:MyContract",
						"label": "wallet",
						"offset": 0,
						"slot": "0",
						"type": "t_address_payable"
					},
					{
						"astId": 5,
						"contract": "contracts/senior project.sol:MyContract",
						"label": "Dcounter",
						"offset": 0,
						"slot": "1",
						"type": "t_uint256"
					},
					{
						"astId": 7,
						"contract": "contracts/senior project.sol:MyContract",
						"label": "deployDate",
						"offset": 0,
						"slot": "2",
						"type": "t_uint256"
					},
					{
						"astId": 9,
						"contract": "contracts/senior project.sol:MyContract",
						"label": "deadline",
						"offset": 0,
						"slot": "3",
						"type": "t_uint256"
					},
					{
						"astId": 12,
						"contract": "contracts/senior project.sol:MyContract",
						"label": "approved",
						"offset": 0,
						"slot": "4",
						"type": "t_bool"
					},
					{
						"astId": 47,
						"contract": "contracts/senior project.sol:MyContract",
						"label": "balances",
						"offset": 0,
						"slot": "5",
						"type": "t_mapping(t_address,t_struct(donor)42_storage)"
					},
					{
						"astId": 50,
						"contract": "contracts/senior project.sol:MyContract",
						"label": "donorList",
						"offset": 0,
						"slot": "6",
						"type": "t_array(t_address_payable)dyn_storage"
					}
				],
				"types": {
					"t_address": {
						"encoding": "inplace",
						"label": "address",
						"numberOfBytes": "20"
					},
					"t_address_payable": {
						"encoding": "inplace",
						"label": "address payable",
						"numberOfBytes": "20"
					},
					"t_array(t_address_payable)dyn_storage": {
						"base": "t_address_payable",
						"encoding": "dynamic_array",
						"label": "address payable[]",
						"numberOfBytes": "32"
					},
					"t_bool": {
						"encoding": "inplace",
						"label": "bool",
						"numberOfBytes": "1"
					},
					"t_mapping(t_address,t_struct(donor)42_storage)": {
						"encoding": "mapping",
						"key": "t_address",
						"label": "mapping(address => struct MyContract.donor)",
						"numberOfBytes": "32",
						"value": "t_struct(donor)42_storage"
					},
					"t_struct(donor)42_storage": {
						"encoding": "inplace",
						"label": "struct MyContract.donor",
						"members": [
							{
								"astId": 35,
								"contract": "contracts/senior project.sol:MyContract",
								"label": "totalDono",
								"offset": 0,
								"slot": "0",
								"type": "t_uint256"
							},
							{
								"astId": 37,
								"contract": "contracts/senior project.sol:MyContract",
								"label": "returnedDono",
								"offset": 0,
								"slot": "1",
								"type": "t_uint256"
							},
							{
								"astId": 39,
								"contract": "contracts/senior project.sol:MyContract",
								"label": "returnable",
								"offset": 0,
								"slot": "2",
								"type": "t_uint256"
							},
							{
								"astId": 41,
								"contract": "contracts/senior project.sol:MyContract",
								"label": "donorListPointer",
								"offset": 0,
								"slot": "3",
								"type": "t_uint256"
							}
						],
						"numberOfBytes": "128"
					},
					"t_uint256": {
						"encoding": "inplace",
						"label": "uint256",
						"numberOfBytes": "32"
					}
				}
			},
			"userdoc": {
				"kind": "user",
				"methods": {},
				"version": 1
			}
		}
	}
}