{
	"contracts/senior project.sol": {
		"MyContract": {
			"abi": [
				{
					"inputs": [
						{
							"internalType": "address payable",
							"name": "_wallet",
							"type": "address"
						}
					],
					"stateMutability": "nonpayable",
					"type": "constructor"
				},
				{
					"anonymous": false,
					"inputs": [
						{
							"indexed": false,
							"internalType": "address",
							"name": "sender",
							"type": "address"
						},
						{
							"indexed": false,
							"internalType": "uint256",
							"name": "amount",
							"type": "uint256"
						}
					],
					"name": "LogReceivedFunds",
					"type": "event"
				},
				{
					"anonymous": false,
					"inputs": [
						{
							"indexed": false,
							"internalType": "address",
							"name": "recipient",
							"type": "address"
						},
						{
							"indexed": false,
							"internalType": "uint256",
							"name": "amount",
							"type": "uint256"
						}
					],
					"name": "LogReturnedFunds",
					"type": "event"
				},
				{
					"inputs": [
						{
							"internalType": "address",
							"name": "",
							"type": "address"
						}
					],
					"name": "balances",
					"outputs": [
						{
							"internalType": "address",
							"name": "donorAddress",
							"type": "address"
						},
						{
							"internalType": "uint256",
							"name": "totalDono",
							"type": "uint256"
						},
						{
							"internalType": "uint256",
							"name": "returnedDono",
							"type": "uint256"
						},
						{
							"internalType": "uint256",
							"name": "donorListPointer",
							"type": "uint256"
						}
					],
					"stateMutability": "view",
					"type": "function"
				},
				{
					"inputs": [],
					"name": "donate",
					"outputs": [],
					"stateMutability": "payable",
					"type": "function"
				},
				{
					"inputs": [
						{
							"internalType": "uint256",
							"name": "",
							"type": "uint256"
						}
					],
					"name": "donorList",
					"outputs": [
						{
							"internalType": "address",
							"name": "",
							"type": "address"
						}
					],
					"stateMutability": "view",
					"type": "function"
				},
				{
					"inputs": [],
					"name": "getDonorCount",
					"outputs": [
						{
							"internalType": "uint256",
							"name": "donorCount",
							"type": "uint256"
						}
					],
					"stateMutability": "nonpayable",
					"type": "function"
				},
				{
					"inputs": [],
					"name": "returnFunds",
					"outputs": [],
					"stateMutability": "payable",
					"type": "function"
				},
				{
					"inputs": [],
					"name": "sendFunds",
					"outputs": [],
					"stateMutability": "nonpayable",
					"type": "function"
				}
			],
			"devdoc": {
				"kind": "dev",
				"methods": {},
				"version": 1
			},
			"evm": {
				"assembly": "    /* \"contracts/senior project.sol\":62:1643  contract MyContract{... */\n  mstore(0x40, 0x80)\n    /* \"contracts/senior project.sol\":145:218  constructor (address payable _wallet) {... */\n  callvalue\n  dup1\n  iszero\n  tag_1\n  jumpi\n  0x00\n  dup1\n  revert\ntag_1:\n  pop\n  mload(0x40)\n  sub(codesize, bytecodeSize)\n  dup1\n  bytecodeSize\n  dup4\n  codecopy\n  dup2\n  dup2\n  add\n  0x40\n  mstore\n  dup2\n  add\n  swap1\n  tag_2\n  swap2\n  swap1\n  tag_3\n  jump\t// in\ntag_2:\n    /* \"contracts/senior project.sol\":203:210  _wallet */\n  dup1\n    /* \"contracts/senior project.sol\":194:200  wallet */\n  0x00\n  dup1\n    /* \"contracts/senior project.sol\":194:210  wallet = _wallet */\n  0x0100\n  exp\n  dup2\n  sload\n  dup2\n  0xffffffffffffffffffffffffffffffffffffffff\n  mul\n  not\n  and\n  swap1\n  dup4\n  0xffffffffffffffffffffffffffffffffffffffff\n  and\n  mul\n  or\n  swap1\n  sstore\n  pop\n    /* \"contracts/senior project.sol\":145:218  constructor (address payable _wallet) {... */\n  pop\n    /* \"contracts/senior project.sol\":62:1643  contract MyContract{... */\n  jump(tag_6)\n    /* \"#utility.yul\":88:205   */\ntag_8:\n    /* \"#utility.yul\":197:198   */\n  0x00\n    /* \"#utility.yul\":194:195   */\n  dup1\n    /* \"#utility.yul\":187:199   */\n  revert\n    /* \"#utility.yul\":334:460   */\ntag_10:\n    /* \"#utility.yul\":371:378   */\n  0x00\n    /* \"#utility.yul\":411:453   */\n  0xffffffffffffffffffffffffffffffffffffffff\n    /* \"#utility.yul\":404:409   */\n  dup3\n    /* \"#utility.yul\":400:454   */\n  and\n    /* \"#utility.yul\":389:454   */\n  swap1\n  pop\n    /* \"#utility.yul\":334:460   */\n  swap2\n  swap1\n  pop\n  jump\t// out\n    /* \"#utility.yul\":466:570   */\ntag_11:\n    /* \"#utility.yul\":511:518   */\n  0x00\n    /* \"#utility.yul\":540:564   */\n  tag_20\n    /* \"#utility.yul\":558:563   */\n  dup3\n    /* \"#utility.yul\":540:564   */\n  tag_10\n  jump\t// in\ntag_20:\n    /* \"#utility.yul\":529:564   */\n  swap1\n  pop\n    /* \"#utility.yul\":466:570   */\n  swap2\n  swap1\n  pop\n  jump\t// out\n    /* \"#utility.yul\":576:714   */\ntag_12:\n    /* \"#utility.yul\":657:689   */\n  tag_22\n    /* \"#utility.yul\":683:688   */\n  dup2\n    /* \"#utility.yul\":657:689   */\n  tag_11\n  jump\t// in\ntag_22:\n    /* \"#utility.yul\":650:655   */\n  dup2\n    /* \"#utility.yul\":647:690   */\n  eq\n    /* \"#utility.yul\":637:708   */\n  tag_23\n  jumpi\n    /* \"#utility.yul\":704:705   */\n  0x00\n    /* \"#utility.yul\":701:702   */\n  dup1\n    /* \"#utility.yul\":694:706   */\n  revert\n    /* \"#utility.yul\":637:708   */\ntag_23:\n    /* \"#utility.yul\":576:714   */\n  pop\n  jump\t// out\n    /* \"#utility.yul\":720:879   */\ntag_13:\n    /* \"#utility.yul\":785:790   */\n  0x00\n    /* \"#utility.yul\":816:822   */\n  dup2\n    /* \"#utility.yul\":810:823   */\n  mload\n    /* \"#utility.yul\":801:823   */\n  swap1\n  pop\n    /* \"#utility.yul\":832:873   */\n  tag_25\n    /* \"#utility.yul\":867:872   */\n  dup2\n    /* \"#utility.yul\":832:873   */\n  tag_12\n  jump\t// in\ntag_25:\n    /* \"#utility.yul\":720:879   */\n  swap3\n  swap2\n  pop\n  pop\n  jump\t// out\n    /* \"#utility.yul\":885:1252   */\ntag_3:\n    /* \"#utility.yul\":963:969   */\n  0x00\n    /* \"#utility.yul\":1012:1014   */\n  0x20\n    /* \"#utility.yul\":1000:1009   */\n  dup3\n    /* \"#utility.yul\":991:998   */\n  dup5\n    /* \"#utility.yul\":987:1010   */\n  sub\n    /* \"#utility.yul\":983:1015   */\n  slt\n    /* \"#utility.yul\":980:1099   */\n  iszero\n  tag_27\n  jumpi\n    /* \"#utility.yul\":1018:1097   */\n  tag_28\n  tag_8\n  jump\t// in\ntag_28:\n    /* \"#utility.yul\":980:1099   */\ntag_27:\n    /* \"#utility.yul\":1138:1139   */\n  0x00\n    /* \"#utility.yul\":1163:1235   */\n  tag_29\n    /* \"#utility.yul\":1227:1234   */\n  dup5\n    /* \"#utility.yul\":1218:1224   */\n  dup3\n    /* \"#utility.yul\":1207:1216   */\n  dup6\n    /* \"#utility.yul\":1203:1225   */\n  add\n    /* \"#utility.yul\":1163:1235   */\n  tag_13\n  jump\t// in\ntag_29:\n    /* \"#utility.yul\":1153:1235   */\n  swap2\n  pop\n    /* \"#utility.yul\":1109:1245   */\n  pop\n    /* \"#utility.yul\":885:1252   */\n  swap3\n  swap2\n  pop\n  pop\n  jump\t// out\n    /* \"contracts/senior project.sol\":62:1643  contract MyContract{... */\ntag_6:\n  dataSize(sub_0)\n  dup1\n  dataOffset(sub_0)\n  0x00\n  codecopy\n  0x00\n  return\nstop\n\nsub_0: assembly {\n        /* \"contracts/senior project.sol\":62:1643  contract MyContract{... */\n      mstore(0x40, 0x80)\n      jumpi(tag_1, lt(calldatasize, 0x04))\n      shr(0xe0, calldataload(0x00))\n      dup1\n      0x1eb5ea2e\n      eq\n      tag_2\n      jumpi\n      dup1\n      0x27e235e3\n      eq\n      tag_3\n      jumpi\n      dup1\n      0x5eed3dcb\n      eq\n      tag_4\n      jumpi\n      dup1\n      0x69bc2f1e\n      eq\n      tag_5\n      jumpi\n      dup1\n      0x8d68cf59\n      eq\n      tag_6\n      jumpi\n      dup1\n      0xed88c68e\n      eq\n      tag_7\n      jumpi\n    tag_1:\n      0x00\n      dup1\n      revert\n        /* \"contracts/senior project.sol\":1301:1638  function returnFunds() public payable{... */\n    tag_2:\n      tag_8\n      tag_9\n      jump\t// in\n    tag_8:\n      stop\n        /* \"contracts/senior project.sol\":386:427  mapping(address => donor) public balances */\n    tag_3:\n      callvalue\n      dup1\n      iszero\n      tag_10\n      jumpi\n      0x00\n      dup1\n      revert\n    tag_10:\n      pop\n      tag_11\n      0x04\n      dup1\n      calldatasize\n      sub\n      dup2\n      add\n      swap1\n      tag_12\n      swap2\n      swap1\n      tag_13\n      jump\t// in\n    tag_12:\n      tag_14\n      jump\t// in\n    tag_11:\n      mload(0x40)\n      tag_15\n      swap5\n      swap4\n      swap3\n      swap2\n      swap1\n      tag_16\n      jump\t// in\n    tag_15:\n      mload(0x40)\n      dup1\n      swap2\n      sub\n      swap1\n      return\n        /* \"contracts/senior project.sol\":434:460  address[] public donorList */\n    tag_4:\n      callvalue\n      dup1\n      iszero\n      tag_17\n      jumpi\n      0x00\n      dup1\n      revert\n    tag_17:\n      pop\n      tag_18\n      0x04\n      dup1\n      calldatasize\n      sub\n      dup2\n      add\n      swap1\n      tag_19\n      swap2\n      swap1\n      tag_20\n      jump\t// in\n    tag_19:\n      tag_21\n      jump\t// in\n    tag_18:\n      mload(0x40)\n      tag_22\n      swap2\n      swap1\n      tag_23\n      jump\t// in\n    tag_22:\n      mload(0x40)\n      dup1\n      swap2\n      sub\n      swap1\n      return\n        /* \"contracts/senior project.sol\":590:711  function getDonorCount()... */\n    tag_5:\n      callvalue\n      dup1\n      iszero\n      tag_24\n      jumpi\n      0x00\n      dup1\n      revert\n    tag_24:\n      pop\n      tag_25\n      tag_26\n      jump\t// in\n    tag_25:\n      mload(0x40)\n      tag_27\n      swap2\n      swap1\n      tag_28\n      jump\t// in\n    tag_27:\n      mload(0x40)\n      dup1\n      swap2\n      sub\n      swap1\n      return\n        /* \"contracts/senior project.sol\":1088:1230  function sendFunds () public{... */\n    tag_6:\n      callvalue\n      dup1\n      iszero\n      tag_29\n      jumpi\n      0x00\n      dup1\n      revert\n    tag_29:\n      pop\n      tag_30\n      tag_31\n      jump\t// in\n    tag_30:\n      stop\n        /* \"contracts/senior project.sol\":725:1016  function donate() public payable{... */\n    tag_7:\n      tag_32\n      tag_33\n      jump\t// in\n    tag_32:\n      stop\n        /* \"contracts/senior project.sol\":1301:1638  function returnFunds() public payable{... */\n    tag_9:\n        /* \"contracts/senior project.sol\":1353:1359  uint i */\n      0x00\n        /* \"contracts/senior project.sol\":1349:1576  for(uint i=0; i<donorList.length - 1; i++){... */\n    tag_35:\n        /* \"contracts/senior project.sol\":1384:1385  1 */\n      0x01\n        /* \"contracts/senior project.sol\":1365:1374  donorList */\n      0x03\n        /* \"contracts/senior project.sol\":1365:1381  donorList.length */\n      dup1\n      sload\n      swap1\n      pop\n        /* \"contracts/senior project.sol\":1365:1385  donorList.length - 1 */\n      tag_38\n      swap2\n      swap1\n      tag_39\n      jump\t// in\n    tag_38:\n        /* \"contracts/senior project.sol\":1363:1364  i */\n      dup2\n        /* \"contracts/senior project.sol\":1363:1385  i<donorList.length - 1 */\n      lt\n        /* \"contracts/senior project.sol\":1349:1576  for(uint i=0; i<donorList.length - 1; i++){... */\n      iszero\n      tag_36\n      jumpi\n        /* \"contracts/senior project.sol\":1486:1494  balances */\n      0x02\n        /* \"contracts/senior project.sol\":1486:1506  balances[msg.sender] */\n      0x00\n        /* \"contracts/senior project.sol\":1495:1505  msg.sender */\n      caller\n        /* \"contracts/senior project.sol\":1486:1506  balances[msg.sender] */\n      0xffffffffffffffffffffffffffffffffffffffff\n      and\n      0xffffffffffffffffffffffffffffffffffffffff\n      and\n      dup2\n      mstore\n      0x20\n      add\n      swap1\n      dup2\n      mstore\n      0x20\n      add\n      0x00\n      keccak256\n        /* \"contracts/senior project.sol\":1486:1516  balances[msg.sender].totalDono */\n      0x01\n      add\n      sload\n        /* \"contracts/senior project.sol\":1447:1455  balances */\n      0x02\n        /* \"contracts/senior project.sol\":1447:1469  balances[donorList[i]] */\n      0x00\n        /* \"contracts/senior project.sol\":1456:1465  donorList */\n      0x03\n        /* \"contracts/senior project.sol\":1466:1467  i */\n      dup5\n        /* \"contracts/senior project.sol\":1456:1468  donorList[i] */\n      dup2\n      sload\n      dup2\n      lt\n      tag_40\n      jumpi\n      tag_41\n      tag_42\n      jump\t// in\n    tag_41:\n    tag_40:\n      swap1\n      0x00\n      mstore\n      keccak256(0x00, 0x20)\n      add\n      0x00\n      swap1\n      sload\n      swap1\n      0x0100\n      exp\n      swap1\n      div\n      0xffffffffffffffffffffffffffffffffffffffff\n      and\n        /* \"contracts/senior project.sol\":1447:1469  balances[donorList[i]] */\n      0xffffffffffffffffffffffffffffffffffffffff\n      and\n      0xffffffffffffffffffffffffffffffffffffffff\n      and\n      dup2\n      mstore\n      0x20\n      add\n      swap1\n      dup2\n      mstore\n      0x20\n      add\n      0x00\n      keccak256\n        /* \"contracts/senior project.sol\":1447:1482  balances[donorList[i]].returnedDono */\n      0x02\n      add\n      0x00\n        /* \"contracts/senior project.sol\":1447:1516  balances[donorList[i]].returnedDono += balances[msg.sender].totalDono */\n      dup3\n      dup3\n      sload\n      tag_44\n      swap2\n      swap1\n      tag_45\n      jump\t// in\n    tag_44:\n      swap3\n      pop\n      pop\n      dup2\n      swap1\n      sstore\n      pop\n        /* \"contracts/senior project.sol\":1563:1564  0 */\n      0x00\n        /* \"contracts/senior project.sol\":1527:1535  balances */\n      0x02\n        /* \"contracts/senior project.sol\":1527:1549  balances[donorList[i]] */\n      0x00\n        /* \"contracts/senior project.sol\":1536:1545  donorList */\n      0x03\n        /* \"contracts/senior project.sol\":1546:1547  i */\n      dup5\n        /* \"contracts/senior project.sol\":1536:1548  donorList[i] */\n      dup2\n      sload\n      dup2\n      lt\n      tag_46\n      jumpi\n      tag_47\n      tag_42\n      jump\t// in\n    tag_47:\n    tag_46:\n      swap1\n      0x00\n      mstore\n      keccak256(0x00, 0x20)\n      add\n      0x00\n      swap1\n      sload\n      swap1\n      0x0100\n      exp\n      swap1\n      div\n      0xffffffffffffffffffffffffffffffffffffffff\n      and\n        /* \"contracts/senior project.sol\":1527:1549  balances[donorList[i]] */\n      0xffffffffffffffffffffffffffffffffffffffff\n      and\n      0xffffffffffffffffffffffffffffffffffffffff\n      and\n      dup2\n      mstore\n      0x20\n      add\n      swap1\n      dup2\n      mstore\n      0x20\n      add\n      0x00\n      keccak256\n        /* \"contracts/senior project.sol\":1527:1559  balances[donorList[i]].totalDono */\n      pop\n        /* \"contracts/senior project.sol\":1527:1564  balances[donorList[i]].totalDono == 0 */\n      pop\n        /* \"contracts/senior project.sol\":1387:1390  i++ */\n      dup1\n      dup1\n      tag_49\n      swap1\n      tag_50\n      jump\t// in\n    tag_49:\n      swap2\n      pop\n      pop\n        /* \"contracts/senior project.sol\":1349:1576  for(uint i=0; i<donorList.length - 1; i++){... */\n      jump(tag_35)\n    tag_36:\n      pop\n        /* \"contracts/senior project.sol\":1591:1630  LogReturnedFunds(msg.sender, msg.value) */\n      0xe0e5873eb9d996d2ab087b071a9a50522121c02b43308c8728c06739f52b3f87\n        /* \"contracts/senior project.sol\":1608:1618  msg.sender */\n      caller\n        /* \"contracts/senior project.sol\":1620:1629  msg.value */\n      callvalue\n        /* \"contracts/senior project.sol\":1591:1630  LogReturnedFunds(msg.sender, msg.value) */\n      mload(0x40)\n      tag_51\n      swap3\n      swap2\n      swap1\n      tag_52\n      jump\t// in\n    tag_51:\n      mload(0x40)\n      dup1\n      swap2\n      sub\n      swap1\n      log1\n        /* \"contracts/senior project.sol\":1301:1638  function returnFunds() public payable{... */\n      jump\t// out\n        /* \"contracts/senior project.sol\":386:427  mapping(address => donor) public balances */\n    tag_14:\n      mstore(0x20, 0x02)\n      dup1\n      0x00\n      mstore\n      keccak256(0x00, 0x40)\n      0x00\n      swap2\n      pop\n      swap1\n      pop\n      dup1\n      0x00\n      add\n      0x00\n      swap1\n      sload\n      swap1\n      0x0100\n      exp\n      swap1\n      div\n      0xffffffffffffffffffffffffffffffffffffffff\n      and\n      swap1\n      dup1\n      0x01\n      add\n      sload\n      swap1\n      dup1\n      0x02\n      add\n      sload\n      swap1\n      dup1\n      0x03\n      add\n      sload\n      swap1\n      pop\n      dup5\n      jump\t// out\n        /* \"contracts/senior project.sol\":434:460  address[] public donorList */\n    tag_21:\n      0x03\n      dup2\n      dup2\n      sload\n      dup2\n      lt\n      tag_53\n      jumpi\n      0x00\n      dup1\n      revert\n    tag_53:\n      swap1\n      0x00\n      mstore\n      keccak256(0x00, 0x20)\n      add\n      0x00\n      swap2\n      pop\n      sload\n      swap1\n      0x0100\n      exp\n      swap1\n      div\n      0xffffffffffffffffffffffffffffffffffffffff\n      and\n      dup2\n      jump\t// out\n        /* \"contracts/senior project.sol\":590:711  function getDonorCount()... */\n    tag_26:\n        /* \"contracts/senior project.sol\":649:664  uint donorCount */\n      0x00\n        /* \"contracts/senior project.sol\":683:692  donorList */\n      0x03\n        /* \"contracts/senior project.sol\":683:699  donorList.length */\n      dup1\n      sload\n      swap1\n      pop\n        /* \"contracts/senior project.sol\":676:699  return donorList.length */\n      swap1\n      pop\n        /* \"contracts/senior project.sol\":590:711  function getDonorCount()... */\n      swap1\n      jump\t// out\n        /* \"contracts/senior project.sol\":1088:1230  function sendFunds () public{... */\n    tag_31:\n        /* \"contracts/senior project.sol\":1127:1133  wallet */\n      0x00\n      dup1\n      sload\n      swap1\n      0x0100\n      exp\n      swap1\n      div\n      0xffffffffffffffffffffffffffffffffffffffff\n      and\n        /* \"contracts/senior project.sol\":1127:1142  wallet.transfer */\n      0xffffffffffffffffffffffffffffffffffffffff\n      and\n        /* \"contracts/senior project.sol\":1127:1174  wallet.transfer(balances[msg.sender].totalDono) */\n      0x08fc\n        /* \"contracts/senior project.sol\":1143:1151  balances */\n      0x02\n        /* \"contracts/senior project.sol\":1143:1163  balances[msg.sender] */\n      0x00\n        /* \"contracts/senior project.sol\":1152:1162  msg.sender */\n      caller\n        /* \"contracts/senior project.sol\":1143:1163  balances[msg.sender] */\n      0xffffffffffffffffffffffffffffffffffffffff\n      and\n      0xffffffffffffffffffffffffffffffffffffffff\n      and\n      dup2\n      mstore\n      0x20\n      add\n      swap1\n      dup2\n      mstore\n      0x20\n      add\n      0x00\n      keccak256\n        /* \"contracts/senior project.sol\":1143:1173  balances[msg.sender].totalDono */\n      0x01\n      add\n      sload\n        /* \"contracts/senior project.sol\":1127:1174  wallet.transfer(balances[msg.sender].totalDono) */\n      swap1\n      dup2\n      iszero\n      mul\n      swap1\n      mload(0x40)\n      0x00\n      mload(0x40)\n      dup1\n      dup4\n      sub\n      dup2\n      dup6\n      dup9\n      dup9\n      call\n      swap4\n      pop\n      pop\n      pop\n      pop\n      iszero\n      dup1\n      iszero\n      tag_58\n      jumpi\n      returndatasize\n      0x00\n      dup1\n      returndatacopy\n      revert(0x00, returndatasize)\n    tag_58:\n      pop\n        /* \"contracts/senior project.sol\":1088:1230  function sendFunds () public{... */\n      jump\t// out\n        /* \"contracts/senior project.sol\":725:1016  function donate() public payable{... */\n    tag_33:\n        /* \"contracts/senior project.sol\":802:811  msg.value */\n      callvalue\n        /* \"contracts/senior project.sol\":768:776  balances */\n      0x02\n        /* \"contracts/senior project.sol\":768:788  balances[msg.sender] */\n      0x00\n        /* \"contracts/senior project.sol\":777:787  msg.sender */\n      caller\n        /* \"contracts/senior project.sol\":768:788  balances[msg.sender] */\n      0xffffffffffffffffffffffffffffffffffffffff\n      and\n      0xffffffffffffffffffffffffffffffffffffffff\n      and\n      dup2\n      mstore\n      0x20\n      add\n      swap1\n      dup2\n      mstore\n      0x20\n      add\n      0x00\n      keccak256\n        /* \"contracts/senior project.sol\":768:798  balances[msg.sender].totalDono */\n      0x01\n      add\n      0x00\n        /* \"contracts/senior project.sol\":768:811  balances[msg.sender].totalDono += msg.value */\n      dup3\n      dup3\n      sload\n      tag_60\n      swap2\n      swap1\n      tag_45\n      jump\t// in\n    tag_60:\n      swap3\n      pop\n      pop\n      dup2\n      swap1\n      sstore\n      pop\n        /* \"contracts/senior project.sol\":862:870  Dcounter */\n      0x01\n      0x00\n        /* \"contracts/senior project.sol\":862:872  Dcounter++ */\n      dup2\n      sload\n      dup1\n      swap3\n      swap2\n      swap1\n      tag_61\n      swap1\n      tag_50\n      jump\t// in\n    tag_61:\n      swap2\n      swap1\n      pop\n      sstore\n        /* \"contracts/senior project.sol\":822:830  balances */\n      0x02\n        /* \"contracts/senior project.sol\":822:842  balances[msg.sender] */\n      0x00\n        /* \"contracts/senior project.sol\":831:841  msg.sender */\n      caller\n        /* \"contracts/senior project.sol\":822:842  balances[msg.sender] */\n      0xffffffffffffffffffffffffffffffffffffffff\n      and\n      0xffffffffffffffffffffffffffffffffffffffff\n      and\n      dup2\n      mstore\n      0x20\n      add\n      swap1\n      dup2\n      mstore\n      0x20\n      add\n      0x00\n      keccak256\n        /* \"contracts/senior project.sol\":822:859  balances[msg.sender].donorListPointer */\n      0x03\n      add\n        /* \"contracts/senior project.sol\":822:872  balances[msg.sender].donorListPointer = Dcounter++ */\n      dup2\n      swap1\n      sstore\n      pop\n        /* \"contracts/senior project.sol\":883:891  balances */\n      0x02\n        /* \"contracts/senior project.sol\":883:903  balances[msg.sender] */\n      0x00\n        /* \"contracts/senior project.sol\":892:902  msg.sender */\n      caller\n        /* \"contracts/senior project.sol\":883:903  balances[msg.sender] */\n      0xffffffffffffffffffffffffffffffffffffffff\n      and\n      0xffffffffffffffffffffffffffffffffffffffff\n      and\n      dup2\n      mstore\n      0x20\n      add\n      swap1\n      dup2\n      mstore\n      0x20\n      add\n      0x00\n      keccak256\n        /* \"contracts/senior project.sol\":883:916  balances[msg.sender].donorAddress */\n      0x00\n      add\n      0x00\n      swap1\n      sload\n      swap1\n      0x0100\n      exp\n      swap1\n      pop\n      pop\n        /* \"contracts/senior project.sol\":927:936  donorList */\n      0x03\n        /* \"contracts/senior project.sol\":942:952  msg.sender */\n      caller\n        /* \"contracts/senior project.sol\":927:953  donorList.push(msg.sender) */\n      swap1\n      dup1\n      0x01\n      dup2\n      sload\n      add\n      dup1\n      dup3\n      sstore\n      dup1\n      swap2\n      pop\n      pop\n      0x01\n      swap1\n      sub\n      swap1\n      0x00\n      mstore\n      keccak256(0x00, 0x20)\n      add\n      0x00\n      swap1\n      swap2\n      swap1\n      swap2\n      swap1\n      swap2\n      0x0100\n      exp\n      dup2\n      sload\n      dup2\n      0xffffffffffffffffffffffffffffffffffffffff\n      mul\n      not\n      and\n      swap1\n      dup4\n      0xffffffffffffffffffffffffffffffffffffffff\n      and\n      mul\n      or\n      swap1\n      sstore\n      pop\n        /* \"contracts/senior project.sol\":969:1008  LogReceivedFunds(msg.sender, msg.value) */\n      0x81d2c188629cc4a1c694d285150cb5fa3dde3157a2684460d3ac7a1e331f6164\n        /* \"contracts/senior project.sol\":986:996  msg.sender */\n      caller\n        /* \"contracts/senior project.sol\":998:1007  msg.value */\n      callvalue\n        /* \"contracts/senior project.sol\":969:1008  LogReceivedFunds(msg.sender, msg.value) */\n      mload(0x40)\n      tag_63\n      swap3\n      swap2\n      swap1\n      tag_52\n      jump\t// in\n    tag_63:\n      mload(0x40)\n      dup1\n      swap2\n      sub\n      swap1\n      log1\n        /* \"contracts/senior project.sol\":725:1016  function donate() public payable{... */\n      jump\t// out\n        /* \"#utility.yul\":88:205   */\n    tag_65:\n        /* \"#utility.yul\":197:198   */\n      0x00\n        /* \"#utility.yul\":194:195   */\n      dup1\n        /* \"#utility.yul\":187:199   */\n      revert\n        /* \"#utility.yul\":334:460   */\n    tag_67:\n        /* \"#utility.yul\":371:378   */\n      0x00\n        /* \"#utility.yul\":411:453   */\n      0xffffffffffffffffffffffffffffffffffffffff\n        /* \"#utility.yul\":404:409   */\n      dup3\n        /* \"#utility.yul\":400:454   */\n      and\n        /* \"#utility.yul\":389:454   */\n      swap1\n      pop\n        /* \"#utility.yul\":334:460   */\n      swap2\n      swap1\n      pop\n      jump\t// out\n        /* \"#utility.yul\":466:562   */\n    tag_68:\n        /* \"#utility.yul\":503:510   */\n      0x00\n        /* \"#utility.yul\":532:556   */\n      tag_83\n        /* \"#utility.yul\":550:555   */\n      dup3\n        /* \"#utility.yul\":532:556   */\n      tag_67\n      jump\t// in\n    tag_83:\n        /* \"#utility.yul\":521:556   */\n      swap1\n      pop\n        /* \"#utility.yul\":466:562   */\n      swap2\n      swap1\n      pop\n      jump\t// out\n        /* \"#utility.yul\":568:690   */\n    tag_69:\n        /* \"#utility.yul\":641:665   */\n      tag_85\n        /* \"#utility.yul\":659:664   */\n      dup2\n        /* \"#utility.yul\":641:665   */\n      tag_68\n      jump\t// in\n    tag_85:\n        /* \"#utility.yul\":634:639   */\n      dup2\n        /* \"#utility.yul\":631:666   */\n      eq\n        /* \"#utility.yul\":621:684   */\n      tag_86\n      jumpi\n        /* \"#utility.yul\":680:681   */\n      0x00\n        /* \"#utility.yul\":677:678   */\n      dup1\n        /* \"#utility.yul\":670:682   */\n      revert\n        /* \"#utility.yul\":621:684   */\n    tag_86:\n        /* \"#utility.yul\":568:690   */\n      pop\n      jump\t// out\n        /* \"#utility.yul\":696:835   */\n    tag_70:\n        /* \"#utility.yul\":742:747   */\n      0x00\n        /* \"#utility.yul\":780:786   */\n      dup2\n        /* \"#utility.yul\":767:787   */\n      calldataload\n        /* \"#utility.yul\":758:787   */\n      swap1\n      pop\n        /* \"#utility.yul\":796:829   */\n      tag_88\n        /* \"#utility.yul\":823:828   */\n      dup2\n        /* \"#utility.yul\":796:829   */\n      tag_69\n      jump\t// in\n    tag_88:\n        /* \"#utility.yul\":696:835   */\n      swap3\n      swap2\n      pop\n      pop\n      jump\t// out\n        /* \"#utility.yul\":841:1170   */\n    tag_13:\n        /* \"#utility.yul\":900:906   */\n      0x00\n        /* \"#utility.yul\":949:951   */\n      0x20\n        /* \"#utility.yul\":937:946   */\n      dup3\n        /* \"#utility.yul\":928:935   */\n      dup5\n        /* \"#utility.yul\":924:947   */\n      sub\n        /* \"#utility.yul\":920:952   */\n      slt\n        /* \"#utility.yul\":917:1036   */\n      iszero\n      tag_90\n      jumpi\n        /* \"#utility.yul\":955:1034   */\n      tag_91\n      tag_65\n      jump\t// in\n    tag_91:\n        /* \"#utility.yul\":917:1036   */\n    tag_90:\n        /* \"#utility.yul\":1075:1076   */\n      0x00\n        /* \"#utility.yul\":1100:1153   */\n      tag_92\n        /* \"#utility.yul\":1145:1152   */\n      dup5\n        /* \"#utility.yul\":1136:1142   */\n      dup3\n        /* \"#utility.yul\":1125:1134   */\n      dup6\n        /* \"#utility.yul\":1121:1143   */\n      add\n        /* \"#utility.yul\":1100:1153   */\n      tag_70\n      jump\t// in\n    tag_92:\n        /* \"#utility.yul\":1090:1153   */\n      swap2\n      pop\n        /* \"#utility.yul\":1046:1163   */\n      pop\n        /* \"#utility.yul\":841:1170   */\n      swap3\n      swap2\n      pop\n      pop\n      jump\t// out\n        /* \"#utility.yul\":1176:1294   */\n    tag_71:\n        /* \"#utility.yul\":1263:1287   */\n      tag_94\n        /* \"#utility.yul\":1281:1286   */\n      dup2\n        /* \"#utility.yul\":1263:1287   */\n      tag_68\n      jump\t// in\n    tag_94:\n        /* \"#utility.yul\":1258:1261   */\n      dup3\n        /* \"#utility.yul\":1251:1288   */\n      mstore\n        /* \"#utility.yul\":1176:1294   */\n      pop\n      pop\n      jump\t// out\n        /* \"#utility.yul\":1300:1377   */\n    tag_72:\n        /* \"#utility.yul\":1337:1344   */\n      0x00\n        /* \"#utility.yul\":1366:1371   */\n      dup2\n        /* \"#utility.yul\":1355:1371   */\n      swap1\n      pop\n        /* \"#utility.yul\":1300:1377   */\n      swap2\n      swap1\n      pop\n      jump\t// out\n        /* \"#utility.yul\":1383:1501   */\n    tag_73:\n        /* \"#utility.yul\":1470:1494   */\n      tag_97\n        /* \"#utility.yul\":1488:1493   */\n      dup2\n        /* \"#utility.yul\":1470:1494   */\n      tag_72\n      jump\t// in\n    tag_97:\n        /* \"#utility.yul\":1465:1468   */\n      dup3\n        /* \"#utility.yul\":1458:1495   */\n      mstore\n        /* \"#utility.yul\":1383:1501   */\n      pop\n      pop\n      jump\t// out\n        /* \"#utility.yul\":1507:2060   */\n    tag_16:\n        /* \"#utility.yul\":1684:1688   */\n      0x00\n        /* \"#utility.yul\":1722:1725   */\n      0x80\n        /* \"#utility.yul\":1711:1720   */\n      dup3\n        /* \"#utility.yul\":1707:1726   */\n      add\n        /* \"#utility.yul\":1699:1726   */\n      swap1\n      pop\n        /* \"#utility.yul\":1736:1807   */\n      tag_99\n        /* \"#utility.yul\":1804:1805   */\n      0x00\n        /* \"#utility.yul\":1793:1802   */\n      dup4\n        /* \"#utility.yul\":1789:1806   */\n      add\n        /* \"#utility.yul\":1780:1786   */\n      dup8\n        /* \"#utility.yul\":1736:1807   */\n      tag_71\n      jump\t// in\n    tag_99:\n        /* \"#utility.yul\":1817:1889   */\n      tag_100\n        /* \"#utility.yul\":1885:1887   */\n      0x20\n        /* \"#utility.yul\":1874:1883   */\n      dup4\n        /* \"#utility.yul\":1870:1888   */\n      add\n        /* \"#utility.yul\":1861:1867   */\n      dup7\n        /* \"#utility.yul\":1817:1889   */\n      tag_73\n      jump\t// in\n    tag_100:\n        /* \"#utility.yul\":1899:1971   */\n      tag_101\n        /* \"#utility.yul\":1967:1969   */\n      0x40\n        /* \"#utility.yul\":1956:1965   */\n      dup4\n        /* \"#utility.yul\":1952:1970   */\n      add\n        /* \"#utility.yul\":1943:1949   */\n      dup6\n        /* \"#utility.yul\":1899:1971   */\n      tag_73\n      jump\t// in\n    tag_101:\n        /* \"#utility.yul\":1981:2053   */\n      tag_102\n        /* \"#utility.yul\":2049:2051   */\n      0x60\n        /* \"#utility.yul\":2038:2047   */\n      dup4\n        /* \"#utility.yul\":2034:2052   */\n      add\n        /* \"#utility.yul\":2025:2031   */\n      dup5\n        /* \"#utility.yul\":1981:2053   */\n      tag_73\n      jump\t// in\n    tag_102:\n        /* \"#utility.yul\":1507:2060   */\n      swap6\n      swap5\n      pop\n      pop\n      pop\n      pop\n      pop\n      jump\t// out\n        /* \"#utility.yul\":2066:2188   */\n    tag_74:\n        /* \"#utility.yul\":2139:2163   */\n      tag_104\n        /* \"#utility.yul\":2157:2162   */\n      dup2\n        /* \"#utility.yul\":2139:2163   */\n      tag_72\n      jump\t// in\n    tag_104:\n        /* \"#utility.yul\":2132:2137   */\n      dup2\n        /* \"#utility.yul\":2129:2164   */\n      eq\n        /* \"#utility.yul\":2119:2182   */\n      tag_105\n      jumpi\n        /* \"#utility.yul\":2178:2179   */\n      0x00\n        /* \"#utility.yul\":2175:2176   */\n      dup1\n        /* \"#utility.yul\":2168:2180   */\n      revert\n        /* \"#utility.yul\":2119:2182   */\n    tag_105:\n        /* \"#utility.yul\":2066:2188   */\n      pop\n      jump\t// out\n        /* \"#utility.yul\":2194:2333   */\n    tag_75:\n        /* \"#utility.yul\":2240:2245   */\n      0x00\n        /* \"#utility.yul\":2278:2284   */\n      dup2\n        /* \"#utility.yul\":2265:2285   */\n      calldataload\n        /* \"#utility.yul\":2256:2285   */\n      swap1\n      pop\n        /* \"#utility.yul\":2294:2327   */\n      tag_107\n        /* \"#utility.yul\":2321:2326   */\n      dup2\n        /* \"#utility.yul\":2294:2327   */\n      tag_74\n      jump\t// in\n    tag_107:\n        /* \"#utility.yul\":2194:2333   */\n      swap3\n      swap2\n      pop\n      pop\n      jump\t// out\n        /* \"#utility.yul\":2339:2668   */\n    tag_20:\n        /* \"#utility.yul\":2398:2404   */\n      0x00\n        /* \"#utility.yul\":2447:2449   */\n      0x20\n        /* \"#utility.yul\":2435:2444   */\n      dup3\n        /* \"#utility.yul\":2426:2433   */\n      dup5\n        /* \"#utility.yul\":2422:2445   */\n      sub\n        /* \"#utility.yul\":2418:2450   */\n      slt\n        /* \"#utility.yul\":2415:2534   */\n      iszero\n      tag_109\n      jumpi\n        /* \"#utility.yul\":2453:2532   */\n      tag_110\n      tag_65\n      jump\t// in\n    tag_110:\n        /* \"#utility.yul\":2415:2534   */\n    tag_109:\n        /* \"#utility.yul\":2573:2574   */\n      0x00\n        /* \"#utility.yul\":2598:2651   */\n      tag_111\n        /* \"#utility.yul\":2643:2650   */\n      dup5\n        /* \"#utility.yul\":2634:2640   */\n      dup3\n        /* \"#utility.yul\":2623:2632   */\n      dup6\n        /* \"#utility.yul\":2619:2641   */\n      add\n        /* \"#utility.yul\":2598:2651   */\n      tag_75\n      jump\t// in\n    tag_111:\n        /* \"#utility.yul\":2588:2651   */\n      swap2\n      pop\n        /* \"#utility.yul\":2544:2661   */\n      pop\n        /* \"#utility.yul\":2339:2668   */\n      swap3\n      swap2\n      pop\n      pop\n      jump\t// out\n        /* \"#utility.yul\":2674:2896   */\n    tag_23:\n        /* \"#utility.yul\":2767:2771   */\n      0x00\n        /* \"#utility.yul\":2805:2807   */\n      0x20\n        /* \"#utility.yul\":2794:2803   */\n      dup3\n        /* \"#utility.yul\":2790:2808   */\n      add\n        /* \"#utility.yul\":2782:2808   */\n      swap1\n      pop\n        /* \"#utility.yul\":2818:2889   */\n      tag_113\n        /* \"#utility.yul\":2886:2887   */\n      0x00\n        /* \"#utility.yul\":2875:2884   */\n      dup4\n        /* \"#utility.yul\":2871:2888   */\n      add\n        /* \"#utility.yul\":2862:2868   */\n      dup5\n        /* \"#utility.yul\":2818:2889   */\n      tag_71\n      jump\t// in\n    tag_113:\n        /* \"#utility.yul\":2674:2896   */\n      swap3\n      swap2\n      pop\n      pop\n      jump\t// out\n        /* \"#utility.yul\":2902:3124   */\n    tag_28:\n        /* \"#utility.yul\":2995:2999   */\n      0x00\n        /* \"#utility.yul\":3033:3035   */\n      0x20\n        /* \"#utility.yul\":3022:3031   */\n      dup3\n        /* \"#utility.yul\":3018:3036   */\n      add\n        /* \"#utility.yul\":3010:3036   */\n      swap1\n      pop\n        /* \"#utility.yul\":3046:3117   */\n      tag_115\n        /* \"#utility.yul\":3114:3115   */\n      0x00\n        /* \"#utility.yul\":3103:3112   */\n      dup4\n        /* \"#utility.yul\":3099:3116   */\n      add\n        /* \"#utility.yul\":3090:3096   */\n      dup5\n        /* \"#utility.yul\":3046:3117   */\n      tag_73\n      jump\t// in\n    tag_115:\n        /* \"#utility.yul\":2902:3124   */\n      swap3\n      swap2\n      pop\n      pop\n      jump\t// out\n        /* \"#utility.yul\":3130:3310   */\n    tag_76:\n        /* \"#utility.yul\":3178:3255   */\n      0x4e487b7100000000000000000000000000000000000000000000000000000000\n        /* \"#utility.yul\":3175:3176   */\n      0x00\n        /* \"#utility.yul\":3168:3256   */\n      mstore\n        /* \"#utility.yul\":3275:3279   */\n      0x11\n        /* \"#utility.yul\":3272:3273   */\n      0x04\n        /* \"#utility.yul\":3265:3280   */\n      mstore\n        /* \"#utility.yul\":3299:3303   */\n      0x24\n        /* \"#utility.yul\":3296:3297   */\n      0x00\n        /* \"#utility.yul\":3289:3304   */\n      revert\n        /* \"#utility.yul\":3316:3510   */\n    tag_39:\n        /* \"#utility.yul\":3356:3360   */\n      0x00\n        /* \"#utility.yul\":3376:3396   */\n      tag_118\n        /* \"#utility.yul\":3394:3395   */\n      dup3\n        /* \"#utility.yul\":3376:3396   */\n      tag_72\n      jump\t// in\n    tag_118:\n        /* \"#utility.yul\":3371:3396   */\n      swap2\n      pop\n        /* \"#utility.yul\":3410:3430   */\n      tag_119\n        /* \"#utility.yul\":3428:3429   */\n      dup4\n        /* \"#utility.yul\":3410:3430   */\n      tag_72\n      jump\t// in\n    tag_119:\n        /* \"#utility.yul\":3405:3430   */\n      swap3\n      pop\n        /* \"#utility.yul\":3454:3455   */\n      dup3\n        /* \"#utility.yul\":3451:3452   */\n      dup3\n        /* \"#utility.yul\":3447:3456   */\n      sub\n        /* \"#utility.yul\":3439:3456   */\n      swap1\n      pop\n        /* \"#utility.yul\":3478:3479   */\n      dup2\n        /* \"#utility.yul\":3472:3476   */\n      dup2\n        /* \"#utility.yul\":3469:3480   */\n      gt\n        /* \"#utility.yul\":3466:3503   */\n      iszero\n      tag_120\n      jumpi\n        /* \"#utility.yul\":3483:3501   */\n      tag_121\n      tag_76\n      jump\t// in\n    tag_121:\n        /* \"#utility.yul\":3466:3503   */\n    tag_120:\n        /* \"#utility.yul\":3316:3510   */\n      swap3\n      swap2\n      pop\n      pop\n      jump\t// out\n        /* \"#utility.yul\":3516:3696   */\n    tag_42:\n        /* \"#utility.yul\":3564:3641   */\n      0x4e487b7100000000000000000000000000000000000000000000000000000000\n        /* \"#utility.yul\":3561:3562   */\n      0x00\n        /* \"#utility.yul\":3554:3642   */\n      mstore\n        /* \"#utility.yul\":3661:3665   */\n      0x32\n        /* \"#utility.yul\":3658:3659   */\n      0x04\n        /* \"#utility.yul\":3651:3666   */\n      mstore\n        /* \"#utility.yul\":3685:3689   */\n      0x24\n        /* \"#utility.yul\":3682:3683   */\n      0x00\n        /* \"#utility.yul\":3675:3690   */\n      revert\n        /* \"#utility.yul\":3702:3893   */\n    tag_45:\n        /* \"#utility.yul\":3742:3745   */\n      0x00\n        /* \"#utility.yul\":3761:3781   */\n      tag_124\n        /* \"#utility.yul\":3779:3780   */\n      dup3\n        /* \"#utility.yul\":3761:3781   */\n      tag_72\n      jump\t// in\n    tag_124:\n        /* \"#utility.yul\":3756:3781   */\n      swap2\n      pop\n        /* \"#utility.yul\":3795:3815   */\n      tag_125\n        /* \"#utility.yul\":3813:3814   */\n      dup4\n        /* \"#utility.yul\":3795:3815   */\n      tag_72\n      jump\t// in\n    tag_125:\n        /* \"#utility.yul\":3790:3815   */\n      swap3\n      pop\n        /* \"#utility.yul\":3838:3839   */\n      dup3\n        /* \"#utility.yul\":3835:3836   */\n      dup3\n        /* \"#utility.yul\":3831:3840   */\n      add\n        /* \"#utility.yul\":3824:3840   */\n      swap1\n      pop\n        /* \"#utility.yul\":3859:3862   */\n      dup1\n        /* \"#utility.yul\":3856:3857   */\n      dup3\n        /* \"#utility.yul\":3853:3863   */\n      gt\n        /* \"#utility.yul\":3850:3886   */\n      iszero\n      tag_126\n      jumpi\n        /* \"#utility.yul\":3866:3884   */\n      tag_127\n      tag_76\n      jump\t// in\n    tag_127:\n        /* \"#utility.yul\":3850:3886   */\n    tag_126:\n        /* \"#utility.yul\":3702:3893   */\n      swap3\n      swap2\n      pop\n      pop\n      jump\t// out\n        /* \"#utility.yul\":3899:4132   */\n    tag_50:\n        /* \"#utility.yul\":3938:3941   */\n      0x00\n        /* \"#utility.yul\":3961:3985   */\n      tag_129\n        /* \"#utility.yul\":3979:3984   */\n      dup3\n        /* \"#utility.yul\":3961:3985   */\n      tag_72\n      jump\t// in\n    tag_129:\n        /* \"#utility.yul\":3952:3985   */\n      swap2\n      pop\n        /* \"#utility.yul\":4007:4073   */\n      0xffffffffffffffffffffffffffffffffffffffffffffffffffffffffffffffff\n        /* \"#utility.yul\":4000:4005   */\n      dup3\n        /* \"#utility.yul\":3997:4074   */\n      sub\n        /* \"#utility.yul\":3994:4097   */\n      tag_130\n      jumpi\n        /* \"#utility.yul\":4077:4095   */\n      tag_131\n      tag_76\n      jump\t// in\n    tag_131:\n        /* \"#utility.yul\":3994:4097   */\n    tag_130:\n        /* \"#utility.yul\":4124:4125   */\n      0x01\n        /* \"#utility.yul\":4117:4122   */\n      dup3\n        /* \"#utility.yul\":4113:4126   */\n      add\n        /* \"#utility.yul\":4106:4126   */\n      swap1\n      pop\n        /* \"#utility.yul\":3899:4132   */\n      swap2\n      swap1\n      pop\n      jump\t// out\n        /* \"#utility.yul\":4138:4470   */\n    tag_52:\n        /* \"#utility.yul\":4259:4263   */\n      0x00\n        /* \"#utility.yul\":4297:4299   */\n      0x40\n        /* \"#utility.yul\":4286:4295   */\n      dup3\n        /* \"#utility.yul\":4282:4300   */\n      add\n        /* \"#utility.yul\":4274:4300   */\n      swap1\n      pop\n        /* \"#utility.yul\":4310:4381   */\n      tag_133\n        /* \"#utility.yul\":4378:4379   */\n      0x00\n        /* \"#utility.yul\":4367:4376   */\n      dup4\n        /* \"#utility.yul\":4363:4380   */\n      add\n        /* \"#utility.yul\":4354:4360   */\n      dup6\n        /* \"#utility.yul\":4310:4381   */\n      tag_71\n      jump\t// in\n    tag_133:\n        /* \"#utility.yul\":4391:4463   */\n      tag_134\n        /* \"#utility.yul\":4459:4461   */\n      0x20\n        /* \"#utility.yul\":4448:4457   */\n      dup4\n        /* \"#utility.yul\":4444:4462   */\n      add\n        /* \"#utility.yul\":4435:4441   */\n      dup5\n        /* \"#utility.yul\":4391:4463   */\n      tag_73\n      jump\t// in\n    tag_134:\n        /* \"#utility.yul\":4138:4470   */\n      swap4\n      swap3\n      pop\n      pop\n      pop\n      jump\t// out\n\n    auxdata: 0xa2646970667358221220006fc71fc3a5aba86f52096b7dce68d2a23f93069536d50106fbdabfb19d78a064736f6c63430008100033\n}\n",
				"bytecode": {
					"linkReferences": {},
					"object": "608060405234801561001057600080fd5b506040516109eb3803806109eb833981810160405281019061003291906100db565b806000806101000a81548173ffffffffffffffffffffffffffffffffffffffff021916908373ffffffffffffffffffffffffffffffffffffffff16021790555050610108565b600080fd5b600073ffffffffffffffffffffffffffffffffffffffff82169050919050565b60006100a88261007d565b9050919050565b6100b88161009d565b81146100c357600080fd5b50565b6000815190506100d5816100af565b92915050565b6000602082840312156100f1576100f0610078565b5b60006100ff848285016100c6565b91505092915050565b6108d4806101176000396000f3fe6080604052600436106100555760003560e01c80631eb5ea2e1461005a57806327e235e3146100645780635eed3dcb146100a457806369bc2f1e146100e15780638d68cf591461010c578063ed88c68e14610123575b600080fd5b61006261012d565b005b34801561007057600080fd5b5061008b6004803603810190610086919061063e565b6102f2565b60405161009b9493929190610693565b60405180910390f35b3480156100b057600080fd5b506100cb60048036038101906100c69190610704565b610342565b6040516100d89190610731565b60405180910390f35b3480156100ed57600080fd5b506100f6610381565b604051610103919061074c565b60405180910390f35b34801561011857600080fd5b5061012161038e565b005b61012b610439565b005b60005b60016003805490506101429190610796565b8110156102b657600260003373ffffffffffffffffffffffffffffffffffffffff1673ffffffffffffffffffffffffffffffffffffffff1681526020019081526020016000206001015460026000600384815481106101a4576101a36107ca565b5b9060005260206000200160009054906101000a900473ffffffffffffffffffffffffffffffffffffffff1673ffffffffffffffffffffffffffffffffffffffff1673ffffffffffffffffffffffffffffffffffffffff168152602001908152602001600020600201600082825461021b91906107f9565b925050819055506000600260006003848154811061023c5761023b6107ca565b5b9060005260206000200160009054906101000a900473ffffffffffffffffffffffffffffffffffffffff1673ffffffffffffffffffffffffffffffffffffffff1673ffffffffffffffffffffffffffffffffffffffff168152602001908152602001600020505080806102ae9061082d565b915050610130565b507fe0e5873eb9d996d2ab087b071a9a50522121c02b43308c8728c06739f52b3f8733346040516102e8929190610875565b60405180910390a1565b60026020528060005260406000206000915090508060000160009054906101000a900473ffffffffffffffffffffffffffffffffffffffff16908060010154908060020154908060030154905084565b6003818154811061035257600080fd5b906000526020600020016000915054906101000a900473ffffffffffffffffffffffffffffffffffffffff1681565b6000600380549050905090565b60008054906101000a900473ffffffffffffffffffffffffffffffffffffffff1673ffffffffffffffffffffffffffffffffffffffff166108fc600260003373ffffffffffffffffffffffffffffffffffffffff1673ffffffffffffffffffffffffffffffffffffffff168152602001908152602001600020600101549081150290604051600060405180830381858888f19350505050158015610436573d6000803e3d6000fd5b50565b34600260003373ffffffffffffffffffffffffffffffffffffffff1673ffffffffffffffffffffffffffffffffffffffff168152602001908152602001600020600101600082825461048b91906107f9565b92505081905550600160008154809291906104a59061082d565b91905055600260003373ffffffffffffffffffffffffffffffffffffffff1673ffffffffffffffffffffffffffffffffffffffff16815260200190815260200160002060030181905550600260003373ffffffffffffffffffffffffffffffffffffffff1673ffffffffffffffffffffffffffffffffffffffff16815260200190815260200160002060000160009054906101000a9050506003339080600181540180825580915050600190039060005260206000200160009091909190916101000a81548173ffffffffffffffffffffffffffffffffffffffff021916908373ffffffffffffffffffffffffffffffffffffffff1602179055507f81d2c188629cc4a1c694d285150cb5fa3dde3157a2684460d3ac7a1e331f616433346040516105d1929190610875565b60405180910390a1565b600080fd5b600073ffffffffffffffffffffffffffffffffffffffff82169050919050565b600061060b826105e0565b9050919050565b61061b81610600565b811461062657600080fd5b50565b60008135905061063881610612565b92915050565b600060208284031215610654576106536105db565b5b600061066284828501610629565b91505092915050565b61067481610600565b82525050565b6000819050919050565b61068d8161067a565b82525050565b60006080820190506106a8600083018761066b565b6106b56020830186610684565b6106c26040830185610684565b6106cf6060830184610684565b95945050505050565b6106e18161067a565b81146106ec57600080fd5b50565b6000813590506106fe816106d8565b92915050565b60006020828403121561071a576107196105db565b5b6000610728848285016106ef565b91505092915050565b6000602082019050610746600083018461066b565b92915050565b60006020820190506107616000830184610684565b92915050565b7f4e487b7100000000000000000000000000000000000000000000000000000000600052601160045260246000fd5b60006107a18261067a565b91506107ac8361067a565b92508282039050818111156107c4576107c3610767565b5b92915050565b7f4e487b7100000000000000000000000000000000000000000000000000000000600052603260045260246000fd5b60006108048261067a565b915061080f8361067a565b925082820190508082111561082757610826610767565b5b92915050565b60006108388261067a565b91507fffffffffffffffffffffffffffffffffffffffffffffffffffffffffffffffff820361086a57610869610767565b5b600182019050919050565b600060408201905061088a600083018561066b565b6108976020830184610684565b939250505056fea2646970667358221220006fc71fc3a5aba86f52096b7dce68d2a23f93069536d50106fbdabfb19d78a064736f6c63430008100033",
					"opcodes": "PUSH1 0x80 PUSH1 0x40 MSTORE CALLVALUE DUP1 ISZERO PUSH2 0x10 JUMPI PUSH1 0x0 DUP1 REVERT JUMPDEST POP PUSH1 0x40 MLOAD PUSH2 0x9EB CODESIZE SUB DUP1 PUSH2 0x9EB DUP4 CODECOPY DUP2 DUP2 ADD PUSH1 0x40 MSTORE DUP2 ADD SWAP1 PUSH2 0x32 SWAP2 SWAP1 PUSH2 0xDB JUMP JUMPDEST DUP1 PUSH1 0x0 DUP1 PUSH2 0x100 EXP DUP2 SLOAD DUP2 PUSH20 0xFFFFFFFFFFFFFFFFFFFFFFFFFFFFFFFFFFFFFFFF MUL NOT AND SWAP1 DUP4 PUSH20 0xFFFFFFFFFFFFFFFFFFFFFFFFFFFFFFFFFFFFFFFF AND MUL OR SWAP1 SSTORE POP POP PUSH2 0x108 JUMP JUMPDEST PUSH1 0x0 DUP1 REVERT JUMPDEST PUSH1 0x0 PUSH20 0xFFFFFFFFFFFFFFFFFFFFFFFFFFFFFFFFFFFFFFFF DUP3 AND SWAP1 POP SWAP2 SWAP1 POP JUMP JUMPDEST PUSH1 0x0 PUSH2 0xA8 DUP3 PUSH2 0x7D JUMP JUMPDEST SWAP1 POP SWAP2 SWAP1 POP JUMP JUMPDEST PUSH2 0xB8 DUP2 PUSH2 0x9D JUMP JUMPDEST DUP2 EQ PUSH2 0xC3 JUMPI PUSH1 0x0 DUP1 REVERT JUMPDEST POP JUMP JUMPDEST PUSH1 0x0 DUP2 MLOAD SWAP1 POP PUSH2 0xD5 DUP2 PUSH2 0xAF JUMP JUMPDEST SWAP3 SWAP2 POP POP JUMP JUMPDEST PUSH1 0x0 PUSH1 0x20 DUP3 DUP5 SUB SLT ISZERO PUSH2 0xF1 JUMPI PUSH2 0xF0 PUSH2 0x78 JUMP JUMPDEST JUMPDEST PUSH1 0x0 PUSH2 0xFF DUP5 DUP3 DUP6 ADD PUSH2 0xC6 JUMP JUMPDEST SWAP2 POP POP SWAP3 SWAP2 POP POP JUMP JUMPDEST PUSH2 0x8D4 DUP1 PUSH2 0x117 PUSH1 0x0 CODECOPY PUSH1 0x0 RETURN INVALID PUSH1 0x80 PUSH1 0x40 MSTORE PUSH1 0x4 CALLDATASIZE LT PUSH2 0x55 JUMPI PUSH1 0x0 CALLDATALOAD PUSH1 0xE0 SHR DUP1 PUSH4 0x1EB5EA2E EQ PUSH2 0x5A JUMPI DUP1 PUSH4 0x27E235E3 EQ PUSH2 0x64 JUMPI DUP1 PUSH4 0x5EED3DCB EQ PUSH2 0xA4 JUMPI DUP1 PUSH4 0x69BC2F1E EQ PUSH2 0xE1 JUMPI DUP1 PUSH4 0x8D68CF59 EQ PUSH2 0x10C JUMPI DUP1 PUSH4 0xED88C68E EQ PUSH2 0x123 JUMPI JUMPDEST PUSH1 0x0 DUP1 REVERT JUMPDEST PUSH2 0x62 PUSH2 0x12D JUMP JUMPDEST STOP JUMPDEST CALLVALUE DUP1 ISZERO PUSH2 0x70 JUMPI PUSH1 0x0 DUP1 REVERT JUMPDEST POP PUSH2 0x8B PUSH1 0x4 DUP1 CALLDATASIZE SUB DUP2 ADD SWAP1 PUSH2 0x86 SWAP2 SWAP1 PUSH2 0x63E JUMP JUMPDEST PUSH2 0x2F2 JUMP JUMPDEST PUSH1 0x40 MLOAD PUSH2 0x9B SWAP5 SWAP4 SWAP3 SWAP2 SWAP1 PUSH2 0x693 JUMP JUMPDEST PUSH1 0x40 MLOAD DUP1 SWAP2 SUB SWAP1 RETURN JUMPDEST CALLVALUE DUP1 ISZERO PUSH2 0xB0 JUMPI PUSH1 0x0 DUP1 REVERT JUMPDEST POP PUSH2 0xCB PUSH1 0x4 DUP1 CALLDATASIZE SUB DUP2 ADD SWAP1 PUSH2 0xC6 SWAP2 SWAP1 PUSH2 0x704 JUMP JUMPDEST PUSH2 0x342 JUMP JUMPDEST PUSH1 0x40 MLOAD PUSH2 0xD8 SWAP2 SWAP1 PUSH2 0x731 JUMP JUMPDEST PUSH1 0x40 MLOAD DUP1 SWAP2 SUB SWAP1 RETURN JUMPDEST CALLVALUE DUP1 ISZERO PUSH2 0xED JUMPI PUSH1 0x0 DUP1 REVERT JUMPDEST POP PUSH2 0xF6 PUSH2 0x381 JUMP JUMPDEST PUSH1 0x40 MLOAD PUSH2 0x103 SWAP2 SWAP1 PUSH2 0x74C JUMP JUMPDEST PUSH1 0x40 MLOAD DUP1 SWAP2 SUB SWAP1 RETURN JUMPDEST CALLVALUE DUP1 ISZERO PUSH2 0x118 JUMPI PUSH1 0x0 DUP1 REVERT JUMPDEST POP PUSH2 0x121 PUSH2 0x38E JUMP JUMPDEST STOP JUMPDEST PUSH2 0x12B PUSH2 0x439 JUMP JUMPDEST STOP JUMPDEST PUSH1 0x0 JUMPDEST PUSH1 0x1 PUSH1 0x3 DUP1 SLOAD SWAP1 POP PUSH2 0x142 SWAP2 SWAP1 PUSH2 0x796 JUMP JUMPDEST DUP2 LT ISZERO PUSH2 0x2B6 JUMPI PUSH1 0x2 PUSH1 0x0 CALLER PUSH20 0xFFFFFFFFFFFFFFFFFFFFFFFFFFFFFFFFFFFFFFFF AND PUSH20 0xFFFFFFFFFFFFFFFFFFFFFFFFFFFFFFFFFFFFFFFF AND DUP2 MSTORE PUSH1 0x20 ADD SWAP1 DUP2 MSTORE PUSH1 0x20 ADD PUSH1 0x0 KECCAK256 PUSH1 0x1 ADD SLOAD PUSH1 0x2 PUSH1 0x0 PUSH1 0x3 DUP5 DUP2 SLOAD DUP2 LT PUSH2 0x1A4 JUMPI PUSH2 0x1A3 PUSH2 0x7CA JUMP JUMPDEST JUMPDEST SWAP1 PUSH1 0x0 MSTORE PUSH1 0x20 PUSH1 0x0 KECCAK256 ADD PUSH1 0x0 SWAP1 SLOAD SWAP1 PUSH2 0x100 EXP SWAP1 DIV PUSH20 0xFFFFFFFFFFFFFFFFFFFFFFFFFFFFFFFFFFFFFFFF AND PUSH20 0xFFFFFFFFFFFFFFFFFFFFFFFFFFFFFFFFFFFFFFFF AND PUSH20 0xFFFFFFFFFFFFFFFFFFFFFFFFFFFFFFFFFFFFFFFF AND DUP2 MSTORE PUSH1 0x20 ADD SWAP1 DUP2 MSTORE PUSH1 0x20 ADD PUSH1 0x0 KECCAK256 PUSH1 0x2 ADD PUSH1 0x0 DUP3 DUP3 SLOAD PUSH2 0x21B SWAP2 SWAP1 PUSH2 0x7F9 JUMP JUMPDEST SWAP3 POP POP DUP2 SWAP1 SSTORE POP PUSH1 0x0 PUSH1 0x2 PUSH1 0x0 PUSH1 0x3 DUP5 DUP2 SLOAD DUP2 LT PUSH2 0x23C JUMPI PUSH2 0x23B PUSH2 0x7CA JUMP JUMPDEST JUMPDEST SWAP1 PUSH1 0x0 MSTORE PUSH1 0x20 PUSH1 0x0 KECCAK256 ADD PUSH1 0x0 SWAP1 SLOAD SWAP1 PUSH2 0x100 EXP SWAP1 DIV PUSH20 0xFFFFFFFFFFFFFFFFFFFFFFFFFFFFFFFFFFFFFFFF AND PUSH20 0xFFFFFFFFFFFFFFFFFFFFFFFFFFFFFFFFFFFFFFFF AND PUSH20 0xFFFFFFFFFFFFFFFFFFFFFFFFFFFFFFFFFFFFFFFF AND DUP2 MSTORE PUSH1 0x20 ADD SWAP1 DUP2 MSTORE PUSH1 0x20 ADD PUSH1 0x0 KECCAK256 POP POP DUP1 DUP1 PUSH2 0x2AE SWAP1 PUSH2 0x82D JUMP JUMPDEST SWAP2 POP POP PUSH2 0x130 JUMP JUMPDEST POP PUSH32 0xE0E5873EB9D996D2AB087B071A9A50522121C02B43308C8728C06739F52B3F87 CALLER CALLVALUE PUSH1 0x40 MLOAD PUSH2 0x2E8 SWAP3 SWAP2 SWAP1 PUSH2 0x875 JUMP JUMPDEST PUSH1 0x40 MLOAD DUP1 SWAP2 SUB SWAP1 LOG1 JUMP JUMPDEST PUSH1 0x2 PUSH1 0x20 MSTORE DUP1 PUSH1 0x0 MSTORE PUSH1 0x40 PUSH1 0x0 KECCAK256 PUSH1 0x0 SWAP2 POP SWAP1 POP DUP1 PUSH1 0x0 ADD PUSH1 0x0 SWAP1 SLOAD SWAP1 PUSH2 0x100 EXP SWAP1 DIV PUSH20 0xFFFFFFFFFFFFFFFFFFFFFFFFFFFFFFFFFFFFFFFF AND SWAP1 DUP1 PUSH1 0x1 ADD SLOAD SWAP1 DUP1 PUSH1 0x2 ADD SLOAD SWAP1 DUP1 PUSH1 0x3 ADD SLOAD SWAP1 POP DUP5 JUMP JUMPDEST PUSH1 0x3 DUP2 DUP2 SLOAD DUP2 LT PUSH2 0x352 JUMPI PUSH1 0x0 DUP1 REVERT JUMPDEST SWAP1 PUSH1 0x0 MSTORE PUSH1 0x20 PUSH1 0x0 KECCAK256 ADD PUSH1 0x0 SWAP2 POP SLOAD SWAP1 PUSH2 0x100 EXP SWAP1 DIV PUSH20 0xFFFFFFFFFFFFFFFFFFFFFFFFFFFFFFFFFFFFFFFF AND DUP2 JUMP JUMPDEST PUSH1 0x0 PUSH1 0x3 DUP1 SLOAD SWAP1 POP SWAP1 POP SWAP1 JUMP JUMPDEST PUSH1 0x0 DUP1 SLOAD SWAP1 PUSH2 0x100 EXP SWAP1 DIV PUSH20 0xFFFFFFFFFFFFFFFFFFFFFFFFFFFFFFFFFFFFFFFF AND PUSH20 0xFFFFFFFFFFFFFFFFFFFFFFFFFFFFFFFFFFFFFFFF AND PUSH2 0x8FC PUSH1 0x2 PUSH1 0x0 CALLER PUSH20 0xFFFFFFFFFFFFFFFFFFFFFFFFFFFFFFFFFFFFFFFF AND PUSH20 0xFFFFFFFFFFFFFFFFFFFFFFFFFFFFFFFFFFFFFFFF AND DUP2 MSTORE PUSH1 0x20 ADD SWAP1 DUP2 MSTORE PUSH1 0x20 ADD PUSH1 0x0 KECCAK256 PUSH1 0x1 ADD SLOAD SWAP1 DUP2 ISZERO MUL SWAP1 PUSH1 0x40 MLOAD PUSH1 0x0 PUSH1 0x40 MLOAD DUP1 DUP4 SUB DUP2 DUP6 DUP9 DUP9 CALL SWAP4 POP POP POP POP ISZERO DUP1 ISZERO PUSH2 0x436 JUMPI RETURNDATASIZE PUSH1 0x0 DUP1 RETURNDATACOPY RETURNDATASIZE PUSH1 0x0 REVERT JUMPDEST POP JUMP JUMPDEST CALLVALUE PUSH1 0x2 PUSH1 0x0 CALLER PUSH20 0xFFFFFFFFFFFFFFFFFFFFFFFFFFFFFFFFFFFFFFFF AND PUSH20 0xFFFFFFFFFFFFFFFFFFFFFFFFFFFFFFFFFFFFFFFF AND DUP2 MSTORE PUSH1 0x20 ADD SWAP1 DUP2 MSTORE PUSH1 0x20 ADD PUSH1 0x0 KECCAK256 PUSH1 0x1 ADD PUSH1 0x0 DUP3 DUP3 SLOAD PUSH2 0x48B SWAP2 SWAP1 PUSH2 0x7F9 JUMP JUMPDEST SWAP3 POP POP DUP2 SWAP1 SSTORE POP PUSH1 0x1 PUSH1 0x0 DUP2 SLOAD DUP1 SWAP3 SWAP2 SWAP1 PUSH2 0x4A5 SWAP1 PUSH2 0x82D JUMP JUMPDEST SWAP2 SWAP1 POP SSTORE PUSH1 0x2 PUSH1 0x0 CALLER PUSH20 0xFFFFFFFFFFFFFFFFFFFFFFFFFFFFFFFFFFFFFFFF AND PUSH20 0xFFFFFFFFFFFFFFFFFFFFFFFFFFFFFFFFFFFFFFFF AND DUP2 MSTORE PUSH1 0x20 ADD SWAP1 DUP2 MSTORE PUSH1 0x20 ADD PUSH1 0x0 KECCAK256 PUSH1 0x3 ADD DUP2 SWAP1 SSTORE POP PUSH1 0x2 PUSH1 0x0 CALLER PUSH20 0xFFFFFFFFFFFFFFFFFFFFFFFFFFFFFFFFFFFFFFFF AND PUSH20 0xFFFFFFFFFFFFFFFFFFFFFFFFFFFFFFFFFFFFFFFF AND DUP2 MSTORE PUSH1 0x20 ADD SWAP1 DUP2 MSTORE PUSH1 0x20 ADD PUSH1 0x0 KECCAK256 PUSH1 0x0 ADD PUSH1 0x0 SWAP1 SLOAD SWAP1 PUSH2 0x100 EXP SWAP1 POP POP PUSH1 0x3 CALLER SWAP1 DUP1 PUSH1 0x1 DUP2 SLOAD ADD DUP1 DUP3 SSTORE DUP1 SWAP2 POP POP PUSH1 0x1 SWAP1 SUB SWAP1 PUSH1 0x0 MSTORE PUSH1 0x20 PUSH1 0x0 KECCAK256 ADD PUSH1 0x0 SWAP1 SWAP2 SWAP1 SWAP2 SWAP1 SWAP2 PUSH2 0x100 EXP DUP2 SLOAD DUP2 PUSH20 0xFFFFFFFFFFFFFFFFFFFFFFFFFFFFFFFFFFFFFFFF MUL NOT AND SWAP1 DUP4 PUSH20 0xFFFFFFFFFFFFFFFFFFFFFFFFFFFFFFFFFFFFFFFF AND MUL OR SWAP1 SSTORE POP PUSH32 0x81D2C188629CC4A1C694D285150CB5FA3DDE3157A2684460D3AC7A1E331F6164 CALLER CALLVALUE PUSH1 0x40 MLOAD PUSH2 0x5D1 SWAP3 SWAP2 SWAP1 PUSH2 0x875 JUMP JUMPDEST PUSH1 0x40 MLOAD DUP1 SWAP2 SUB SWAP1 LOG1 JUMP JUMPDEST PUSH1 0x0 DUP1 REVERT JUMPDEST PUSH1 0x0 PUSH20 0xFFFFFFFFFFFFFFFFFFFFFFFFFFFFFFFFFFFFFFFF DUP3 AND SWAP1 POP SWAP2 SWAP1 POP JUMP JUMPDEST PUSH1 0x0 PUSH2 0x60B DUP3 PUSH2 0x5E0 JUMP JUMPDEST SWAP1 POP SWAP2 SWAP1 POP JUMP JUMPDEST PUSH2 0x61B DUP2 PUSH2 0x600 JUMP JUMPDEST DUP2 EQ PUSH2 0x626 JUMPI PUSH1 0x0 DUP1 REVERT JUMPDEST POP JUMP JUMPDEST PUSH1 0x0 DUP2 CALLDATALOAD SWAP1 POP PUSH2 0x638 DUP2 PUSH2 0x612 JUMP JUMPDEST SWAP3 SWAP2 POP POP JUMP JUMPDEST PUSH1 0x0 PUSH1 0x20 DUP3 DUP5 SUB SLT ISZERO PUSH2 0x654 JUMPI PUSH2 0x653 PUSH2 0x5DB JUMP JUMPDEST JUMPDEST PUSH1 0x0 PUSH2 0x662 DUP5 DUP3 DUP6 ADD PUSH2 0x629 JUMP JUMPDEST SWAP2 POP POP SWAP3 SWAP2 POP POP JUMP JUMPDEST PUSH2 0x674 DUP2 PUSH2 0x600 JUMP JUMPDEST DUP3 MSTORE POP POP JUMP JUMPDEST PUSH1 0x0 DUP2 SWAP1 POP SWAP2 SWAP1 POP JUMP JUMPDEST PUSH2 0x68D DUP2 PUSH2 0x67A JUMP JUMPDEST DUP3 MSTORE POP POP JUMP JUMPDEST PUSH1 0x0 PUSH1 0x80 DUP3 ADD SWAP1 POP PUSH2 0x6A8 PUSH1 0x0 DUP4 ADD DUP8 PUSH2 0x66B JUMP JUMPDEST PUSH2 0x6B5 PUSH1 0x20 DUP4 ADD DUP7 PUSH2 0x684 JUMP JUMPDEST PUSH2 0x6C2 PUSH1 0x40 DUP4 ADD DUP6 PUSH2 0x684 JUMP JUMPDEST PUSH2 0x6CF PUSH1 0x60 DUP4 ADD DUP5 PUSH2 0x684 JUMP JUMPDEST SWAP6 SWAP5 POP POP POP POP POP JUMP JUMPDEST PUSH2 0x6E1 DUP2 PUSH2 0x67A JUMP JUMPDEST DUP2 EQ PUSH2 0x6EC JUMPI PUSH1 0x0 DUP1 REVERT JUMPDEST POP JUMP JUMPDEST PUSH1 0x0 DUP2 CALLDATALOAD SWAP1 POP PUSH2 0x6FE DUP2 PUSH2 0x6D8 JUMP JUMPDEST SWAP3 SWAP2 POP POP JUMP JUMPDEST PUSH1 0x0 PUSH1 0x20 DUP3 DUP5 SUB SLT ISZERO PUSH2 0x71A JUMPI PUSH2 0x719 PUSH2 0x5DB JUMP JUMPDEST JUMPDEST PUSH1 0x0 PUSH2 0x728 DUP5 DUP3 DUP6 ADD PUSH2 0x6EF JUMP JUMPDEST SWAP2 POP POP SWAP3 SWAP2 POP POP JUMP JUMPDEST PUSH1 0x0 PUSH1 0x20 DUP3 ADD SWAP1 POP PUSH2 0x746 PUSH1 0x0 DUP4 ADD DUP5 PUSH2 0x66B JUMP JUMPDEST SWAP3 SWAP2 POP POP JUMP JUMPDEST PUSH1 0x0 PUSH1 0x20 DUP3 ADD SWAP1 POP PUSH2 0x761 PUSH1 0x0 DUP4 ADD DUP5 PUSH2 0x684 JUMP JUMPDEST SWAP3 SWAP2 POP POP JUMP JUMPDEST PUSH32 0x4E487B7100000000000000000000000000000000000000000000000000000000 PUSH1 0x0 MSTORE PUSH1 0x11 PUSH1 0x4 MSTORE PUSH1 0x24 PUSH1 0x0 REVERT JUMPDEST PUSH1 0x0 PUSH2 0x7A1 DUP3 PUSH2 0x67A JUMP JUMPDEST SWAP2 POP PUSH2 0x7AC DUP4 PUSH2 0x67A JUMP JUMPDEST SWAP3 POP DUP3 DUP3 SUB SWAP1 POP DUP2 DUP2 GT ISZERO PUSH2 0x7C4 JUMPI PUSH2 0x7C3 PUSH2 0x767 JUMP JUMPDEST JUMPDEST SWAP3 SWAP2 POP POP JUMP JUMPDEST PUSH32 0x4E487B7100000000000000000000000000000000000000000000000000000000 PUSH1 0x0 MSTORE PUSH1 0x32 PUSH1 0x4 MSTORE PUSH1 0x24 PUSH1 0x0 REVERT JUMPDEST PUSH1 0x0 PUSH2 0x804 DUP3 PUSH2 0x67A JUMP JUMPDEST SWAP2 POP PUSH2 0x80F DUP4 PUSH2 0x67A JUMP JUMPDEST SWAP3 POP DUP3 DUP3 ADD SWAP1 POP DUP1 DUP3 GT ISZERO PUSH2 0x827 JUMPI PUSH2 0x826 PUSH2 0x767 JUMP JUMPDEST JUMPDEST SWAP3 SWAP2 POP POP JUMP JUMPDEST PUSH1 0x0 PUSH2 0x838 DUP3 PUSH2 0x67A JUMP JUMPDEST SWAP2 POP PUSH32 0xFFFFFFFFFFFFFFFFFFFFFFFFFFFFFFFFFFFFFFFFFFFFFFFFFFFFFFFFFFFFFFFF DUP3 SUB PUSH2 0x86A JUMPI PUSH2 0x869 PUSH2 0x767 JUMP JUMPDEST JUMPDEST PUSH1 0x1 DUP3 ADD SWAP1 POP SWAP2 SWAP1 POP JUMP JUMPDEST PUSH1 0x0 PUSH1 0x40 DUP3 ADD SWAP1 POP PUSH2 0x88A PUSH1 0x0 DUP4 ADD DUP6 PUSH2 0x66B JUMP JUMPDEST PUSH2 0x897 PUSH1 0x20 DUP4 ADD DUP5 PUSH2 0x684 JUMP JUMPDEST SWAP4 SWAP3 POP POP POP JUMP INVALID LOG2 PUSH5 0x6970667358 0x22 SLT KECCAK256 STOP PUSH16 0xC71FC3A5ABA86F52096B7DCE68D2A23F SWAP4 MOD SWAP6 CALLDATASIZE 0xD5 ADD MOD 0xFB 0xDA 0xBF 0xB1 SWAP14 PUSH25 0xA064736F6C6343000810003300000000000000000000000000 "
				},
				"gasEstimates": {
					"creation": {
						"codeDepositCost": "452000",
						"executionCost": "infinite",
						"totalCost": "infinite"
					},
					"external": {
						"balances(address)": "infinite",
						"donate()": "infinite",
						"donorList(uint256)": "4978",
						"getDonorCount()": "2489",
						"returnFunds()": "infinite",
						"sendFunds()": "infinite"
					}
				},
				"methodIdentifiers": {
					"balances(address)": "27e235e3",
					"donate()": "ed88c68e",
					"donorList(uint256)": "5eed3dcb",
					"getDonorCount()": "69bc2f1e",
					"returnFunds()": "1eb5ea2e",
					"sendFunds()": "8d68cf59"
				}
			},
			"storageLayout": {
				"storage": [
					{
						"astId": 3,
						"contract": "contracts/senior project.sol:MyContract",
						"label": "wallet",
						"offset": 0,
						"slot": "0",
						"type": "t_address_payable"
					},
					{
						"astId": 5,
						"contract": "contracts/senior project.sol:MyContract",
						"label": "Dcounter",
						"offset": 0,
						"slot": "1",
						"type": "t_uint256"
					},
					{
						"astId": 29,
						"contract": "contracts/senior project.sol:MyContract",
						"label": "balances",
						"offset": 0,
						"slot": "2",
						"type": "t_mapping(t_address,t_struct(donor)24_storage)"
					},
					{
						"astId": 32,
						"contract": "contracts/senior project.sol:MyContract",
						"label": "donorList",
						"offset": 0,
						"slot": "3",
						"type": "t_array(t_address)dyn_storage"
					}
				],
				"types": {
					"t_address": {
						"encoding": "inplace",
						"label": "address",
						"numberOfBytes": "20"
					},
					"t_address_payable": {
						"encoding": "inplace",
						"label": "address payable",
						"numberOfBytes": "20"
					},
					"t_array(t_address)dyn_storage": {
						"base": "t_address",
						"encoding": "dynamic_array",
						"label": "address[]",
						"numberOfBytes": "32"
					},
					"t_mapping(t_address,t_struct(donor)24_storage)": {
						"encoding": "mapping",
						"key": "t_address",
						"label": "mapping(address => struct MyContract.donor)",
						"numberOfBytes": "32",
						"value": "t_struct(donor)24_storage"
					},
					"t_struct(donor)24_storage": {
						"encoding": "inplace",
						"label": "struct MyContract.donor",
						"members": [
							{
								"astId": 17,
								"contract": "contracts/senior project.sol:MyContract",
								"label": "donorAddress",
								"offset": 0,
								"slot": "0",
								"type": "t_address"
							},
							{
								"astId": 19,
								"contract": "contracts/senior project.sol:MyContract",
								"label": "totalDono",
								"offset": 0,
								"slot": "1",
								"type": "t_uint256"
							},
							{
								"astId": 21,
								"contract": "contracts/senior project.sol:MyContract",
								"label": "returnedDono",
								"offset": 0,
								"slot": "2",
								"type": "t_uint256"
							},
							{
								"astId": 23,
								"contract": "contracts/senior project.sol:MyContract",
								"label": "donorListPointer",
								"offset": 0,
								"slot": "3",
								"type": "t_uint256"
							}
						],
						"numberOfBytes": "128"
					},
					"t_uint256": {
						"encoding": "inplace",
						"label": "uint256",
						"numberOfBytes": "32"
					}
				}
			},
			"userdoc": {
				"kind": "user",
				"methods": {},
				"version": 1
			}
		}
	}
}